:020000040800F2
:10000000B8100020D9000008A5450008CD3F000821
:1000100000000000000000000000000000000000E0
:10002000000000000000000000000000DB460008A7
:100030000000000000000000C94600082947000831
:10004000EB000008EB000008EB000008EB000008E4
:10005000EB000008EB000008EB000008EB000008D4
:1000600000000000F9090008090A0008E909000871
:10007000EB000008EB000008EB000008EB000008B4
:10008000EB000008EB000008EB000008A94700089F
:10009000000000001948000881480008EB00000833
:1000A000EB000008EB000008EB0000084D540008CE
:1000B0005D540008EB000008000000000000000094
:1000C0000448854600F0A2F800480047BD550008E6
:1000D000C046C046B8100020044880470448004786
:1000E000FEE7FEE7FEE7FEE7FEE7FEE7A7470008BC
:1000F000C100000830B50B46014600202022012433
:1001000009E00D46D5409D4205D31D469540491B4B
:100110002546954040191546521E002DF1DC30BD94
:10012000F0B51FB40646002082B005464024019178
:1001300000901BE0019922460F46304600F054F82B
:10014000049A059B801A994110D3104619462246FD
:1001500000F03AF8361A8F4101972246012000211B
:10016000009F00F031F838184D4100902046641E81
:100170000028DFDC019B00982946324607B0F0BD1D
:1001800003460B439B0703D009E008C9121F08C0B0
:10019000042AFAD203E00B780370401C491C521E5B
:1001A000F9D27047D2B201E00270401C491EFBD266
:1001B00070470022F6E710B513460A460446194672
:1001C000FFF7F0FF204610BD10B5202A04DB0146E2
:1001D000203A9140002010BD914020239C1A0346F4
:1001E000E3401943904010BD10B5202A04DB0846B7
:1001F000203AD040002110BD0B46D340D0402024EF
:10020000A21A91400843194610BD0000064C012572
:10021000064E05E0E36807CC2B430C3C98471034AE
:10022000B442F7D3FFF750FF7859000898590008F7
:100230000A4801880A480A0A02704170817B81706D
:10024000C17BC170017C0171417C4171817C8171F4
:10025000C17CC171017D0172704700001A0000204D
:10026000EC0000200149886070470000B8000020C1
:1002700010B5074C1F20214604F09EFA21463F206E
:1002800004F0D2FA21463F2004F002FB10BD00002A
:10029000E70300000149486070470000B8000020F3
:1002A0000149086070470000B80000200549002897
:1002B00003D0012803D000207047C86800E0086A16
:1002C00080B27047980B002070B50025194C0B4682
:1002D0002E46002802D0012815D028E0E06800282A
:1002E00025D0E068904201D9154601E0E06885B26A
:1002F000A1682A461846FFF743FFE168A068FFF7A8
:1003000058FFE66013E0206A002810D0206A90426F
:1003100001D9154601E0206A85B2E1692A461846EE
:10032000FFF72EFF216AE069FFF743FF26622846A8
:1003300070BD0000980B002010B5002805D00128E2
:1003400002D1084604F032FC10BD084604F052FB0E
:1003500010BD0000F7B57D260025F600164C1746A7
:10036000002802D001280ED024E0144803F046FAF9
:1003700033463A461148019903F053FC626805463A
:1003800021680F4814E0012205201103000702F044
:100390003FFB0A48903003F031FA084833463A46AA
:1003A0009030019903F03DFCA2690546616905485A
:1003B00004F0FAFD2846FEBD980B0020080100203D
:1003C0000038014000440040F8B507460A21FFF715
:1003D00091FE0C460A21FFF78DFE26460D4C08467D
:1003E00025461C3D642F08D32078A9784018C1B257
:1003F000502003F045FD207804E0215C502003F0FC
:100400003FFDA05DA9784018C1B2482003F038FD37
:10041000F8BD000054000020F8B54C4C0021A07B32
:1004200004F053F900264A4D0127002824D0A07B70
:10043000012104F04AF900281ED1012104F054F9E9
:100440006878002804D103F0DBFDAE70EE706F70A9
:10045000E07BFFF7B9FFE17B0022E88803F0DCFDD9
:10046000E17B0022288904F09FF80096227DA17B81
:10047000E07B2B8901F062FFA07B012104F025F9CC
:10048000002818D0A07B002104F01FF9002812D109
:10049000012104F029F9A878002804D103F0B0FD67
:1004A0006E70EE70AF70E07BFFF78EFF207D2A89C3
:1004B000E98800F04FF8A07B062104F006F9002837
:1004C0002AD0A07B002104F000F9002824D1A07BD1
:1004D000012104F0FAF800281ED1012104F004F9EA
:1004E000E878002804D103F08BFDAE706E70EF70D9
:1004F000E07BFFF769FF0022E17B104603F08CFDF3
:100500000022E17B104604F04FF80097227DA17B8A
:10051000E07B002301F012FFA07B062104F0D5F858
:10052000002811D1A07B002104F0CFF800280BD1C6
:10053000A07B012104F0C9F8002805D103F060FD7B
:100540000021084604F0D0F8F8BD0000EC000020BF
:100550002A000020F8B51546104A0E4607461188B5
:1005600000200F4C002903D02178491C21701080F5
:1005700021781F2900D1207001222178304603F014
:100580004BFD01222178284604F00EF82B46324616
:100590003946207800F096F8F8BD000020000020D1
:1005A0002A000020F8B5454B454C1E7800252288CE
:1005B0005B78012811D01A282BD01B2834D01C2896
:1005C0003DD01D2846D01E284FD0012961D00229D8
:1005D00069D003296BD0002117E038480A3007782A
:1005E000012950D00A38354E00780A36367846E070
:1005F000394651E0F8185FE0002AF9D15CE00329A0
:1006000044D0394601E0C01856E05A2003F038FCC7
:10061000F8BD2A480A304778012934D00A38274ED5
:1006200000780A3676782AE024480A30877801294B
:1006300029D00A38214E00780A36B6781FE01F48C4
:100640000A30C77801291ED00A381C4E00780A36B5
:10065000F67814E019480A300779012913D00A38CE
:10066000164E00780A36367909E014480A30C77900
:10067000012908D00A38114E00780A36F679301868
:100680000229BCD1B8E7002AB4D0B1E7002ABAD019
:10069000AEE7002A0DD104E05A2003F0F1FB2580DB
:1006A000F8BD1946B1E7002A03D13146ADE7002A6B
:1006B00001D00021F0E7F018C1B2A6E73800002011
:1006C00028000020FFB57D250446ED0081B01E46C0
:1006D00029461046FFF70EFD0A21FFF70BFD00919A
:1006E00029463046FFF706FD0A21FFF703FD0F46B6
:1006F00000263146029803F0E8FF00280BD10121C3
:10070000029803F0E2FF002805D10221029803F0CD
:10071000DCFF002806D00721029803F0D6FF00284E
:1007200000D101260721029803F0CFFF002812D044
:100730000021029803F0C9FF00280CD10121029882
:1007400003F0C3FF002806D10221029803F0BDFF89
:10075000002800D102260721029803F0B6FF0028E6
:1007600012D00021029803F0B0FF00280BD1012124
:10077000029803F0AAFF002805D10221029803F095
:10078000A4FF002800D003260721029803F09DFF54
:10079000002812D10021029803F097FF00280CD105
:1007A0000121029803F091FF002806D1022102984E
:1007B00003F08BFF002800D10026012C77D0894D53
:1007C000022C3DD0032C41D0042C48D0052C4CD019
:1007D000062C50D0072C54D0082C58D0092C5CD0B3
:1007E0000A2C65D00B2C69D00C2C6DD00D2C7CD034
:1007F0000E2C70D00F2C6FD0102C6ED0112C6DD011
:10080000122C6CD0132C6BD0142C6AD0152C69D000
:10081000162C68D0172C67D0182C72D0192C71D0D8
:100820001A2C70D01B2C42D01C2C40D01D2C3ED03A
:100830001E2C3CD031460120FFF7B4FE05B0F0BDC0
:1008400031462046FFF7AEFE697804E03146204687
:10085000FFF7A8FEA978412003F012FBEEE731462E
:100860002046FFF79FFEE978F5E731462046FFF77F
:1008700099FE2979EFE731462046FFF793FE697923
:10088000E9E731462046FFF78DFEA979E3E73146D7
:100890002046FFF787FEE979DDE731462046FFF77E
:1008A00081FE0021412003F0EBFA297931E096E046
:1008B00031462046FFF776FEE9782AE031462046A9
:1008C000FFF770FEA97824E031462046FFF76AFE64
:1008D00069781EE009E00EE016E01CE025E02AE061
:1008E0002FE035E044E054E060E031462046FFF779
:1008F00059FE29780DE031462046FFF753FE69790D
:1009000007E059E05EE063E031462046FFF74AFE2B
:10091000A9793920A0E731462046FFF743FE0021A0
:10092000392003F0ADFA297910E031462046FFF76F
:1009300039FEE9780AE031462046FFF733FEA97810
:1009400004E031462046FFF72DFE6978312083E729
:1009500031462046FFF726FE0021312003F090FAB1
:100960002048E9790830C05D0818C1B2102073E74B
:1009700031462046FFF716FE1A4C10200834E15D80
:1009800003F07EFA0098E979205C0818C1B268206B
:1009900062E731462046FFF705FE1248009908300D
:1009A000415C682003F06CFA297916E03146204654
:1009B000FFF7F8FDE97810E031462046FFF7F2FD39
:1009C000A9780AE031462046FFF7ECFD697804E09B
:1009D00031462046FFF7E6FD002161203CE7314625
:1009E000204629E74200002010B5024801F05CFED5
:1009F00010BD00003C03002010B5024801F054FE79
:100A000010BD00008402002010B5044801F04CFE27
:100A10000248B83001F048FE10BD00002802002056
:100A200010B50446006C09498008800040186064D5
:100A3000207814210838FFF75DFB04498031A16458
:100A4000C106C90E01208840E06410BD00080240C4
:100A50000179084B8906890E8A00D2180265054A79
:100A60004432491E42658A07920F012191408165F7
:100A700070470000FC080240F0B5846CC56C6560EE
:100A8000046D002C02D0446D856D65600B4C65686B
:100A9000066C1C273E400127B7403D436560046853
:100AA00063608368102B036803D099600068C2609C
:100AB000F0BD9A600068C160F0BD00000000024017
:100AC00010B5074C0023611804E0C418E478CC5436
:100AD0005B1CDBB21446521ED2B2002CF5D110BD05
:100AE000EC00002030B5074C0023611804E0CC5C1A
:100AF000C5185B1CAC70DBB21446521ED2B2002C7F
:100B0000F5D130BDEC000020FFB5FF4883B001886F
:100B100000250D9E002904D0FC4A01211171058099
:100B200001E0FA4805710221049803F0CEFDF74C6C
:100B3000133400284DD00321049803F0C6FD00288B
:100B400047D10421049803F0C0FD002841D10521BC
:100B5000049803F0BAFD00283BD10321059803F067
:100B6000B4FD002835D10421059803F0AEFD00281E
:100B70002FD10521059803F0A8FD002829D10621D1
:100B8000059803F0A2FD002823D10721059803F062
:100B90009CFD00281DD10021059803F096FD00283A
:100BA00017D10121059803F090FD002811D10221F1
:100BB000059803F08AFD00280BD16178032002908C
:100BC0000195D248009101790C9B069A039803F095
:100BD00031FB0321049803F078FD00284DD0022159
:100BE000049803F072FD002847D10421049803F013
:100BF0006CFD002841D10521049803F066FD002812
:100C00003BD10321059803F060FD002835D1042174
:100C1000059803F05AFD00282FD10521059803F00F
:100C200054FD002829D10621059803F04EFD002827
:100C300023D10721059803F048FD00281DD100218C
:100C4000059803F042FD002817D10121059803F013
:100C50003CFD002811D10221059803F036FD002843
:100C60000BD1A178032002900195A8480091017949
:100C70000C9B069A039803F0DDFA0421049803F014
:100C800024FDA24F0E3700284DD00221049803F016
:100C90001CFD002847D10321049803F016FD00280D
:100CA00041D10521049803F010FD00283BD1032118
:100CB000059803F00AFD002835D10421059803F0BA
:100CC00004FD00282FD10521059803F0FEFC002823
:100CD00029D10621059803F0F8FC002823D107212B
:100CE000059803F0F2FC00281DD10021059803F0BF
:100CF000ECFC002817D10121059803F0E6FC002840
:100D000011D10221059803F0E0FC00280BD1F878FE
:100D100004210090019502917C480C9B0179069A70
:100D2000039803F087FA0521049803F0CEFC00280D
:100D30004DD00221049803F0C8FC002847D10321BC
:100D4000049803F0C2FC002841D10421049803F068
:100D5000BCFC00283BD10321059803F0B6FC002819
:100D600035D10421059803F0B0FC00282FD10521CE
:100D7000059803F0AAFC002829D10621059803F064
:100D8000A4FC002823D10721059803F09EFC00282D
:100D90001DD10021059803F098FC002817D10121EE
:100DA000059803F092FC002811D10221059803F068
:100DB0008CFC00280BD1E178032002900195534868
:100DC000009101790C9B069A039803F033FA0221F3
:100DD000049803F07AFC002850D00321049803F013
:100DE00074FC00284AD00421049803F06EFC00280B
:100DF00044D10521049803F068FC00283ED103216A
:100E0000059803F062FC002838D10421059803F00E
:100E10005CFC002832D10521059803F056FC00281F
:100E20002CD10621059803F050FC002826D107217B
:100E3000059803F04AFC002820D10021059803F012
:100E400044FC00281AD10121059803F03EFC00283B
:100E500014D10221059803F038FC00280ED16178E6
:100E6000A278032089180290C9B201952748009101
:100E700001790C9B069A039803F0DCF9022104988F
:100E800003F023FC002853D00421049803F01DFC38
:100E900000284DD00321049803F017FC002847D107
:100EA0000521049803F011FC002841D10321059885
:100EB00003F00BFC00283BD10421059803F005FC4E
:100EC000002835D10521059803F0FFFB00282FD11C
:100ED0000621059803F0F9FB002829D10721059880
:100EE00003F0F3FB002823D10021059803F0EDFB6C
:100EF00000281DD10121059803F0E7FB002817D138
:100F00000221059804E000001C0000202A000020B7
:100F100003F0DBFB00280BD160780822F9786B46E0
:100F200007C3FE480C9B0179069A039803F082F9E7
:100F30000221049803F0C9FB002850D00521049831
:100F400003F0C3FB00284AD00321049803F0BDFB43
:100F5000002844D10421049803F0B7FB00283ED1B7
:100F60000321059803F0B1FB002838D1042105982E
:100F700003F0ABFB002832D10521059803F0A5FB57
:100F800000282CD10621059803F09FFB002826D1CC
:100F90000721059803F099FB002820D1002105982E
:100FA00003F093FB00281AD10121059803F08DFB73
:100FB000002814D10221059803F087FB00280ED1E8
:100FC0006178E278032089180290C9B20195D3486C
:100FD000009101790C9B069A039803F02BF90321E9
:100FE000049803F072FB00284DD00421049803F00C
:100FF0006CFB002847D00221049803F066FB002810
:1010000041D10521049803F060FB00283BD1032166
:10101000059803F05AFB002835D10421059803F008
:1010200054FB00282FD10521059803F04EFB002822
:1010300029D10621059803F048FB002823D1072178
:10104000059803F042FB00281DD10021059803F00C
:101050003CFB002817D10121059803F036FB00283E
:1010600011D10221059803F030FB00280BD1A078A4
:101070000822F9786B4607C3A8480C9B0179069AA9
:10108000039803F0D7F80321049803F01EFB00280F
:1010900050D00521049803F018FB00284AD0022103
:1010A000049803F012FB002844D10421049803F0B3
:1010B0000CFB00283ED10321059803F006FB002815
:1010C00038D10421059803F000FB002832D1052116
:1010D000059803F0FAFA00282CD10621059803F0B0
:1010E000F4FA002826D10721059803F0EEFA00282B
:1010F00020D10021059803F0E8FA00281AD1012137
:10110000059803F0E2FA002814D10221059803F0B3
:10111000DCFA00280ED1A178E27803208918029029
:10112000C9B201957D48009101790C9B069A0398FC
:1011300003F080F80421049803F0C7FA00284DD08A
:101140000521049803F0C1FA002847D00221049831
:1011500003F0BBFA002841D10321049803F0B5FA4B
:1011600000283BD10321059803F0AFFA002835D1C0
:101170000421059803F0A9FA00282FD1052105982C
:1011800003F0A3FA002829D10621059803F09DFA5F
:10119000002823D10721059803F097FA00281DD1D4
:1011A0000021059803F091FA002817D10121059834
:1011B00003F08BFA002811D10221059803F085FA7B
:1011C00000280BD1E0780822F9786B4607C3534812
:1011D0000C9B0179069A039803F02CF802210498DD
:1011E00003F073FA002851D00321049803F06DFA3C
:1011F00000284BD00421049803F067FA002845D05A
:101200000521049803F061FA00283FD103210598D5
:1012100003F05BFA002839D10421059803F055FA50
:10122000002833D10521059803F04FFA00282DD16D
:101230000621059803F049FA002827D107210598CF
:1012400003F043FA002821D10021059803F03DFA6C
:1012500000281BD10121059803F037FA002815D189
:101260000221059803F031FA00280FD16278A378A3
:10127000F878D2180821D2B2019000920291274842
:101280000C9B0179069A039802F0D4FF022104987E
:1012900003F01BFA002855D00321049803F015FA37
:1012A00000284FD00421049803F00FFA002849D1F8
:1012B0000521049803F009FA002843D0032105987A
:1012C00003F003FA00283DD10421059803F0FDF94D
:1012D000002837D10521059803F0F7F9002831D10E
:1012E0000621059803F0F1F900282BD10721059874
:1012F00003F0EBF9002825D10021059803F0E5F96A
:1013000000281FD10121059803F0DFF9002819D129
:101310000221059803F0D9F9002801E02A000020F5
:1013200010D16178A27803208918E2780290891898
:10133000C9B20195F948009101790C9B069A03986E
:1013400002F078FF0221049803F0BFF9002851D081
:101350000321049803F0B9F900284BD10421049823
:1013600003F0B3F9002845D00521049803F0ADF946
:1013700000283FD00321059803F0A7F9002839D1B0
:101380000421059803F0A1F9002833D1052105981F
:1013900003F09BF900282DD10621059803F095F95B
:1013A000002827D10721059803F08FF9002821D1C3
:1013B0000021059803F089F900281BD10121059827
:1013C00003F083F9002815D10221059803F07DF977
:1013D00000280FD16278E378F978D2180820D2B2C9
:1013E000029000920191CD480C9B0179069A0398D6
:1013F00002F020FF0221049803F067F9002851D180
:101400000321049803F061F900284BD004210498CB
:1014100003F05BF9002845D00521049803F055F945
:1014200000283FD00321059803F04FF9002839D157
:101430000421059803F049F9002833D105210598C6
:1014400003F043F900282DD10621059803F03DF95A
:10145000002827D10721059803F037F9002821D16A
:101460000021059803F031F900281BD101210598CE
:1014700003F02BF9002815D10221059803F025F976
:1014800000280FD1A278E378F978D2180820D2B2D8
:10149000029000920191A1480C9B0179069A039851
:1014A00002F0C8FE0221049803F00FF9002853D07F
:1014B0000321049803F009F900284DD00421049871
:1014C00003F003F9002847D00521049803F0FDF844
:1014D000002841D00321059803F0F7F800283BD1FC
:1014E0000421059803F0F1F8002835D1052105986D
:1014F00003F0EBF800282FD10621059803F0E5F85A
:10150000002829D10721059803F0DFF8002823D10E
:101510000021059803F0D9F800281DD10121059874
:1015200003F0D3F8002817D10221059803F0CDF875
:10153000002811D16278A378F978D218E3780820CE
:10154000D218D2B202900092019174480C9B01799A
:10155000069A039802F06EFE0021059803F0B5F894
:1015600000280BD10121059803F0AFF8002805D120
:101570000221059803F0A9F800282DD0072105982D
:1015800003F0A3F8002827D16548008800280ED072
:10159000002E0ED1012002900195014600950C9B72
:1015A000069A039802F046FE5D48058014E0002E7E
:1015B00007D0012001950290009501460C9B069AE8
:1015C00007E0797801200195029000910C9B069A22
:1015D0000021039802F02EFE0321059803F075F810
:1015E000002856D00421059803F06FF8002850D148
:1015F0000521059803F069F800284AD106210598CD
:1016000003F063F8002844D10721059803F05DF842
:1016100000283ED10021059803F057F8002838D162
:101620000121059803F051F8002832D102210598D4
:1016300003F04BF800282CD13948008800280FD03F
:10164000002E0FD1607803210291019500900121B5
:101650000C9B069A039802F0EDFD3148058018E0D6
:10166000002E08D06178032001950091029001219D
:101670000C9B069A0AE02178627803208918C9B287
:101680000195029000910C9B069A0021039802F0AC
:10169000D1FD0421059803F018F800285BD0032140
:1016A000059803F012F8002855D10521059803F09C
:1016B0000CF800284FD10621059803F006F8002801
:1016C00049D10721059803F000F8002843D10021F3
:1016D000059802F0FAFF00283DD10121059802F09B
:1016E000F4FF002837D10221059802F0EEFF002810
:1016F00031D10B480088002814D0002E14D1A178D5
:10170000032002900195009101210C9B069A0398F9
:1017100002F090FD024805801DE000002A00002034
:1017200028000020002E08D0A17803200195009108
:10173000029001210C9B069A0AE02178A2780320EE
:101740008918C9B20195029000910C9B069A00215C
:10175000039802F06FFD0521059802F0B6FF0028FE
:1017600053D00321059802F0B0FF00284DD1042189
:10177000059802F0AAFF002847D10621059802F03B
:10178000A4FF002841D10721059802F09EFF002800
:101790003BD10021059802F098FF002835D10121A6
:1017A000059802F092FF00282FD10221059802F03F
:1017B0008CFF002829D1F948008800280FD0002E7E
:1017C0000FD1F978082001910290009501210C9B1E
:1017D000069A039802F02EFDF048058015E0002ED1
:1017E00008D0F878082102910190009501210C9B06
:1017F000069A07E020780822F9786B4607C30C9B0D
:10180000069A0021039802F015FD0621059802F0C2
:101810005CFF002856D00321059802F056FF0028EF
:1018200050D10421059802F050FF00284AD105212B
:10183000059802F04AFF002844D10721059802F0DC
:1018400044FF00283ED10021059802F03EFF002809
:1018500038D10121059802F038FF002832D1022149
:10186000059802F032FF00282CD1CC4800880028CF
:101870000FD0002E0FD1E178032002900195009146
:1018800001210C9B069A039802F0D4FCC348058002
:1018900018E0002E08D0E178032001950091029015
:1018A00001210C9B069A0AE02178E278032089182E
:1018B000C9B20195029000910C9B069A00210398F1
:1018C00002F0B8FC0321059802F0FFFE00285ED06C
:1018D0000421059802F0F9FE002858D0052105984A
:1018E00002F0F3FE002852D10621059802F0EDFE29
:1018F00000284CD10721059802F0E7FE002846D1C8
:101900000021059802F0E1FE002840D10121059850
:1019100002F0DBFE00283AD10221059802F0D5FE44
:10192000002834D19D480088002812D0002E12D102
:101930006178A27803208918C9B2029001950091BC
:1019400001210C9B069A039802F074FC93480580D1
:101950001DE0002E0BD06178A27803208918C9B24F
:1019600001950091029001210C9B069A0CE02178D0
:10197000627803208918A27801958918C9B202906B
:1019800000910C9B069A0021039802F053FC03215E
:10199000059802F09AFE002857D00521059802F01C
:1019A00094FE002851D00421059802F08EFE0028F4
:1019B0004BD10621059802F088FE002845D1072169
:1019C000059802F082FE00283FD10021059802F020
:1019D0007CFE002839D10121059802F076FE00280E
:1019E00033D10221059802F070FE00282DD16B48FA
:1019F000008800280FD0002E0FD160780822F978D7
:101A00006B4607C301210C9B069A039802F012FC57
:101A10006248058019E0002E08D060780822F97825
:101A20006B4607C301210C9B069A0BE02278637872
:101A3000F978D2180820D2B20092019102900C9B42
:101A4000069A0021039802F0F5FB0321059802F0A5
:101A50003CFE00285ED00621059802F036FE0028E4
:101A600058D00421059802F030FE002852D10521FB
:101A7000059802F02AFE00284CD10721059802F0B3
:101A800024FE002846D10021059802F01EFE002801
:101A900040D10121059802F018FE00283AD1022118
:101AA000059802F012FE002834D13C480088002836
:101AB00012D0002E12D16178E27803208918C9B2C1
:101AC00002900195009101210C9B069A039802F067
:101AD000B1FB324805801DE0002E0BD06178E27822
:101AE00003208918C9B201950091029001210C9B35
:101AF000069A0CE02178627803208918E278019533
:101B00008918C9B2029000910C9B069A0021039893
:101B100002F090FB0421059802F0D7FD002859D06F
:101B20000521059802F0D1FD002853D00321059826
:101B300002F0CBFD00284DD10621059802F0C5FD2D
:101B4000002847D10721059802F0BFFD002841D1A8
:101B50000021059802F0B9FD00283BD1012105982C
:101B600002F0B3FD002835D10221059802F0ADFD49
:101B700000282FD109480088002811D0002E11D14B
:101B8000A0780822F9786B4607C301210C9B069ABE
:101B9000039802F04FFB014805801BE0280000205D
:101BA000002E08D0A0780822F9786B4607C30121DF
:101BB0000C9B069A0BE02278A378F978D2180820BB
:101BC000D2B20092019102900C9B069A00210398D8
:101BD00002F030FB0521059802F077FD002857D070
:101BE0000621059802F071FD002851D003210598C7
:101BF00002F06BFD00284BD10421059802F065FD31
:101C0000002845D10721059802F05FFD00283FD14B
:101C10000021059802F059FD002839D101210598CD
:101C200002F053FD002833D10221059802F04DFD4A
:101C300000282DD1FE48008800280FD0002E0FD19B
:101C4000E0780822F9786B4607C301210C9B069ABD
:101C5000039802F0EFFAF648058019E0002E08D04C
:101C6000E0780822F9786B4607C301210C9B069A9D
:101C70000BE02278E378F978D2180820D2B20092EB
:101C8000019102900C9B069A0021039802F0D2FA6F
:101C90000421059802F019FD00285ED00621059860
:101CA00002F013FD002858D00521059802F00DFD23
:101CB000002852D10521059802F007FD00284CD1DB
:101CC0000721059802F001FD002846D10021059862
:101CD00002F0FBFC002840D10121059802F0F5FC40
:101CE00000283AD10221059802F0EFFC002834D1F7
:101CF000CF480088002812D0002E12D1A178E278B7
:101D000003208918C9B202900195009101210C9B12
:101D1000069A039802F08EFAC54805801DE0002E51
:101D20000BD0A178E27803208918C9B201950091FF
:101D3000029001210C9B069A0CE02178A2780320E6
:101D40008918E27801958918C9B2029000910C9B1C
:101D5000069A0021039802F06DFA0321059802F01B
:101D6000B4FC002864D00421059802F0AEFC0028E1
:101D70005ED00621059802F0A8FC002858D0052165
:101D8000059802F0A2FC002852D10721059802F024
:101D90009CFC00284CD10021059802F096FC0028FC
:101DA00046D10121059802F090FC002840D1022183
:101DB000059802F08AFC00283AD19D480088002846
:101DC00014D0002E14D16178A27803208918E2780B
:101DD00002908918C9B20195009101210C9B069AC5
:101DE000039802F027FA9248058021E0002E0DD0DA
:101DF0006178A27803208918E27801958918C9B220
:101E00000091029001210C9B069A0EE021786278E5
:101E1000E3788918A2780320D2188918C9B20195ED
:101E2000029000910C9B069A0021039802F002FA9E
:101E30000321059802F049FC002861D0042105988F
:101E400002F043FC00285BD00521059802F03DFC20
:101E5000002855D00621059802F037FC00284FD104
:101E60000721059802F031FC002849D1002105988E
:101E700002F02BFC002843D10121059802F025FC3B
:101E800000283DD10221059802F01FFC002837D11F
:101E900067480088002813D0002E13D16278A378F9
:101EA000F878D2180821D2B2029101900092012153
:101EB0000C9B069A039802F0BDF95D4805801FE06F
:101EC000002E0CD06278A378F978D2180820D2B20C
:101ED00001910092029001210C9B069A0DE022785C
:101EE0006378F978D218A3780820D218D2B2009279
:101EF000019102900C9B069A0021039802F09AF936
:101F00000321059802F0E1FB002861D00521059826
:101F100002F0DBFB00285BD00621059802F0D5FB20
:101F2000002855D00421059802F0CFFB00284FD19E
:101F30000721059802F0C9FB002849D10021059826
:101F400002F0C3FB002843D10121059802F0BDFB3C
:101F500000283DD10221059802F0B7FB002837D1B7
:101F600033480088002813D0002E13D16278E3781C
:101F7000F978D2180820D2B2019102900092012182
:101F80000C9B069A039802F055F9294805801FE03A
:101F9000002E0CD06278E378F978D2180820D2B2FB
:101FA00001910092029001210C9B069A0DE022788B
:101FB0006378F978D218E3780820D218D2B2009268
:101FC000019102900C9B069A0021039802F032F9CD
:101FD0000421059802F079FB002864D005210598BA
:101FE00002F073FB00285ED00621059802F06DFB1D
:101FF000002858D00321059802F067FB002852D131
:102000000721059802F061FB00284CD100210598BA
:1020100002F05BFB002846D10121059802F055FB38
:10202000002840D10221059802F04FFB002801E072
:102030002800002037D1BF480088002813D0002E88
:1020400013D1A278E378F978D2180820D2B201919E
:102050000290009201210C9B069A039802F0EAF884
:10206000B44805801FE0002E0CD0A278E378F97800
:10207000D2180820D2B201910092029001210C9B4B
:10208000069A0DE02278A378F978D218E378082030
:10209000D218D2B20092019102900C9B069A0021B4
:1020A000039802F0C7F80321059802F00EFB002800
:1020B00067D00421059802F008FB002861D00521B3
:1020C000059802F002FB00285BD00621059802F07B
:1020D000FCFA002855D00721059802F0F6FA0028EE
:1020E0004FD10021059802F0F0FA002849D10121D2
:1020F000059802F0EAFA002843D10221059802F07F
:10210000E4FA00283DD18B480088002815D0002E25
:1021100015D16278A378F978D218E3780820D2181C
:10212000D2B201910290009201210C9B069A039871
:1021300002F080F87F48058023E0002E0ED0627800
:10214000A378F978D218E3780820D218D2B2019196
:102150000092029001210C9B069A0FE0227863788E
:10216000F878D218A378E47808211B19D218D2B2D3
:102170000092029101900C9B069A0021039802F0B4
:1021800059F80721059802F0A0FA002838D000215C
:10219000059802F09AFA002832D10121059802F040
:1021A00094FA00282CD10221059802F08EFA00281A
:1021B00026D1604C208800280DD0002E0DD10120A2
:1021C00002900195014600950C9B069A039802F037
:1021D00031F8258014E0002E07D0012001950290EF
:1021E000009501460C9B069A07E03978012001957D
:1021F000029000910C9B069A0021039802F01AF8B5
:102200000721059802F061FA00283BD000210598CB
:1022100002F05BFA00280BD10121059802F055FA73
:10222000002805D10221059802F04FFA002829D094
:10223000404C208800280DD0002E0DD101200290A6
:102240000195014600950C9B069A039801F0F2FF58
:10225000258017E0002E07D00120019502900095FF
:1022600001460C9B069A0AE039787A780120891891
:10227000C9B20195029000910C9B069A0021039827
:1022800001F0D8FF0221049802F01FFA00284FD174
:102290000321049802F019FA002849D10421049876
:1022A00002F013FA002843D10521049802F00DFA38
:1022B00000283DD10321059802F007FA002837D104
:1022C0000421059802F001FA002831D10521059872
:1022D00002F0FBF900282BD10621059802F0F5F950
:1022E000002825D10721059802F0EFF900281FD119
:1022F0000021059802F0E9F9002819D1012105987B
:1023000002F0E3F9002813D10221059802F0DDF96B
:1023100000280DD1019502950C9B069A002E009580
:1023200001D0012101E004480179039801F082FF06
:1023300007B0F0BD280000202A000020FEB50F469F
:1023400004467D211646C9001846089DFDF7D2FEB9
:102350000A21FDF7CFFE5F2C04D3C8B200230195FC
:10236000009007E020465C38032809D2C8B2012358
:1023700001950090324639462046FEF7C5FBFEBD6A
:1023800020465938032804D2C8B202230195009090
:10239000F0E720465538042804D2C8B2032301953B
:1023A0000090E7E720465238032804D2C8B204233D
:1023B00001950090DEE720464F38032804D2C8B2CA
:1023C000052301950090D5E720464B38042804D218
:1023D000C8B2062301950090CCE720464838032870
:1023E00004D2C8B2072301950090C3E720464538C0
:1023F000032804D2C8B2082301950090BAE720460A
:102400004238032804D2C8B21C2301950090B1E7DA
:1024100020463E38042804D2C8B21D2301950090FE
:10242000A8E720463B38032804D2C8B20923019507
:1024300000909FE720463838032804D2C8B20A2308
:102440000195009096E720463438042804D2C8B29B
:102450000B23019500908DE720463138032804D2E4
:10246000C8B20C230195009084E720462E3803283B
:1024700004D2C8B20D23019500907BE720462A388C
:10248000042804D2C8B20E230195009072E72046BA
:102490002738032804D2C8B20F230195009069E7BA
:1024A00020462438032804D2C8B210230195009096
:1024B00060E720462138032804D2C8B211230195D1
:1024C000009057E720461D38042804D2C8B21223D2
:1024D000019500904EE720461A38032804D2C8B26E
:1024E00013230195009045E720461738032804D2AE
:1024F000C8B21423019500903CE720461338042805
:1025000004D2C8B215230195009033E72046103855
:10251000032804D2C8B21623019500902AE720466A
:102520000D38032804D2C8B217230195009021E783
:1025300020460938042804D2C8B218230195009017
:1025400018E7A01F032804D2C8B2192301950090F0
:1025500010E7E01E032804D2C8B21A2301950090A8
:1025600008E7032C00D30AE7C8B21B2301950090AB
:1025700000E7000010B50848417C027C09021143C5
:102580004ABA0649CA80C27C837C1002184340BA0A
:102590000881FDF741FF10BDEC0000202A0000205B
:1025A00072B6FEE710B5024800F074FA10BD0000E4
:1025B000A40C0020F0B5002808D0014620314A794B
:1025C000022A05D00422C263002008710120F0BD58
:1025D000026813680E24A3431360426C1468FF233F
:1025E00001339C431460026814686408640014603A
:1025F0000C4A5568066C1C24264001242746B74027
:102600003D435560826CC56C5560026D002A05D053
:1026100015689D431560826D406D42604C710020CD
:102620000871F0BD00000240F8B5002402462032D7
:102630005179022903D00421C16301242DE00168EE
:102640000B680E25AB430B6001680B685B085B00F1
:102650000B60416C0B68FF250135AB430B601049E3
:102660004D68066C1C231E4001231F46B7403D43A6
:102670004D60816CC56C4D60016D002906D00E68FF
:102680001D02AE430E60416D856D4D60537100219A
:102690001171816B002900D088472046F8BD0000E9
:1026A00000000240C06B7047F0B42C490C6802680F
:1026B0001368056C1C273D400426AE40264211D00D
:1026C0005E070FD513689B0603D4146804239C434C
:1026D00014604B68046C04223C40A24013434B60DE
:1026E000016B1CE00227AF40064627402036002F32
:1026F00019D09F0717D513689B0605D413680A24C1
:10270000A3431360012272714B68046C1C221440B5
:102710000222A24013434B6000213171C16A00299B
:102720001AD0F0BC08470827AF40274214D01B0737
:1027300012D513680E24A34313604B68046C1C224B
:10274000144001221546A5402B434B60C2637271B1
:1027500000213171416BE2E7F0BC7047000002409C
:1027600070B504003FD02548256814212818FDF7CE
:10277000C1FC800020640220264620367071286843
:102780001F4908402860E168A06862690843216920
:1027900011430843A1690843E1690843216A0843DA
:1027A00021680A68104308602046FEF739F90121C4
:1027B000A06889030025884200D165602079616C9A
:1027C0008006800E0860A06CE16C41606068401E6D
:1027D00003280AD82046FEF73BF9206D0560606D9E
:1027E000A16D416004E0012070BD25656565A565AA
:1027F000E563012070713571002070BDF8FFFDBFE9
:102800000F80FFFFF8B504468C4620300179002583
:1028100001290BD00126067141790027012907D033
:102820008021E163077101252846F8BD0220F8BD2B
:1028300002214171E763206801684908490001608D
:1028400061462046FEF718F9206B002820680168D1
:1028500001D00E2205E00422914301602068016846
:102860000A2211430160606C0168CA03074902D55E
:1028700002680A430260206D002802D002680A4301
:1028800002602068016831430160CDE7000100006B
:1028900070B5044600F0C2F80546601C02D004483A
:1028A0000078241800F0BAF8401BA042FAD370BD9B
:1028B00000000020F0B5002303249AE02A460125F9
:1028C0009D402A407ED00E79B607B60F012E01D06A
:1028D000022E16D186682746B4465E00B646B7403B
:1028E0006646BE43B446CF687646B7406646374331
:1028F00087604668AE430D79ED06ED0F9D40354388
:1029000045600D79ED43AD0708D0C5685F002646E8
:10291000BE40B5438E68BE402E43C6600D79AD07FC
:10292000AD0F022D0ED1DD08AD002D18AC462D6A7D
:102930005E07F60E0F27B740BD430F69B7402F4320
:1029400065462F6205685F002646BE40B5430E7996
:10295000B607B60FBE402E4306604D68AD03AD0FFF
:1029600046D09E08264DB6007519AC462D6E9E07C2
:10297000F60E0F27B740BD4305273F07B84201D1E8
:1029800000270FE01F4FB84201D101270AE01E4F78
:10299000B84201D1022705E01C4FB84201D10327FC
:1029A00000E00527B7402F43154D664637662D6872
:1029B0004E689543F60200D51543114F3D607D6882
:1029C000954300E014E04E68B60200D515437D60E3
:1029D0000B4D80356E684F689643BF0300D5164394
:1029E0006E602E684F689643FF0300D516432E6035
:1029F0005B1C0A681546DA4000D05FE7F0BD0000B6
:102A0000001802400004005000080050000C005064
:102A1000002A01D081617047816270470148806857
:102A2000704700000000002070B504000FD021683E
:102A30001548086021681548086003CC416020688B
:102A4000083C21688860FFF7E9FF05460CE001209B
:102A500070BDFFF7E3FF401B312805D92068C0682F
:102A6000400701D0032070BD2068C0684007F0D146
:102A700020680269E1688A4201D0016101E00449ED
:102A80000160002070BD0000CCCC00005555000056
:102A9000AAAA0000006802490160002070470000F7
:102AA000AAAA0000024881680278891881607047EC
:102AB0000000002010B50848002401688215114369
:102AC0000160032000F00AF8002801D0012401E091
:102AD00000F028F8204610BD0020024070B50F4ECF
:102AE000002431780546002915D07D20C000FDF76F
:102AF00001FB01460A480068FDF7FCFA00F030FCD3
:102B0000002808D1042D06D200222946401E00F0DC
:102B10002BF8756000E00124204670BD0000002005
:102B20000C00002008B5094801680122114301602A
:102B300000681040009005484038C26B01040A4309
:102B4000C263C06B0840009008BD00004010024006
:102B5000002805DBC106C90E012088400149086034
:102B60007047000000E100E010B502F089FC10BDE4
:102B700010B50F4C2168032252029143014321609A
:102B8000C11FFF39FA390ED10A48062100684843AF
:102B90000949FDF7AFFA401C02E0002805D0401EAD
:102BA00061694905F9D4002010BD032010BD000063
:102BB000007000400C00002040420F00F8B50446B1
:102BC00000680026664D800358D5654800274038C8
:102BD000C06BC00009D462484038C26B01040A438C
:102BE000C263C06B0840012700905E4801688215EF
:102BF00011430160FFF712FF009005E0FFF70EFFA1
:102C00000099401A022825D856480068C005F5D515
:102C1000E8690321090208400FD0616A81420CD0A3
:102C2000E86903210902EA698843012109040A438A
:102C3000EA61EA698A43EA61E861C0070FD0FFF7F9
:102C4000EDFE009008E0FFF7E9FE0099411A4648C2
:102C5000814201D9032609E0E8698007F3D5E869D4
:102C6000032109028843616A0843E861002F05D007
:102C70003B484038C26B01048A43C2632078C007D6
:102C800005D0686961688008800008436861207821
:102C9000C00606D56869032189028843A1680843F4
:102CA00068612088800506D5686903218904884306
:102CB0006169084368612088400506D56869032179
:102CC00009058843A169084368612078800606D514
:102CD0006869032109038843E16808436861208823
:102CE000400411D56869E169800080080843686183
:102CF0000121E0698907884206D119484038C16836
:102D0000012212041143C1602068800210D5686955
:102D100001218905226A884310436861206A88423C
:102D200006D10F484038C168012212061143C16024
:102D30002088000512D56869032189038843216929
:102D400008436861012120698903884206D104484B
:102D50004038C168012212041143C1603046F8BDF9
:102D6000401002400070004088130000F8B50F4684
:102D7000060043D04D4D28684007400FB84213D29B
:102D80002868C008C00038432860FFF747FE0446A3
:102D900005E0FFF743FE011B4548814261D82868E2
:102DA0004007400FB842F4D13068424C81070DD53E
:102DB000400704D5A068072109030843A060A06864
:102DC0000F2109028843B1680843A0603078C0072A
:102DD00032D0706801280AD002280BD000280FD00A
:102DE0003449403103280ED0C969890704E02168BD
:102DF000890301E021688901002906DB0120F8BD73
:102E000021684905F8E7096AEFE7A168C908C90020
:102E10000143A160FFF702FE009006E0FFF7FEFD10
:102E20000099411A224881421BD8A06838210840E5
:102E30007168C9008842F1D128684007400FB84244
:102E400017D91A480168C908C90039430160FFF75A
:102E5000E5FD054607E0FFF7E1FD411B144881420F
:102E600001D90320F8BD114800684007400FB8425F
:102E7000F1D13078400706D5A068072109038843BF
:102E8000F1680843A06000F031F8A1683C2289098C
:102E90001140094A515CC906C90EC840074908607B
:102EA00007480068FFF71AFEF8BD00000020024046
:102EB0008813000000100240185700080C00002082
:102EC000040000200648074900688968064A49044A
:102ED000490F8900515CC906C90EC84070470000FF
:102EE0000C000020001002405857000810B5204C7C
:102EF000A068204A8006400F16D0A0688006410FC7
:102F0000501001290FD0A1688906490F022912D05B
:102F1000A0688006400F042823D0A0688006400FD8
:102F2000032821D0002010BD206801218004400F1B
:102F30008140104612E0E1688B07E1689B0F49066B
:102F4000490F491C032B00D01046FDF7D3F8E16868
:102F50004904490E4843E168490F491CFDF7CAF886
:102F600010BD0120C00310BD7D20000210BD000077
:102F7000001002400024F400F8B504007ED0207850
:102F80003827C007ED4D002846D0A868E9683840CA
:102F90008907890F102802D008280BD001E00329E7
:102FA00008D001206268000482420AD129680143E6
:102FB000296015E0286880032ED560680028DDD0E0
:102FC0002AE0052301211B0489049A422A6802D1C0
:102FD0000A432A60EAE782432A6028688843286017
:102FE000606800280CD0FFF719FD064604E0FFF7E3
:102FF00015FD801B642873D828688003F7D50BE083
:10300000FFF70CFD064604E0FFF708FD801B64286F
:10301000F1D828688003F7D42078800769D5A8689C
:10302000E96838408A070721920FC902102802D0A8
:10303000002813D001E0022A10D0E068002846D012
:10304000286888432169084328602868FF210131E6
:1030500008432860FFF7E2FC06462CE02A68520588
:1030600002D5E268002A89D06A687F231B029A434E
:1030700063691B021A436A60002800E08DE00ED1EC
:103080002868884321690843286028680121800452
:10309000400F8140AA48FDF72DF8AA490860AA48C8
:1030A0000068FFF71BFD002877D122E0FFF7B6FC90
:1030B000801B02289FD828684005F7D568687F21C3
:1030C00009028843616909020843686011E02968C0
:1030D000FF20013081432960FFF7A0FC064605E090
:1030E00098E0FFF79BFC801B022884D828684005E5
:1030F000F7D42078954E00072ED5A8688006400F9B
:1031000003280AD0A0690028306A16D0012108439C
:103110003062FFF783FC07460BE0306A80071BD55F
:10312000A06900289FD017E0FFF778FCC01B022899
:1031300070D8306A8007F7D50EE040084000306252
:10314000FFF76CFC074604E0FFF768FCC01B022891
:1031500060D8306A8007F7D4207840076CD5A8681B
:1031600000278006400F042818D0E86BC00008D460
:10317000E96B012000070143E963E96B0140012786
:10318000009173480168C90519D40168821511437B
:103190000160FFF743FC00900DE083E0F0698007D9
:1031A0004AD5A06800287DD046E0FFF737FC00999B
:1031B000401A02282ED866480068C005F5D5A168D7
:1031C000012910D004200529F16911D049084900CE
:1031D000F161F1698143F161A068002816D0FFF721
:1031E0001DFC00900EE0F06901210843F061F3E757
:1031F0000143F161F7E7FFF711FC0099411A5548C7
:10320000814267D8F0698007F5D50EE0FFF706FC2C
:10321000009007E05EE0FFF701FC0099411A4D487D
:10322000814257D8F0698007F5D4002F04D0E86BAD
:10323000012109078843E863E06900287BD0A96879
:103240008906490F02294FD0012636060228286830
:1032500005D0B0432860FFF7E1FB04463CE0B043F3
:103260002860FFF7DBFB074604E0FFF7D7FBC01B36
:1032700002282FD828688001F7D4616A206AA26AE0
:103280000843E16A120211430843216B0843616B52
:103290000843E968304A11400843E8602868304331
:1032A000286000E045E0E868012109070843E8607C
:1032B000FFF7B4FB044604E0FFF7B0FB001B022855
:1032C00008D828688001F7D535E0FFF7A7FB001B79
:1032D000022801D90320F8BD28688001F5D4E868E8
:1032E0001E490840E86026E00128F4D0E868226A18
:1032F0008107890F91421CD17021626A014091427D
:1033000017D17F21A26A090201401202914210D115
:103310001F214904E26A014091420AD1072149066E
:10332000226B0140914204D1400F616B40078842FB
:1033300001D00120F8BD0020F8BD000000100240BF
:103340000024F4000C000020040000204010024083
:1033500000700040881300008C80C111FCFFFEEE5D
:10336000094910B5401E884201D9012010BD074C03
:1033700060610321081F02F083F80020A06107208C
:103380002061002010BD0000FFFFFF0000E000E012
:1033900070477047704770B5040005D0254620354A
:1033A000687F002802D006E0012070BD0020287749
:1033B000204600F016F802206877211D206801F0F1
:1033C00095FA012240342272AA77EA77227062705D
:1033D000A270E27022716271A271E2716A770020BC
:1033E00070BD7047014620314A7F012A01D001207B
:1033F000704702224A7700680B490122884205D0B3
:103400009107884202D00949884207D18168084B58
:103410001940062905D0DB1F994202D001681143EB
:103420000160002070470000002C014000040040B3
:1034300007000100014620314A7F012A01D0012006
:10344000704702224A770168CB6801221343CB60A0
:1034500000680B49884205D09107884202D009498B
:10346000884207D18168084B1940062905D0DB1F27
:10347000994202D0016811430160002070470000AA
:10348000002C0140000400400700010070470000CC
:1034900070B50446006801690025C9438907002901
:1034A00015DBC168C943890711D4E91E01610120F8
:1034B0002077206880698007204602D0FFF7E6FF6A
:1034C00004E000F0A7F8204600F0A5F82577206872
:1034D0000169C943490717D4C168C943490713D4CF
:1034E0000421C9430161022020772068806980059A
:1034F000800F204602D0FFF7C9FF04E000F08AF8F1
:10350000204600F088F8257720680169C94309073B
:1035100016D4C168C943090712D40821C9430161FF
:10352000042020772068C0698007204602D0FFF77A
:10353000ADFF04E000F06EF8204600F06CF825774F
:1035400020680169C943C90617D4C168C943C906BF
:1035500013D41021C9430161082020772068C06975
:103560008005800F204602D0FFF790FF04E000F0B6
:1035700051F8204600F04FF8257720680169C943CB
:10358000C90708D1C168C943C90704D1891E0161AF
:10359000204600F041F820680169C943090609D4B2
:1035A000C168C943090605D48021C9430161204689
:1035B000FFF7EFFE20680169C943C90508D4C16857
:1035C000C943090604D4124901612046FFF7E0FE11
:1035D00020680169C943490609D4C168C94349063D
:1035E00005D44021C9430161204600F033F820682A
:1035F0000169C943890609D4C168C943890605D44C
:103600002021C94301612046FFF7C4FE70BD0000C0
:10361000FFFEFFFF7047704701680C4802680C48C6
:10362000914201D1006805E0084A4C32126891428B
:1036300003D14068002807D00047044A9832126836
:10364000914201D18068F5E770470000C00B00206F
:10365000B8000020704710B5014680310A78012A71
:1036600015D001220A7024224A6002681368146887
:1036700064086400146001225207934300224266EA
:1036800000680360202048600A70104610BD0220C8
:1036900010BD70B5044680308368202B2FD10029DF
:1036A0000BD0002A09D00125A3682D03AB4206D117
:1036B0002369002B03D1CB0701D0012070BD037813
:1036C000012B1CD001230370E366204601F0FCFDB2
:1036D000010003D1E06E012802D00121084670BD2F
:1036E000206810220262EFF31080012383F3108818
:1036F00023681C6814431C6080F31088EEE70220E6
:1037000070BD000010B504681148124B4215844288
:103710000CD1D960196899601C680F498C4200D19E
:10372000891819605A605A6819680EE00B4884427B
:103730000DD119625969D9615C6909498C4200D17E
:10374000084959619A619A69596901F02DFC10BDC7
:1037500000380140980B00209803002000440040EE
:103760009807002098090020704770B50446054668
:103770008034207801281AD0012020702420606035
:103780002868066802685208520002602868826849
:1037900007235B069A430A438260284601F0BEFA7B
:1037A00028680660202060600020207070BD022024
:1037B00070BD70B50446054680342078012819D0C4
:1037C0000120207024206060286806680268520882
:1037D0005200026028688268D200D2080A438260E0
:1037E000284601F09BFA28680660202060600020CF
:1037F000207070BD022070BD70477047F8B5054657
:10380000044680356868AE6821688A681027120609
:10381000002A1BDA212819D1EFF31080012282F34C
:1038200010888A6880239A438A6080F31088A06F8A
:10383000002808D0FEF7BEFE002804D0A06FFEF7D7
:1038400031FF202824D0204601F01AFC2168886826
:1038500040061BD5222E19D1EFF31080012282F3EE
:1038600010888A6840239A438A6080F31088E06F4A
:10387000002808D0FEF79EFE002804D0E06FFEF777
:1038800011FF202804D0204601F0C8FB0020F8BD1D
:10389000EF600320F8BD000010B502680748084932
:1038A000824202D14A68096804E00648824203D194
:1038B0008A69496901F078FB10BD000000380140B9
:1038C000980B002000440040F8B503680446D9690D
:1038D00018689A68B24D0E462E4025468035002E57
:1038E00075D0B04EB04F1640074037436ED0CF076B
:1038F00006D0C70504D501271F62EB683B43EB6088
:103900008B0708D5D30706D0276802233B62EB68F4
:1039100004273B43EB604B0708D5D30706D0276845
:1039200004233B62EB6802273B43EB600B0709D59E
:1039300020230340334305D0266808233362EE6812
:103940001E43EE600B0509D5430107D50123266808
:10395000DB023362EB6820263343EB60EB68002B1D
:1039600042D089060AD520210840C9050A401043E3
:1039700004D0216F002901D020468847E8682168DB
:103980008968490602D42821084232D0204601F035
:1039900045FB21688868400627D5EFF31080012297
:1039A00082F310888B68402293438B6080F31088E9
:1039B000E06F002819D07D498163E06FFEF734FE87
:1039C000002811D0E06F816B0DE000E017E08E065B
:1039D00015D5012720263F07064017403E430ED04D
:1039E000216FB1E020468847F8BD2046FFF754FF1D
:1039F000F8BD2046FFF750FF0020E860F8BDE66EF6
:103A0000012E7CD1CE067AD5C60678D510221A6250
:103A100023689868264640064036002847DAE16F5A
:103A2000086840680004000CE8D0B78B8742E5D9ED
:103A3000F08308680068800634D4EFF31080012119
:103A400081F3108819681701B943196080F3108851
:103A5000EFF31080012181F3108821688B685B08E7
:103A60005B008B6080F31088EFF31080012181F3FD
:103A7000108821688B684027BB438B6080F31088D7
:103A80002020A8600020E066EFF31080012181F380
:103A9000108821680B6893430B6080F31088E06FF7
:103AA000FEF788FDB08BF18B401A81B233E0B08B0A
:103AB000F18B401A81B2F08B00289FD000299DD055
:103AC000EFF31080012686F310881E68FF27213748
:103AD000BE431E6080F31088EFF31080012383F350
:103AE000108823689E682F4FFF433E409E6080F3FE
:103AF00010882020A8600020E066206700E00EE02B
:103B0000EFF31080012383F3108823681D68954329
:103B10001D6080F310882046FFF7F4FDF8BDCE024B
:103B200008D5560206D50120000518622046FFF789
:103B300064FEF8BD0E060BD501278026FF05064062
:103B40003A40164304D0616F002900D04AE7F8BD1F
:103B50004A0614D5420612D52046EFF31081012201
:103B600082F310881C68402294431C6081F3108803
:103B7000202169600021416700F0BFF8F8BD0A020A
:103B800005D5420003D52046FFF736FEF8BDC90132
:103B9000FCD50028FADA2046FFF7E6FDF8BD000064
:103BA0000F0800000100001020010004914E0008E1
:103BB00070B5040005D0254680356868002802D01D
:103BC00006E0012070BD00202870204600F026F895
:103BD0002420686020680168490849000160204687
:103BE00001F06CFA0128EDD0A06A002802D020462E
:103BF00001F0B6F8206841680922D2029143416081
:103C0000206881682A22914381602068016801222E
:103C100011430160204601F009F970BD70477047FB
:103C20007047FFB5064604468036706883B00D467F
:103C3000202860D1002D0CD00598002809D0012043
:103C4000A1680003814207D12069002804D1E80758
:103C500002D0012007B0F0BD307801284BD0012000
:103C600030700020F06021207060FEF7D7FE0190D8
:103C7000274640370598B8820598F8820120A16848
:103C80000003814202D12069002804D0029500255A
:103C90000020307015E000200290F9E7002280211A
:103CA000204601F069FB002818D10298002817D09F
:103CB0002168007888620298401C0290F88A401EB1
:103CC000F882F88A019B002806980090E6D100222D
:103CD0004021204601F050FB002808D00320B9E71E
:103CE00028882168C005C00D8862AD1CE6E7202049
:103CF00070600020AEE70220ACE7704710B501F01D
:103D000019FC0A2001F0FCFB0524240701221021E4
:103D10002046FEF77DFE012220212046FEF778FE98
:103D2000012280212046FEF773FE642001F0E8FBAB
:103D3000022000F00DF8522000F00AF8302000F0C8
:103D400007F80A2000F004F8062000F001F810BD82
:103D500070B5052506462D07002210212846FEF7DE
:103D600057FE012001F0CCFB002280212846FEF7FF
:103D70004FFE012001F0C4FB012220212846FEF75E
:103D800047FE012001F0BCFB012280212846FEF7FE
:103D90003FFE012001F0B4FB002280212846FEF7FF
:103DA00037FE012001F0ACFB002220212846FEF75F
:103DB0002FFE012001F0A4FB012280212846FEF7FE
:103DC00027FE012001F09CFB002280212846FEF7FF
:103DD0001FFE012001F094FB002220212846FEF75F
:103DE00017FE012001F08CFB012280212846FEF7FE
:103DF0000FFE012001F084FB002280212846FEF7FF
:103E000007FE012001F07CFB002220212846FEF75E
:103E1000FFFD012001F074FB012280212846FEF7FE
:103E2000F7FD012001F06CFB0024002280212846D0
:103E3000FEF7EEFD012001F063FB3046A0400006D6
:103E400001D5012200E0002220212846FEF7E0FDF6
:103E5000012001F055FB012280212846FEF7D8FD04
:103E6000012001F04DFB641CE4B2082CDDD30122DB
:103E700010212846FEF7CCFD012001F041FB70BD6A
:103E8000F8B505240E4607462407002210212046D7
:103E9000FEF7BEFD012001F033FB00228021204609
:103EA000FEF7B6FD012001F02BFB01222021204668
:103EB000FEF7AEFD012001F023FB01228021204608
:103EC000FEF7A6FD012001F01BFB00228021204609
:103ED000FEF79EFD012001F013FB00222021204669
:103EE000FEF796FD012001F00BFB01228021204608
:103EF000FEF78EFD012001F003FB00228021204609
:103F0000FEF786FD012001F0FBFA01222021204668
:103F1000FEF77EFD012001F0F3FA01228021204608
:103F2000FEF776FD012001F0EBFA0025002280214A
:103F30002046FEF76DFD012001F0E2FA3846A84068
:103F4000000601D5012200E0002220212046FEF7D4
:103F50005FFD012001F0D4FA012280212046FEF706
:103F600057FD012001F0CCFA6D1CEDB2062DDDD31A
:103F700000250727002280212046FEF749FD012069
:103F800001F0BEFA791B3046C840C00701D00122BB
:103F900000E0002220212046FEF73AFD012001F03A
:103FA000AFFA012280212046FEF732FD012001F008
:103FB000A7FA6D1CEDB2082DDCD30122102120469A
:103FC000FEF726FD012001F09BFAF8BDFEE7000098
:103FD00010B5094C074AE1602260A160606020468C
:103FE000FEF722FD002800D0FEE7216803480860A4
:103FF00010BD000000300040A40C0020CCCC00001C
:1040000010B5002400212046FFF73AFF641CE4B2FB
:10401000782CF7D310BD0000F7B582B017466421A5
:104020000298FCF767F80A21FCF764F801910A216D
:104030000298FCF75FF80C460A21FCF75BF81A4877
:1040400000940D460446C6797D210834C9000298C3
:10405000FCF750F80A21FCF74DF8615C0398002F3B
:1040600004D0152804D18819C1B201E04128FAD83A
:104070006820FFF705FF0C4E01980A3E205CF1789E
:104080004018C1B27020FFF7FBFE615D0120FFF711
:10409000F7FE0098F178205C4018C1B20820FFF7C5
:1040A000EFFE05B0F0BD00004200002010B500F0AA
:1040B00083F800F073F810BD10B500F00FFB00217D
:1040C000084600F011FB0021012000F00DFBFF204D
:1040D000F530FEF7DDFB0121002000F005FB01219A
:1040E000084600F001FB10BD10B500F001F810BD4E
:1040F00010B5FEF793FCFF21F531FBF7FBFF00291C
:1041000011D1094800224168072902D8491C4160A1
:1041100000E042600178322902D2491C017000E0BF
:104120000270FEF77BFC10BD1000002010B564206B
:10413000FEF7AEFB00F056F8FFF7BEFF00F04EF8BA
:1041400000F018F800F02CF801A001F08FF910BD74
:10415000B3F5CABCBBAFCDEAB3C92A2A2A2A2A2A98
:104160002A2A2A2A2A2A2A2A2A2A2A2A2A2A0A0DEC
:104170000000000010B5FFF7C1FDFFF741FF10BDC3
:1041800010B5FEF7F7F910BD10B5FFF7ADFF00F061
:1041900035F8FFF7F5FF00F00BF810BD7047000091
:1041A00010B502490420FFF713FF10BDFF0F0000F8
:1041B00010B5FEF7F7F910BD10B50548FCF770F81B
:1041C0000448FCF767F80448FCF74CF810BD000001
:1041D000C9490008A54900087149000810B5FCF755
:1041E00047F810BD10B54B24E40121460020FCF730
:1041F000A3F821460120FCF79FF810BD10B500F090
:104200004DFA00F01BFA094C208800280BD012222E
:1042100007490020FCF79EF8122205490120FCF70F
:1042200099F800202080FCF703F810BD260000203C
:10423000C8000020FFB5D84D83B014462B462A3362
:1042400029781B19203B009384460C9F2346049831
:10425000093BCA190E9E0193002819D0052C17D2CC
:10426000012E604605D062280CD35A20FFF708FEC5
:1042700041E0622801D3D1B2F7E7C7482A30005D98
:10428000101A03E0C4482A30005D081AC1B2ECE7F6
:10429000601E042806D20098012EC07F0CD009E0D1
:1042A000C1B20CE0052C1FD3BC481B2C06D00079F2
:1042B000012E01D0081AF3E7101AF1E7C17E5A2047
:1042C000FFF7DEFD0498002815D0052C13D3082C29
:1042D00011D8022E0CD0E978B048005D081AC1B29E
:1042E0006120FFF7CDFD28E0012EE8D1D1B2E6E74D
:1042F000E878C119F0E7A01F02280AD8022E05D0DD
:10430000E9780098C07F081AC1B210E0E878C119B6
:10431000F7E7082C08D9022E03D0E9789F48007AE5
:10432000F1E7E878C119F9E7022E17D0E9786120A2
:10433000FFF7A6FD0498002816D0092C14D30C2CE6
:1043400012D8032E0DD0082E0BD0E9789348005DCB
:10435000081AC1B23120FFF793FD32E0E878C019A6
:10436000D2E7E878C119F1E720460A3802280CD8CC
:10437000032E07D0082E05D0E9780098C07F081AD0
:10438000C1B218E0E878C119F7E70C2C0ED91C2C43
:104390000CD01D2C0AD0032E05D0082E03D0E978AE
:1043A0007E48007BEBE7E878C119F9E7032E12D0CD
:1043B000082E10D0E9783120FFF762FD049800281C
:1043C00019D00D2C17D3132C15D8042E06D0A9788C
:1043D000082E06D007E0E878C019D1E7A878C119FF
:1043E00001E00D9809186D48005D081AC1B2392026
:1043F000FFF746FD18E020460E38052823D8042E86
:1044000003D0A978082E03D004E0A878C11901E0F0
:104410000D9809180098C07F081AC1B23920FFF71B
:104420002FFD0498002830D0142C2ED31A2C2CD811
:10443000052E27D069785948005D081AC1B241207D
:10444000FFF71EFD86E0132C11D31C2C0FD01D2C62
:104450000DD0042E03D0A978082E03D004E0A8784C
:10446000C11901E00D9809184C48C07CD4E7042E0E
:1044700005D0A978082ED1D10D980818CDE7A878D5
:10448000C019CAE76878C119D5E72046153805284C
:104490000AD8052E05D069780098C07F081AC1B2E5
:1044A00014E06878C119F7E71A2C0CD31C2C0AD039
:1044B0001D2C08D0052E03D069783848807EEDE7A2
:1044C0006878C119F9E7052E27D069784120FFF7F0
:1044D000D7FC0498002803D01B2C21D01C2C22D000
:1044E000082C37D82D48017F2C481438007808183C
:1044F000C1B26820FFF7C4FC0498002801D01D2C2D
:1045000039D0082C16D91C2C14D00198122838D870
:10451000224806991438415C13E06878C019BEE758
:1045200000215A208CE71E48062E0FD00178682003
:10453000FFF7A6FC1948427F19480699405C1018FD
:10454000C1B21020FFF79CFC07B0F0BD0078C01985
:10455000C1B2ECE7019812280AD91D2C08D00F48E7
:10456000062E015DC0D1143800780818C019BFE7C5
:104570000B480178BDE7072ECAD109480699405C6F
:1045800007E00648072E025DD6D105490698085C6B
:104590001018C019D4E70000340000205E0000208D
:1045A0004A000020FEE70000F7B582B017466421FC
:1045B0000298FBF79FFD0A21FBF79CFD01910A2160
:1045C0000298FBF797FD0C460A21FBF793FD1A486A
:1045D00000940D460446C6797D210834C90002982E
:1045E000FBF788FD0A21FBF785FD615C0398002F2E
:1045F00004D0142804D18819C1B201E03E28FAD8A9
:104600001020FFF73DFC0C4E01980A3E205CF1782B
:104610004018C1B21820FFF733FC615D2020FFF77E
:104620002FFC0098F178205C4018C1B22820FFF7D9
:1046300027FC05B0F0BD00004200002010B50120AD
:10464000FBF734FE002804D0122213490120FBF7A7
:104650003BFE0020FBF72AFE002804D012220E4960
:104660000020FBF731FE10210B4801F029F8C1B200
:10467000020A09480378452B0DD14378472B0AD10C
:10468000037C8B4207D1407C904204D10D220E2145
:104690000148FCF715FA10BDDA00002010B5094CEE
:1046A00055202070AA2060700E2200212046FCF7C1
:1046B00019FA1021204601F003F82074000A6074F2
:1046C00010BD0000C8000020704701228A4002424D
:1046D00001D00120704700207047704710B500F0EE
:1046E0009FFF00F0C1FF10BD10B5022819D214229F
:1046F00050430C4A80180278002A12D0027C002A0B
:1047000002D0002902D006E0002904D001894068C7
:1047100089B2012203E00189406889B20022FEF7D4
:1047200077F910BD7C00002010B5FEF7BBF910BD75
:1047300030B593B038216846FBF73BFD00240120DB
:104740000E940F94109440021194FEF711FA0A206F
:104750000090FF200130039040200590012006903A
:1047600008200A90022580030B90079500020C9008
:104770000895000104940D9009946846FEF7FCFB2F
:10478000002801D072B6FEE707200E901094022197
:104790000F9511940EA8FEF7E9FA002801D072B621
:1047A000FEE713B030BD704710B50248FEF770FE4B
:1047B00010BD0000C00B002038B5144A1468012356
:1047C000DB031C43146012681A400092114A104B1C
:1047D0001360506000209060D16010618020906173
:1047E0001046FEF7D8FD002800D0FEE70222012186
:1047F0001320FEF7B9F91320FEF7AAF90548FEF7D2
:1048000019FE0448FEF7EEFD012038BD40100240BD
:1048100000200040C00B002010B50248FEF738FE13
:1048200010BD00000C0C002038B5124A146801239A
:104830005B041C43146012681A4000920F4A0E4B2E
:1048400013605060002090605061D160906110460C
:10485000FEF7A1FD002800D0FEE70022012115206F
:10486000FEF782F91520FEF773F90448FEF7E2FD22
:10487000012038BD40100240004401400C0C0020D3
:1048800010B50248FEF704FE10BD0000580C0020D1
:1048900038B5134A146801239B041C431460126842
:1048A0001A400092104A0F4B136050600020906035
:1048B00010615061D16090611046FEF76CFD0028D8
:1048C00000D0FEE7032201211620FEF74DF9162045
:1048D000FEF73EF90448FEF7ADFD012038BD0000AB
:1048E0004010024000480140580C0020F0B502681A
:1048F0001A4B0124A4071A4D984203D0A04201D0BC
:10490000A84203D17026B2434E683243154E164F6B
:1049100098420AD0A04208D0A84206D0134CA04228
:1049200003D0B04201D0B84204D103242402A243F0
:10493000CC6822438024A2434C69224302608A68E7
:10494000C2620A688262984203D0B04201D0B84283
:1049500001D10969016301214161F0BD002C0140D1
:104960000004004000440140004801400020004095
:1049700010B50A480A4CC1880122491C8BB200219B
:10498000C380A34201D18280C18043895B1C9BB25A
:104990004381C82B01D10281418110BD1800002044
:1049A000DC05000007488189491C89B20A46FF3AA4
:1049B0008181F53A04D101210182C18100218181E7
:1049C000704700001800002009487D230188DB00A3
:1049D000491C89B20180994208D14188002299423C
:1049E00002D8491C418000E04280028070470000EC
:1049F00018000020F0B591B0064614216846FBF778
:104A0000D8FB282105A8FBF7D4FB0124002505A825
:104A100006950594FEF7D2F8002801D0FDF7C0FDF9
:104A20005948816B21438163816BC907C90F0F917D
:104A3000554940310B680122920313430B6009680A
:104A400011400F91426B02210A434263426B0A40BC
:104A50000F92426B0A434263406B6A4608400F90D4
:104A6000C02023C222C2494C69462046FDF722FFDE
:104A700069462046FDF71EFF464C4548A560E560A7
:104A8000256141C425616561A561E5610C20256250
:104A9000E0604048083CFFF78BF8002800D0FEE7B4
:104AA00000213C48FEF785FE002801D0FDF778FD87
:104AB00000213848FEF759FE002801D0FDF770FDAF
:104AC0003448FEF7C8FD002801D0FDF769FD334EDC
:104AD00031483060B5603220F560706075618020CB
:104AE000B56130612020F061000230623046FDF790
:104AF00037FE002800D0FEE7E667B4622648274E5E
:104B000014305C3E30601027B7603320F560706071
:104B10007561B5618020F5613061400130623046D9
:104B2000FDF71EFE002800D0FEE7A6670022114612
:104B30000920B462FEF718F80920FEF709F80022F0
:104B400011460A20FEF710F80A20FEF701F80022AD
:104B500011461B20FEF708F81B20FDF7F9FF11484E
:104B60000F4901600121490241600F498160C56020
:104B7000057421680A683A430A604268016804487B
:104B800000F012FA11B0F0BD001002400004005015
:104B90000038014008010020080002408402002083
:104BA00098030020980B002098050020F0B591B0E4
:104BB000074614216846FBF7FCFA282105A8FBF7F5
:104BC000F8FA4F48826B01210A438263826B0A40E4
:104BD0000F92C36B4A041343C363C36B13400F9319
:104BE000426B0A434263426B0A400F92426B0A4394
:104BF0004263406B0C26084000960F90022005246B
:104C000000250190049103902407029569462046EF
:104C1000FDF750FE69462046FDF74CFE3A4C3948F8
:104C2000A560E5602561A561E56125626562666153
:104C3000A56281C43448083CFEF7BAFF002800D0C2
:104C4000FEE7334E31483060B5603420F560706067
:104C50007561B5618020F561306180013062304658
:104C6000FDF77EFD002800D0FEE7E667B462274826
:104C7000274E14305C3630601027B7603520F56061
:104C800070607561B5618020F5613061400130620E
:104C90003046FDF765FD002800D0FEE7A66700223C
:104CA00011460A20B462FDF75FFF0A20FDF750FFAE
:104CB000002211460B20FDF757FF0B20FDF748FFA0
:104CC000012200211C20FDF74FFF1C20FDF740FFB3
:104CD000114810494161012149028161411AC161B4
:104CE0000562014620310D7121680A683A430A6065
:104CF00082694169034800F057F911B0F0BD000026
:104D000000100240004400409801002030000240A2
:104D1000E002002098070020980B0020F8B5044618
:104D2000416E4034002915D000688168806809010F
:104D30004D0F0A4E400F3746315C083F385CC000CB
:104D4000FBF7D8F96085785D715DC000FBF7D2F99B
:104D50002085F8BD01206085FAE7000010570008A3
:104D600010B5018DC90707D001684A6801235B04AB
:104D70009A43C36A1A434A60018D890707D50168BF
:104D80004A6801231B049A43036B1A434A60018D4E
:104D9000490707D501684A6801239B049A43436B7E
:104DA0001A434A60018D090707D501684A68012343
:104DB000DB039A43836B1A434A60018DC90607D50A
:104DC0000268916801231B039943C36B19439160E7
:104DD000018D890607D501688A6801235B039A4320
:104DE000036C1A438A60018D490612D503685A681C
:104DF00001210905446C8A4322435A60426C8A426D
:104E000007D10268516803235B059943836C1943FA
:104E10005160018D090607D501684A680123DB044A
:104E2000C06C9A4302434A6010BD0000FEB50546BF
:104E3000002680350446EE60FDF7F0FD0190206805
:104E40000068124F000709D501210097002249058B
:104E50002046019B00F090FA00280DD120680068E0
:104E600040070BD501210097002289052046019BB0
:104E700000F082FA002801D00320FEBD20206860E7
:104E8000A860E6662E700020FEBD0000FFFFFF0157
:104E900010B5806A002201464031CA83CA82FEF7FB
:104EA000FBFC10BDF8B5846A204680304168054699
:104EB00086682068806800270006002806DA212915
:104EC00004D156200753204600F0DAF820688068A5
:104ED000400606D5222E04D15E200753204600F05E
:104EE0009DF8E86810210843E8602046FEF7D4FCEE
:104EF000F8BD10B501460968806A0968890639D489
:104F000000225E210A52EFF31081012282F3108801
:104F100002681368FF240134A343136081F31088EF
:104F2000EFF31081012282F31088026893685B0816
:104F30005B00936081F31088EFF31081012282F30C
:104F40001088026893684024A343936081F310881B
:104F5000202288210A50C16E01290BD1EFF3108164
:104F6000012282F31088026813681024A34313609F
:104F700081F31088C16E012902D0FEF750FE10BDEA
:104F80005C21095AFEF7BEFB10BD10B5806AC16EE8
:104F9000012902D0FEF744FE10BD5C21095A4908E0
:104FA000FEF7B0FB10BD000070B50E461749042592
:104FB000144688420CD11648FEF720FC14480068BD
:104FC000406AA2B231461248FEF763FB114818E06E
:104FD0001149884219D18114052000220007FDF7EC
:104FE00017FD0B489030FEF709FC09489030006827
:104FF000406A0748A2B231469030FEF74AFB0548A6
:105000005C3000680168A943016070BD0038014050
:1050100008010020840200200044004010B5EFF396
:105020001081012282F3108802681368FF24213462
:10503000A343136081F31088EFF31081012282F300
:105040001088026893680D4C2340936081F31088A8
:10505000C16E01290BD1EFF31081012282F3108878
:10506000026813681024A343136081F31088202280
:1050700088210A500021C166016710BDFEFFFFEFC5
:1050800010B5EFF31081012282F3108802681368D3
:10509000C024A343136081F31088EFF31081012231
:1050A00082F31088026893680124E405A3439360A7
:1050B00081F3108820218030416010BDF8B504468E
:1050C000016880682369E5691843636900262B43FA
:1050D0001843734A0B68734D2B4003430B602068E1
:1050E000416803231B039943E36819434160216826
:1050F000A069914201D0236A18438B686A4D2B4006
:1051000003438B602068C16A636A09090901194376
:10511000C1626649236866488B420AD140698007AC
:10512000800F09D001282CD0022828D0032816D1BE
:1051300013E060498B4201D1002111E093420ED16E
:1051400041690320800201400AD001208002091A2F
:1051500017D0091A13D0814201D1082100E0102193
:105160000120554D554FC00393423DD100290AD02F
:10517000022911D0042909D0082934D10BE00221D9
:10518000EEE70421ECE7FDF79DFE01E0FDF7AEFE42
:10519000050001D179E00546606A4000395A284689
:1051A0000091FAF7A7FF676879007918814267D8FC
:1051B0003903814264D3002328461946009AFAF73E
:1051C000AFFF020E090203027808114318180022EB
:1051D00051413A460023FAF7A3FF03210902384A56
:1051E000411A91424FD94BE0E269824227D100290E
:1051F00006D0022907D0042907D0082940D108E0A9
:10520000FDF760FE03E0284603E0FDF76FFE00288F
:105210003BD0616A4900795AFAF76CFF6168400037
:105220004A088018FAF766FF0146264A103991426B
:1052300026D8511C01400007400F084323E00029F5
:1052400006D0022907D0042907D0082918D108E080
:10525000FDF738FE03E0284603E0FDF747FE00288F
:1052600013D0616A4900795AFAF744FF61684A0825
:105270008018FAF73FFF0146124A1039914201D9CE
:10528000012602E080B22168C8602046012140303A
:10529000418501850020206760673046F8BD000029
:1052A00000800040F369FFCFFFF4FF110038014098
:1052B00040100240004400400024F400F056000872
:1052C000FFFC0F00EFFF0000F8B504468165403099
:1052D0000026254682838035EE602220A860E06F9C
:1052E00000281AD02149C162E16F21480863E16FAB
:1052F00020484863E06F13468663A76D21683A46ED
:105300002431E06FFDF77EFA002806D01020E86017
:105310002E702020A8600120F8BD2E702069002882
:105320000CD0EFF31080012181F3108821680A6806
:10533000FF2301331A430A6080F31088EFF31080D3
:10534000012181F31088226893680B43936080F3F6
:105350001088EFF3108081F3108821688A68402359
:105360001A438A6080F310880020F8BDF34E0008CD
:105370008B4F0008A54E0008FFB581B005461746C3
:10538000044680350A9E54E0701C52D0FDF746FB5F
:105390000499401AB0422FD8002E2DD02068016801
:1053A000490746D5C069C043000542D401202168A1
:1053B000C0020862EFF31080012181F31088216898
:1053C0000B68FF22A13293430B6080F31088EFF348
:1053D0001080012181F3108821688A6852085200E8
:1053E0008A6080F3108820206860A860E860002050
:1053F0002870032005B0F0BDEFF31080012181F388
:10540000108821680A68FF23A1339A430A6080F359
:105410001088EFF31080012181F3108821688A68D9
:10542000520852008A6080F3108820206860A860CB
:10543000DDE72068C1690298884304D00020B842A3
:10544000A2D00020D6E70120F9E7000010B50248FD
:10545000FEF73AFA10BD00000801002010B502481E
:10546000FEF732FA10BD00009801002010B5024A84
:10547000024900F036F810BD1D550008C400002098
:105480008307FF22DB0E9A408907090E9940002806
:1054900008DB830809489B001B18186890430843E1
:1054A000186070470007000F0838830804489B0005
:1054B0001B18D86990430843D861704700E400E0A6
:1054C00000ED00E002E008C8121F08C1002AFAD16E
:1054D00070477047002001E001C1121F002AFBD174
:1054E0007047F8B516460F460446002503E03946D6
:1054F000B047641C6D1C20780028F8D12846F8BD00
:1055000005E009210A46491E89B2002AFAD101465E
:10551000401E80B20029F4D17047000013B50A2361
:10552000012269460248FEF77CFB00981CBD000082
:1055300008010020F0B5204C87B0606B012528439E
:105540006063606B28400590606B28436063606B0C
:1055500028400590606B28436063606B05272840F6
:105560000590102002263F0700906946039601959A
:105570003846FDF79FF92020009069460396019573
:105580003846FDF797F9802000906946039601950B
:105590003846FDF78FF9606B28436063606B69469E
:1055A0002840059040200090039601953846FDF76D
:1055B00081F907B0F0BD000000100240FDF77AFA53
:1055C000FFF7B6F8FEF7B2FDFEF770FDFEF7DCFD63
:1055D000FCE70000052208B512070E49904207D1EA
:1055E000486B012210434863486B1040009008BD8F
:1055F000094A904202D14A6B022004E0074A9042D5
:10560000F5D14A6B042002434A63496B0140009183
:1056100008BD0000001002400004005000080050C7
:10562000F0B585B014216846FAF7C3FD00200D4F90
:1056300001260446019014206043C51928780028EB
:105640000AD06868FFF7C6FFA8680090E868029073
:1056500069466868FDF72EF9641CE4B2B442EAD3E7
:1056600005B0F0BDA4000020F0B585B01421684657
:10567000FAF79FFD012001900220104F06460025F9
:10568000039014206843C4192078002810D0606863
:10569000FFF7A0FFA0680090E0680290694660688C
:1056A000FDF708F92089227C81B26068FDF7B0F926
:1056B0006D1CEDB2B542E4D305B0F0BD7C00002016
:1056C00070B50A4DFF23EE1D1A46F93605E0047841
:1056D00054402A5D5A40335D401C0C46491E89B235
:1056E000002CF4D11802104370BD00007857000858
:1056F000010002000400060008000A000C0010006F
:1057000020004000800000010101010307010000AA
:10571000080402040801010100000000000000006C
:105720000000000000000000000000000000000079
:105730000000000000000000010000000200000066
:105740000300000004000000060000000700000045
:105750000800000009000000000000000000000038
:105760000000000000000000010000000200000036
:10577000030000000400000000C1814001C080411E
:1057800001C0804100C1814001C0804100C1814011
:1057900000C1814001C0804101C0804100C1814001
:1057A00000C1814001C0804100C1814001C08041F1
:1057B00001C0804100C1814001C0804100C18140E1
:1057C00000C1814001C0804100C1814001C08041D1
:1057D00001C0804100C1814000C1814001C08041C1
:1057E00001C0804100C1814001C0804100C18140B1
:1057F00000C1814001C0804101C0804100C18140A1
:1058000000C1814001C0804100C1814001C0804190
:1058100001C0804100C1814000C1814001C0804180
:1058200001C0804100C1814001C0804100C1814070
:1058300000C1814001C0804100C1814001C0804160
:1058400001C0804100C1814001C0804100C1814050
:1058500000C1814001C0804101C0804100C1814040
:1058600000C1814001C0804100C1814001C0804130
:1058700001C0804100C1814000C0C101C30302C218
:10588000C60607C705C5C404CC0C0DCD0FCFCE0E80
:105890000ACACB0BC90908C8D81819D91BDBDA1AF0
:1058A0001EDEDF1FDD1D1CDC14D4D515D71716D660
:1058B000D21213D311D1D010F03031F133F3F232D0
:1058C00036F6F737F53534F43CFCFD3DFF3F3EFE40
:1058D000FA3A3BFB39F9F83828E8E929EB2B2AEAB0
:1058E000EE2E2FEF2DEDEC2CE42425E527E7E62620
:1058F00022E2E323E12120E0A06061A163A3A26290
:1059000066A6A767A56564A46CACAD6DAF6F6EAEFF
:10591000AA6A6BAB69A9A86878B8B979BB7B7ABA6F
:10592000BE7E7FBF7DBDBC7CB47475B577B7B676DF
:1059300072B2B373B17170B050909151935352924F
:1059400096565797559594549C5C5D9D5F9F9E5EBF
:105950005A9A9B5B99595898884849894B8B8A4A2F
:105960004E8E8F4F8D4D4C8C44848545874746869F
:105970008242438341818040985900080000002002
:10598000C8000000C4540008605A0008C800002085
:10599000F00F0000D45400080100000004000000D3
:1059A000000000000024F4000000000000000000DF
:1059B00000000000000000000000000000000000E7
:1059C0000000000000000000000000009FEF7F0FBB
:1059D000402008806010204080E010010204082070
:1059E00040805F063D2F666B7B0E7F6FF560B6F2E1
:1059F00063D3D770F7F380888C8E8F0103070F0174
:105A000003070F4060707173777F80C0E0E8ECEEB1
:105A1000EF1080800100000000000050000800002E
:105A20000000000000000000010000000000005025
:105A30000010000000000000000000000100000055
:105A40000004005001000000000000000100000000
:105A50000000000000000000000000000000000046
:04000005080000C12E
:00000001FF
