:020000040800F2
:1000000058120020D5000008856200083D570008FE
:1000100000000000000000000000000000000000E0
:10002000000000000000000000000000EB64000879
:100030000000000000000000D964000839650008D5
:10004000E7000008E7000008E7000008E7000008F4
:10005000E7000008E7000008E7000008E7000008E4
:10006000000000004113000851130008311300087C
:10007000E7000008E7000008E7000008E7000008C4
:10008000E7000008E7000008E7000008B96500087D
:10009000000000002966000891660008E7000008DB
:1000A000E7000008E7000008E70000088972000880
:1000B00099720008E700000800000000000000003E
:1000C0000348854600F0A0F8004800471574000872
:1000D000581200200448804704480047FEE7FEE726
:1000E000FEE7FEE7FEE7FEE7B7650008C10000088F
:1000F00030B50B46014600202022012409E00D46C0
:10010000D5409D4205D31D469540491B2546954047
:1001100040191546521E002DF1DC30BDF0B51FB45C
:100120000646002082B005464024019100901BE065
:10013000019922460F46304600F054F8049A059B78
:10014000801A994110D310461946224600F03AF819
:10015000361A8F410197224601200021009F00F0AE
:1001600031F838184D4100902046641E0028DFDC2D
:10017000019B00982946324607B0F0BD03460B4369
:100180009B0703D009E008C9121F08C0042AFAD24D
:1001900003E00B780370401C491C521EF9D27047D3
:1001A000D2B201E00270401C491EFBD2704700220F
:1001B000F6E710B513460A4604461946FFF7F0FF66
:1001C000204610BD10B5202A04DB0146203A91409C
:1001D000002010BD914020239C1A0346E3401943A0
:1001E000904010BD10B5202A04DB0846203AD040CC
:1001F000002110BD0B46D340D0402024A21A9140CC
:100200000843194610BD0000064C0125064E05E0C6
:10021000E36807CC2B430C3C98471034B442F7D327
:10022000FFF752FFD0770008F07700080A480188EE
:100230000A480A0A02704170817B8170C17BC170DB
:10024000017C0171417C4171817C8171C17CC171F2
:10025000017D017270470000320000201202002070
:100260000149886070470000E400002010B5074C89
:100270001F20214606F0A8F921463F2006F0DCF9B0
:1002800021463F2006F00CFA10BD0000E7030000F5
:100290000149486070470000E400002001490860FF
:1002A00070470000E40000200549002803D0012821
:1002B00003D000207047C86800E0086A80B2704729
:1002C0003C0D002070B50025194C0B462E46002829
:1002D00002D0012815D028E0E068002825D0E06889
:1002E000904201D9154601E0E06885B2A1682A462E
:1002F0001846FFF743FFE168A068FFF758FFE66084
:1003000013E0206A002810D0206A904201D91546D7
:1003100001E0206A85B2E1692A461846FFF72EFF00
:10032000216AE069FFF743FF2662284670BD00009E
:100330003C0D002010B5002805D0012802D1084648
:1003400006F052FB10BD084606F072FA10BD000020
:10035000F7B57D260025F600164C1746002802D07A
:1003600001280ED024E0144804F092FC33463A46AB
:100370001148019904F09FFE6268054621680F4804
:1003800014E0012205201103000703F08BFD0A4849
:10039000903004F07DFC084833463A46903001998D
:1003A00004F089FEA26905466169054806F01AFD58
:1003B0002846FEBD3C0D0020AC0200200038014064
:1003C00000440040F8B507460A21FFF791FE0C46AD
:1003D0000A21FFF78DFE26460D4C084625461C3D9A
:1003E000642F08D32078A9784018C1B2502005F0B6
:1003F00057F8207804E0215C502005F051F8A05D0A
:10040000A9784018C1B2482005F04AF8F8BD0000AC
:100410007E000020FFB51546194A81B007461188B5
:100420000020184C0A9E002903D06178491C617095
:10043000108061781F2900D1607001226178049BCF
:10044000029805F0BBF9012261782846049B05F06B
:1004500025FF012E0BD0022E07D0032E05D12B46EF
:1004600039466078029A00F0C3FC05B0F0BD06483A
:100470000095817BFAB26078029B00F0CFFAF4E736
:10048000380000204800002012020020F0B5A14BE7
:10049000A14C85B022881E78049600255B7801283F
:1004A00039D09C4E761D767803969A4E761D367816
:1004B0000096984E0A3636790296102845D0954E09
:1004C0000A36F6780196112853D0924E0A36B6783D
:1004D0001228B44659D08F4E0A367778132865D043
:1004E0001A2870D01B286FD01C286ED01D286DD004
:1004F0001E286CD001296BD002296AD0032969D04B
:10050000042968D0052967D00021312004F0C8FFF4
:1005100000215A2015E07F480A300778012905D0CC
:100520000A387C4E00780A36367864E0002A76D0A5
:100530003946B1E0C1B2ECE7002AF9D1BEE0394654
:10054000E7E704F0ADFF05B0F0BD7248714B401D08
:100550000A3340781B7912E0C1B2CCE004F0A0FF6E
:100560002580F0E7009971183BE0C1B2D0E0314638
:10057000CEE06848674B401D0A334078DB78181896
:1005800004290BD1002AEDD0E6E76248614B401DFB
:100590000A3340789B781818042902D00529E6D13F
:1005A000E3E7002AD8D1009961441AE05948594B31
:1005B000401D0A3340785B78181804290DD00529AE
:1005C000D3D03946A4E00FE01BE034E04CE065E016
:1005D00076E07FE082E085E093E0002ABCD10098DD
:1005E000391803980818C0E701299FD0494E494897
:1005F0000A3600787678301802295CD003299ED11B
:100600009AE701290CD0434E42480A360078B67862
:100610003018022908D0032909D0614679E748E05B
:10062000002A06D1604649E0002A02D182E7002A6A
:1006300044D0614630E001290BD0364E35480A36A9
:100640000078F6783018022907D0032908D00199DC
:100650005FE7002A06D1019830E0002A02D169E75D
:10066000002A2BD0019917E001290BD0294E2948E7
:100670000A36007836793018022907D0032908D0C5
:10068000029946E7002A06D1029817E0002A02D113
:1006900050E7002A12D002995A205FE71D480A301D
:1006A000C7790129A1D00A381A4E00780A36F6799E
:1006B000A1E7F8183EE7002AB8D039E7C01839E7B3
:1006C000002A05D000215A2004F0EAFE002112E0A1
:1006D00019461EE7002AF5D104991AE7002AF1D13C
:1006E0000498EBE7002A08D000215A2004F0D8FE35
:1006F0000848401D4178312030E7039900984018A0
:1007000033E700215A2004F0CBFE0248401D417817
:10071000312016E76200002040000020F0B5BD4BFC
:10072000BD4C85B022881E78039600255B78012891
:1007300031D0B84E77783678F6190296B54E0A362B
:1007400036790196102841D0B24E0A36F6780096D6
:10075000112862D0AF4E0A36B6781228B4466FD050
:10076000AC4E0A36777813286BD01A286AD01B282B
:1007700069D01C2868D01D2867D01E2875D0012993
:1007800074D0022973D0032972D000215A2004F0BA
:1007900087FE002115E09F480A300778012905D01F
:1007A0000A389C4E00780A363678B6E0002A72D0B5
:1007B000394627E1C1B21BE1002AF9D10FE13946E0
:1007C000E4E7312004F06CFE05B0F0BD012904D04F
:1007D00002290ED0032910D051E0002A07D00021B1
:1007E0005A2004F05DFE8B480A30017910E019466A
:1007F00007E0002AF3D1039903E0002AEFD1029821
:10080000C1B25A2004F04CFE82480A30017971E0EE
:10081000312004F045FE2580D6E7012904D00229C5
:1008200014D0032916D02AE0002A07D000215A202C
:1008300004F036FE77480A30C178E9E719460DE042
:1008400017E03AE061E06FE087E09FE0002AEDD139
:10085000039903E0002AE9D10298C1B25A2004F0BA
:100860001FFE6C480A30C17844E0A8E0B9E0BCE063
:10087000C5E0012905D0022910D0032912D0314644
:100880009FE7002A08D000215A2004F009FE6148A1
:100890000A308178BCE79DE0194607E0002AF2D1D2
:1008A000039903E0002AEED10298C1B25A2004F065
:1008B000F7FD58480A3081781CE0012905D002294B
:1008C0000FD003291CD039467BE7002A07D000212E
:1008D0005A2004F0E5FD4F480A30417898E7194660
:1008E00002E0002AF3D103995A2004F0D9FD4948C7
:1008F0000A3041784748401D00780818C1B260E7C7
:10090000002AE4D10298C1B2EEE7012900D14DE7F7
:10091000404E40480A3600787678301802295BD07D
:10092000032900D04BE747E701290BD0394E39485E
:100930000A360078B6783018022907D0032908D083
:10094000614623E7002A06D1604648E0002A02D12A
:1009500030E7002A43D0614654E001290BD02D4EE8
:100960002C480A360078F6783018022907D0032977
:1009700008D000990AE7002A06D100982FE0002A43
:1009800002D117E7002A2AD000993BE001290BD0B9
:10099000204E20480A36007836793018022907D0D0
:1009A000032908D00199F1E6002A06D1019816E042
:1009B000002A02D1FEE6002A11D0019922E0154852
:1009C0000A30C7790129A2D00A38124E00780A36B7
:1009D000F679A2E7F818EDE6002AB9D0E8E6C018E3
:1009E000E8E6002A0DD1194602E0002A09D1039950
:1009F0005A2004F055FD0748401D0178E1E6002A21
:100A000005D000215A2004F04BFD002100E7029898
:100A1000D0E600006200002040000020FFB57D25E8
:100A200081B00446ED00294618460A9EFFF760FB98
:100A30000A21FFF75DFB009129463046FFF758FB7E
:100A40000A21FFF755FB0F4600263146039805F0B3
:100A500044FD00280BD10121039805F03EFD00283C
:100A600005D10221039805F038FD002821D0072187
:100A7000039805F032FD00281BD1012600210398C0
:100A800005F02BFD002802D0372002F0BDFF012128
:100A9000039805F022FD002802D0382002F0B4FFB0
:100AA0000221039805F019FD002802D0392002F038
:100AB000ABFF0721039805F010FD002815D0002199
:100AC000039805F00AFD00280FD10121039805F0D5
:100AD00004FD002809D10221039805F0FEFC00283E
:100AE00003D102263A2002F08FFF0721039805F078
:100AF000F4FC002812D00021039805F0EEFC002839
:100B00000BD10121039805F0E8FC002805D1022152
:100B1000039805F0E2FC002800D003260321039887
:100B200005F0DBFC00281BD00721039805F0D5FC5D
:100B3000002815D10021039805F0CFFC00280FD123
:100B40000121039805F0C9FC002809D1022103986E
:100B500005F0C3FC002803D104263B2002F054FF1B
:100B60000221029805F0B9FC002820D00321039847
:100B700005F0B3FC00281AD10721039805F0ADFC5D
:100B8000002814D10021039805F0A7FC00280ED1FD
:100B90000121039805F0A1FC002808D10221039847
:100BA00005F09BFC002802D1052605F06CFB022114
:100BB000029805F092FC002820D10321039805F04B
:100BC0008CFC00281AD10721039805F086FC002828
:100BD00014D10021039805F080FC00280ED10121DA
:100BE000039805F07AFC002808D10221039805F04B
:100BF00074FC002802D1002605F045FB012C77D0BB
:100C00007A4D022C3DD0032C41D0042C48D0052C29
:100C10004CD0062C50D0072C54D0082C58D0092C7E
:100C20005CD00A2C65D00B2C69D00C2C6DD00D2C0F
:100C300076D00E2C7AD00F2C6FD0102C6ED0112CB9
:100C400056D0122C54D0132C52D0142C67D0152C03
:100C500072D0162C71D0172C70D0182C6FD0192C84
:100C60006ED01A2C6DD01B2C42D01C2C40D01D2CC9
:100C70003ED01E2C3CD031460120FFF707FC05B0CA
:100C8000F0BD31462046FFF701FC697804E03146AB
:100C90002046FFF7FBFBA978412004F001FCEEE7BA
:100CA00031462046FFF7F2FBE978F5E7314620466A
:100CB000FFF7ECFB2979EFE731462046FFF7E6FB2B
:100CC0006979E9E731462046FFF7E0FBA979E3E7D8
:100CD00031462046FFF7DAFBE979DDE73146204669
:100CE000FFF7D4FB0021412004F0DAFB297934E03E
:100CF00078E031462046FFF7C9FBE9782DE0314620
:100D00002046FFF7C3FBA97827E031462046FFF7CE
:100D1000BDFB697821E003E008E013E018E01EE085
:100D200031462046FFF7B2FB297816E031462046CF
:100D3000FFF7ACFB697910E01DE02DE039E03EE003
:100D400043E048E031462046FFF7A0FBA97904E0E4
:100D500031462046FFF79AFB002139209DE73146B6
:100D60002046FFF793FB2148E9790830C05D081859
:100D7000C1B2102091E731462046FFF787FB1B4C9C
:100D800010200834E15D04F08BFB0098E979205CC9
:100D90000818C1B2682080E731462046FFF776FB8D
:100DA000124800990830415C682004F079FB2979E9
:100DB00016E031462046FFF769FBE97810E031463E
:100DC0002046FFF763FBA9780AE031462046FFF78B
:100DD0005DFB697804E031462046FFF757FB0021B0
:100DE00061205AE73146204647E700006C000020AA
:100DF000FFB57D250446ED0081B01E46294610460C
:100E0000FFF776F90A21FFF773F90091294630467A
:100E1000FFF76EF90A21FFF76BF90F4600263146FE
:100E2000029805F05AFB002817D10121029805F01D
:100E300054FB002811D10221029805F04EFB002836
:100E40000BD10321029805F048FB002805D10421AD
:100E5000029805F042FB00281ED00621029805F0FA
:100E60003CFB002818D10821029805F036FB002829
:100E700012D10A21029805F030FB00280CD10B2179
:100E8000029805F02AFB002806D10C21029805F0F3
:100E900024FB002800D101260621029805F01DFB45
:100EA000002817D10821029805F017FB002811D15E
:100EB0000A21029805F011FB00280BD10B210298A2
:100EC00005F00BFB002805D10C21029805F005FB6D
:100ED00000281ED00021029805F0FFFA002818D142
:100EE0000121029805F0F9FA002812D10221029896
:100EF00005F0F3FA00280CD10321029805F0EDFA71
:100F0000002806D10421029805F0E7FA002800D154
:100F100002260021029805F0E0FA002817D10121ED
:100F2000029805F0DAFA002811D10221029805F0A2
:100F3000D4FA00280BD10321029805F0CEFA00283C
:100F400005D10421029805F0C8FA00281ED0062118
:100F5000029805F0C2FA002817D10821029805F07E
:100F6000BCFA002811D10A21029805F0B6FA00282F
:100F70000BD10B21029805F0B0FA002805D10C2105
:100F8000029805F0AAFA002800D003260021029852
:100F900005F0A3FA002836D10121029805F09DFA48
:100FA000002830D10221029805F097FA00282AD1B2
:100FB0000321029805F091FA002824D10421029817
:100FC00005F08BFA00281ED10621029805F085FA5B
:100FD000002818D10821029805F07FFA002812D1C4
:100FE0000A21029805F079FA00280CD10B21029809
:100FF00005F073FA002806D10C21029805F06DFA6D
:10100000002800D10026C94D0021E88905F065FAC5
:10101000002801D00C208CE00121E88905F05DFA60
:10102000002801D0162084E00221E88905F055FA55
:10103000002801D00B207CE00321E88905F04DFA5F
:101040000028E7D10421E88905F047FA002801D0FB
:101050001F206EE00621E88905F03FFA002801D044
:10106000512066E00821E88905F037FA002801D010
:1010700047205EE00A21E88905F02FFA002801D018
:10108000532056E00B21E88905F027FA002801D00B
:1010900049204EE00F21E88905F01FFA002801D011
:1010A000062046E00021288A05F017FA002801D022
:1010B00007203EE00121288A05F00FFA002801D020
:1010C000012036E00221288A05F007FA002801D025
:1010D00002202EE00321288A05F0FFF9002801D024
:1010E0000D2026E00521288A05F0F7F9002801D017
:1010F00054201EE00721288A05F0EFF9002801D0CE
:10110000572016E00821288A05F0E7F9002801D0C9
:1011100003200EE00921288A05F0DFF9002801D01C
:10112000042006E00A21288A05F0D7F9002803D018
:10113000562002F069FC01E005F0A5F8012C6ED004
:101140007A4D2435022C3DD0032C41D0042C48D0BC
:10115000052C4CD0062C50D0072C54D0082C58D03D
:10116000092C5DD00A2C65D00B2C69D00C2C6DD0CD
:101170000D2C76D00E2C7AD00F2C6FD0102C6ED078
:10118000112C4CD0122C4AD0132C48D0142C67D0E0
:10119000152C72D0162C71D0172C70D0182C6FD043
:1011A000192C6ED01A2C6DD01B2C38D01C2C36D09C
:1011B0001D2C34D01E2C32D031460120FFF7AEFA60
:1011C00005B0F0BD31462046FFF7A8FA697804E083
:1011D00031462046FFF7A2FAA978412004F060F9D1
:1011E000EEE731462046FFF799FAE978F5E7314610
:1011F0002046FFF793FA2979EFE731462046FFF7BB
:101200008DFA6979E9E731462046FFF787FAA9792F
:10121000E3E731462046FFF781FAE979DDE782E02E
:1012200031462046FFF77AFA0021412004F038F9D0
:10123000297933E031462046FFF770FAE9782DE04E
:1012400031462046FFF76AFAA97827E03146204662
:10125000FFF764FA697821E003E008E013E018E0A2
:101260001EE031462046FFF759FA297816E031464C
:101270002046FFF753FA697910E01DE02DE039E0D0
:101280003EE043E048E031462046FFF747FAA979BF
:1012900004E031462046FFF741FA002139209DE75E
:1012A00031462046FFF73AFA2048E9792C30C05DF4
:1012B0000818C1B2102091E731462046FFF72EFAF8
:1012C0001A4C10202C34E15D04F0EAF80098E9791A
:1012D000205C0818C1B2682080E731462046FFF73D
:1012E0001DFA124800992C30415C682004F0D8F8AF
:1012F000297916E031462046FFF710FAE97810E028
:1013000031462046FFF70AFAA9780AE0314620461E
:10131000FFF704FA697804E031462046FFF7FEF94A
:10132000002161205AE73146204647E74800002067
:1013300010B5024802F002FC10BD0000E0040020DD
:1013400010B5024802F0FAFB10BD0000280400208E
:1013500010B5044802F0F2FB0248B83002F0EEFB90
:1013600010BD0000CC03002010B50446006C0949F4
:101370008008800040186064207814210838FEF747
:10138000B7FE04498031A164C106C90E012088401E
:10139000E06410BD000802400179084B8906890EFF
:1013A0008A00D2180265054A4432491E42658A07FE
:1013B000920F01219140816570470000FC080240B6
:1013C000F0B5846CC56C6560046D002C02D0446D72
:1013D000856D65600B4C6568066C1C273E400127D7
:1013E000B7403D436560046863608368102B036801
:1013F00003D099600068C260F0BD9A600068C16067
:10140000F0BD000000000240F8B54F4C0021A07B69
:1014100005F063F800264D4D0127002826D0A07B5B
:10142000012105F05AF8002820D1012105F064F8C7
:10143000A878002804D104F0B1F9EE702E71AF70D5
:10144000E07BFEF7BFFF0023E17B1A46E88804F04B
:10145000B5F90023E17B1A46288904F01FFF0096A6
:10146000227DA17BE07B2B8902F055F8A07B012136
:1014700005F033F800281AD0A07B002105F02DF8E4
:10148000002814D1012105F037F8E878002804D1AC
:1014900004F084F9AE702E71EF70E07BFEF792FFDE
:1014A0000097207D00232A89E988FEF7B3FFA07BFF
:1014B000062105F012F800282CD0A07B002105F0B1
:1014C0000CF8002826D1A07B012105F006F80028A1
:1014D00020D1012105F010F82879002804D104F06A
:1014E0005DF9EE70AE702F71E07BFEF76BFF0023AD
:1014F000E17B1A46184604F061F90023E17B1A46A5
:10150000184604F0CBFE0097227DA17BE07B0023F0
:1015100002F001F8A07B062104F0DFFF002811D1C2
:10152000A07B002104F0D9FF00280BD1A07B012172
:1015300004F0D3FF002805D104F030F9002108465B
:1015400004F0DAFFF8BD000012020020480000207D
:10155000F8B5464C464EA08A0025464F032825D1B3
:10156000608A32284BD93D800121002004F0C4FF5D
:10157000A078002805D104F011F9E570257101204B
:10158000A070F08EFEF71EFF0022F18E01231046A0
:1015900004F014F9F18E01230022608904F07EFE2C
:1015A000F08E00236289E18902F0D0F8A08A022837
:1015B0001BD1608A322822D93D800121002004F00D
:1015C0009BFFE078002805D104F0E8F8A5702571AC
:1015D0000120E070F08EFEF7F5FE0320009001235D
:1015E00000226189E089FEF715FFA08A012803D057
:1015F000022801D0032829D1608A322826D83888C9
:10160000002826D1012020700146002004F074FF3C
:101610002079002805D104F0C1F8E570A5700120FB
:101620002071F08EFEF7CEFE0022F18E01231046CF
:1016300004F0C4F80022F18E0123104604F02EFEBF
:10164000F08E01236289E18902F080F83888002851
:1016500005D004F0A3F80021084604F04DFF608A8D
:10166000401E312800D83D80F8BD00004800002011
:10167000560200204600002010B5074C00236118D8
:1016800004E0C418E478CC545B1CDBB21446521E50
:10169000D2B2002CF5D110BD1202002010B5074CBB
:1016A0000023611804E0C4182479CC545B1CDBB21D
:1016B0001446521ED2B2002CF5D110BD2D020020CE
:1016C000F0B50C4C0023490009190CE0C418E5786A
:1016D0005C000D5325182E79EF7835023D436DBA25
:1016E0005B1C0D53DBB21446521ED2B2002CEDD15E
:1016F000F0BD00005602002070B50120FEF7D4FDB9
:10170000002804D064221B490120FEF7DBFD1948A4
:1017100001240178184D452902D0DD291CD002E0B2
:10172000417847290ED0417803290AD1807854287E
:1017300007D110496422881AFEF720FD04F062FEEA
:101740002C7170BD0B4912220846A838FEF716FD11
:1017500004F000FEAC7070BD40780328FBD1054951
:10176000322208469638FEF709FD04F00FFEEC70B1
:1017700070BD0000AE0100201800002030B5074CFD
:101780000023611804E0CC5CC5185B1CAC70DBB2B4
:101790001446521ED2B2002CF5D130BD12020020E8
:1017A000FFB5FF4883B0018800250D9E002904D0B5
:1017B000FC4A01215171058001E0FA48457102217E
:1017C000049804F08AFEF74C1F3400284FD0032100
:1017D000049804F082FE002849D10421049804F002
:1017E0007CFE002843D10521049804F076FE0028F1
:1017F0003DD10321059804F070FE002837D1042163
:10180000059804F06AFE002831D10521059804F0FE
:1018100064FE00282BD10621059804F05EFE002806
:1018200025D10721059804F058FE00281FD100217A
:10183000059804F052FE002819D10121059804F002
:101840004CFE002813D10221059804F046FE002822
:101850000DD16178032002900195D2480091417921
:101860000C9B069A039804F083F904F00CFD032105
:10187000049804F032FE00284FD00221049804F0AE
:101880002CFE002849D10421049804F026FE0028EB
:1018900043D10521049804F020FE00283DD1032106
:1018A000059804F01AFE002837D10421059804F0A9
:1018B00014FE002831D10521059804F00EFE002801
:1018C0002BD10621059804F008FE002825D1072118
:1018D000059804F002FE00281FD10021059804F0AD
:1018E000FCFD002819D10121059804F0F6FD00281F
:1018F00013D10221059804F0F0FD00280DD1A17844
:10190000032002900195A748009141790C9B069A0B
:10191000039804F02DF904F0B6FC0421049804F0B7
:10192000DCFDA04F1A3700284FD00221049804F0A4
:10193000D4FD002849D10321049804F0CEFD0028ED
:1019400043D10521049804F0C8FD00283DD10321AE
:10195000059804F0C2FD002837D10421059804F051
:10196000BCFD002831D10521059804F0B6FD002802
:101970002BD10621059804F0B0FD002825D10721C0
:10198000059804F0AAFD00281FD10021059804F055
:10199000A4FD002819D10121059804F09EFD00281E
:1019A00013D10221059804F098FD00280DD1F87894
:1019B00004210090019502917A480C9B4179069A86
:1019C000039804F0D5F804F05EFC0521049804F0B7
:1019D00084FD00284FD00221049804F07EFD0028E9
:1019E00049D10321049804F078FD002843D1042153
:1019F000049804F072FD00283DD10321059804F0FD
:101A00006CFD002837D10421059804F066FD0028FC
:101A100031D10521059804F060FD00282BD1062165
:101A2000059804F05AFD002825D10721059804F0F7
:101A300054FD00281FD10021059804F04EFD002818
:101A400019D10121059804F048FD002813D1022185
:101A5000059804F042FD00280DD1E17803200290A2
:101A600001955048009141790C9B069A039804F027
:101A70007FF804F008FC0221049804F02EFD0028F1
:101A800052D00321049804F028FD00284CD00421F2
:101A9000049804F022FD002846D10521049804F0A2
:101AA0001CFD002840D10321059804F016FD0028F4
:101AB0003AD10421059804F010FD002834D1052105
:101AC000059804F00AFD00282ED10621059804F09F
:101AD00004FD002828D10721059804F0FEFC002809
:101AE00022D10021059804F0F8FC00281CD1012126
:101AF000059804F0F2FC002816D10221059804F0A4
:101B0000ECFC002810D16178A2780320891802909B
:101B1000C9B201952348009141790C9B069A03981C
:101B200004F026F804F0AFFB0221049804F0D5FC81
:101B3000002854D00421049804F0CFFC00284ED093
:101B40000321049804F0C9FC002848D10521049819
:101B500004F0C3FC002842D10321059804F0BDFC29
:101B600000283CD10421059804F0B7FC002836D1A8
:101B70000521059804F0B1FC002830D10621059814
:101B800004F0ABFC00282AD10721059804F0A5FC3D
:101B9000002824D10021059804F09FFC002803E0D0
:101BA000340000204800002019D10121059804F0DC
:101BB00094FC002813D10221059804F08EFC002823
:101BC0000DD160780822F9786B4607C3FE480C9B5C
:101BD0004179069A039803F0CBFF04F054FB0221ED
:101BE000049804F07AFC002852D00521049804F0EF
:101BF00074FC00284CD00321049804F06EFC0028EB
:101C000046D10421049804F068FC002840D1032147
:101C1000059804F062FC00283AD10421059804F0EC
:101C20005CFC002834D10521059804F056FC0028FE
:101C30002ED10621059804F050FC002828D1072158
:101C4000059804F04AFC002822D10021059804F0F0
:101C500044FC00281CD10121059804F03EFC00281A
:101C600016D10221059804F038FC002810D16178C3
:101C7000E278032089180290C9B20195D2480091F8
:101C800041790C9B069A039803F072FF04F0FBFA6B
:101C90000321049804F021FC00284FD0042104986B
:101CA00004F01BFC002849D00221049804F015FC24
:101CB000002843D10521049804F00FFC00283DD1F1
:101CC0000321059804F009FC002837D10421059868
:101CD00004F003FC002831D10521059804F0FDFB38
:101CE00000282BD10621059804F0F7FB002825D108
:101CF0000721059804F0F1FB00281FD10021059869
:101D000004F0EBFB002819D10121059804F0E5FB54
:101D1000002813D10221059804F0DFFB00280DD123
:101D2000A0780822F9786B4607C3A7480C9B417935
:101D3000069A039803F01CFF04F0A5FA0321049807
:101D400004F0CBFB002852D00521049804F0C5FB19
:101D500000284CD00221049804F0BFFB002846D193
:101D60000421049804F0B9FB002840D10321059810
:101D700004F0B3FB00283AD10421059804F0ADFB30
:101D8000002834D10521059804F0A7FB00282ED1A6
:101D90000621059804F0A1FB002828D10721059809
:101DA00004F09BFB002822D10021059804F095FB4C
:101DB00000281CD10121059804F08FFB002816D1C2
:101DC0000221059804F089FB002810D1A178E2785F
:101DD000032089180290C9B201957B48009141798E
:101DE0000C9B069A039803F0C3FE04F04CFA0421FE
:101DF000049804F072FB00284FD00521049804F0E9
:101E00006CFB002849D00221049804F066FB0028EE
:101E100043D10321049804F060FB00283DD1032145
:101E2000059804F05AFB002837D10421059804F0E6
:101E300054FB002831D10521059804F04EFB002801
:101E40002BD10621059804F048FB002825D1072155
:101E5000059804F042FB00281FD10021059804F0EA
:101E60003CFB002819D10121059804F036FB00281D
:101E700013D10221059804F030FB00280DD1E07841
:101E80000822F9786B4607C34F480C9B4179069AA4
:101E9000039803F06DFE04F0F6F90221049804F0B3
:101EA0001CFB002853D00321049804F016FB0028E3
:101EB0004DD00421049804F010FB002847D00521E0
:101EC000049804F00AFB002841D10321059804F08E
:101ED00004FB00283BD10421059804F0FEFA0028F9
:101EE00035D10521059804F0F8FA00282FD10621F4
:101EF000059804F0F2FA002829D10721059804F08A
:101F0000ECFA002823D10021059804F0E6FA002815
:101F10001DD10121059804F0E0FA002817D1022113
:101F2000059804F0DAFA002811D16278A378F978DC
:101F3000D2180820D2B202900092019122480C9B44
:101F40004179069A039803F013FE04F09CF90221EC
:101F5000049804F0C2FA002857D00321049804F032
:101F6000BCFA002851D00421049804F0B6FA0028E5
:101F70004BD10521049804F0B0FA002845D0032184
:101F8000059804F0AAFA00283FD10421059804F02E
:101F9000A4FA002839D10521059804F09EFA0028FA
:101FA00033D10621059804F098FA00282DD1072195
:101FB000059804F092FA002827D10021059804F032
:101FC0008CFA002821D101E0480000200121059869
:101FD00004F083FA002818D10221059804F07DFA54
:101FE000002812D16178A27803208918E278029043
:101FF0008918C9B20195FF48009141790C9B069A56
:10200000039803F0B5FD04F03EF90221049804F0B2
:1020100064FA002853D00321049804F05EFA0028E3
:102020004DD10421049804F058FA002847D0052126
:10203000049804F052FA002841D00321059804F0D6
:102040004CFA00283BD10421059804F046FA0028F8
:1020500035D10521059804F040FA00282FD106213A
:10206000059804F03AFA002829D10721059804F0D0
:1020700034FA002823D10021059804F02EFA002814
:102080001DD10121059804F028FA002817D102215A
:10209000059804F022FA002811D16278E378F978E3
:1020A000D2180820D2B2029000920191D1480C9B24
:1020B0004179069A039803F05BFD04F0E4F80221ED
:1020C000049804F00AFA002853D10321049804F07C
:1020D00004FA00284DD00421049804F0FEF90028E9
:1020E00047D00521049804F0F8F9002841D00321D5
:1020F000059804F0F2F900283BD10421059804F07A
:10210000ECF9002835D10521059804F0E6F90028FE
:102110002FD10621059804F0E0F9002829D10721E4
:10212000059804F0DAF9002823D10021059804F07D
:10213000D4F900281DD10121059804F0CEF900281A
:1021400017D10221059804F0C8F9002811D1A2780E
:10215000E378F878D2180821D2B201900092029167
:10216000A4480C9B4179069A039803F001FD04F002
:102170008AF80221049804F0B0F9002855D0032110
:10218000049804F0AAF900284FD00421049804F020
:10219000A4F9002849D00521049804F09EF90028EC
:1021A00043D00321059804F098F900283DD104217B
:1021B000059804F092F9002837D10521059804F01C
:1021C0008CF9002831D10621059804F086F9002801
:1021D0002BD10721059804F080F9002825D1002192
:1021E000059804F07AF900281FD10121059804F020
:1021F00074F9002819D10221059804F06EF900281D
:1022000013D16278A378F978D218E3780820D2182D
:10221000D2B202900092019176480C9B4179069AC5
:10222000039803F0A5FC04F02EF80021059804F0B3
:1022300054F900280BD10121059804F04EF900282B
:1022400005D10221059804F048F9002846D007215D
:10225000059804F042F9002840D16748008800281A
:102260000ED0002E0ED1012002900195014600955E
:102270000C9B069A039803F07BFC5F48058014E0F2
:10228000002E07D0012001950290009501460C9B7D
:10229000069A07E0797801200195029000910C9B45
:1022A000069A0021039803F063FC0021059804F0CE
:1022B00014F9002801D037200EE00121059804F020
:1022C0000CF9002801D0382006E00221059804F01E
:1022D00004F9002802D0392001F096FB032105986B
:1022E00004F0FBF8002859D00421059804F0F5F813
:1022F000002853D10521059804F0EFF800284DD1AE
:102300000621059804F0E9F8002847D1072105982F
:1023100004F0E3F8002841D10021059804F0DDF82D
:1023200000283BD10121059804F0D7F8002835D1C9
:102330000221059804F0D1F800282FD12E480088FA
:1023400000280FD0002E0FD1617803200290019554
:10235000009101210C9B069A039803F009FC264882
:10236000058018E0002E08D06178032001950091C7
:10237000029001210C9B069A0AE0217862780320E2
:102380008918C9B20195029000910C9B069A002110
:10239000039803F0EDFB282001F036FB042105989B
:1023A00004F09BF800285ED00321059804F095F80E
:1023B000002858D10521059804F08FF8002852D143
:1023C0000621059804F089F800284CD107210598CA
:1023D00004F083F8002846D10021059804F07DF828
:1023E000002840D10121059804F077F800283AD15F
:1023F000022103E04800002040000020059804F07E
:102400006CF800282FD1FE48008800280FD0002E3D
:102410000FD1A078032102910195009001210C9B1E
:10242000069A039803F0A4FBF548058018E0002EF7
:1024300008D0A178032001950091029001210C9B06
:10244000069A0AE02178A27803208918C9B201957A
:10245000029000910C9B069A0021039803F088FBE0
:10246000292001F0D1FA0521059804F036F800285A
:1024700056D00321059804F030F8002850D10421EB
:10248000059804F02AF800284AD10621059804F09E
:1024900024F8002844D10721059804F01EF80028EC
:1024A0003ED10021059804F018F8002838D1012108
:1024B000059804F012F8002832D10221059804F0A2
:1024C0000CF800282CD1CE48008800280FD0002E10
:1024D0000FD1F978082001910290009501210C9B01
:1024E000069A039803F044FBC548058015E0002ECA
:1024F00008D0F978082001910290009501210C9BE9
:10250000069A07E020780822F9786B4607C30C9BEF
:10251000069A0021039803F02BFB2A2001F074FA9D
:102520000621059803F0D9FF002859D0032105980A
:1025300003F0D3FF002853D10421059803F0CDFF09
:1025400000284DD10521059803F0C7FF002847D189
:102550000721059803F0C1FF002841D1002105980B
:1025600003F0BBFF00283BD10121059803F0B5FF24
:10257000002835D10221059803F0AFFF00282FD1A4
:102580009F48008800280FD0002E0FD1E17803204B
:1025900002900195009101210C9B069A039803F08B
:1025A000E7FA9748058018E0002E08D0E17803206C
:1025B00001950091029001210C9B069A0AE0217876
:1025C000E27803208918C9B20195029000910C9B12
:1025D000069A0021039803F0CBFA2B2001F014FA9D
:1025E0000321059803F079FF002861D004210598A4
:1025F00003F073FF00285BD00521059803F06DFF01
:10260000002855D10621059803F067FF00284FD117
:102610000721059803F061FF002849D100210598A2
:1026200003F05BFF002843D10121059803F055FF1B
:1026300000283DD10221059803F04FFF002837D133
:102640006F480088002812D0002E12D16178A2783D
:1026500003208918C9B202900195009101210C9BB9
:10266000069A039803F084FA654805801DE0002E61
:102670000BD06178A27803208918C9B20195009126
:10268000029001210C9B069A0CE0217862780320CD
:102690008918A27801958918C9B2029000910C9B03
:1026A000069A0021039803F063FA2C2001F0ACF99C
:1026B0000321059803F011FF00285AD00521059841
:1026C00003F00BFF002854D00421059803F005FF08
:1026D00000284ED10621059803F0FFFE002848D1BE
:1026E0000721059803F0F9FE002842D10021059842
:1026F00003F0F3FE00283CD10121059803F0EDFE24
:10270000002836D10221059803F0E7FE002830D1D9
:102710003B48008800280FD0002E0FD16078082297
:10272000F9786B4607C301210C9B069A039803F0C6
:102730001FFA3348058019E0002E08D0607808227F
:10274000F9786B4607C301210C9B069A0BE02278AF
:102750006378F878D2180821D2B2009202910190E1
:102760000C9B069A0021039803F002FA2D2001F039
:102770004BF90321059803F0B0FE002863D0062131
:10278000059803F0AAFE00285DD00421059803F007
:10279000A4FE002857D10521059803F09EFE0028CD
:1027A00051D10721059803F098FE00284BD1002154
:1027B000059803F092FE002845D10121059803F009
:1027C0008CFE00283FD10221059803F086FE0028E8
:1027D00039D10B480088002814D0002E14D161781C
:1027E000E27803208918C9B2029001950091012175
:1027F0000C9B069A039803F0BBF9014805801FE083
:1028000040000020002E0BD06178E2780320891868
:10281000C9B201950091029001210C9B069A0CE02F
:102820002178627803208918E27801958918C9B265
:10283000029000910C9B069A0021039803F098F9EE
:102840002E2001F0E1F80421059803F046FE00284F
:102850005AD00521059803F040FE002854D00321EA
:10286000059803F03AFE00284ED10621059803F0A2
:1028700034FE002848D10721059803F02EFE0028D9
:1028800042D10021059803F028FE00283CD1012107
:10289000059803F022FE002836D10221059803F0A6
:1028A0001CFE002830D1FE48008800280FD0002EE2
:1028B0000FD1A0780822F9786B4607C301210C9B41
:1028C000069A039803F054F9F548058019E0002EA4
:1028D00008D0A0780822F9786B4607C301210C9B29
:1028E000069A0BE02278A378F878D2180821D2B2A1
:1028F0000092029101900C9B069A0021039803F02C
:1029000037F92F2001F080F80521059803F0E5FD47
:1029100000285AD00621059803F0DFFD002854D086
:102920000321059803F0D9FD00284ED10421059814
:1029300003F0D3FD002848D10721059803F0CDFD11
:10294000002842D10021059803F0C7FD00283CD1A2
:102950000121059803F0C1FD002836D10221059818
:1029600003F0BBFD002830D1CD48008800280FD0EF
:10297000002E0FD1E0780822F9786B4607C30121B9
:102980000C9B069A039803F0F3F8C548058019E0FC
:10299000002E08D0E0780822F9786B4607C30121A1
:1029A0000C9B069A0BE02278E378F978D21808207D
:1029B000D2B20092019102900C9B069A00210398DA
:1029C00003F0D6F8302001F01FF80421059803F039
:1029D00084FD002861D00621059803F07EFD0028C3
:1029E0005BD00321059803F078FD002855D105211F
:1029F000059803F072FD00284FD10721059803F0D8
:102A00006CFD002849D10021059803F066FD0028DF
:102A100043D10121059803F060FD00283DD102213A
:102A2000059803F05AFD002837D19D4800880028FA
:102A300012D0002E12D1A178E27803208918C9B2F1
:102A400002900195009101210C9B069A039803F0D6
:102A50008FF8934805801DE0002E0BD0A178E27816
:102A600003208918C9B201950091029001210C9BA5
:102A7000069A0CE02178A27803208918E278019563
:102A80008918C9B2029000910C9B069A0021039804
:102A900003F06EF8312000F0B7FF0321059803F032
:102AA0001CFD002867D00421059803F016FD0028BE
:102AB00061D00621059803F010FD00285BD00521A8
:102AC000059803F00AFD002855D10721059803F069
:102AD00004FD00284FD10021059803F0FEFC0028DA
:102AE00049D10121059803F0F8FC002843D10221C7
:102AF000059803F0F2FC00283DD1694800880028C1
:102B000014D0002E14D16178A27803208918E278BD
:102B100002908918C9B20195009101210C9B069A77
:102B2000039803F025F85E48058021E0002E0DD0C3
:102B30006178A27803208918E27801958918C9B2D2
:102B40000091029001210C9B069A0EE02178627898
:102B5000E3788918A2780320D2188918C9B20195A0
:102B6000029000910C9B069A0021039803F000F854
:102B7000322000F049FF0321059803F0AEFC002845
:102B800064D00421059803F0A8FC00285ED005213C
:102B9000059803F0A2FC002858D00621059803F000
:102BA0009CFC002852D10721059803F096FC0028D0
:102BB0004CD10021059803F090FC002846D101215A
:102BC000059803F08AFC002840D10221059803F003
:102BD00084FC00283AD132480088002813D0002E07
:102BE00013D16278A378F978D2180820D2B2019173
:102BF0000290009201210C9B069A039802F0B8FF04
:102C0000274805801FE0002E0CD06278A378F97861
:102C1000D2180820D2B201910092029001210C9B9F
:102C2000069A0DE022786378F978D218A378082004
:102C3000D218D2B20092019102900C9B069A002108
:102C4000039802F095FF332000F0DEFE0321059883
:102C500003F043FC002867D00521059803F03DFCF4
:102C6000002861D00621059803F037FC00285BD0CE
:102C70000421059803F031FC002855D1072105985F
:102C800003F02BFC00284FD10021059803F025FC10
:102C9000002849D10121059803F01FFC002801E01C
:102CA0004000002040D10221059803F016FC0028C6
:102CB0003AD1FD480088002813D0002E13D1627845
:102CC000E378F878D2180821D2B2029101900092EC
:102CD00001210C9B069A039802F04AFFF2480580F6
:102CE0001FE0002E0CD06278E378F978D218082023
:102CF000D2B201910092029001210C9B069A0DE044
:102D000022786378F978D218E3780820D218D2B202
:102D10000092019102900C9B069A0021039802F008
:102D200027FF342000F070FE0421059803F0D5FB46
:102D3000002864D00521059803F0CFFB00285ED061
:102D40000621059803F0C9FB002858D003210598F7
:102D500003F0C3FB002852D10721059803F0BDFB07
:102D600000284CD10021059803F0B7FB002846D17C
:102D70000121059803F0B1FB002840D102210598FC
:102D800003F0ABFB00283AD1C7480088002813D0D5
:102D9000002E13D1A278E378F978D2180820D2B2A5
:102DA00001910290009201210C9B069A039802F077
:102DB000DFFEBD4805801FE0002E0CD0A278E3782E
:102DC000F978D2180820D2B2019100920290012124
:102DD0000C9B069A0DE02278A378F978D218E37854
:102DE0000820D218D2B20092019102900C9B069A50
:102DF0000021039802F0BCFE352000F005FE0321FF
:102E0000059803F06AFB00286AD00421059803F0B6
:102E100064FB002864D00521059803F05EFB0028C0
:102E20005ED00621059803F058FB002858D00721F2
:102E3000059803F052FB002852D10021059803F0B9
:102E40004CFB00284CD10121059803F046FB0028DB
:102E500046D10221059803F040FB002840D192485A
:102E60000088002815D0002E15D16278A378F87854
:102E7000D218E3780821D218D2B2029101900092C0
:102E800001210C9B069A039802F072FE8648058089
:102E900023E0002E0ED06278A378F978D218E37878
:102EA0000820D218D2B201910092029001210C9B0D
:102EB000069A0FE022786378F978D218A378E4783C
:102EC00008201B19D218D2B20092019102900C9BDB
:102ED000069A0021039802F04BFE362000F094FD84
:102EE0000721059803F0F9FA00283BD00021059846
:102EF00003F0F3FA002835D10121059803F0EDFA2B
:102F000000282FD10221059803F0E7FA002829D1E3
:102F1000654C208800280DD0002E0DD10120029094
:102F20000195014600950C9B069A039802F020FE3D
:102F3000258014E0002E07D0012001950290009515
:102F400001460C9B069A07E0397801200195029012
:102F500000910C9B069A0021039802F009FE3A208A
:102F600000F052FD0721059803F0B7FA00283BD086
:102F70000021059803F0B1FA00280BD10121059832
:102F800003F0ABFA002805D10221059803F0A5FA59
:102F9000002829D0444C208800280DD0002E0DD1C7
:102FA000012002900195014600950C9B069A03981A
:102FB00002F0DEFD258017E0002E07D001200195EC
:102FC0000290009501460C9B069A0AE039787A78BF
:102FD00001208918C9B20195029000910C9B069AB4
:102FE0000021039802F0C4FD0221049803F075FA51
:102FF000002857D10321049803F06FFA002851D11B
:103000000421049803F069FA00284BD105210498A3
:1030100003F063FA002845D10321059803F05DFA17
:1030200000283FD10421059803F057FA002839D130
:103030000521059803F051FA002833D1062105989F
:1030400003F04BFA00282DD10721059803F045FA2B
:10305000002827D10021059803F03FFA002821D14C
:103060000121059803F039FA00281BD102210598A7
:1030700003F033FA002815D1002E07D00A2001955D
:103080000290009501210C9B069A06E0019502959D
:103090000648009541790C9B069A039802F068FD5A
:1030A00003F0F1F807B0F0BD400000204800002018
:1030B000FFB5F84883B0018801260025F64C0C9F27
:1030C000002902D06671058000E065710021049836
:1030D00003F003FA002817D10121049803F0FDF949
:1030E000002811D10221049803F0F7F900280BD130
:1030F0000321049803F0F1F9002805D10521049873
:1031000003F0EBF9002847D00721049803F0E5F914
:10311000002841D10921049803F0DFF900283BD1B0
:103120000A21049803F0D9F9002835D10B2104981D
:1031300003F0D3F900282FD10D21049803F0CDF925
:10314000002829D1D548008800280DD0002F0DD1A6
:103150000095019502960121069B059A039802F0BD
:10316000C5FECE48058017E0002F06D000950195DA
:1031700002960121069B059A0BE0C748C6491F30FD
:103180001A310078497800910190069B059A0296C1
:103190000021039802F0AAFE0721049803F09DF98C
:1031A000002817D10921049803F097F9002811D1BC
:1031B0000A21049803F091F900280BD10B210498FF
:1031C00003F08BF9002805D10D21049803F085F94F
:1031D000002847D00021049803F07FF9002841D14E
:1031E0000121049803F079F900283BD102210498C9
:1031F00003F073F9002835D10321049803F06DF929
:1032000000282FD10521049803F067F9002829D15F
:10321000A248008800280DD0002F0DD100950195FF
:1032200002960121069B059A039802F05FFE9B48D7
:10323000058017E0002F06D0009501950296012128
:10324000069B059A0BE0944893491F301A31007889
:10325000097800910190069B059A02960021039837
:1032600002F044FE0021049803F037F9002817D13A
:103270000121049803F031F9002811D102210498AA
:1032800003F02BF900280BD10321049803F025F952
:10329000002805D10521049803F01FF9002848D023
:1032A0000721049803F019F9002817D1092104987F
:1032B00003F013F9002811D10A21049803F00DF945
:1032C00000280BD10B21049803F007F9002805D141
:1032D0000D21049803F001F900282AD06F480088D6
:1032E00000280DD0002F0DD10095019502960121E7
:1032F000069B059A039802F0F9FD6848058018E0DE
:10330000002F06D00095019502960121069B059A93
:103310000CE061481F300178401F02784078101897
:10332000C0B26A4643C2069B059A0021039802F088
:10333000DDFD0021049803F0D0F8002848D10121D8
:10334000049803F0CAF8002842D10221049803F03F
:10335000C4F800283CD10321049803F0BEF80028EB
:1033600036D10521049803F0B8F8002830D10721A0
:10337000049803F0B2F800282AD10921049803F038
:10338000ACF8002824D10A21049803F0A6F80028FC
:103390001ED10B21049803F0A0F8002818D10D21AC
:1033A000049803F09AF8002812D1002F07D00A20C1
:1033B0000095019502900121069B059A05E0009574
:1033C000019502956179069B059A039802F08EFD9E
:1033D0000021E08903F081F8002818D10121E0895B
:1033E00003F07BF8002804D0162000F00DFB07B096
:1033F000F0BD0221E08903F070F8002801D00B2015
:10340000F3E70321E08903F068F8002801D00C20DD
:10341000EBE70521E08903F060F8002801D02020C7
:10342000E3E70721E08903F058F8002801D0522093
:10343000DBE70921E08903F050F8002801D048209B
:10344000D3E70A21E08903F048F8002801D053208F
:10345000CBE70B21E08903F040F8002801D0492098
:10346000C3E70F21E08903F038F8002801D00620D7
:10347000BBE70021208A03F030F8002801D00720A4
:10348000B3E70121208A03F028F8002808D00120A2
:10349000ABE700003400002048000020400000207E
:1034A0000221208A03F019F8002801D002209CE7AD
:1034B0000421208A03F011F8002801D0172094E796
:1034C0000621208A03F009F8002801D055208CE756
:1034D0000721208A03F001F8002801D0572084E753
:1034E0000821208A02F0F9FF002801D003207CE7A0
:1034F0000921208A02F0F1FF002801D0042074E79E
:103500000A21208A02F0E9FF002801D056206CE74A
:1035100002F0B9FE6BE7FEB50F4604467D21164664
:10352000C9001846089DFCF7E3FD0A21FCF7E0FD01
:103530005F2C04D3C8B200230195009007E0204619
:103540005C38032809D2C8B20123019500903246A5
:1035500039462046FEF724F9FEBD20465938032897
:1035600004D2C8B2022301950090F0E720465538F6
:10357000042804D2C8B2032301950090E7E720464F
:103580005238032804D2C8B2042301950090DEE724
:1035900020464F38032804D2C8B205230195009075
:1035A000D5E720464B38042804D2C8B2062301953B
:1035B0000090CCE720464838032804D2C8B207233D
:1035C00001950090C3E720464538032804D2C8B2CD
:1035D000082301950090BAE720464238032804D218
:1035E000C8B21C2301950090B1E720463E3804285C
:1035F00004D2C8B21D2301950090A8E720463B38AD
:10360000032804D2C8B20923019500909FE7204601
:103610003838032804D2C8B20A230195009096E7EF
:1036200020463438042804D2C8B20B2301950090F8
:103630008DE720463138032804D2C8B20C23019507
:10364000009084E720462E38032804D2C8B20D2308
:10365000019500907BE720462A38042804D2C8B29E
:103660000E230195009072E720462738032804D2E4
:10367000C8B20F230195009069E72046243803283B
:1036800004D2C8B210230195009060E7204621388B
:10369000032804D2C8B211230195009057E72046B1
:1036A0001D38042804D2C8B21223019500904EE7B9
:1036B00020461A38032804D2C8B21323019500907B
:1036C00045E720461738032804D2C8B214230195D1
:1036D00000903CE720461338042804D2C8B21523D2
:1036E0000195009033E720461038032804D2C8B271
:1036F0001623019500902AE720460D38032804D2AE
:10370000C8B217230195009021E720460938042804
:1037100004D2C8B218230195009018E7A01F03280F
:1037200004D2C8B219230195009010E7E01E0328C7
:1037300004D2C8B21A230195009008E7032C00D3E5
:103740000AE7C8B21B230195009000E7F8B50E46C2
:1037500004467D211D46C9001046FCF7C9FC0A211C
:10376000FCF7C6FC5F2C03D3CBB20022009506E029
:1037700020465C38032807D2CBB20122009531469F
:103780002046FFF795FCF8BD20465938032803D2A0
:10379000CBB202220095F2E720465538042803D226
:1037A000CBB203220095EAE720465238032803D221
:1037B000CBB204220095E2E720464F38032803D21B
:1037C000CBB205220095DAE720464B38042803D215
:1037D000CBB206220095D2E720464838032803D210
:1037E000CBB207220095CAE720464538032803D20A
:1037F000CBB208220095C2E720464238032803D204
:10380000CBB21C220095BAE720463E38042803D2EA
:10381000CBB21D220095B2E720463B38032803D2E5
:10382000CBB209220095AAE720463838032803D2F4
:10383000CBB20A220095A2E720463438042803D2EE
:10384000CBB20B2200959AE720463138032803D2E9
:10385000CBB20C22009592E720462E38032803D2E3
:10386000CBB20D2200958AE720462A38042803D2DD
:10387000CBB20E22009582E720462738032803D2D8
:10388000CBB20F2200957AE720462438032803D2D2
:10389000CBB21022009572E720462138032803D2CC
:1038A000CBB2112200956AE720461D38042803D2C6
:1038B000CBB21222009562E720461A38032803D2C1
:1038C000CBB2132200955AE720461738032803D2BB
:1038D000CBB21422009552E720461338042803D2B5
:1038E000CBB2152200954AE720461038032803D2B0
:1038F000CBB21622009542E720460D38032803D2AA
:10390000CBB2172200953AE720460938042803D2A3
:10391000CBB21822009532E7A01F032803D2CBB206
:10392000192200952BE7E01E032803D2CBB21A22FE
:10393000009524E7032C00D325E7CBB21B2200958A
:103940001DE7000070B52748274C0078002810D0EC
:103950002648417C027C0902114349BAE180C17CBE
:10396000827C0802104340BA2081FDF74DFD2048BB
:1039700033E020480078002817D01F4D6878297858
:103980000002084340BA6421FCF7B2FB6081E8788A
:10399000A9780002084340BAA0812846017FC27E70
:1039A0000802104340BAE08170BD14480078002836
:1039B000FAD0134D0A212888A082E88DFCF798FBE5
:1039C0006081A88E01210904081A6082E888E081DC
:1039D000A8882082FDF7BCFD0A48007801F0B0FEFF
:1039E00070BD00001A0000204800002012020020D4
:1039F0001E0000201B0000202D0200201C000020C3
:103A0000560200202000002070B50A21FCF770FB50
:103A10000C460A21FCF76CFB2546054C9820615C9E
:103A200001F0E4FD615D902001F0E0FD70BD00005B
:103A30007E00002072B6FEE710B5024800F074FA6E
:103A400010BD0000480E0020F0B5002808D0014647
:103A500020314A79022A05D00422C263002008716D
:103A60000120F0BD026813680E24A3431360426C6A
:103A70001468FF2301339C431460026814686408CF
:103A8000640014600C4A5568066C1C24264001240E
:103A90002746B7403D435560826CC56C5560026D4A
:103AA000002A05D015689D431560826D406D426007
:103AB0004C7100200871F0BD00000240F8B50024F0
:103AC000024620325179022903D00421C163012426
:103AD0002DE001680B680E25AB430B6001680B6895
:103AE0005B085B000B60416C0B68FF250135AB4345
:103AF0000B6010494D68066C1C231E4001231F46B5
:103B0000B7403D434D60816CC56C4D60016D00292F
:103B100006D00E681D02AE430E60416D856D4D608E
:103B2000537100211171816B002900D08847204614
:103B3000F8BD000000000240C06B7047F0B42C4993
:103B40000C6802681368056C1C273D400426AE40D3
:103B5000264211D05E070FD513689B0603D4146864
:103B600004239C4314604B68046C04223C40A24034
:103B700013434B60016B1CE00227AF400646274011
:103B80002036002F19D09F0717D513689B0605D440
:103B900013680A24A3431360012272714B68046CFA
:103BA0001C2214400222A24013434B6000213171B9
:103BB000C16A00291AD0F0BC08470827AF40274245
:103BC00014D01B0712D513680E24A34313604B684F
:103BD000046C1C22144001221546A5402B434B6067
:103BE000C263727100213171416BE2E7F0BC704732
:103BF0000000024070B504003FD02548256814211C
:103C00002818FCF775FA800020640220264620362A
:103C1000707128681F4908402860E168A0686269DF
:103C20000843216911430843A1690843E169084336
:103C3000216A084321680A68104308602046FDF79E
:103C400093FB0121A06889030025884200D16560AB
:103C50002079616C8006800E0860A06CE16C416088
:103C60006068401E03280AD82046FDF795FB206DAA
:103C70000560606DA16D416004E0012070BD2565A7
:103C80006565A565E563012070713571002070BD23
:103C9000F8FFFDBF0F80FFFFF8B504468C462030CB
:103CA0000179002501290BD00126067141790027F1
:103CB000012907D08021E163077101252846F8BD5D
:103CC0000220F8BD02214171E763206801684908BC
:103CD0004900016061462046FDF772FB206B002819
:103CE0002068016801D00E2205E0042291430160A2
:103CF000206801680A2211430160606C0168CA03F0
:103D0000074902D502680A430260206D002802D0EC
:103D100002680A4302602068016831430160CDE710
:103D20000001000070B5044600F0C2F80546601CB2
:103D300002D004480078241800F0BAF8401BA042D2
:103D4000FAD370BD00000020F0B5002303249AE0F0
:103D50002A4601259D402A407ED00E79B607B60F2F
:103D6000012E01D0022E16D186682746B4465E0089
:103D7000B646B7406646BE43B446CF687646B740BF
:103D80006646374387604668AE430D79ED06ED0F12
:103D90009D40354345600D79ED43AD0708D0C568BA
:103DA0005F002646BE40B5438E68BE402E43C660C7
:103DB0000D79AD07AD0F022D0ED1DD08AD002D1828
:103DC000AC462D6A5E07F60E0F27B740BD430F695C
:103DD000B7402F4365462F6205685F002646BE4008
:103DE000B5430E79B607B60FBE402E4306604D6848
:103DF000AD03AD0F46D09E08264DB6007519AC46F2
:103E00002D6E9E07F60E0F27B740BD4305273F07CF
:103E1000B84201D100270FE01F4FB84201D101275E
:103E20000AE01E4FB84201D1022705E01C4FB842FC
:103E300001D1032700E00527B7402F43154D664603
:103E400037662D684E689543F60200D51543114F2D
:103E50003D607D68954300E014E04E68B60200D5F1
:103E600015437D600B4D80356E684F689643BF03E8
:103E700000D516436E602E684F689643FF0300D549
:103E800016432E605B1C0A681546DA4000D05FE7D7
:103E9000F0BD00000018024000040050000800506F
:103EA000000C0050002A01D0816170478162704788
:103EB00001488068704700000000002070B50400D1
:103EC0000FD021681548086021681548086003CCA8
:103ED00041602068083C21688860FFF7E9FF0546DB
:103EE0000CE0012070BDFFF7E3FF401B312805D92E
:103EF0002068C068400701D0032070BD2068C068FA
:103F00004007F0D120680269E1688A4201D001616E
:103F100001E004490160002070BD0000CCCC00002D
:103F200055550000AAAA000000680249016000205F
:103F300070470000AAAA0000024881680278891828
:103F4000816070470000002010B508480024016817
:103F5000821511430160032000F00AF8002801D007
:103F6000012401E000F028F8204610BD00200240A6
:103F700070B50F4E002431780546002915D07D20FC
:103F8000C000FCF7B5F801460A480068FCF7B0F835
:103F900000F030FC002808D1042D06D2002229466A
:103FA000401E00F02BF8756000E00124204670BD33
:103FB000000000200C00002008B50948016801221B
:103FC0001143016000681040009005484038C26B02
:103FD00001040A43C263C06B0840009008BD0000A2
:103FE00040100240002805DBC106C90E01208840B0
:103FF000014908607047000000E100E010B503F0DF
:104000005DF910BD10B50F4C216803225202914397
:1040100001432160C11FFF39FA390ED10A48062138
:10402000006848430949FCF763F8401C02E0002897
:1040300005D0401E61694905F9D4002010BD032058
:1040400010BD0000007000400C00002040420F0036
:10405000F8B5044600680026664D800358D56548CB
:1040600000274038C06BC00009D462484038C26B9A
:1040700001040A43C263C06B0840012700905E48F8
:104080000168821511430160FFF712FF009005E0FF
:10409000FFF70EFF0099401A022825D856480068FD
:1040A000C005F5D5E8690321090208400FD0616A0F
:1040B00081420CD0E86903210902EA6988430121A1
:1040C00009040A43EA61EA698A43EA61E861C007D0
:1040D0000FD0FFF7EDFE009008E0FFF7E9FE009932
:1040E000411A4648814201D9032609E0E869800760
:1040F000F3D5E869032109028843616A0843E8614E
:10410000002F05D03B484038C26B01048A43C2638C
:104110002078C00705D0686961688008800008437E
:1041200068612078C00606D5686903218902884342
:10413000A168084368612088800506D56869032165
:10414000890488436169084368612088400506D571
:104150006869032109058843A169084368612078DB
:10416000800606D56869032109038843E16808438E
:1041700068612088400411D56869E1698000800881
:10418000084368610121E0698907884206D119481E
:104190004038C168012212041143C16020688002C6
:1041A00010D5686901218905226A88431043686136
:1041B000206A884206D10F484038C16801221206A1
:1041C0001143C1602088000512D568690321890365
:1041D0008843216908436861012120698903884275
:1041E00006D104484038C168012212041143C1605D
:1041F0003046F8BD401002400070004088130000B7
:10420000F8B50F46060043D04D4D28684007400FD3
:10421000B84213D22868C008C00038432860FFF7AE
:1042200047FE044605E0FFF743FE011B4548814277
:1042300061D828684007400FB842F4D13068424C3A
:1042400081070DD5400704D5A0680721090308435D
:10425000A060A0680F2109028843B1680843A060EC
:104260003078C00732D0706801280AD002280BD0FD
:1042700000280FD03449403103280ED0C96989077E
:1042800004E02168890301E021688901002906DB37
:104290000120F8BD21684905F8E7096AEFE7A16840
:1042A000C908C9000143A160FFF702FE009006E0C3
:1042B000FFF7FEFD0099411A224881421BD8A068F1
:1042C000382108407168C9008842F1D12868400748
:1042D000400FB84217D91A480168C908C9003943C4
:1042E0000160FFF7E5FD054607E0FFF7E1FD411B33
:1042F0001448814201D90320F8BD114800684007E5
:10430000400FB842F1D13078400706D5A0680721A8
:1043100009038843F1680843A06000F031F8A16800
:104320003C2289091140094A515CC906C90EC8409E
:104330000749086007480068FFF71AFEF8BD00004B
:104340000020024088130000001002407075000831
:104350000C00002004000020064807490068896816
:10436000064A4904490F8900515CC906C90EC84074
:10437000704700000C00002000100240B0750008DB
:1043800010B5204CA068204A8006400F16D0A068C7
:104390008006410F501001290FD0A1688906490FEE
:1043A000022912D0A0688006400F042823D0A068FC
:1043B0008006400F032821D0002010BD2068012175
:1043C0008004400F8140104612E0E1688B07E168ED
:1043D0009B0F4906490F491C032B00D01046FBF7E1
:1043E00087FEE1684904490E4843E168490F491CCA
:1043F000FBF77EFE10BD0120C00310BD7D20000232
:1044000010BD0000001002400024F400F8B50400C4
:104410007ED020783827C007ED4D002846D0A86808
:10442000E96838408907890F102802D008280BD086
:1044300001E0032908D001206268000482420AD109
:1044400029680143296015E0286880032ED560683B
:104450000028DDD02AE0052301211B0489049A42AB
:104460002A6802D10A432A60EAE782432A60286860
:1044700088432860606800280CD0FFF719FD0646C5
:1044800004E0FFF715FD801B642873D828688003BB
:10449000F7D50BE0FFF70CFD064604E0FFF708FD3B
:1044A000801B6428F1D828688003F7D4207880071F
:1044B00069D5A868E96838408A070721920FC902C0
:1044C000102802D0002813D001E0022A10D0E068A2
:1044D000002846D028688843216908432860286856
:1044E000FF21013108432860FFF7E2FC06462CE07B
:1044F0002A68520502D5E268002A89D06A687F23BB
:104500001B029A4363691B021A436A60002800E099
:104510008DE00ED128688843216908432860286807
:1045200001218004400F8140AA48FBF7E1FDAA4920
:104530000860AA480068FFF71BFD002877D122E039
:10454000FFF7B6FC801B02289FD828684005F7D5E6
:1045500068687F210902884361690902084368602D
:1045600011E02968FF20013081432960FFF7A0FC9A
:10457000064605E098E0FFF79BFC801B022884D8E4
:1045800028684005F7D42078954E00072ED5A868F6
:104590008006400F03280AD0A0690028306A16D090
:1045A000012108433062FFF783FC07460BE0306AC5
:1045B00080071BD5A06900289FD017E0FFF778FC83
:1045C000C01B022870D8306A8007F7D50EE040087B
:1045D00040003062FFF76CFC074604E0FFF768FC20
:1045E000C01B022860D8306A8007F7D420784007C3
:1045F0006CD5A86800278006400F042818D0E86B07
:10460000C00008D4E96B012000070143E963E96BAE
:1046100001400127009173480168C90519D4016858
:10462000821511430160FFF743FC00900DE083E029
:10463000F06980074AD5A06800287DD046E0FFF7E2
:1046400037FC0099401A02282ED866480068C00539
:10465000F5D5A168012910D004200529F16911D0F0
:1046600049084900F161F1698143F161A0680028BE
:1046700016D0FFF71DFC00900EE0F0690121084301
:10468000F061F3E70143F161F7E7FFF711FC0099EF
:10469000411A5548814267D8F0698007F5D50EE088
:1046A000FFF706FC009007E05EE0FFF701FC0099D1
:1046B000411A4D48814257D8F0698007F5D4002F40
:1046C00004D0E86B012109078843E863E06900280A
:1046D0007BD0A9688906490F02294FD001263606EA
:1046E0000228286805D0B0432860FFF7E1FB0446A4
:1046F0003CE0B0432860FFF7DBFB074604E0FFF730
:10470000D7FBC01B02282FD828688001F7D4616A24
:10471000206AA26A0843E16A120211430843216B2E
:104720000843616B0843E968304A11400843E86078
:1047300028683043286000E045E0E8680121090767
:104740000843E860FFF7B4FB044604E0FFF7B0FB62
:10475000001B022808D828688001F7D535E0FFF74C
:10476000A7FB001B022801D90320F8BD286880019F
:10477000F5D4E8681E490840E86026E00128F4D036
:10478000E868226A8107890F91421CD17021626A10
:104790000140914217D17F21A26A09020140120211
:1047A000914210D11F214904E26A014091420AD18D
:1047B00007214906226B0140914204D1400F616BF1
:1047C0004007884201D00120F8BD0020F8BD00005C
:1047D000001002400024F4000C000020040000201F
:1047E0004010024000700040881300008C80C1110E
:1047F000FCFFFEEE094910B5401E884201D9012098
:1048000010BD074C60610321081F02F057FD002016
:10481000A06107202061002010BD0000FFFFFF0005
:1048200000E000E070477047704770B5040005D0A5
:1048300025462035687F002802D006E0012070BDA3
:1048400000202877204600F016F802206877211D06
:10485000206801F053FF012240342272AA77EA77E0
:1048600022706270A270E27022716271A271E271B4
:104870006A77002070BD7047014620314A7F012AC7
:1048800001D00120704702224A7700680B490122BB
:10489000884205D09107884202D00949884207D151
:1048A0008168084B1940062905D0DB1F994202D0C8
:1048B000016811430160002070470000002C014096
:1048C0000004004007000100014620314A7F012A10
:1048D00001D00120704702224A770168CB6801228B
:1048E0001343CB6000680B49884205D0910788428A
:1048F00002D00949884207D18168084B194006292E
:1049000005D0DB1F994202D00168114301600020ED
:1049100070470000002C0140000400400700010027
:104920007047000070B50446006801690025C9435E
:104930008907002915DBC168C943890711D4E91E1D
:10494000016101202077206880698007204602D01D
:10495000FFF7E6FF04E000F0A7F8204600F0A5F816
:10496000257720680169C943490717D4C168C9433D
:10497000490713D40421C94301610220207720682C
:1049800080698005800F204602D0FFF7C9FF04E050
:1049900000F08AF8204600F088F825772068016941
:1049A000C943090716D4C168C943090712D40821AD
:1049B000C9430161042020772068C0698007204630
:1049C00002D0FFF7ADFF04E000F06EF8204600F0E3
:1049D0006CF8257720680169C943C90617D4C168F6
:1049E000C943C90613D41021C943016108202077A7
:1049F0002068C0698005800F204602D0FFF790FF35
:104A000004E000F051F8204600F04FF825772068C8
:104A10000169C943C90708D1C168C943C90704D19D
:104A2000891E0161204600F041F820680169C943F0
:104A3000090609D4C168C943090605D48021C943C0
:104A400001612046FFF7EFFE20680169C943C905EF
:104A500008D4C168C943090604D41249016120463B
:104A6000FFF7E0FE20680169C943490609D4C1681F
:104A7000C943490605D44021C9430161204600F0DD
:104A800033F820680169C943890609D4C168C9435C
:104A9000890605D42021C94301612046FFF7C4FEE1
:104AA00070BD0000FFFEFFFF7047704701680C48B3
:104AB00002680C48914201D1006805E0084A4C3276
:104AC0001268914203D14068002807D00047044A89
:104AD00098321268914201D18068F5E77047000072
:104AE000640D0020E4000020704710B501468031BD
:104AF0000A78012A15D001220A7024224A6002682D
:104B00001368146864086400146001225207934318
:104B10000022426600680360202048600A70104648
:104B200010BD022010BD70B5044680308368202B74
:104B30002FD100290BD0002A09D00125A3682D030D
:104B4000AB4206D12369002B03D1CB0701D0012052
:104B500070BD0378012B1CD001230370E36620464F
:104B600002F0D0FA010003D1E06E012802D0012149
:104B7000084670BD206810220262EFF31080012306
:104B800083F3108823681C6814431C6080F310882A
:104B9000EEE7022070BD000010B504681148124B0A
:104BA000421584420CD1D960196899601C680F497C
:104BB0008C4200D1891819605A605A6819680EE051
:104BC0000B4884420DD119625969D9615C69094960
:104BD0008C4200D1084959619A619A69596902F079
:104BE00001F910BD003801403C0D00203C050020BB
:104BF000004400403C0900203C0B0020704770B589
:104C0000044605468034207801281AD001202070FF
:104C1000242060602868066802685208520002601A
:104C20002868826807235B069A430A438260284605
:104C300001F092FF2868066020206060002020704C
:104C400070BD022070BD70B50446054680342078E2
:104C5000012819D00120207024206060286806688F
:104C6000026852085200026028688268D200D208A6
:104C70000A438260284601F06FFF28680660202002
:104C800060600020207070BD022070BD70477047CA
:104C9000F8B50546044680356868AE6821688A68BC
:104CA00010271206002A1BDA212819D1EFF31080F1
:104CB000012282F310888A6880239A438A6080F3F5
:104CC0001088A06F002808D0FEF7BEFE002804D090
:104CD000A06FFEF731FF202824D0204602F0EEF826
:104CE0002168886840061BD5222E19D1EFF3108069
:104CF000012282F310888A6840239A438A6080F3F5
:104D00001088E06F002808D0FEF79EFE002804D02F
:104D1000E06FFEF711FF202804D0204602F09CF837
:104D20000020F8BDEF600320F8BD000010B5026858
:104D300007480849824202D14A68096804E00648E7
:104D4000824203D18A69496902F04CF810BD000023
:104D5000003801403C0D002000440040F8B50368D5
:104D60000446D96918689A68B24D0E462E40254609
:104D70008035002E75D0B04EB04F164007403743F7
:104D80006ED0CF0706D0C70504D501271F62EB6898
:104D90003B43EB608B0708D5D30706D02768022377
:104DA0003B62EB6804273B43EB604B0708D5D30716
:104DB00006D0276804233B62EB6802273B43EB6085
:104DC0000B0709D520230340334305D02668082369
:104DD0003362EE681E43EE600B0509D5430107D52B
:104DE00001232668DB023362EB6820263343EB6045
:104DF000EB68002B42D089060AD520210840C9055E
:104E00000A40104304D0216F002901D02046884772
:104E1000E86821688968490602D42821084232D00E
:104E2000204602F019F821688868400627D5EFF37C
:104E30001080012282F310888B68402293438B609C
:104E400080F31088E06F002819D07D498163E06FFE
:104E5000FEF734FE002811D0E06F816B0DE000E01A
:104E600017E08E0615D5012720263F07064017407C
:104E70003E430ED0216FB1E020468847F8BD204662
:104E8000FFF754FFF8BD2046FFF750FF0020E86011
:104E9000F8BDE66E012E7CD1CE067AD5C60678D551
:104EA00010221A6223689868264640064036002879
:104EB00047DAE16F086840680004000CE8D0B78B5F
:104EC0008742E5D9F08308680068800634D4EFF3A0
:104ED0001080012181F3108819681701B943196006
:104EE00080F31088EFF31080012181F3108821688E
:104EF0008B685B085B008B6080F31088EFF3108099
:104F0000012181F3108821688B684027BB438B60A7
:104F100080F310882020A8600020E066EFF3108066
:104F2000012181F3108821680B6893430B6080F3A3
:104F30001088E06FFEF788FDB08BF18B401A81B2CC
:104F400033E0B08BF18B401A81B2F08B00289FD0F8
:104F500000299DD0EFF31080012686F310881E688B
:104F6000FF272137BE431E6080F31088EFF31080C7
:104F7000012383F3108823689E682F4FFF433E4030
:104F80009E6080F310882020A8600020E0662067E3
:104F900000E00EE0EFF31080012383F31088236814
:104FA0001D6895431D6080F310882046FFF7F4FDCF
:104FB000F8BDCE0208D5560206D5012000051862BC
:104FC0002046FFF764FEF8BD0E060BD501278026AC
:104FD000FF0506403A40164304D0616F002900D017
:104FE0004AE7F8BD4A0614D5420612D52046EFF32B
:104FF0001081012282F310881C68402294431C60B7
:1050000081F31088202169600021416700F0BFF81A
:10501000F8BD0A0205D5420003D52046FFF736FE4B
:10502000F8BDC901FCD50028FADA2046FFF7E6FDF5
:10503000F8BD00000F08000001000010200100046E
:10504000CD6C000870B5040005D025468035686831
:10505000002802D006E0012070BD00202870204604
:1050600000F026F82420686020680168490849009B
:105070000160204601F040FF0128EDD0A06A002821
:1050800002D0204601F08AFD206841680922D20240
:1050900091434160206881682A22914381602068A1
:1050A0000168012211430160204601F0DDFD70BD61
:1050B000704770477047FFB50646044680367068F3
:1050C00083B00D46202860D1002D0CD00598002813
:1050D00009D00120A1680003814207D1206900287E
:1050E00004D1E80702D0012007B0F0BD30780128D4
:1050F0004BD0012030700020F06021207060FEF75E
:10510000D7FE0190274640370598B8820598F88267
:105110000120A1680003814202D12069002804D047
:10512000029500250020307015E000200290F9E77C
:1051300000228021204602F03DF8002818D1029874
:10514000002817D02168007888620298401C0290DD
:10515000F88A401EF882F88A019B00280698009081
:10516000E6D100224021204602F024F8002808D091
:105170000320B9E728882168C005C00D8862AD1CEE
:10518000E6E7202070600020AEE70220ACE7704721
:1051900010B502F0EDF80A2002F0D0F8052424073B
:1051A000012210212046FEF77DFE0122202120460B
:1051B000FEF778FE012280212046FEF773FE642070
:1051C00002F0BCF8022000F037F8522000F034F86A
:1051D000302000F031F80A2000F02EF8062000F010
:1051E0002BF810BD10B50A2002F0A8F801221146D4
:1051F0001048FEF757FE05242407012220212046EF
:10520000FEF750FE012280212046FEF74BFE64206F
:1052100002F094F8022000F0A7F8522000F0A4F861
:10522000302000F0A1F80A2000F09EF8062000F0DF
:105230009BF810BD0004005070B5052506462D07EB
:10524000002210212846FEF72DFE012002F076F8FC
:10525000002280212846FEF725FE012002F06EF88C
:10526000012220212846FEF71DFE012002F066F8EB
:10527000012280212846FEF715FE012002F05EF88B
:10528000002280212846FEF70DFE012002F056F88C
:10529000002220212846FEF705FE012002F04EF8EC
:1052A000012280212846FEF7FDFD012002F046F88C
:1052B000002280212846FEF7F5FD012002F03EF88D
:1052C000002220212846FEF7EDFD012002F036F8ED
:1052D000012280212846FEF7E5FD012002F02EF88C
:1052E000002280212846FEF7DDFD012002F026F88D
:1052F000002220212846FEF7D5FD012002F01EF8ED
:10530000012280212846FEF7CDFD012002F016F88B
:105310000024002280212846FEF7C4FD012002F06F
:105320000DF83046A040000601D5012200E0002221
:1053300020212846FEF7B6FD012001F0FFFF0122E3
:1053400080212846FEF7AEFD012001F0F7FF641C26
:10535000E4B2082CDDD3012210212846FEF7A2FD7D
:10536000012001F0EBFF70BDF8B54C4F064600225E
:1053700001213846FEF796FD012001F0DFFF0525EB
:105380002D07002280212846FEF78CFD012001F028
:10539000D5FF012220212846FEF784FD012001F0DF
:1053A000CDFF012280212846FEF77CFD012001F07F
:1053B000C5FF002280212846FEF774FD012001F080
:1053C000BDFF002220212846FEF76CFD012001F0E0
:1053D000B5FF012280212846FEF764FD012001F07F
:1053E000ADFF002280212846FEF75CFD012001F080
:1053F000A5FF002220212846FEF754FD012001F0E0
:105400009DFF012280212846FEF74CFD012001F07E
:1054100095FF002280212846FEF744FD012001F07F
:105420008DFF002220212846FEF73CFD012001F0DF
:1054300085FF012280212846FEF734FD012001F07E
:105440007DFF0024002280212846FEF72BFD01204D
:1054500001F074FF3046A040000601D5012200E0B3
:10546000002220212846FEF71DFD012001F066FFE5
:10547000012280212846FEF715FD012001F05EFF84
:10548000641CE4B2082CDDD3012211463846FEF735
:1054900009FD012001F052FFF8BD0000000400509A
:1054A000F8B505240E4607462407002210212046A1
:1054B000FEF7F8FC012001F041FF00228021204688
:1054C000FEF7F0FC012001F039FF012220212046E7
:1054D000FEF7E8FC012001F031FF01228021204687
:1054E000FEF7E0FC012001F029FF00228021204688
:1054F000FEF7D8FC012001F021FF002220212046E8
:10550000FEF7D0FC012001F019FF01228021204686
:10551000FEF7C8FC012001F011FF00228021204687
:10552000FEF7C0FC012001F009FF012220212046E6
:10553000FEF7B8FC012001F001FF01228021204686
:10554000FEF7B0FC012001F0F9FE002500228021C9
:105550002046FEF7A7FC012001F0F0FE3846A840E7
:10556000000601D5012200E0002220212046FEF79E
:1055700099FC012001F0E2FE012280212046FEF785
:1055800091FC012001F0DAFE6D1CEDB2062DDDD399
:1055900000250727002280212046FEF783FC0120FA
:1055A00001F0CCFE791B3046C840C00701D0012273
:1055B00000E0002220212046FEF774FC012001F0CB
:1055C000BDFE012280212046FEF76CFC012001F087
:1055D000B5FE6D1CEDB2082DDCD301221021204652
:1055E000FEF760FC012001F0A9FEF8BDF8B50E46FB
:1055F0000746002201215048FEF754FC012001F02B
:105600009DFE05242407002280212046FEF74AFC47
:10561000012001F093FE012220212046FEF742FCEA
:10562000012001F08BFE012280212046FEF73AFC8A
:10563000012001F083FE002280212046FEF732FC8B
:10564000012001F07BFE002220212046FEF72AFCEB
:10565000012001F073FE012280212046FEF722FC8A
:10566000012001F06BFE002280212046FEF71AFC8B
:10567000012001F063FE012220212046FEF712FCEA
:10568000012001F05BFE012280212046FEF70AFC8A
:10569000012001F053FE0025002280212046FEF764
:1056A00001FC012001F04AFE3846A840000601D561
:1056B000012200E0002220212046FEF7F3FB01201A
:1056C00001F03CFE012280212046FEF7EBFB012089
:1056D00001F034FE6D1CEDB2062DDDD30025072749
:1056E000002280212046FEF7DDFB012001F026FE8E
:1056F000791B3046C840C00701D0012200E00022DB
:1057000020212046FEF7CEFB012001F017FE0122EA
:1057100080212046FEF7C6FB012001F00FFE6D1C24
:10572000EDB2082DDCD3012211460348FEF7BAFB87
:10573000012001F003FEF8BD00040050FEE7000068
:1057400070B50A21FAF7D4FC0C460A21FAF7D0FC0E
:105750002546054C8820615CFFF748FF615D80208D
:10576000FFF744FF70BD00007E00002010B5094C1B
:10577000074AE1602260A16060602046FEF79EFB60
:10578000002800D0FEE721680348086010BD000033
:1057900000300040480E0020CCCC000010B50024A2
:1057A00000212046FFF77CFE00212046FFF71EFF68
:1057B000641CE4B2982CF3D310BD0000FFB583B095
:1057C000144664210398FAF793FC0A21FAF790FC37
:1057D0000F460A210398FAF78BFC0D460A21FAF7C7
:1057E00087FC019522480E46C079214D00907D210D
:1057F0000835C9000398FAF77BFC0A21FAF778FC10
:10580000695C0498002C05D0152805D1009808186B
:10581000C1B201E04128F9D86820FFF741FE144CDD
:1058200006980A3C0028E85DE1780ED04018C1B225
:105830007020FFF735FEA85DE1784018C1B2012065
:10584000FFF72EFE0198295C0DE04018C1B27020D0
:10585000FFF726FEA95D0120FFF722FE0198E178FF
:10586000285C4018C1B20820FFF71AFE07B0F0BD4F
:105870006C00002010B5FF210020FFF711FEFF2172
:105880001020FFF70DFEFF211820FFF709FEFF2172
:105890002020FFF705FEFF212820FFF701FEFF2152
:1058A0006820FFF7FDFDFF217020FFF7F9FDFF21C4
:1058B0000120FFF7F5FDFF210820FFF7F1FDFF2193
:1058C0005020FFF7EDFDFF214820FFF7E9FDFF2104
:1058D0003120FFF7E5FDFF216120FFF7E1FDFF210A
:1058E0005A20FFF7DDFDFF213920FFF7D9FDFF2109
:1058F0004120FFF7D5FD0C4C2046FEF713FAFF219F
:105900009820FFF773FEFF219020FFF76FFEFF2125
:105910008820FFF76BFEFF218020FFF767FE2046FF
:10592000FEF700FA10BD0000DC05000010B500F025
:1059300089F800F09DF800F077F810BD10B500F080
:10594000D5FD0021084600F0D7FD0021012000F020
:10595000D3FDFF20F530FEF7E5F90121002000F02E
:10596000CBFD0121084600F0C7FD10BD10B500F0C9
:1059700001F810BD10B5FEF79BFAFF21F531FAF7DB
:10598000B7FB002911D1094800224168072902D834
:10599000491C416000E042600178322902D2491C72
:1059A000017000E00270FEF783FA10BD10000020C5
:1059B00010B56420FEF7B6F900F05BF8FFF7BEFF04
:1059C00000F052F800F018F800F030F801A001F0F3
:1059D0006BFC10BDB3F5CABCBBAFCDEAB3C92A2A74
:1059E0002A2A2A2A2A2A2A2A2A2A2A2A2A2A2A2A17
:1059F0002A2A0A0D0000000010B5FFF7C9FBFFF7C7
:105A0000F1FBFFF737FFFFF7C9FE10BD10B5FDF73B
:105A100099FF10BD10B5FFF7A9FF00F037F8FFF7A9
:105A2000F5FF00F00BF810BD7047000010B50249FB
:105A30000420FFF79BFE10BDFF0F000010B5FDF71F
:105A4000FBFF10BD10B50548FAF728FC0448FAF72B
:105A50001FFC0448FAF704FC10BD0000DD670008D5
:105A6000B56700088167000810B5FAF7FFFB10BDA5
:105A7000704710B54B24E40121460020FAF75AFC88
:105A800021460120FAF756FC10BD000070B500F069
:105A9000DBFC00F0F3FCFBF72FFE324D28880028DA
:105AA0005CD0314C0026A078002805D012222F4966
:105AB0000020FAF74DFC2EE0E078002806D02B49B4
:105AC000322224310020FAF743FC27E02079002815
:105AD00013D0264856300078012805D0022803D07C
