:020000040800F2
:1000000058120020D900000841650008595A00081C
:1000100000000000000000000000000000000000E0
:100020000000000000000000000000007F670008E2
:1000300000000000000000006D670008CD670008A8
:10004000EB000008EB000008EB000008EB000008E4
:10005000EB000008EB000008EB000008EB000008D4
:1000600000000000791500088915000869150008CE
:10007000EB000008EB000008EB000008EB000008B4
:10008000EB000008EB000008EB0000084D680008DA
:1000900000000000BD68000825690008EB000008AA
:1000A000EB000008EB000008EB0000081D750008DD
:1000B0002D750008EB0000080000000000000000A3
:1000C0000448854600F0A2F8004800478D760008F5
:1000D000C046C046581200200448804704480047E4
:1000E000FEE7FEE7FEE7FEE7FEE7FEE74B680008F7
:1000F000C100000830B50B46014600202022012433
:1001000009E00D46D5409D4205D31D469540491B4B
:100110002546954040191546521E002DF1DC30BD94
:10012000F0B51FB40646002082B005464024019178
:1001300000901BE0019922460F46304600F054F82B
:10014000049A059B801A994110D3104619462246FD
:1001500000F03AF8361A8F4101972246012000211B
:10016000009F00F031F838184D4100902046641E81
:100170000028DFDC019B00982946324607B0F0BD1D
:1001800003460B439B0703D009E008C9121F08C0B0
:10019000042AFAD203E00B780370401C491C521E5B
:1001A000F9D27047D2B201E00270401C491EFBD266
:1001B00070470022F6E710B513460A460446194672
:1001C000FFF7F0FF204610BD10B5202A04DB0146E2
:1001D000203A9140002010BD914020239C1A0346F4
:1001E000E3401943904010BD10B5202A04DB0846B7
:1001F000203AD040002110BD0B46D340D0402024EF
:10020000A21A91400843194610BD0000064C012572
:10021000064E05E0E36807CC2B430C3C98471034AE
:10022000B442F7D3FFF750FF487A0008687A000815
:100230000A4801880A480A0A02704170817B81706D
:10024000C17BC170017C0171417C4171817C8171F4
:10025000C17CC171017D0172704700003000002037
:100260000E0200200149886070470000E000002075
:1002700010B5074C1F20214606F0F0FA21463F201A
:1002800006F024FB21463F2006F054FB10BD000081
:10029000E70300000149486070470000E0000020CB
:1002A0000149086070470000E0000020054900286F
:1002B00003D0012803D000207047C86800E0086A16
:1002C00080B27047380D002070B50025194C0B46E0
:1002D0002E46002802D0012815D028E0E06800282A
:1002E00025D0E068904201D9154601E0E06885B26A
:1002F000A1682A461846FFF743FFE168A068FFF7A8
:1003000058FFE66013E0206A002810D0206A90426F
:1003100001D9154601E0206A85B2E1692A461846EE
:10032000FFF72EFF216AE069FFF743FF26622846A8
:1003300070BD0000380D002010B5002805D0012840
:1003400002D1084606F09AFC10BD084606F0BAFB3A
:1003500010BD0000F7B57D260025F600164C1746A7
:10036000002802D001280ED024E0144804F08CFFAD
:1003700033463A461148019905F099F962680546F5
:1003800021680F4814E0012205201103000704F042
:1003900085F80A48903004F077FF084833463A461B
:1003A0009030019905F083F9A26905466169054815
:1003B00006F062FE2846FEBD380D0020A80200208F
:1003C0000038014000440040F8B507460A21FFF715
:1003D00091FE0C460A21FFF78DFE26460D4C08467D
:1003E00025461C3D642F08D32078A9784018C1B257
:1003F000502005F08BFA207804E0215C502005F0B5
:1004000085FAA05DA9784018C1B2482005F07EFAAF
:10041000F8BD00007A000020FFB515461D4A81B0E6
:100420000746118800201C4C0A9E002903D06178E1
:10043000491C6170108061781F2900D16070012211
:100440006178049B029805F02DFB01226178284613
:10045000049B06F077F8012E0BD0022E12D0032E4B
:1004600005D12B4639466078029A00F079FE05B036
:10047000F0BD0A480095817BFAB26078029B00F0DB
:10048000D7FAF4E72B4639466078029A00F094FCDC
:10049000EDE7000036000020460000200E0200209C
:1004A000F0B5A14BA14C85B022881E78049600259A
:1004B0005B78012839D09C4E761D767803969A4E4B
:1004C000761D36780096984E0A36367902961028B0
:1004D00045D0954E0A36F6780196112853D0924EA3
:1004E0000A36B6781228B44659D08F4E0A36777835
:1004F000132865D01A2870D01B286FD01C286ED006
:100500001D286DD01E286CD001296BD002296AD01D
:10051000032969D0042968D0052967D0002131203A
:1005200005F0F4F900215A2015E07F480A300778D9
:10053000012905D00A387C4E00780A36367864E006
:10054000002A76D03946B1E0C1B2ECE7002AF9D1F1
:10055000BEE03946E7E705F0D9F905B0F0BD7248CD
:10056000714B401D0A3340781B7912E0C1B2CCE0D8
:1005700005F0CCF92580F0E7009971183BE0C1B295
:10058000D0E03146CEE06848674B401D0A334078E2
:10059000DB78181804290BD1002AEDD0E6E7624871
:1005A000614B401D0A3340789B781818042902D00B
:1005B0000529E6D1E3E7002AD8D1009961441AE081
:1005C0005948594B401D0A3340785B781818042964
:1005D0000DD00529D3D03946A4E00FE01BE034E06C
:1005E0004CE065E076E07FE082E085E093E0002A81
:1005F000BCD10098391803980818C0E701299FD08A
:10060000494E49480A3600787678301802295CD07D
:1006100003299ED19AE701290CD0434E42480A365D
:100620000078B6783018022908D0032909D061462D
:1006300079E748E0002A06D1604649E0002A02D165
:1006400082E7002A44D0614630E001290BD0364EC3
:1006500035480A360078F6783018022907D0032981
:1006600008D001995FE7002A06D1019830E0002AFE
:1006700002D169E7002A2BD0019917E001290BD09C
:10068000294E29480A36007836793018022907D0D1
:10069000032908D0029946E7002A06D1029817E0FC
:1006A000002A02D150E7002A12D002995A205FE7AF
:1006B0001D480A30C7790129A1D00A381A4E00789E
:1006C0000A36F679A1E7F8183EE7002AB8D039E7EC
:1006D000C01839E7002A05D000215A2005F016F984
:1006E000002112E019461EE7002AF5D104991AE705
:1006F000002AF1D10498EBE7002A08D000215A2003
:1007000005F004F90848401D4178312030E703998D
:100710000098401833E700215A2005F0F7F8024806
:10072000401D4178312016E75E0000203E00002089
:10073000F0B5BD4BBD4C85B022881E7803960025D0
:100740005B78012831D0B84E77783678F619029662
:10075000B54E0A3636790196102841D0B24E0A3687
:10076000F6780096112862D0AF4E0A36B678122875
:10077000B4466FD0AC4E0A36777813286BD01A285F
:100780006AD01B2869D01C2868D01D2867D01E2875
:1007900075D0012974D0022973D0032972D00021A9
:1007A0005A2005F0B3F8002115E09F480A30077879
:1007B000012905D00A389C4E00780A363678B6E012
:1007C000002A72D0394627E1C1B21BE1002AF9D1D3
:1007D0000FE13946E4E7312005F098F805B0F0BDA7
:1007E000012904D002290ED0032910D051E0002A9B
:1007F00007D000215A2005F089F88B480A3001798A
:1008000010E0194607E0002AF3D1039903E0002A1B
:10081000EFD10298C1B25A2005F078F882480A3028
:10082000017971E0312005F071F82580D6E70129C2
:1008300004D0022914D0032916D02AE0002A07D0B8
:1008400000215A2005F062F877480A30C178E9E7BC
:1008500019460DE017E03AE061E06FE087E09FE0C5
:10086000002AEDD1039903E0002AE9D10298C1B230
:100870005A2005F04BF86C480A30C17844E0A8E0F3
:10088000B9E0BCE0C5E0012905D0022910D0032958
:1008900012D031469FE7002A08D000215A2005F0E7
:1008A00035F861480A308178BCE79DE0194607E0D9
:1008B000002AF2D1039903E0002AEED10298C1B2D6
:1008C0005A2005F023F858480A3081781CE00129A5
:1008D00005D002290FD003291CD039467BE7002A16
:1008E00007D000215A2005F011F84F480A3041780E
:1008F00098E7194602E0002AF3D103995A2005F03F
:1009000005F849480A3041784748401D00780818E2
:10091000C1B260E7002AE4D10298C1B2EEE7012932
:1009200000D14DE7404E40480A36007876783018BE
:1009300002295BD0032900D04BE747E701290BD000
:10094000394E39480A360078B6783018022907D06F
:10095000032908D0614623E7002A06D1604648E013
:10096000002A02D130E7002A43D0614654E0012931
:100970000BD02D4E2C480A360078F6783018022914
:1009800007D0032908D000990AE7002A06D1009869
:100990002FE0002A02D117E7002A2AD000993BE075
:1009A00001290BD0204E20480A36007836793018BD
:1009B000022907D0032908D00199F1E6002A06D1BF
:1009C000019816E0002A02D1FEE6002A11D0019912
:1009D00022E015480A30C7790129A2D00A38124E00
:1009E00000780A36F679A2E7F818EDE6002AB9D0C1
:1009F000E8E6C018E8E6002A0DD1194602E0002A10
:100A000009D103995A2004F081FF0748401D01785D
:100A1000E1E6002A05D000215A2004F077FF0021EA
:100A200000E70298D0E600005E0000203E000020B3
:100A3000FFB57D2581B00446ED00294618460A9E83
:100A4000FFF758FB0A21FFF755FB00912946304676
:100A5000FFF750FB0A21FFF74DFB0F4600263146FA
:100A6000039805F084FE00280BD10121039805F0BE
:100A70007EFE002805D10221039805F078FE0028AB
:100A800006D00721039805F072FE002800D1012648
:100A90000721039805F06BFE002812D0002103986F
:100AA00005F065FE00280CD10121039805F05FFEDA
:100AB000002806D10221039805F059FE002800D134
:100AC00002260721039805F052FE002812D00021CB
:100AD000039805F04CFE00280BD10121039805F086
:100AE00046FE002805D10221039805F040FE0028AB
:100AF00000D003260321039805F039FE002818D002
:100B00000721039805F033FE002812D10021039835
:100B100005F02DFE00280CD10121039805F027FED9
:100B2000002806D10221039805F021FE002800D1FB
:100B300004260221029805F01AFE00281ED0032187
:100B4000039805F014FE002818D10721039805F03A
:100B50000EFE002812D10021039805F008FE00289F
:100B60000CD10121039805F002FE002806D10221D4
:100B7000039805F0FCFD002800D10526022102980B
:100B800005F0F5FD00281ED10321039805F0EFFDC7
:100B9000002818D10721039805F0E9FD002812D19B
:100BA0000021039805F0E3FD00280CD101210398F2
:100BB00005F0DDFD002806D10221039805F0D7FDE0
:100BC000002800D10026012C77D07A4D022C3DD090
:100BD000032C41D0042C48D0052C4CD0062C50D0EE
:100BE000072C54D0082C58D0092C5CD00A2C65D086
:100BF0000B2C69D00C2C6DD00D2C76D00E2C7AD00D
:100C00000F2C6FD0102C6ED0112C56D0122C54D02B
:100C1000132C52D0142C67D0152C72D0162C71D0F6
:100C2000172C70D0182C6FD0192C6ED01A2C6DD0B8
:100C30001B2C42D01C2C40D01D2C3ED01E2C3CD056
:100C400031460120FFF72CFC05B0F0BD31462046AF
:100C5000FFF726FC697804E031462046FFF720FCC8
:100C6000A978412004F052FEEEE731462046FFF716
:100C700017FCE978F5E731462046FFF711FC2979A2
:100C8000EFE731462046FFF70BFC6979E9E731468B
:100C90002046FFF705FCA979E3E731462046FFF738
:100CA000FFFBE979DDE731462046FFF7F9FB00213C
:100CB000412004F02BFE297934E078E031462046CB
:100CC000FFF7EEFBE9782DE031462046FFF7E8FB21
:100CD000A97827E031462046FFF7E2FB697821E05A
:100CE00003E008E013E018E01EE031462046FFF77D
:100CF000D7FB297816E031462046FFF7D1FB69790A
:100D000010E01DE02DE039E03EE043E048E03146F0
:100D10002046FFF7C5FBA97904E031462046FFF7DE
:100D2000BFFB002139209DE731462046FFF7B8FB85
:100D30002048E9790830C05D0818C1B2102091E759
:100D400031462046FFF7ACFB1A4C10200834E15D19
:100D500004F0DCFD0098E979205C0818C1B2682035
:100D600080E731462046FFF79BFB12480099083088
:100D7000415C682004F0CAFD297916E0314620461E
:100D8000FFF78EFBE97810E031462046FFF788FB3D
:100D9000A9780AE031462046FFF782FB697804E033
:100DA00031462046FFF77CFB002161205AE731469F
:100DB000204647E768000020FFB57D250446ED008A
:100DC00081B01E4629461046FFF794F90A21FFF725
:100DD00091F9009129463046FFF78CF90A21FFF777
:100DE00089F90F4600263146029805F0C0FC00281C
:100DF0001DD10121029805F0BAFC002817D102216B
:100E0000029805F0B4FC002811D10321029805F0E6
:100E1000AEFC00280BD10921029805F0A8FC00289F
:100E200005D10A21029805F0A2FC00280CD0062169
:100E3000029805F09CFC002806D10721029805F0D5
:100E400096FC002800D101260621029805F08FFCAF
:100E5000002805D10721029805F089FC002824D03C
:100E60000021029805F083FC00281ED10121029880
:100E700005F07DFC002818D10221029805F077FCCE
:100E8000002812D10321029805F071FC00280CD132
:100E90000921029805F06BFC002806D10A2102986E
:100EA00005F065FC002800D102260621029805F015
:100EB0005EFC002805D10721029805F058FC0028A7
:100EC00024D00021029805F052FC00281DD10121F8
:100ED000029805F04CFC002817D10221029805F079
:100EE00046FC002811D10321029805F040FC00289F
:100EF0000BD10921029805F03AFC002805D10A21FE
:100F0000029805F034FC002800D003260021029846
:100F100005F02DFC00282AD10121029805F027FCBC
:100F2000002824D10221029805F021FC00281ED1BE
:100F30000321029805F01BFC002818D10621029815
:100F400005F015FC002812D10721029805F00FFCCE
:100F500000280CD10921029805F009FC002806D1CF
:100F60000A21029805F003FC002800D10026012C7C
:100F700077D07A4D022C3DD0032C41D0042C48D0A0
:100F8000052C4CD0062C50D0072C54D0082C58D00F
:100F9000092C5CD00A2C65D00B2C69D00C2C6DD0A0
:100FA0000D2C76D00E2C7AD00F2C6FD0102C6ED04A
:100FB000112C56D0122C54D0132C52D0142C67D094
:100FC000152C72D0162C71D0172C70D0182C6FD015
:100FD000192C6ED01A2C6DD01B2C42D01C2C40D05A
:100FE0001D2C3ED01E2C3CD031460120FFF7A0FB2B
:100FF00005B0F0BD31462046FFF79AFB697804E062
:1010000031462046FFF794FBA978412004F07EFC8E
:10101000EEE731462046FFF78BFBE978F5E73146EE
:101020002046FFF785FB2979EFE731462046FFF799
:101030007FFB6979E9E731462046FFF779FBA9791B
:10104000E3E731462046FFF773FBE979DDE73146F8
:101050002046FFF76DFB0021412004F057FC297961
:1010600034E078E031462046FFF762FBE9782DE076
:1010700031462046FFF75CFBA97827E03146204641
:10108000FFF756FB697821E003E008E013E018E081
:101090001EE031462046FFF74BFB297816E031462B
:1010A0002046FFF745FB697910E01DE02DE039E0AF
:1010B0003EE043E048E031462046FFF739FBA9799E
:1010C00004E031462046FFF733FB002139209DE73D
:1010D00031462046FFF72CFB2048E9790830C05DF7
:1010E0000818C1B2102091E731462046FFF720FBD7
:1010F0001A4C10200834E15D04F008FC0098E979EE
:10110000205C0818C1B2682080E731462046FFF70E
:101110000FFB124800990830415C682004F0F6FB90
:10112000297916E031462046FFF702FBE97810E006
:1011300031462046FFF7FCFAA9780AE031462046FE
:10114000FFF7F6FA697804E031462046FFF7F0FA37
:10115000002161205AE73146204647E76800002019
:10116000FFB57D250446ED0081B01E462946104698
:10117000FEF7C0FF0A21FEF7BDFF00912946304669
:10118000FEF7B8FF0A21FEF7B5FF0F4600263146ED
:10119000029805F0ECFA002817D10121029805F019
:1011A000E6FA002811D10221029805F0E0FA0028A1
:1011B0000BD10321029805F0DAFA002805D10421A9
:1011C000029805F0D4FA00281ED00621029805F0F6
:1011D000CEFA002818D10821029805F0C8FA002894
:1011E00012D10A21029805F0C2FA00280CD10B2175
:1011F000029805F0BCFA002806D10C21029805F0EF
:10120000B6FA002800D101260621029805F0AFFAAF
:10121000002817D10821029805F0A9FA002811D159
:101220000A21029805F0A3FA00280BD10B2102989D
:1012300005F09DFA002805D10C21029805F097FAD7
:1012400000281ED00021029805F091FA002818D13C
:101250000121029805F08BFA002812D10221029890
:1012600005F085FA00280CD10321029805F07FFAD9
:10127000002806D10421029805F079FA002800D14F
:1012800002260021029805F072FA002817D10121E8
:10129000029805F06CFA002811D10221029805F09D
:1012A00066FA00280BD10321029805F060FA0028A5
:1012B00005D10421029805F05AFA00281ED0062113
:1012C000029805F054FA002817D10821029805F079
:1012D0004EFA002811D10A21029805F048FA002898
:1012E0000BD10B21029805F042FA002805D10C2100
:1012F000029805F03CFA002800D00326002102984D
:1013000005F035FA002836D10121029805F02FFAB0
:10131000002830D10221029805F029FA00282AD1AC
:101320000321029805F023FA002824D10421029811
:1013300005F01DFA00281ED10621029805F017FAC3
:10134000002818D10821029805F011FA002812D1BE
:101350000A21029805F00BFA00280CD10B21029803
:1013600005F005FA002806D10C21029805F0FFF9D6
:10137000002800D10026012C77D07A4D022C3DD0D8
:10138000032C41D0042C48D0052C4CD0062C50D036
:10139000072C54D0082C58D0092C5CD00A2C65D0CE
:1013A0000B2C69D00C2C6DD00D2C76D00E2C7AD055
:1013B0000F2C6FD0102C6ED0112C56D0122C54D074
:1013C000132C52D0142C67D0152C72D0162C71D03F
:1013D000172C70D0182C6FD0192C6ED01A2C6DD001
:1013E0001B2C42D01C2C40D01D2C3ED01E2C3CD09F
:1013F00031460120FFF79CF905B0F0BD314620468B
:10140000FFF796F9697804E031462046FFF790F936
:10141000A978412004F07AFAEEE731462046FFF73A
:1014200087F9E978F5E731462046FFF781F9297910
:10143000EFE731462046FFF77BF96979E9E7314666
:101440002046FFF775F9A979E3E731462046FFF713
:101450006FF9E979DDE731462046FFF769F90021A8
:10146000412004F053FA297934E078E031462046EF
:10147000FFF75EF9E9782DE031462046FFF758F98D
:10148000A97827E031462046FFF752F9697821E034
:1014900003E008E013E018E01EE031462046FFF7C5
:1014A00047F9297816E031462046FFF741F9697976
:1014B00010E01DE02DE039E03EE043E048E0314639
:1014C0002046FFF735F9A97904E031462046FFF7B9
:1014D0002FF9002139209DE731462046FFF728F9F2
:1014E0002048E9790830C05D0818C1B2102091E7A2
:1014F00031462046FFF71CF91A4C10200834E15DF4
:1015000004F004FA0098E979205C0818C1B2682058
:1015100080E731462046FFF70BF912480099083062
:10152000415C682004F0F2F9297916E03146204642
:10153000FFF7FEF8E97810E031462046FFF7F8F8AB
:10154000A9780AE031462046FFF7F2F8697804E00E
:1015500031462046FFF7ECF8002161205AE731467A
:10156000204647E76800002010B5024802F0E2FD7F
:1015700010BD0000DC04002010B5024802F0DAFDC6
:1015800010BD00002404002010B5044802F0D2FD74
:101590000248B83002F0CEFD10BD0000C8030020A4
:1015A00010B50446006C094980088000401860644A
:1015B000207814210838FEF79DFD04498031A1648C
:1015C000C106C90E01208840E06410BD0008024039
:1015D0000179084B8906890E8A00D2180265054AEE
:1015E0004432491E42658A07920F0121914081656C
:1015F00070470000FC080240F0B5846CC56C656063
:10160000046D002C02D0446D856D65600B4C6568DF
:10161000066C1C273E400127B7403D4365600468C7
:1016200063608368102B036803D099600068C26010
:10163000F0BD9A600068C160F0BD0000000002408B
:10164000F8B54F4C0021A07B05F091F800264D4DD8
:101650000127002826D0A07B012105F088F800286A
:1016600020D1012105F092F8A878002804D104F0D7
:101670000DFAEE702E71AF70E07BFEF7A5FE002331
:10168000E17B1A46E88804F00DFA0023E17B1A4654
:10169000288904F057FF0096227DA17BE07B2B89EF
:1016A00002F05AF9A07B012105F061F800281AD058
:1016B000A07B002105F05BF8002814D1012105F082
:1016C00065F8E878002804D104F0E0F9AE702E71D6
:1016D000EF70E07BFEF778FE0097207D00232A89DB
:1016E000E988FEF799FEA07B062105F040F8002866
:1016F0002CD0A07B002105F03AF8002826D1A07B51
:10170000012105F034F8002820D1012105F03EF830
:101710002879002804D104F0B9F9EE70AE702F7169
:10172000E07BFEF751FE0023E17B1A46184604F0E9
:10173000B9F90023E17B1A46184604F003FF00972D
:10174000227DA17BE07B002302F006F9A07B06212D
:1017500005F00DF8002811D1A07B002105F007F855
:1017600000280BD1A07B012105F001F8002805D14C
:1017700004F08CF90021084605F008F8F8BD0000D7
:101780000E02002046000020F8B54E4C0F21A08923
:1017900004F0EDFF4C4E00254C4F002828D0A189C5
:1017A00001200004401A642822D93D800121002034
:1017B00004F0ECFFA078002805D104F067F9E5708B
:1017C00025710120A070F07CFEF7FEFD0022F17C67
:1017D0000123104604F066F9F17C012300226089A0
:1017E00004F0B0FEF07C00236289E18902F0CFF9B9
:1017F0000F21A08904F0BBFF00281BD1A089642819
:1018000018D93D800121002004F0C0FFE0780028B5
:1018100005D104F03BF9A57025710120E070F07C42
:10182000FEF7D2FD02200090012300226189E089A9
:10183000FEF7F2FDA089002807D001210904091A4A
:10184000642902D9401E632826D83888002826D16A
:10185000012020700146002004F098FF2079002824
:1018600005D104F013F9E570A57001202071F07C1A
:10187000FEF7AAFD0022F17C0123104604F012F9C4
:101880000022F17C0123104604F05CFEF07C012371
:101890006289E18902F07BF93888002805D004F0DC
:1018A000F5F80021084604F071FFA089002807D050
:1018B00001210904091A642901D9642800D83D804E
:1018C000F8BD00004600002029020020440000204E
:1018D000F8B5464C464E608A0025464F032825D170
:1018E000208A32284BD93D800121002004F04EFF90
:1018F000A078002805D104F0C9F8E5702571012011
:10190000A070F08EFEF760FD0022F18E01231046DC
:1019100004F0C8F8F18E01230022608904F012FE61
:10192000F08E00236289E18902F02CFA608A022895
:101930001BD1208A322822D93D800121002004F0C9
:1019400025FFE078002805D104F0A0F8A5702571E6
:101950000120E070F08EFEF737FD03200090012398
:1019600000226189E089FEF757FD608A012803D0D3
:10197000022801D0032829D1208A322826D8388885
:10198000002826D1012020700146002004F0FEFE30
:101990002079002805D104F079F8E570A5700120C0
:1019A0002071F08EFEF710FD0022F18E012310460B
:1019B00004F078F80022F18E0123104604F0C2FDF5
:1019C000F08E01236289E18902F0DCF93888002871
:1019D00005D004F05BF80021084604F0D7FE208A09
:1019E000401E312800D83D80F8BD00004600002090
:1019F000520200204400002010B5074C002361185B
:101A000004E0C418E478CC545B1CDBB21446521ECC
:101A1000D2B2002CF5D110BD0E02002010B5074C3B
:101A20000023611804E0C4182479CC545B1CDBB299
:101A30001446521ED2B2002CF5D110BD290200204E
:101A4000F0B50C4C0023490009190CE0C418E578E6
:101A50005C000D5325182E79EF7835023D436DBAA1
:101A60005B1C0D53DBB21446521ED2B2002CEDD1DA
:101A7000F0BD00005202002070B50120FEF716FCF8
:101A8000002804D064221B490120FEF71DFC1948E0
:101A900001240178184D452902D0DD291CD002E02F
:101AA000417847290ED0417803290AD180785428FB
:101AB00007D110496422881AFEF762FB04F0F6FD94
:101AC0002C7170BD0B4912220846A838FEF758FB4E
:101AD00004F094FDAC7070BD40780328FBD105493B
:101AE000322208469638FEF74BFB04F0A3FDEC705B
:101AF00070BD0000AA0100201800002030B5074C7E
:101B00000023611804E0CC5CC5185B1CAC70DBB230
:101B10001446521ED2B2002CF5D130BD0E02002068
:101B2000FFB5FF4883B0018800250D9E002904D031
:101B3000FC4A01215171058001E0FA4845710221FA
:101B4000049804F014FEF74C1D3400284DD00321F6
:101B5000049804F00CFE002847D10421049804F0F6
:101B600006FE002841D10521049804F000FE00285B
:101B70003BD10321059804F0FAFD002835D104215A
:101B8000059804F0F4FD00282FD10521059804F0F4
:101B9000EEFD002829D10621059804F0E8FD002873
:101BA00023D10721059804F0E2FD00281DD1002172
:101BB000059804F0DCFD002817D10121059804F0F8
:101BC000D6FD002811D10221059804F0D0FD00288F
:101BD0000BD16178032002900195D24800914179A0
:101BE0000C9B069A039804F021F90321049804F051
:101BF000BEFD00284DD00221049804F0B8FD002855
:101C000047D10421049804F0B2FD002841D10521F8
:101C1000049804F0ACFD00283BD10321059804F0A2
:101C2000A6FD002835D10421059804F0A0FD002868
:101C30002FD10521059804F09AFD002829D106210D
:101C4000059804F094FD002823D10721059804F09D
:101C50008EFD00281DD10021059804F088FD002884
:101C600017D10121059804F082FD002811D102212D
:101C7000059804F07CFD00280BD1A1780320029088
:101C80000195A848009141790C9B069A039804F0AD
:101C9000CDF80421049804F06AFDA24F18370028FB
:101CA0004DD00221049804F062FD002847D10321A1
:101CB000049804F05CFD002841D10521049804F04B
:101CC00056FD00283BD10321059804F050FD002863
:101CD00035D10421059804F04AFD00282FD10521B3
:101CE000059804F044FD002829D10621059804F048
:101CF0003EFD002823D10721059804F038FD002877
:101D00001DD10021059804F032FD002817D10121D2
:101D1000059804F02CFD002811D10221059804F04B
:101D200026FD00280BD1F87804210090019502913E
:101D30007C480C9B4179069A039804F077F80521BA
:101D4000049804F014FD00284DD00221049804F0FA
:101D50000EFD002847D10321049804F008FD002857
:101D600041D10421049804F002FD00283BD1032155
:101D7000059804F0FCFC002835D10421059804F0F6
:101D8000F6FC00282FD10521059804F0F0FC00286E
:101D900029D10621059804F0EAFC002823D1072167
:101DA000059804F0E4FC00281DD10021059804F0FA
:101DB000DEFC002817D10121059804F0D8FC00288A
:101DC00011D10221059804F0D2FC00280BD1E17852
:101DD0000320029001955348009141790C9B069A8B
:101DE000039804F023F80221049804F0C0FC0028B2
:101DF00050D00321049804F0BAFC00284AD00421F2
:101E0000049804F0B4FC002844D10521049804F09F
:101E1000AEFC00283ED10321059804F0A8FC002860
:101E200038D10421059804F0A2FC002832D1052104
:101E3000059804F09CFC00282CD10621059804F09C
:101E400096FC002826D10721059804F090FC002874
:101E500020D10021059804F08AFC00281AD1012124
:101E6000059804F084FC002814D10221059804F0A0
:101E70007EFC00280ED16178A27803208918029098
:101E8000C9B201952748009141790C9B069A0398A5
:101E900003F0CCFF0221049804F069FC002853D021
:101EA0000421049804F063FC00284DD00321049819
:101EB00004F05DFC002847D10521049804F057FC8C
:101EC000002841D10321059804F051FC00283BD1A2
:101ED0000421059804F04BFC002835D10521059814
:101EE00004F045FC00282FD10621059804F03FFCA2
:101EF000002829D10721059804F039FC002823D1B6
:101F00000021059804F033FC00281DD1012105981B
:101F100004F02DFC002817D10221059804E00000F0
:101F2000320000204600002004F021FC00280BD1E4
:101F300060780822F9786B4607C3FE480C9B41790C
:101F4000069A039803F072FF0221049804F00FFC34
:101F5000002850D00521049804F009FC00284AD03C
:101F60000321049804F003FC002844D104210498C0
:101F700004F0FDFB00283ED10321059804F0F7FB97
:101F8000002838D10421059804F0F1FB002832D153
:101F90000521059804F0EBFB00282CD106210598BB
:101FA00004F0E5FB002826D10721059804F0DFFBAB
:101FB000002820D10021059804F0D9FB00281AD16F
:101FC0000121059804F0D3FB002814D102210598C3
:101FD00004F0CDFB00280ED16178E2780320891847
:101FE0000290C9B20195D348009141790C9B069AA1
:101FF000039803F01BFF0321049804F0B8FB0028AA
:102000004DD00421049804F0B2FB002847D00221EF
:10201000049804F0ACFB002841D10521049804F099
:10202000A6FB00283BD10321059804F0A0FB002863
:1020300035D10421059804F09AFB00282FD1052101
:10204000059804F094FB002829D10621059804F096
:102050008EFB002823D10721059804F088FB002877
:102060001DD10021059804F082FB002817D1012121
:10207000059804F07CFB002811D10221059804F09A
:1020800076FB00280BD1A0780822F9786B4607C3AD
:10209000A8480C9B4179069A039803F0C7FE0321D8
:1020A000049804F064FB002850D00521049804F043
:1020B0005EFB00284AD00221049804F058FB002857
:1020C00044D10421049804F052FB00283ED103219E
:1020D000059804F04CFB002838D10421059804F041
:1020E00046FB002832D10521059804F040FB00286A
:1020F0002CD10621059804F03AFB002826D10721AF
:10210000059804F034FB002820D10021059804F044
:102110002EFB00281AD10121059804F028FB002885
:1021200014D10221059804F022FB00280ED1A178D9
:10213000E278032089180290C9B201957D48009188
:1021400041790C9B069A039803F070FE04210498D1
:1021500004F00DFB00284DD00521049804F007FB86
:10216000002847D00221049804F001FB002841D147
:102170000321049804F0FBFA00283BD103210598C1
:1021800004F0F5FA002835D10421059804F0EFFA9F
:1021900000282FD10521059804F0E9FA002829D15B
:1021A0000621059804F0E3FA002823D107210598B9
:1021B00004F0DDFA00281DD10021059804F0D7FABB
:1021C000002817D10121059804F0D1FA002811D177
:1021D0000221059804F0CBFA00280BD1E078082200
:1021E000F9786B4607C353480C9B4179069A0398CC
:1021F00003F01CFE0221049804F0B9FA002851D023
:102200000321049804F0B3FA00284BD00421049869
:1022100004F0ADFA002845D00521049804F0A7FA8F
:1022200000283FD10321059804F0A1FA002839D1F4
:102230000421059804F09BFA002833D10521059864
:1022400004F095FA00282DD10621059804F08FFAA4
:10225000002827D10721059804F089FA002821D108
:102260000021059804F083FA00281BD1012105986C
:1022700004F07DFA002815D10221059804F077FAC0
:1022800000280FD16278A378F978D2180820D2B24A
:1022900002900092019127480C9B4179069A03987D
:1022A00003F0C4FD0221049804F061FA002855D01F
:1022B0000321049804F05BFA00284FD0042104980D
:1022C00004F055FA002849D10521049804F04FFA8A
:1022D000002843D00321059804F049FA00283DD195
:1022E0000421059804F043FA002837D10521059808
:1022F00004F03DFA002831D10621059804F037FAA0
:1023000000282BD10721059804F031FA002825D1A7
:102310000021059804F02BFA00281FD1012105980F
:1023200004F025FA002819D10221059804F01FFABB
:10233000002801E04600002010D16178A278032037
:102340008918E27802908918C9B20195F94800917C
:1023500041790C9B069A039803F068FD02210498CA
:1023600004F005FA002851D00321049804F0FFF985
:1023700000284BD10421049804F0F9F9002845D035
:102380000521049804F0F3F900283FD003210598B3
:1023900004F0EDF9002839D10421059804F0E7F99B
:1023A000002833D10521059804F0E1F900282DD14A
:1023B0000621059804F0DBF9002827D107210598AC
:1023C00004F0D5F9002821D10021059804F0CFF9B7
:1023D00000281BD10121059804F0C9F9002815D166
:1023E0000221059804F0C3F900280FD16278E37840
:1023F000F978D2180820D2B2029000920191CD480B
:102400000C9B4179069A039803F010FD0221049871
:1024100004F0ADF9002851D10321049804F0A7F984
:1024200000284BD00421049804F0A1F9002845D0DD
:102430000521049804F09BF900283FD0032105985A
:1024400004F095F9002839D10421059804F08FF99A
:10245000002833D10521059804F089F900282DD1F1
:102460000621059804F083F9002827D10721059853
:1024700004F07DF9002821D10021059804F077F9B6
:1024800000281BD10121059804F071F9002815D10D
:102490000221059804F06BF900280FD1A278E378A7
:1024A000F878D2180821D2B2019000920291A14886
:1024B0000C9B4179069A039803F0B8FC022104981A
:1024C00004F055F9002853D00321049804F04FF983
:1024D00000284DD00421049804F049F9002847D081
:1024E0000521049804F043F9002841D00321059800
:1024F00004F03DF900283BD10421059804F037F998
:10250000002835D10521059804F031F900282FD194
:102510000621059804F02BF9002829D107210598F8
:1025200004F025F9002823D10021059804F01FF9B3
:1025300000281DD10121059804F019F9002817D1B0
:102540000221059804F013F9002811D16278A378CC
:10255000F978D218E3780820D218D2B2029000920B
:10256000019174480C9B4179069A039803F05EFC34
:102570000021059804F0FBF800280BD101210598F3
:1025800004F0F5F8002805D10221059804F0EFF8D1
:1025900000282DD00721059804F0E9F8002827D15C
:1025A0006548008800280ED0002E0ED10120029030
:1025B0000195014600950C9B069A039803F036FCA2
:1025C0005D48058014E0002E07D00120019502909F
:1025D000009501460C9B069A07E079780120019549
:1025E000029000910C9B069A0021039803F01EFCB8
:1025F0000321059804F0BBF8002856D00421059863
:1026000004F0B5F8002850D10521059804F0AFF882
:1026100000284AD10621059804F0A9F8002844D1E1
:102620000721059804F0A3F800283ED10021059861
:1026300004F09DF8002838D10121059804F097F89E
:10264000002832D10221059804F091F800282CD1FD
:102650003948008800280FD0002E0FD16178032060
:1026600002900195009101210C9B069A039803F0BA
:10267000DDFB3148058018E0002E08D0617803208A
:1026800001950091029001210C9B069A0AE02178A5
:10269000627803208918C9B20195029000910C9BC1
:1026A000069A0021039803F0C1FB0421059804F069
:1026B0005EF800285BD00321059804F058F8002844
:1026C00055D10521059804F052F800284FD1062174
:1026D000059804F04CF8002849D10721059804F02A
:1026E00046F8002843D10021059804F040F800285E
:1026F0003DD10121059804F03AF8002837D1022194
:10270000059804F034F8002831D10B4800880028DF
:1027100014D0002E14D1A1780320029001950091CD
:1027200001210C9B069A039803F080FB0248058068
:102730001DE00000460000203E000020002E08D0D2
:10274000A178032001950091029001210C9B069A2B
:102750000AE02178A27803208918C9B20195029075
:1027600000910C9B069A0021039803F05FFB052162
:10277000059803F0FCFF002853D00321059803F0CF
:10278000F6FF00284DD10421059803F0F0FF002842
:1027900047D10621059803F0EAFF002841D107211F
:1027A000059803F0E4FF00283BD10021059803F0D1
:1027B000DEFF002835D10121059803F0D8FF00285D
:1027C0002FD10221059803F0D2FF002829D1F94822
:1027D000008800280FD0002E0FD1F9780820019131
:1027E0000290009501210C9B069A039803F01EFBB2
:1027F000F048058015E0002E08D0F87808210291F5
:102800000190009501210C9B069A07E02078082290
:10281000F9786B4607C30C9B069A0021039803F0D6
:1028200005FB0621059803F0A2FF002856D00321DE
:10283000059803F09CFF002850D10421059803F06F
:1028400096FF00284AD10521059803F090FF002843
:1028500044D10721059803F08AFF00283ED10021CA
:10286000059803F084FF002838D10121059803F072
:102870007EFF002832D10221059803F078FF00285E
:102880002CD1CC48008800280FD0002E0FD1E17841
:10289000032002900195009101210C9B069A039858
:1028A00003F0C4FAC348058018E0002E08D0E17890
:1028B000032001950091029001210C9B069A0AE0E9
:1028C0002178E27803208918C9B20195029000911D
:1028D0000C9B069A0021039803F0A8FA032105989F
:1028E00003F045FF00285ED00421059803F03FFF68
:1028F000002858D00521059803F039FF002852D14F
:102900000621059803F033FF00284CD107210598D4
:1029100003F02DFF002846D10021059803F027FF82
:10292000002840D10121059803F021FF00283AD169
:102930000221059803F01BFF002834D19D48008830
:10294000002812D0002E12D16178A27803208918B5
:10295000C9B202900195009101210C9B069A03983F
:1029600003F064FA934805801DE0002E0BD06178D7
:10297000A27803208918C9B2019500910290012123
:102980000C9B069A0CE02178627803208918A278C3
:1029900001958918C9B2029000910C9B069A0021FA
:1029A000039803F043FA0321059803F0E0FE0028A2
:1029B00057D00521059803F0DAFE002851D00421F4
:1029C000059803F0D4FE00284BD10621059803F0AA
:1029D000CEFE002845D10721059803F0C8FE002847
:1029E0003FD10021059803F0C2FE002839D1012112
:1029F000059803F0BCFE002833D10221059803F0AE
:102A0000B6FE00282DD16B48008800280FD0002E7C
:102A10000FD160780822F9786B4607C301210C9B1F
:102A2000069A039803F002FA6248058019E0002E26
:102A300008D060780822F9786B4607C301210C9B07
:102A4000069A0BE022786378F978D2180820D2B27F
:102A50000092019102900C9B069A0021039803F0CA
:102A6000E5F90321059803F082FE00285ED00621D7
:102A7000059803F07CFE002858D00421059803F047
:102A800076FE002852D10521059803F070FE00283B
:102A90004CD10721059803F06AFE002846D1002199
:102AA000059803F064FE002840D10121059803F049
:102AB0005EFE00283AD10221059803F058FE002856
:102AC00034D13C480088002812D0002E12D1617801
:102AD000E27803208918C9B2029001950091012182
:102AE0000C9B069A039803F0A1F9324805801DE07B
:102AF000002E0BD06178E27803208918C9B20195C5
:102B00000091029001210C9B069A0CE021786278DA
:102B100003208918E27801958918C9B202900091C2
:102B20000C9B069A0021039803F080F90421059874
:102B300003F01DFE002859D00521059803F017FE6B
:102B4000002853D00321059803F011FE00284DD131
:102B50000621059803F00BFE002847D107210598B0
:102B600003F005FE002841D10021059803F0FFFD88
:102B700000283BD10121059803F0F9FD002835D14B
:102B80000221059803F0F3FD00282FD109480088A1
:102B9000002811D0002E11D1A0780822F9786B46B8
:102BA00007C301210C9B069A039803F03FF90148E3
:102BB00005801BE03E000020002E08D0A0780822EF
:102BC000F9786B4607C301210C9B069A0BE022782B
:102BD000A378F978D2180820D2B20092019102901D
:102BE0000C9B069A0021039803F020F90521059813
:102BF00003F0BDFD002857D00621059803F0B7FD6E
:102C0000002851D00321059803F0B1FD00284BD1D5
:102C10000421059803F0ABFD002845D10721059854
:102C200003F0A5FD00283FD10021059803F09FFD8A
:102C3000002839D10121059803F099FD002833D1EE
:102C40000221059803F093FD00282DD1FE4800884D
:102C500000280FD0002E0FD1E0780822F9786B46BB
:102C600007C301210C9B069A039803F0DFF8F6488E
:102C7000058019E0002E08D0E0780822F9786B462C
:102C800007C301210C9B069A0BE02278E378F978C0
:102C9000D2180820D2B20092019102900C9B069AA1
:102CA0000021039803F0C2F80421059803F05FFDAA
:102CB00000285ED00621059803F059FD002858D061
:102CC0000521059803F053FD002852D105210598F0
:102CD00003F04DFD00284CD10721059803F047FD76
:102CE000002846D10021059803F041FD002840D17D
:102CF0000121059803F03BFD00283AD102210598F7
:102D000003F035FD002834D1CF480088002812D0C8
:102D1000002E12D1A178E27803208918C9B202905E
:102D20000195009101210C9B069A039803F07EF80F
:102D3000C54805801DE0002E0BD0A178E278032065
:102D40008918C9B201950091029001210C9B069A45
:102D50000CE02178A27803208918E278019589187F
:102D6000C9B2029000910C9B069A0021039803F0CF
:102D70005DF80321059803F0FAFC002864D00421D3
:102D8000059803F0F4FC00285ED00621059803F0B6
:102D9000EEFC002858D00521059803F0E8FC002837
:102DA00052D10721059803F0E2FC00284CD1002104
:102DB000059803F0DCFC002846D10121059803F0BA
:102DC000D6FC002840D10221059803F0D0FC002851
:102DD0003AD19D480088002814D0002E14D1617883
:102DE000A27803208918E27802908918C9B2019567
:102DF000009101210C9B069A039803F017F8924862
:102E0000058021E0002E0DD06178A278032089187A
:102E1000E27801958918C9B20091029001210C9BBA
:102E2000069A0EE021786278E3788918A278032068
:102E3000D2188918C9B20195029000910C9B069A8C
:102E40000021039802F0F2FF0321059803F08FFCA4
:102E5000002861D00421059803F089FC00285BD08C
:102E60000521059803F083FC002855D0062105981C
:102E700003F07DFC00284FD10721059803F077FC73
:102E8000002849D10021059803F071FC002843D1A6
:102E90000121059803F06BFC00283DD10221059823
:102EA00003F065FC002837D167480088002813D05C
:102EB000002E13D16278A378F878D2180821D2B204
:102EC00002910190009201210C9B069A039802F056
:102ED000ADFF5D4805801FE0002E0CD06278A3781E
:102EE000F978D2180820D2B2019100920290012103
:102EF0000C9B069A0DE022786378F978D218A378B3
:102F00000820D218D2B20092019102900C9B069A2E
:102F10000021039802F08AFF0321059803F027FCA3
:102F2000002861D00521059803F021FC00285BD022
:102F30000621059803F01BFC002855D004210598B4
:102F400003F015FC00284FD10721059803F00FFC72
:102F5000002849D10021059803F009FC002843D13D
:102F60000121059803F003FC00283DD102210598BA
:102F700003F0FDFB002837D133480088002813D028
:102F8000002E13D16278E378F978D2180820D2B2F3
:102F900001910290009201210C9B069A039802F085
:102FA00045FF294805801FE0002E0CD06278E378A9
:102FB000F878D2180821D2B2029100920190012132
:102FC0000C9B069A0DE022786378F978D218E378A2
:102FD0000820D218D2B20092019102900C9B069A5E
:102FE0000021039802F022FF0421059803F0BFFBA3
:102FF000002864D00521059803F0B9FB00285ED0B5
:103000000621059803F0B3FB002858D0032105984A
:1030100003F0ADFB002852D10721059803F0A7FB70
:1030200000284CD10021059803F0A1FB002846D1CF
:103030000121059803F09BFB002840D1022105984F
:1030400003F095FB002801E03E00002037D1C24884
:103050000088002813D0002E13D1A278E378F978E5
:10306000D2180820D2B201910290009201210C9B4B
:10307000069A039802F0DAFEB74805801FE0002E9A
:103080000CD0A278E378F978D2180820D2B2019156
:103090000092029001210C9B069A0DE02278A37801
:1030A000F978D218E3780820D218D2B200920191B0
:1030B00002900C9B069A0021039802F0B7FE0321B0
:1030C000059803F054FB002867D00421059803F00D
:1030D0004EFB002861D00521059803F048FB00282D
:1030E0005BD00621059803F042FB002855D007214C
:1030F000059803F03CFB00284FD10021059803F010
:1031000036FB002849D10121059803F030FB002847
:1031100043D10221059803F02AFB00283DD18E48B7
:103120000088002815D0002E15D16278A378F87891
:10313000D218E3780821D218D2B2029101900092FD
:1031400001210C9B069A039802F070FE82480580CC
:1031500023E0002E0ED06278A378F878D218E378B6
:103160000821D218D2B202910092019001210C9B49
:10317000069A0FE022786378F978D218A378E47879
:1031800008201B19D218D2B20092019102900C9B18
:10319000069A0021039802F049FE0721059803F0E2
:1031A000E6FA002838D00021059803F0E0FA00285C
:1031B00032D10121059803F0DAFA00282CD102213E
:1031C000059803F0D4FA002826D1634C2088002803
:1031D0000DD0002E0DD101200290019501460095E1
:1031E0000C9B069A039802F021FE258014E0002E25
:1031F00007D0012001950290009501460C9B069A8C
:1032000007E0397801200195029000910C9B069A05
:103210000021039802F00AFE0721059803F0A7FA9F
:1032200000283BD00021059803F0A1FA00280BD11B
:103230000121059803F09BFA002805D10221059889
:1032400003F095FA002829D0434C208800280DD09F
:10325000002E0DD1012002900195014600950C9B96
:10326000069A039802F0E2FD258017E0002E07D0B1
:10327000012001950290009501460C9B069A0AE0F8
:1032800039787A7801208918C9B2019502900091A5
:103290000C9B069A0021039802F0C8FD02210498B5
:1032A00003F065FA002855D10321049803F05FFA72
:1032B00000284FD10421049803F059FA002849D17D
:1032C0000521049803F053FA002843D103210598FF
:1032D00003F04DFA00283DD10421059803F047FA88
:1032E000002837D10521059803F041FA002831D193
:1032F0000621059803F03BFA00282BD107210598F9
:1033000003F035FA002825D10021059803F02FFAA3
:1033100000281FD10121059803F029FA002819D1AE
:103320000221059803F023FA002813D1002E07D0BC
:103330000A2001950290009501210C9B069A06E057
:10334000019502950548009541790C9B069A0398D2
:1033500002F06CFD07B0F0BD3E00002046000020EA
:10336000FFB5AF4883B00188012500240C9F0029D8
:1033700003D0AC494D71048001E0AA48447100219A
:10338000049803F0F4F9A84E00281DD101210498F7
:1033900003F0EDF9002817D10221049803F0E7F9B2
:1033A000002811D10321049803F0E1F900280BD182
:1033B0000921049803F0DBF9002805D10A210498BB
:1033C00003F0D5F9002833D00621049803F0CFF993
:1033D00000282DD10721049803F0C9F9002827D12E
:1033E000308800280CD0002F0CD100940194029555
:1033F0000121069B059A039802F0D6FE348017E05F
:10340000002F06D00094019402950121069B059A95
:103410000BE0844883491D301831007849780091C9
:103420000190069B059A02950021039802F0BCFECC
:103430000621049803F09BF9002805D10721049880
:1034400003F095F900284BD00021049803F08FF980
:10345000002845D10121049803F089F900283FD1C3
:103460000221049803F083F9002839D1032104983C
:1034700003F07DF9002833D10921049803F077F98E
:1034800000282DD10A21049803F071F9002827D1D2
:10349000308800280CD0002F0CD1009401940295A4
:1034A0000121069B059A039802F07EFE348017E006
:1034B000002F06D00094019402950121069B059AE5
:1034C0000BE0584857491D301831007809780091B1
:1034D0000190069B059A02950021039802F064FE74
:1034E0000621049803F043F9002805D10721049828
:1034F00003F03DF900284CD00021049803F037F97F
:1035000000281DD10121049803F031F9002817D1BA
:103510000221049803F02BF9002811D1032104980B
:1035200003F025F900280BD10921049803F01FF9B5
:10353000002805D10A21049803F019F9002828D0A1
:10354000308800280CD0002F0CD1009401940295F3
:103550000121069B059A039802F026FE348018E0AC
:10356000002F06D00094019402950121069B059A34
:103570000CE02C481D300178401F0278407810186C
:10358000C0B26A4623C2069B059A0021039802F046
:103590000BFE0021049803F0EAF800283DD1012138
:1035A000049803F0E4F8002837D10221049803F0CE
:1035B000DEF8002831D10321049803F0D8F8002860
:1035C0002BD10621049803F0D2F8002825D1072139
:1035D000049803F0CCF800281FD10921049803F0C7
:1035E000C6F8002819D10A21049803F0C0F8002871
:1035F00013D1002F07D00A200094019402900121DA
:10360000069B059A06E000940194064802944179CD
:10361000069B059A039802F0C7FD07B0F0BD0000B5
:1036200032000020460000203E000020FFB5C748C1
:1036300083B00188012500240C9F002903D0C449D0
:103640004D71048001E0C24844710021049803F0E8
:103650008EF8C04E002817D10121049803F087F896
:10366000002811D10221049803F081F800280BD121
:103670000321049803F07BF8002805D10521049864
:1036800003F075F8002845D00721049803F06FF87F
:1036900000283FD10921049803F069F8002839D1A6
:1036A0000A21049803F063F8002833D10B21049811
:1036B00003F05DF800282DD10D21049803F057F890
:1036C000002827D1308800280CD0002F0CD100947E
:1036D000019402950121069B059A039802F064FD6E
:1036E000348017E0002F06D0009401940295012148
:1036F000069B059A0BE0964895491D3018310078D5
:10370000497800910190069B059A02950021039843
:1037100002F04AFD0721049803F029F8002817D188
:103720000921049803F023F8002811D10A210498F4
:1037300003F01DF800280BD10B21049803F017F8B3
:10374000002805D10D21049803F011F8002845D078
:103750000021049803F00BF800283FD101210498C0
:1037600003F005F8002839D10221049802F0FFFF88
:10377000002833D10321049802F0F9FF00282DD14D
:103780000521049802F0F3FF002827D13088002893
:103790000CD0002F0CD10094019402950121069BBE
:1037A000059A039802F000FD348017E0002F06D040
:1037B0000094019402950121069B059A0BE0644850
:1037C00063491D3018310078097800910190069BFB
:1037D000059A02950021039802F0E6FC0021049866
:1037E00002F0C5FF002817D10121049802F0BFFFA5
:1037F000002811D10221049802F0B9FF00280BD152
:103800000321049802F0B3FF002805D10521049894
:1038100002F0ADFF002846D00721049802F0A7FF70
:10382000002817D10921049802F0A1FF002811D126
:103830000A21049802F09BFF00280BD10B21049869
:1038400002F095FF002805D10D21049802F08FFFAA
:10385000002828D0308800280CD0002F0CD10094EC
:10386000019402950121069B059A039802F09CFCA5
:10387000348018E0002F06D00094019402950121B5
:10388000069B059A0CE032481D300178401F0278F3
:1038900040781018C0B26A4623C2069B059A0021E0
:1038A000039802F081FC0021049802F060FF0028D8
:1038B00049D10121049802F05AFF002843D1022186
:1038C000049802F054FF00283DD10321049802F02F
:1038D0004EFF002837D10521049802F048FF002848
:1038E00031D10721049802F042FF00282BD1092191
:1038F000049802F03CFF002825D10A21049802F028
:1039000036FF00281FD10B21049802F030FF002859
:1039100019D10D21049802F02AFF002813D1002F9D
:1039200007D00A200094019402900121069B059A79
:1039300006E000940194064802944179069B059A9A
:10394000039802F031FC07B0F0BD00003200002007
:10395000460000203E000020FEB50F4604467D21B3
:103960001646C9001846089DFCF7C4FB0A21FCF75F
:10397000C1FB5F2C04D3C8B200230195009007E07F
:1039800020465C38032809D2C8B201230195009073
:10399000324639462046FEF7C3F8FEBD2046593868
:1039A000032804D2C8B2022301950090F0E7204614
:1039B0005538042804D2C8B2032301950090E7E7E4
:1039C00020465238032804D2C8B20423019500903F
:1039D000DEE720464F38032804D2C8B205230195FC
:1039E0000090D5E720464B38042804D2C8B20623FD
:1039F00001950090CCE720464838032804D2C8B28D
:103A0000072301950090C3E720464538032804D2D8
:103A1000C8B2082301950090BAE72046423803282F
:103A200004D2C8B21C2301950090B1E720463E386D
:103A3000042804D2C8B21D2301950090A8E72046AF
:103A40003B38032804D2C8B20923019500909FE7B0
:103A500020463838032804D2C8B20A2301950090C2
:103A600096E720463438042804D2C8B20B230195C7
:103A700000908DE720463138032804D2C8B20C23C9
:103A80000195009084E720462E38032804D2C8B25E
:103A90000D23019500907BE720462A38042804D2A4
:103AA000C8B20E230195009072E7204627380328FC
:103AB00004D2C8B20F230195009069E7204624384C
:103AC000032804D2C8B210230195009060E7204675
:103AD0002138032804D2C8B211230195009057E77A
:103AE00020461D38042804D2C8B212230195009044
:103AF0004EE720461A38032804D2C8B21323019592
:103B0000009045E720461738032804D2C8B2142392
:103B1000019500903CE720461338042804D2C8B22F
:103B200015230195009033E720461038032804D26E
:103B3000C8B21623019500902AE720460D380328C5
:103B400004D2C8B217230195009021E72046093816
:103B5000042804D2C8B218230195009018E7A01FCA
:103B6000032804D2C8B219230195009010E7E01E83
:103B7000032804D2C8B21A230195009008E7032C49
:103B800000D30AE7C8B21B230195009000E7F8B5FF
:103B90000E4604467D211D46C9001046FCF7AAFAD0
:103BA0000A21FCF7A7FA5F2C03D3CBB200220095C1
:103BB00006E020465C38032807D2CBB201220095EC
:103BC00031462046FFF7CCFBF8BD20465938032884
:103BD00003D2CBB202220095F2E7204655380428E2
:103BE00003D2CBB203220095EAE7204652380328DD
:103BF00003D2CBB204220095E2E720464F380328D7
:103C000003D2CBB205220095DAE720464B380428D0
:103C100003D2CBB206220095D2E7204648380328CB
:103C200003D2CBB207220095CAE7204645380328C5
:103C300003D2CBB208220095C2E7204642380328BF
:103C400003D2CBB21C220095BAE720463E380428A6
:103C500003D2CBB21D220095B2E720463B380328A1
:103C600003D2CBB209220095AAE7204638380328B0
:103C700003D2CBB20A220095A2E7204634380428AA
:103C800003D2CBB20B2200959AE7204631380328A5
:103C900003D2CBB20C22009592E720462E3803289F
:103CA00003D2CBB20D2200958AE720462A38042899
:103CB00003D2CBB20E22009582E720462738032894
:103CC00003D2CBB20F2200957AE72046243803288E
:103CD00003D2CBB21022009572E720462138032888
:103CE00003D2CBB2112200956AE720461D38042882
:103CF00003D2CBB21222009562E720461A3803287D
:103D000003D2CBB2132200955AE720461738032876
:103D100003D2CBB21422009552E720461338042870
:103D200003D2CBB2152200954AE72046103803286B
:103D300003D2CBB21622009542E720460D38032865
:103D400003D2CBB2172200953AE72046093804285F
:103D500003D2CBB21822009532E7A01F032803D26A
:103D6000CBB2192200952BE7E01E032803D2CBB279
:103D70001A22009524E7032C00D325E7CBB21B229F
:103D800000951DE7F8B50E4604467D211D46C90085
:103D90001046FCF7AFF90A21FCF7ACF95F2C03D30E
:103DA000CBB20022009506E020465C38032807D2FB
:103DB000CBB20122009531462046FFF737FCF8BD13
:103DC00020465938032803D2CBB202220095F2E7ED
:103DD00020465538042803D2CBB203220095EAE7E7
:103DE00020465238032803D2CBB204220095E2E7E2
:103DF00020464F38032803D2CBB205220095DAE7DC
:103E000020464B38042803D2CBB206220095D2E7D5
:103E100020464838032803D2CBB207220095CAE7D0
:103E200020464538032803D2CBB208220095C2E7CA
:103E300020464238032803D2CBB21C220095BAE7B1
:103E400020463E38042803D2CBB21D220095B2E7AB
:103E500020463B38032803D2CBB209220095AAE7BB
:103E600020463838032803D2CBB20A220095A2E7B5
:103E700020463438042803D2CBB20B2200959AE7AF
:103E800020463138032803D2CBB20C22009592E7AA
:103E900020462E38032803D2CBB20D2200958AE7A4
:103EA00020462A38042803D2CBB20E22009582E79E
:103EB00020462738032803D2CBB20F2200957AE799
:103EC00020462438032803D2CBB21022009572E793
:103ED00020462138032803D2CBB2112200956AE78D
:103EE00020461D38042803D2CBB21222009562E787
:103EF00020461A38032803D2CBB2132200955AE782
:103F000020461738032803D2CBB21422009552E77B
:103F100020461338042803D2CBB2152200954AE775
:103F200020461038032803D2CBB21622009542E770
:103F300020460D38032803D2CBB2172200953AE76A
:103F400020460938042803D2CBB21822009532E764
:103F5000A01F032803D2CBB2192200952BE7E01E45
:103F6000032803D2CBB21A22009524E7032C00D3F6
:103F700025E7CBB21B2200951DE7000070B5244851
:103F8000244C007800280FD02348417C027C090291
:103F9000114349BAE180C17C827C0802104340BAD7
:103FA0002081FDF74DFB70BD1C480078002819D01A
:103FB0001B4D687829780002084340BA6421FCF759
:103FC00099F86081E878A9780002084340BAA08196
:103FD0002846017FC27E0802104340BAE081FDF707
:103FE000D3FB70BD0F4800780028FAD00E4D0A218F
:103FF00028886082E88DFCF77DF86081A88E012119
:104000000904081A2082E888E081FDF761FC70BD90
:104010001A000020460000200E0200201B00002095
:10402000290200201C0000205202002072B6FEE788
:1040300010B5024800F074FA10BD0000440E0020D4
:10404000F0B5002808D0014620314A79022A05D06F
:104050000422C263002008710120F0BD02681368C9
:104060000E24A3431360426C1468FF2301339C4366
:104070001460026814686408640014600C4A55688F
:10408000066C1C24264001242746B7403D4355605A
:10409000826CC56C5560026D002A05D015689D4381
:1040A0001560826D406D42604C7100200871F0BD5A
:1040B00000000240F8B5002402462032517902295E
:1040C00003D00421C16301242DE001680B680E2593
:1040D000AB430B6001680B685B085B000B60416CD5
:1040E0000B68FF250135AB430B6010494D68066C2A
:1040F0001C231E4001231F46B7403D434D60816C89
:10410000C56C4D60016D002906D00E681D02AE43DE
:104110000E60416D856D4D60537100211171816B91
:10412000002900D088472046F8BD0000000002406A
:10413000C06B7047F0B42C490C6802681368056CBA
:104140001C273D400426AE40264211D05E070FD505
:1041500013689B0603D4146804239C4314604B68C3
:10416000046C04223C40A24013434B60016B1CE0F2
:104170000227AF40064627402036002F19D09F0760
:1041800017D513689B0605D413680A24A34313604C
:10419000012272714B68046C1C2214400222A2405E
:1041A00013434B6000213171C16A00291AD0F0BC61
:1041B00008470827AF40274214D01B0712D51368C1
:1041C0000E24A34313604B68046C1C22144001228C
:1041D0001546A5402B434B60C263727100213171BB
:1041E000416BE2E7F0BC70470000024070B504008C
:1041F0003FD02548256814212818FBF77BFF800055
:104200002064022026462036707128681F49084025
:104210002860E168A0686269084321691143084386
:10422000A1690843E1690843216A084321680A68D3
:10423000104308602046FDF7B3F90121A068890307
:104240000025884200D165602079616C8006800E6F
:104250000860A06CE16C41606068401E03280AD8C9
:104260002046FDF7B5F9206D0560606DA16D4160D8
:1042700004E0012070BD25656565A565E563012045
:1042800070713571002070BDF8FFFDBF0F80FFFF1A
:10429000F8B504468C4620300179002501290BD061
:1042A0000126067141790027012907D08021E163A9
:1042B000077101252846F8BD0220F8BD0221417191
:1042C000E7632068016849084900016061462046AB
:1042D000FDF792F9206B00282068016801D00E22BA
:1042E00005E0042291430160206801680A2211431D
:1042F0000160606C0168CA03074902D502680A437D
:104300000260206D002802D002680A430260206823
:10431000016831430160CDE70001000070B504463B
:1043200000F0C2F80546601C02D00448007824184A
:1043300000F0BAF8401BA042FAD370BD0000002084
:10434000F0B5002303249AE02A4601259D402A4027
:104350007ED00E79B607B60F012E01D0022E16D1EF
:1043600086682746B4465E00B646B7406646BE43FA
:10437000B446CF687646B74066463743876046689E
:10438000AE430D79ED06ED0F9D40354345600D7947
:10439000ED43AD0708D0C5685F002646BE40B54373
:1043A0008E68BE402E43C6600D79AD07AD0F022D5D
:1043B0000ED1DD08AD002D18AC462D6A5E07F60E55
:1043C0000F27B740BD430F69B7402F4365462F62A3
:1043D00005685F002646BE40B5430E79B607B60FA6
:1043E000BE402E4306604D68AD03AD0F46D09E081B
:1043F000264DB6007519AC462D6E9E07F60E0F279A
:10440000B740BD4305273F07B84201D100270FE061
:104410001F4FB84201D101270AE01E4FB84201D117
:10442000022705E01C4FB84201D1032700E0052711
:10443000B7402F43154D664637662D684E68954345
:10444000F60200D51543114F3D607D68954300E0AD
:1044500014E04E68B60200D515437D600B4D8035E3
:104460006E684F689643BF0300D516436E602E6892
:104470004F689643FF0300D516432E605B1C0A6805
:104480001546DA4000D05FE7F0BD0000001802409A
:104490000004005000080050000C0050002A01D019
:1044A00081617047816270470148806870470000F1
:1044B0000000002070B504000FD021681548086086
:1044C00021681548086003CC41602068083C2168D9
:1044D0008860FFF7E9FF05460CE0012070BDFFF79B
:1044E000E3FF401B312805D92068C068400701D090
:1044F000032070BD2068C0684007F0D120680269C1
:10450000E1688A4201D0016101E0044901600020B4
:1045100070BD0000CCCC000055550000AAAA0000D8
:10452000006802490160002070470000AAAA00004C
:104530000248816802788918816070470000002075
:1045400010B508480024016882151143016003205A
:1045500000F00AF8002801D0012401E000F028F85A
:10456000204610BD0020024070B50F4E0024317867
:104570000546002915D07D20C000FBF7BBFD014694
:104580000A480068FBF7B6FD00F030FC002808D1AF
:10459000042D06D200222946401E00F02BF875603B
:1045A00000E00124204670BD000000200C00002027
:1045B00008B50948016801221143016000681040F4
:1045C000009005484038C26B01040A43C263C06BC7
:1045D0000840009008BD000040100240002805DBA4
:1045E000C106C90E012088400149086070470000DB
:1045F00000E100E010B502F0ABFF10BD10B50F4CAC
:10460000216803225202914301432160C11FFF39F7
:10461000FA390ED10A480621006848430949FBF7D8
:1046200069FD401C02E0002805D0401E6169490573
:10463000F9D4002010BD032010BD00000070004020
:104640000C00002040420F00F8B504460068002628
:10465000664D800358D5654800274038C06BC000C0
:1046600009D462484038C26B01040A43C263C06B7C
:104670000840012700905E480168821511430160DF
:10468000FFF712FF009005E0FFF70EFF0099401AB8
:10469000022825D856480068C005F5D5E8690321E9
:1046A000090208400FD0616A81420CD0E8690321F9
:1046B0000902EA698843012109040A43EA61EA69B7
:1046C0008A43EA61E861C0070FD0FFF7EDFE009072
:1046D00008E0FFF7E9FE0099411A4648814201D9F6
:1046E000032609E0E8698007F3D5E8690321090298
:1046F0008843616A0843E861002F05D03B48403891
:10470000C26B01048A43C2632078C00705D0686980
:10471000616880088000084368612078C00606D57B
:104720006869032189028843A16808436861208879
:10473000800506D5686903218904884361690843B7
:1047400068612088400506D568690321090588430A
:10475000A169084368612078800606D5686903214D
:1047600009038843E168084368612088400411D543
:104770006869E16980008008084368610121E06997
:104780008907884206D119484038C16801221204BD
:104790001143C1602068800210D568690121890534
:1047A000226A884310436861206A884206D10F4814
:1047B0004038C168012212061143C16020880005FB
:1047C00012D5686903218903884321690843686118
:1047D000012120698903884206D104484038C16814
:1047E000012212041143C1603046F8BD401002405E
:1047F0000070004088130000F8B50F46060043D053
:104800004D4D28684007400FB84213D22868C008B1
:10481000C00038432860FFF747FE044605E0FFF775
:1048200043FE011B4548814261D828684007400F7C
:10483000B842F4D13068424C81070DD5400704D509
:10484000A068072109030843A060A0680F2109029E
:104850008843B1680843A0603078C00732D07068E0
:1048600001280AD002280BD000280FD0344940314B
:1048700003280ED0C969890704E02168890301E093
:1048800021688901002906DB0120F8BD216849055E
:10489000F8E7096AEFE7A168C908C9000143A16008
:1048A000FFF702FE009006E0FFF7FEFD0099411AB7
:1048B000224881421BD8A068382108407168C9008D
:1048C0008842F1D128684007400FB84217D91A48EA
:1048D0000168C908C90039430160FFF7E5FD0546D5
:1048E00007E0FFF7E1FD411B1448814201D9032095
:1048F000F8BD114800684007400FB842F1D1307848
:10490000400706D5A068072109038843F1680843DA
:10491000A06000F031F8A1683C2289091140094AE1
:10492000515CC906C90EC8400749086007480068BD
:10493000FFF71AFEF8BD00000020024088130000B7
:1049400000100240E87700080C000020040000205E
:104950000648074900688968064A4904490F8900E2
:10496000515CC906C90EC840704700000C00002009
:10497000001002402878000810B5204CA068204A9A
:104980008006400F16D0A0688006410F5010012904
:104990000FD0A1688906490F022912D0A0688006AD
:1049A000400F042823D0A0688006400F032821D0A0
:1049B000002010BD206801218004400F8140104676
:1049C00012E0E1688B07E1689B0F4906490F491C1B
:1049D000032B00D01046FBF78DFBE1684904490E1C
:1049E0004843E168490F491CFBF784FB10BD0120D7
:1049F000C00310BD7D20000210BD00000010024069
:104A00000024F400F8B504007ED020783827C007D1
:104A1000ED4D002846D0A868E96838408907890F1D
:104A2000102802D008280BD001E0032908D001206B
:104A30006268000482420AD129680143296015E0B6
:104A4000286880032ED560680028DDD02AE0052381
:104A500001211B0489049A422A6802D10A432A6070
:104A6000EAE782432A602868884328606068002853
:104A70000CD0FFF719FD064604E0FFF715FD801B7B
:104A8000642873D828688003F7D50BE0FFF70CFD86
:104A9000064604E0FFF708FD801B6428F1D828686B
:104AA0008003F7D42078800769D5A868E968384082
:104AB0008A070721920FC902102802D0002813D0BC
:104AC00001E0022A10D0E068002846D02868884318
:104AD0002169084328602868FF21013108432860C4
:104AE000FFF7E2FC06462CE02A68520502D5E26890
:104AF000002A89D06A687F231B029A4363691B02DC
:104B00001A436A60002800E08DE00ED128688843CF
:104B1000216908432860286801218004400F8140F2
:104B2000AA48FBF7E7FAAA490860AA480068FFF715
:104B30001BFD002877D122E0FFF7B6FC801B02287E
:104B40009FD828684005F7D568687F210902884307
:104B5000616909020843686011E02968FF2001309B
:104B600081432960FFF7A0FC064605E098E0FFF7C7
:104B70009BFC801B022884D828684005F7D4207845
:104B8000954E00072ED5A8688006400F03280AD04E
:104B9000A0690028306A16D0012108433062FFF76F
:104BA00083FC07460BE0306A80071BD5A06900280C
:104BB0009FD017E0FFF778FCC01B022870D8306A3E
:104BC0008007F7D50EE0400840003062FFF76CFC2C
:104BD000074604E0FFF768FCC01B022860D8306A73
:104BE0008007F7D4207840076CD5A8680027800696
:104BF000400F042818D0E86BC00008D4E96B0120EE
:104C000000070143E963E96B014001270091734804
:104C10000168C90519D40168821511430160FFF7C5
:104C200043FC00900DE083E0F06980074AD5A0685E
:104C300000287DD046E0FFF737FC0099401A022893
:104C40002ED866480068C005F5D5A168012910D0A6
:104C500004200529F16911D049084900F161F16981
:104C60008143F161A068002816D0FFF71DFC009079
:104C70000EE0F06901210843F061F3E70143F161BF
:104C8000F7E7FFF711FC0099411A5548814267D8B0
:104C9000F0698007F5D50EE0FFF706FC009007E00D
:104CA0005EE0FFF701FC0099411A4D48814257D858
:104CB000F0698007F5D4002F04D0E86B01210907C3
:104CC0008843E863E06900287BD0A9688906490F1A
:104CD00002294FD0012636060228286805D0B043A5
:104CE0002860FFF7E1FB04463CE0B0432860FFF793
:104CF000DBFB074604E0FFF7D7FBC01B02282FD8D9
:104D000028688001F7D4616A206AA26A0843E16AD0
:104D1000120211430843216B0843616B0843E968A1
:104D2000304A11400843E86028683043286000E0BA
:104D300045E0E868012109070843E860FFF7B4FB94
:104D4000044604E0FFF7B0FB001B022808D82868DF
:104D50008001F7D535E0FFF7A7FB001B022801D93A
:104D60000320F8BD28688001F5D4E8681E49084092
:104D7000E86026E00128F4D0E868226A8107890FFC
:104D800091421CD17021626A0140914217D17F216A
:104D9000A26A090201401202914210D11F21490466
:104DA000E26A014091420AD107214906226B014083
:104DB000914204D1400F616B4007884201D001202D
:104DC000F8BD0020F8BD0000001002400024F400EF
:104DD0000C00002004000020401002400070004041
:104DE000881300008C80C111FCFFFEEE094910B54C
:104DF000401E884201D9012010BD074C606103218B
:104E0000081F02F0A5FB0020A06107202061002000
:104E100010BD0000FFFFFF0000E000E0704770479A
:104E2000704770B5040005D025462035687F0028FE
:104E300002D006E0012070BD00202877204600F057
:104E400016F802206877211D206801F0A1FD0122DB
:104E500040342272AA77EA7722706270A270E27000
:104E600022716271A271E2716A77002070BD704791
:104E7000014620314A7F012A01D0012070470222D9
:104E80004A7700680B490122884205D09107884281
:104E900002D00949884207D18168084B1940062988
:104EA00005D0DB1F994202D0016811430160002048
:104EB00070470000002C0140000400400700010082
:104EC000014620314A7F012A01D001207047022289
:104ED0004A770168CB6801221343CB6000680B4915
:104EE000884205D09107884202D00949884207D1FB
:104EF0008168084B1940062905D0DB1F994202D072
:104F0000016811430160002070470000002C01403F
:104F100000040040070001007047000070B504461F
:104F2000006801690025C9438907002915DBC168AC
:104F3000C943890711D4E91E016101202077206847
:104F400080698007204602D0FFF7E6FF04E000F00A
:104F5000A7F8204600F0A5F8257720680169C94325
:104F6000490717D4C168C943490713D40421C94369
:104F7000016102202077206880698005800F20462B
:104F800002D0FFF7C9FF04E000F08AF8204600F0E5
:104F900088F8257720680169C943090716D4C168D4
:104FA000C943090712D40821C943016104202077AD
:104FB0002068C0698007204602D0FFF7ADFF04E0FB
:104FC00000F06EF8204600F06CF825772068016943
:104FD000C943C90617D4C168C943C90613D41021EF
:104FE000C9430161082020772068C0698005800FCF
:104FF000204602D0FFF790FF04E000F051F8204671
:1050000000F04FF8257720680169C943C90708D126
:10501000C168C943C90704D1891E0161204600F057
:1050200041F820680169C943090609D4C168C94328
:10503000090605D48021C94301612046FFF7EFFE30
:1050400020680169C943C90508D4C168C943090674
:1050500004D4124901612046FFF7E0FE206801698F
:10506000C943490609D4C168C943490605D440214A
:10507000C9430161204600F033F820680169C94343
:10508000890609D4C168C943890605D42021C943CA
:1050900001612046FFF7C4FE70BD0000FFFEFFFF68
:1050A0007047704701680C4802680C48914201D172
:1050B000006805E0084A4C321268914203D140680A
:1050C000002807D00047044A98321268914201D163
:1050D0008068F5E770470000600D0020E0000020C8
:1050E000704710B5014680310A78012A15D0012297
:1050F0000A7024224A600268136814686408640015
:105100001460012252079343002242660068036044
:10511000202048600A70104610BD022010BD70B5F6
:10512000044680308368202B2FD100290BD0002A21
:1051300009D00125A3682D03AB4206D12369002BBA
:1051400003D1CB0701D0012070BD0378012B1CD007
:1051500001230370E366204602F01EF9010003D12B
:10516000E06E012802D00121084670BD206810229F
:105170000262EFF31080012383F3108823681C6818
:1051800014431C6080F31088EEE7022070BD00001D
:1051900010B504681148124B421584420CD1D960F5
:1051A000196899601C680F498C4200D189181960F0
:1051B0005A605A6819680EE00B4884420DD1196292
:1051C0005969D9615C6909498C4200D10849596122
:1051D0009A619A69596901F04FFF10BD003801408A
:1051E000380D002038050020004400403809002018
:1051F000380B0020704770B504460546803420788F
:1052000001281AD0012020702420606028680668D8
:1052100002685208520002602868826807235B0611
:105220009A430A438260284601F0E0FD2868066040
:10523000202060600020207070BD022070BD70B51D
:105240000446054680342078012819D001202070BA
:1052500024206060286806680268520852000260D4
:1052600028688268D200D2080A438260284601F08A
:10527000BDFD28680660202060600020207070BDA1
:10528000022070BD70477047F8B50546044680356A
:105290006868AE6821688A6810271206002A1BDA3F
:1052A000212819D1EFF31080012282F310888A6837
:1052B00080239A438A6080F31088A06F002808D06A
:1052C000FEF7BEFE002804D0A06FFEF731FF2028B5
:1052D00024D0204601F03CFF2168886840061BD599
:1052E000222E19D1EFF31080012282F310888A68F0
:1052F00040239A438A6080F31088E06F002808D02A
:10530000FEF79EFE002804D0E06FFEF711FF202874
:1053100004D0204601F0EAFE0020F8BDEF60032033
:10532000F8BD000010B5026807480849824202D162
:105330004A68096804E00648824203D18A694969DB
:1053400001F09AFE10BD000000380140380D002029
:1053500000440040F8B503680446D96918689A68A3
:10536000B24D0E462E4025468035002E75D0B04EEB
:10537000B04F1640074037436ED0CF0706D0C70561
:1053800004D501271F62EB683B43EB608B0708D510
:10539000D30706D0276802233B62EB6804273B4310
:1053A000EB604B0708D5D30706D0276804233B6280
:1053B000EB6802273B43EB600B0709D52023034032
:1053C000334305D0266808233362EE681E43EE603F
:1053D0000B0509D5430107D501232668DB0233629B
:1053E000EB6820263343EB60EB68002B42D0890644
:1053F0000AD520210840C9050A40104304D0216F76
:10540000002901D020468847E86821688968490654
:1054100002D42821084232D0204601F067FE2168DC
:105420008868400627D5EFF31080012282F31088A8
:105430008B68402293438B6080F31088E06F0028D4
:1054400019D07D498163E06FFEF734FE002811D04A
:10545000E06F816B0DE000E017E08E0615D50127A7
:1054600020263F07064017403E430ED0216FB1E093
:1054700020468847F8BD2046FFF754FFF8BD204678
:10548000FFF750FF0020E860F8BDE66E012E7CD1EA
:10549000CE067AD5C60678D510221A622368986897
:1054A000264640064036002847DAE16F0868406823
:1054B0000004000CE8D0B78B8742E5D9F083086878
:1054C0000068800634D4EFF31080012181F3108846
:1054D00019681701B943196080F31088EFF3108041
:1054E000012181F3108821688B685B085B008B6069
:1054F00080F31088EFF31080012181F31088216878
:105500008B684027BB438B6080F310882020A86005
:105510000020E066EFF31080012181F310882168FC
:105520000B6893430B6080F31088E06FFEF788FDF3
:10553000B08BF18B401A81B233E0B08BF18B401A03
:1055400081B2F08B00289FD000299DD0EFF310800E
:10555000012686F310881E68FF272137BE431E6090
:1055600080F31088EFF31080012383F31088236801
:105570009E682F4FFF433E409E6080F3108820209E
:10558000A8600020E066206700E00EE0EFF31080E6
:10559000012383F3108823681D6895431D6080F301
:1055A00010882046FFF7F4FDF8BDCE0208D556025C
:1055B00006D50120000518622046FFF764FEF8BDFD
:1055C0000E060BD501278026FF0506403A401643FC
:1055D00004D0616F002900D04AE7F8BD4A0614D50F
:1055E000420612D52046EFF31081012282F3108883
:1055F0001C68402294431C6081F31088202169605C
:105600000021416700F0BFF8F8BD0A0205D542004D
:1056100003D52046FFF736FEF8BDC901FCD50028AA
:10562000FADA2046FFF7E6FDF8BD00000F0800009B
:105630000100001020010004616F000870B5040033
:1056400005D0254680356868002802D006E0012094
:1056500070BD00202870204600F026F824206860E5
:1056600020680168490849000160204601F08EFD6C
:105670000128EDD0A06A002802D0204601F0D8FB16
:10568000206841680922D202914341602068816804
:105690002A22914381602068016801221143016040
:1056A000204601F02BFC70BD704770477047FFB576
:1056B000064604468036706883B00D46202860D1C7
:1056C000002D0CD00598002809D00120A168000306
:1056D000814207D12069002804D1E80702D00120C7
:1056E00007B0F0BD307801284BD001203070002089
:1056F000F06021207060FEF7D7FE0190274640370A
:105700000598B8820598F8820120A16800038142BB
:1057100002D12069002804D00295002500203070B5
:1057200015E000200290F9E700228021204601F0D8
:105730008BFE002818D10298002817D02168007825
:1057400088620298401C0290F88A401EF882F88A0B
:10575000019B002806980090E6D1002240212046B7
:1057600001F072FE002808D00320B9E728882168DC
:10577000C005C00D8862AD1CE6E7202070600020E7
:10578000AEE70220ACE7704710B501F03BFF0A20FE
:1057900001F01EFF05242407012210212046FEF7F8
:1057A0007DFE012220212046FEF778FE0122802185
:1057B0002046FEF773FE642001F00AFF022000F08D
:1057C0000DF8522000F00AF8302000F007F80A2007
:1057D00000F004F8062000F001F810BD70B50525B2
:1057E00006462D07002210212846FEF757FE01200D
:1057F00001F0EEFE002280212846FEF74FFE012038
:1058000001F0E6FE012220212846FEF747FE012096
:1058100001F0DEFE012280212846FEF73FFE012036
:1058200001F0D6FE002280212846FEF737FE012037
:1058300001F0CEFE002220212846FEF72FFE012097
:1058400001F0C6FE012280212846FEF727FE012036
:1058500001F0BEFE002280212846FEF71FFE012037
:1058600001F0B6FE002220212846FEF717FE012097
:1058700001F0AEFE012280212846FEF70FFE012036
:1058800001F0A6FE002280212846FEF707FE012037
:1058900001F09EFE002220212846FEF7FFFD012098
:1058A00001F096FE012280212846FEF7F7FD012037
:1058B00001F08EFE0024002280212846FEF7EEFD36
:1058C000012001F085FE3046A040000601D50122EE
:1058D00000E0002220212846FEF7E0FD012001F033
:1058E00077FE012280212846FEF7D8FD012001F035
:1058F0006FFE641CE4B2082CDDD30122102128467F
:10590000FEF7CCFD012001F063FE70BDF8B5052463
:105910000E4607462407002210212046FEF7BEFD52
:10592000012001F055FE002280212046FEF7B6FD41
:10593000012001F04DFE012220212046FEF7AEFDA0
:10594000012001F045FE012280212046FEF7A6FD40
:10595000012001F03DFE002280212046FEF79EFD41
:10596000012001F035FE002220212046FEF796FDA1
:10597000012001F02DFE012280212046FEF78EFD40
:10598000012001F025FE002280212046FEF786FD41
:10599000012001F01DFE012220212046FEF77EFDA0
:1059A000012001F015FE012280212046FEF776FD40
:1059B000012001F00DFE0025002280212046FEF787
:1059C0006DFD012001F004FE3846A840000601D517
:1059D000012200E0002220212046FEF75FFD012089
:1059E00001F0F6FD012280212046FEF757FD01203F
:1059F00001F0EEFD6D1CEDB2062DDDD3002507276D
:105A0000002280212046FEF749FD012001F0E0FD43
:105A1000791B3046C840C00701D0012200E00022B7
:105A200020212046FEF73AFD012001F0D1FD0122A0
:105A300080212046FEF732FD012001F0C9FD6D1CDA
:105A4000EDB2082DDCD3012210212046FEF726FD01
:105A5000012001F0BDFDF8BDFEE7000010B5094CC6
:105A6000074AE1602260A16060602046FEF722FDE7
:105A7000002800D0FEE721680348086010BD000040
:105A800000300040440E0020CCCC000010B50024B3
:105A900000212046FFF73AFF641CE4B2782CF7D3CC
:105AA00010BD0000FFB583B0144664210398FAF7D7
:105AB00021FB0A21FAF71EFB0F460A210398FAF789
:105AC00019FB0D460A21FAF715FB019522480E46EF
:105AD000C079214D00907D210835C9000398FAF75F
