:020000040800F2
:1000000058120020D5000008F1600008B155000822
:1000100000000000000000000000000000000000E0
:100020000000000000000000000000004363000822
:100030000000000000000000316300089163000828
:10004000E7000008E7000008E7000008E7000008F4
:10005000E7000008E7000008E7000008E7000008E4
:1000600000000000D1120008E1120008C1120008CF
:10007000E7000008E7000008E7000008E7000008C4
:10008000E7000008E7000008E70000081164000826
:100090000000000081640008E9640008E70000082F
:1000A000E7000008E7000008E7000008E17000082A
:1000B000F1700008E70000080000000000000000E8
:1000C0000348854600F0A0F8004800476D7200081C
:1000D000581200200448804704480047FEE7FEE726
:1000E000FEE7FEE7FEE7FEE70F640008C100000838
:1000F00030B50B46014600202022012409E00D46C0
:10010000D5409D4205D31D469540491B2546954047
:1001100040191546521E002DF1DC30BDF0B51FB45C
:100120000646002082B005464024019100901BE065
:10013000019922460F46304600F054F8049A059B78
:10014000801A994110D310461946224600F03AF819
:10015000361A8F410197224601200021009F00F0AE
:1001600031F838184D4100902046641E0028DFDC2D
:10017000019B00982946324607B0F0BD03460B4369
:100180009B0703D009E008C9121F08C0042AFAD24D
:1001900003E00B780370401C491C521EF9D27047D3
:1001A000D2B201E00270401C491EFBD2704700220F
:1001B000F6E710B513460A4604461946FFF7F0FF66
:1001C000204610BD10B5202A04DB0146203A91409C
:1001D000002010BD914020239C1A0346E3401943A0
:1001E000904010BD10B5202A04DB0846203AD040CC
:1001F000002110BD0B46D340D0402024A21A9140CC
:100200000843194610BD0000064C0125064E05E0C6
:10021000E36807CC2B430C3C98471034B442F7D327
:10022000FFF752FF28760008487600080A48018840
:100230000A480A0A02704170817B8170C17BC170DB
:10024000017C0171417C4171817C8171C17CC171F2
:10025000017D017270470000320000201202002070
:100260000149886070470000E400002010B5074C89
:100270001F20214606F0D4F821463F2006F008F959
:1002800021463F2006F038F910BD0000E7030000CA
:100290000149486070470000E400002001490860FF
:1002A00070470000E40000200549002803D0012821
:1002B00003D000207047C86800E0086A80B2704729
:1002C0003C0D002070B50025194C0B462E46002829
:1002D00002D0012815D028E0E068002825D0E06889
:1002E000904201D9154601E0E06885B2A1682A462E
:1002F0001846FFF743FFE168A068FFF758FFE66084
:1003000013E0206A002810D0206A904201D91546D7
:1003100001E0206A85B2E1692A461846FFF72EFF00
:10032000216AE069FFF743FF2662284670BD00009E
:100330003C0D002010B5002805D0012802D1084648
:1003400006F07EFA10BD084606F09EF910BD0000CA
:10035000F7B57D260025F600164C1746002802D07A
:1003600001280ED024E0144804F0CCFB33463A4672
:100370001148019904F0D9FD6268054621680F48CB
:1003800014E0012205201103000703F0C5FC0A4810
:10039000903004F0B7FB084833463A469030019954
:1003A00004F0C3FDA26905466169054806F046FCF4
:1003B0002846FEBD3C0D0020AC0200200038014064
:1003C00000440040F8B507460A21FFF791FE0C46AD
:1003D0000A21FFF78DFE26460D4C084625461C3D9A
:1003E000642F08D32078A9784018C1B2502004F0B7
:1003F00091FF207804E0215C502004F08BFFA05D89
:10040000A9784018C1B2482004F084FFF8BD00006C
:100410007E000020FFB51546194A81B007461188B5
:100420000020184C0A9E002903D06178491C617095
:10043000108061781F2900D1607001226178049BCF
:10044000029805F0F5F8012261782846049B05F032
:1004500051FE012E0BD0022E07D0032E05D12B46C4
:1004600039466078029A00F09DFC05B0F0BD064860
:100470000095817BFAB26078029B00F0CFFAF4E736
:10048000380000204800002012020020F0B5A14BE7
:10049000A14C85B022881E78049600255B7801283F
:1004A00039D09C4E761D767803969A4E761D367816
:1004B0000096984E0A3636790296102845D0954E09
:1004C0000A36F6780196112853D0924E0A36B6783D
:1004D0001228B44659D08F4E0A367778132865D043
:1004E0001A2870D01B286FD01C286ED01D286DD004
:1004F0001E286CD001296BD002296AD0032969D04B
:10050000042968D0052967D00021312004F002FFBA
:1005100000215A2015E07F480A300778012905D0CC
:100520000A387C4E00780A36367864E0002A76D0A5
:100530003946B1E0C1B2ECE7002AF9D1BEE0394654
:10054000E7E704F0E7FE05B0F0BD7248714B401DCF
:100550000A3340781B7912E0C1B2CCE004F0DAFE35
:100560002580F0E7009971183BE0C1B2D0E0314638
:10057000CEE06848674B401D0A334078DB78181896
:1005800004290BD1002AEDD0E6E76248614B401DFB
:100590000A3340789B781818042902D00529E6D13F
:1005A000E3E7002AD8D1009961441AE05948594B31
:1005B000401D0A3340785B78181804290DD00529AE
:1005C000D3D03946A4E00FE01BE034E04CE065E016
:1005D00076E07FE082E085E093E0002ABCD10098DD
:1005E000391803980818C0E701299FD0494E494897
:1005F0000A3600787678301802295CD003299ED11B
:100600009AE701290CD0434E42480A360078B67862
:100610003018022908D0032909D0614679E748E05B
:10062000002A06D1604649E0002A02D182E7002A6A
:1006300044D0614630E001290BD0364E35480A36A9
:100640000078F6783018022907D0032908D00199DC
:100650005FE7002A06D1019830E0002A02D169E75D
:10066000002A2BD0019917E001290BD0294E2948E7
:100670000A36007836793018022907D0032908D0C5
:10068000029946E7002A06D1029817E0002A02D113
:1006900050E7002A12D002995A205FE71D480A301D
:1006A000C7790129A1D00A381A4E00780A36F6799E
:1006B000A1E7F8183EE7002AB8D039E7C01839E7B3
:1006C000002A05D000215A2004F024FE002112E067
:1006D00019461EE7002AF5D104991AE7002AF1D13C
:1006E0000498EBE7002A08D000215A2004F012FEFB
:1006F0000848401D4178312030E7039900984018A0
:1007000033E700215A2004F005FE0248401D4178DD
:10071000312016E76200002040000020F0B5BD4BFC
:10072000BD4C85B022881E78039600255B78012891
:1007300031D0B84E77783678F6190296B54E0A362B
:1007400036790196102841D0B24E0A36F6780096D6
:10075000112862D0AF4E0A36B6781228B4466FD050
:10076000AC4E0A36777813286BD01A286AD01B282B
:1007700069D01C2868D01D2867D01E2875D0012993
:1007800074D0022973D0032972D000215A2004F0BA
:10079000C1FD002115E09F480A300778012905D0E6
:1007A0000A389C4E00780A363678B6E0002A72D0B5
:1007B000394627E1C1B21BE1002AF9D10FE13946E0
:1007C000E4E7312004F0A6FD05B0F0BD012904D016
:1007D00002290ED0032910D051E0002A07D00021B1
:1007E0005A2004F097FD8B480A30017910E0194631
:1007F00007E0002AF3D1039903E0002AEFD1029821
:10080000C1B25A2004F086FD82480A30017971E0B5
:10081000312004F07FFD2580D6E7012904D002298C
:1008200014D0032916D02AE0002A07D000215A202C
:1008300004F070FD77480A30C178E9E719460DE009
:1008400017E03AE061E06FE087E09FE0002AEDD139
:10085000039903E0002AE9D10298C1B25A2004F0BA
:1008600059FD6C480A30C17844E0A8E0B9E0BCE02A
:10087000C5E0012905D0022910D0032912D0314644
:100880009FE7002A08D000215A2004F043FD614868
:100890000A308178BCE79DE0194607E0002AF2D1D2
:1008A000039903E0002AEED10298C1B25A2004F065
:1008B00031FD58480A3081781CE0012905D0022911
:1008C0000FD003291CD039467BE7002A07D000212E
:1008D0005A2004F01FFD4F480A30417898E7194626
:1008E00002E0002AF3D103995A2004F013FD49488D
:1008F0000A3041784748401D00780818C1B260E7C7
:10090000002AE4D10298C1B2EEE7012900D14DE7F7
:10091000404E40480A3600787678301802295BD07D
:10092000032900D04BE747E701290BD0394E39485E
:100930000A360078B6783018022907D0032908D083
:10094000614623E7002A06D1604648E0002A02D12A
:1009500030E7002A43D0614654E001290BD02D4EE8
:100960002C480A360078F6783018022907D0032977
:1009700008D000990AE7002A06D100982FE0002A43
:1009800002D117E7002A2AD000993BE001290BD0B9
:10099000204E20480A36007836793018022907D0D0
:1009A000032908D00199F1E6002A06D1019816E042
:1009B000002A02D1FEE6002A11D0019922E0154852
:1009C0000A30C7790129A2D00A38124E00780A36B7
:1009D000F679A2E7F818EDE6002AB9D0E8E6C018E3
:1009E000E8E6002A0DD1194602E0002A09D1039950
:1009F0005A2004F08FFC0748401D0178E1E6002AE8
:100A000005D000215A2004F085FC002100E702985F
:100A1000D0E600006200002040000020FFB57D25E8
:100A200081B00446ED00294618460A9EFFF760FB98
:100A30000A21FFF75DFB009129463046FFF758FB7E
:100A40000A21FFF755FB0F4600263146039805F0B3
:100A500070FC00280BD10121039805F06AFC0028E6
:100A600005D10221039805F064FC002806D0072177
:100A7000039805F05EFC002800D1012607210398A9
:100A800005F057FC002812D00021039805F051FC16
:100A900000280CD10121039805F04BFC002806D159
:100AA0000221039805F045FC002800D10226072109
:100AB000039805F03EFC002812D00021039805F0B1
:100AC00038FC00280BD10121039805F032FC0028E6
:100AD00005D10221039805F02CFC002800D0032644
:100AE0000321039805F025FC002818D0072103985E
:100AF00005F01FFC002812D10021039805F019FC15
:100B000000280CD10121039805F013FC002806D120
:100B10000221039805F00DFC002800D104260221D3
:100B2000029805F006FC00281ED00321039805F06A
:100B300000FC002818D10721039805F0FAFB0028D3
:100B400012D10021039805F0F4FB00280CD10121FB
:100B5000039805F0EEFB002806D10221039805F06A
:100B6000E8FB002800D105260221029805F0E1FBF0
:100B700000281ED10321039805F0DBFB002818D1C3
:100B80000721039805F0D5FB002812D10021039816
:100B900005F0CFFB00280CD10121039805F0C9FB1B
:100BA000002806D10221039805F0C3FB002800D1DC
:100BB0000026012C77D07A4D022C3DD0032C41D059
:100BC000042C48D0052C4CD0062C50D0072C54D0E7
:100BD000082C58D0092C5CD00A2C65D00B2C69D07D
:100BE0000C2C6DD00D2C76D00E2C7AD00F2C6FD013
:100BF000102C6ED0112C56D0122C54D0132C52D055
:100C0000142C67D0152C72D0162C71D0172C70D0E4
:100C1000182C6FD0192C6ED01A2C6DD01B2C42D0F2
:100C20001C2C40D01D2C3ED01E2C3CD03146012027
:100C3000FFF72CFC05B0F0BD31462046FFF726FC3F
:100C4000697804E031462046FFF720FCA97841206E
:100C500004F060FBEEE731462046FFF717FCE97829
:100C6000F5E731462046FFF711FC2979EFE73146D9
:100C70002046FFF70BFC6979E9E731462046FFF78C
:100C800005FCA979E3E731462046FFF7FFFBE97948
:100C9000DDE731462046FFF7F9FB0021412004F053
:100CA00039FB297934E078E031462046FFF7EEFB46
:100CB000E9782DE031462046FFF7E8FBA97827E0E8
:100CC00031462046FFF7E2FB697821E003E008E0C7
:100CD00013E018E01EE031462046FFF7D7FB2978E5
:100CE00016E031462046FFF7D1FB697910E01DE0A0
:100CF0002DE039E03EE043E048E031462046FFF792
:100D0000C5FBA97904E031462046FFF7BFFB00216F
:100D100039209DE731462046FFF7B8FB2048E979A6
:100D20000830C05D0818C1B2102091E73146204656
:100D3000FFF7ACFB1A4C10200834E15D04F0EAFA2E
:100D40000098E979205C0818C1B2682080E7314634
:100D50002046FFF79BFB124800990830415C682051
:100D600004F0D8FA297916E031462046FFF78EFBC9
:100D7000E97810E031462046FFF788FBA9780AE0C1
:100D800031462046FFF782FB697804E03146204671
:100D9000FFF77CFB002161205AE73146204647E7F8
:100DA0006C000020FFB57D250446ED0081B01E4695
:100DB00029461046FFF79CF90A21FFF799F900919F
:100DC00029463046FFF794F90A21FFF791F90F46BB
:100DD00000263146029805F0ACFA002817D101210F
:100DE000029805F0A6FA002811D10221029805F018
:100DF000A0FA00280BD10321029805F09AFA0028E6
:100E000005D10421029805F094FA00281ED006218D
:100E1000029805F08EFA002818D10821029805F0F2
:100E200088FA002812D10A21029805F082FA0028D7
:100E30000CD10B21029805F07CFA002806D10C2178
:100E4000029805F076FA002800D1012606210298C2
:100E500005F06FFA002817D10821029805F069FA09
:100E6000002811D10A21029805F063FA00280BD15D
:100E70000B21029805F05DFA002805D10C2102989B
:100E800005F057FA00281ED00021029805F051FA0B
:100E9000002818D10121029805F04BFA002812D140
:100EA0000221029805F045FA00280CD1032102988E
:100EB00005F03FFA002806D10421029805F039FA1E
:100EC000002800D102260021029805F032FA0028FD
:100ED00017D10121029805F02CFA002811D1022126
:100EE000029805F026FA00280BD10321029805F09C
:100EF00020FA002805D10421029805F01AFA0028EA
:100F00001ED00621029805F014FA002817D10821F6
:100F1000029805F00EFA002811D10A21029805F076
:100F200008FA00280BD10B21029805F002FA0028DC
:100F300005D10C21029805F0FCF9002800D0032609
:100F40000021029805F0F5F9002836D10121029818
:100F500005F0EFF9002830D10221029805F0E9F9F7
:100F600000282AD10321029805F0E3F9002824D1B2
:100F70000421029805F0DDF900281ED1062102980F
:100F800005F0D7F9002818D10821029805F0D1F909
:100F9000002812D10A21029805F0CBF900280CD1C3
:100FA0000B21029805F0C5F9002806D10C21029802
:100FB00005F0BFF9002800D10026C04D0021E889C6
:100FC00005F0B7F9002801D00C207CE00221E88967
:100FD00005F0AFF9002801D00B2074E00321E88967
:100FE00005F0A7F90028EFD10421E88905F0A1F95F
:100FF000002801D01F2066E00621E88905F099F954
:10100000002801D051205EE00821E88905F091F91F
:10101000002801D0472056E00A21E88905F089F927
:10102000002801D053204EE00B21E88905F081F91A
:10103000002801D0492046E00F21E88905F079F920
:10104000002801D006203EE00121288A05F071F930
:10105000002801D0012036E00221288A05F069F934
:10106000002801D002202EE00321288A05F061F932
:10107000002801D00D2026E00521288A05F059F925
:10108000002801D054201EE00721288A05F051F9DC
:10109000002801D0572016E00821288A05F049F9D8
:1010A000002801D003200EE00921288A05F041F92B
:1010B000002801D0042006E00A21288A05F039F929
:1010C000002800D0562002F0D9FB012C78D07B4DAF
:1010D0002435022C3DD0032C41D0042C48D0052CC3
:1010E0004CD0062C50D0072C54D0082C58D0092CAA
:1010F0005CD00A2C65D00B2C69D00C2C6DD00D2C3B
:1011000076D00E2C7AD00F2C6FD0102C6ED0112CE4
:1011100056D0122C54D0132C52D0142C67D0152C2E
:1011200072D0162C71D0172C70D0182C6FD0192CAF
:101130006ED01A2C6DD01B2C42D01C2C40D01D2CF4
:101140003ED01E2C3CD031460120FFF7E7FA05B017
:10115000F0BD31462046FFF7E1FA697804E03146F8
:101160002046FFF7DBFAA978412004F0D3F8EEE738
:1011700031462046FFF7D2FAE978F5E731462046B6
:10118000FFF7CCFA2979EFE731462046FFF7C6FA98
:101190006979E9E731462046FFF7C0FAA979E3E724
:1011A00031462046FFF7BAFAE979DDE731462046B5
:1011B000FFF7B4FA0021412004F0ACF8297934E0BB
:1011C00078E031462046FFF7A9FAE9782DE031466C
:1011D0002046FFF7A3FAA97827E031462046FFF71B
:1011E0009DFA697821E003E008E013E018E01EE0D2
:1011F00031462046FFF792FA297816E0314620461C
:10120000FFF78CFA697910E01DE02DE039E03EE04F
:1012100043E048E031462046FFF780FAA97904E030
:1012200031462046FFF77AFA002139209DE7314602
:101230002046FFF773FA2148E9792C30C05D081881
:10124000C1B2102091E731462046FFF767FA1B4CE8
:1012500010202C34E15D04F05DF80098E979205C01
:101260000818C1B2682080E731462046FFF756FAD9
:10127000124800992C30415C682004F04BF8297921
:1012800016E031462046FFF749FAE97810E031468A
:101290002046FFF743FAA9780AE031462046FFF7D7
:1012A0003DFA697804E031462046FFF737FA00211D
:1012B00061205AE73146204647E7000048000020F9
:1012C00010B5024802F074FB10BD0000E0040020DD
:1012D00010B5024802F06CFB10BD0000280400208D
:1012E00010B5044802F064FB0248B83002F060FB1D
:1012F00010BD0000CC03002010B50446006C094965
:101300008008800040186064207814210838FEF7B7
:10131000EFFE04498031A164C106C90E0120884056
:10132000E06410BD000802400179084B8906890E6F
:101330008A00D2180265054A4432491E42658A076E
:10134000920F01219140816570470000FC08024026
:10135000F0B5846CC56C6560046D002C02D0446DE2
:10136000856D65600B4C6568066C1C273E40012747
:10137000B7403D436560046863608368102B036871
:1013800003D099600068C260F0BD9A600068C160D7
:10139000F0BD000000000240F8B54F4C0021A07BDA
:1013A00004F0C7FF00264D4D0127002826D0A07B62
:1013B000012104F0BEFF002820D1012104F0C8FF64
:1013C000A878002804D104F023F9EE702E71AF70D4
:1013D000E07BFEF7F7FF0023E17B1A46E88804F084
:1013E00027F90023E17B1A46288904F083FE009642
:1013F000227DA17BE07B2B8901F0CCFFA07B01212A
:1014000004F097FF00281AD0A07B002104F091FF80
:10141000002814D1012104F09BFFE878002804D1B2
:1014200004F0F6F8AE702E71EF70E07BFEF7CAFFA5
:101430000097207D00232A89E988FEF7EBFFA07B37
:10144000062104F076FF00282CD0A07B002104F0B8
:1014500070FF002826D1A07B012104F06AFF00283C
:1014600020D1012104F074FF2879002804D104F070
:10147000CFF8EE70AE702F71E07BFEF7A3FF002374
:10148000E17B1A46184604F0D3F80023E17B1A46A4
:10149000184604F02FFE0097227DA17BE07B0023FD
:1014A00001F078FFA07B062104F043FF002811D152
:1014B000A07B002104F03DFF00280BD1A07B01217F
:1014C00004F037FF002805D104F0A2F800210846F7
:1014D00004F03EFFF8BD000012020020480000208A
:1014E000F8B5464C464EA08A0025464F032825D124
:1014F000608A32284BD93D800121002004F028FF6A
:10150000A078002805D104F083F8E570257101204A
:10151000A070F08EFEF756FF0022F18E01231046D8
:1015200004F086F8F18E01230022608904F0E2FDC8
:10153000F08E00236289E18902F047F8A08A022830
:101540001BD1608A322822D93D800121002004F07D
:10155000FFFEE078002805D104F05AF8A570257147
:101560000120E070F08EFEF72DFF03200090012394
:1015700000226189E089FEF74DFFA08A012803D08F
:10158000022801D0032829D1608A322826D8388839
:10159000002826D1012020700146002004F0D8FE4A
:1015A0002079002805D104F033F8E570A5700120FA
:1015B0002071F08EFEF706FF0022F18E0123104607
:1015C00004F036F80022F18E0123104604F092FD5B
:1015D000F08E01236289E18901F0F7FF3888002845
:1015E00005D004F015F80021084604F0B1FE608A29
:1015F000401E312800D83D80F8BD00004800002082
:10160000560200204600002010B5074C0023611848
:1016100004E0C418E478CC545B1CDBB21446521EC0
:10162000D2B2002CF5D110BD1202002010B5074C2B
:101630000023611804E0C4182479CC545B1CDBB28D
:101640001446521ED2B2002CF5D110BD2D0200203E
:10165000F0B50C4C0023490009190CE0C418E578DA
:101660005C000D5325182E79EF7835023D436DBA95
:101670005B1C0D53DBB21446521ED2B2002CEDD1CE
:10168000F0BD00005602002070B50120FEF70CFEF0
:10169000002804D064221B490120FEF713FE1948DC
:1016A00001240178184D452902D0DD291CD002E023
:1016B000417847290ED0417803290AD180785428EF
:1016C00007D110496422881AFEF758FD04F0C6FDC0
:1016D0002C7170BD0B4912220846A838FEF74EFD4A
:1016E00004F064FDAC7070BD40780328FBD105495F
:1016F000322208469638FEF741FD04F073FDEC7087
:1017000070BD0000AE0100201800002030B5074C6D
:101710000023611804E0CC5CC5185B1CAC70DBB224
:101720001446521ED2B2002CF5D130BD1202002058
:10173000FFB5FF4883B0018800250D9E002904D025
:10174000FC4A01215171058001E0FA4845710221EE
:10175000049804F0EEFDF74C1F3400284DD003210F
:10176000049804F0E6FD002847D10421049804F011
:10177000E0FD002841D10521049804F0DAFD00289D
:101780003BD10321059804F0D4FD002835D1042174
:10179000059804F0CEFD00282FD10521059804F00E
:1017A000C8FD002829D10621059804F0C2FD0028B3
:1017B00023D10721059804F0BCFD00281DD100218C
:1017C000059804F0B6FD002817D10121059804F012
:1017D000B0FD002811D10221059804F0AAFD0028CF
:1017E0000BD16178032002900195D2480091417994
:1017F0000C9B069A039804F0F1F80321049804F076
:1018000098FD00284DD00221049804F092FD002894
:1018100047D10421049804F08CFD002841D1052112
:10182000049804F086FD00283BD10321059804F0BC
:1018300080FD002835D10421059804F07AFD0028A8
:101840002FD10521059804F074FD002829D1062127
:10185000059804F06EFD002823D10721059804F0B7
:1018600068FD00281DD10021059804F062FD0028C4
:1018700017D10121059804F05CFD002811D1022147
:10188000059804F056FD00280BD1A17803200290A2
:101890000195A848009141790C9B069A039804F0A1
:1018A0009DF80421049804F044FDA24F1A37002843
:1018B0004DD00221049804F03CFD002847D10321BB
:1018C000049804F036FD002841D10521049804F065
:1018D00030FD00283BD10321059804F02AFD0028A3
:1018E00035D10421059804F024FD00282FD10521CD
:1018F000059804F01EFD002829D10621059804F062
:1019000018FD002823D10721059804F012FD0028B6
:101910001DD10021059804F00CFD002817D10121EC
:10192000059804F006FD002811D10221059804F065
:1019300000FD00280BD1F878042100900195029158
:101940007C480C9B4179069A039804F047F80521DE
:10195000049804F0EEFC00284DD00221049804F015
:10196000E8FC002847D10321049804F0E2FC002899
:1019700041D10421049804F0DCFC00283BD1032170
:10198000059804F0D6FC002835D10421059804F010
:10199000D0FC00282FD10521059804F0CAFC0028AE
:1019A00029D10621059804F0C4FC002823D1072181
:1019B000059804F0BEFC00281DD10021059804F014
:1019C000B8FC002817D10121059804F0B2FC0028CA
:1019D00011D10221059804F0ACFC00280BD1E1786C
:1019E0000320029001955348009141790C9B069A7F
:1019F000039803F0F3FF0221049804F09AFC0028F6
:101A000050D00321049804F094FC00284AD004210B
:101A1000049804F08EFC002844D10521049804F0B9
:101A200088FC00283ED10321059804F082FC0028A0
:101A300038D10421059804F07CFC002832D105211E
:101A4000059804F076FC00282CD10621059804F0B6
:101A500070FC002826D10721059804F06AFC0028B4
:101A600020D10021059804F064FC00281AD101213E
:101A7000059804F05EFC002814D10221059804F0BA
:101A800058FC00280ED16178A278032089180290B2
:101A9000C9B201952748009141790C9B069A039899
:101AA00003F09CFF0221049804F043FC002853D06B
:101AB0000421049804F03DFC00284DD00321049833
:101AC00004F037FC002847D10521049804F031FCCC
:101AD000002841D10321059804F02BFC00283BD1BC
:101AE0000421059804F025FC002835D1052105982E
:101AF00004F01FFC00282FD10621059804F019FCE2
:101B0000002829D10721059804F013FC002823D1CF
:101B10000021059804F00DFC00281DD10121059835
:101B200004F007FC002817D10221059804E000000A
:101B3000340000204800002004F0FBFB00280BD1FB
:101B400060780822F9786B4607C3FE480C9B417900
:101B5000069A039803F042FF0221049804F0E9FB7F
:101B6000002850D00521049804F0E3FB00284AD057
:101B70000321049804F0DDFB002844D104210498DB
:101B800004F0D7FB00283ED10321059804F0D1FBD7
:101B9000002838D10421059804F0CBFB002832D16D
:101BA0000521059804F0C5FB00282CD106210598D5
:101BB00004F0BFFB002826D10721059804F0B9FBEB
:101BC000002820D10021059804F0B3FB00281AD189
:101BD0000121059804F0ADFB002814D102210598DD
:101BE00004F0A7FB00280ED16178E2780320891861
:101BF0000290C9B20195D348009141790C9B069A95
:101C0000039803F0EBFE0321049804F092FB0028F4
:101C10004DD00421049804F08CFB002847D0022109
:101C2000049804F086FB002841D10521049804F0B3
:101C300080FB00283BD10321059804F07AFB0028A3
:101C400035D10421059804F074FB00282FD105211B
:101C5000059804F06EFB002829D10621059804F0B0
:101C600068FB002823D10721059804F062FB0028B7
:101C70001DD10021059804F05CFB002817D101213B
:101C8000059804F056FB002811D10221059804F0B4
:101C900050FB00280BD1A0780822F9786B4607C3C7
:101CA000A8480C9B4179069A039803F097FE0321FC
:101CB000049804F03EFB002850D00521049804F05D
:101CC00038FB00284AD00221049804F032FB002897
:101CD00044D10421049804F02CFB00283ED10321B8
:101CE000059804F026FB002838D10421059804F05B
:101CF00020FB002832D10521059804F01AFB0028AA
:101D00002CD10621059804F014FB002826D10721C8
:101D1000059804F00EFB002820D10021059804F05E
:101D200008FB00281AD10121059804F002FB0028C5
:101D300014D10221059804F0FCFA00280ED1A178F4
:101D4000E278032089180290C9B201957D4800917C
:101D500041790C9B069A039803F040FE04210498F5
:101D600004F0E7FA00284DD00521049804F0E1FAC8
:101D7000002847D00221049804F0DBFA002841D162
:101D80000321049804F0D5FA00283BD103210598DB
:101D900004F0CFFA002835D10421059804F0C9FADF
:101DA00000282FD10521059804F0C3FA002829D175
:101DB0000621059804F0BDFA002823D107210598D3
:101DC00004F0B7FA00281DD10021059804F0B1FAFB
:101DD000002817D10121059804F0ABFA002811D191
:101DE0000221059804F0A5FA00280BD1E07808221A
:101DF000F9786B4607C353480C9B4179069A0398C0
:101E000003F0ECFD0221049804F093FA002851D06D
:101E10000321049804F08DFA00284BD00421049883
:101E200004F087FA002845D00521049804F081FACF
:101E300000283FD10321059804F07BFA002839D10E
:101E40000421059804F075FA002833D1052105987E
:101E500004F06FFA00282DD10621059804F069FAE4
:101E6000002827D10721059804F063FA002821D122
:101E70000021059804F05DFA00281BD10121059886
:101E800004F057FA002815D10221059804F051FA00
:101E900000280FD16278A378F978D2180820D2B23E
:101EA00002900092019127480C9B4179069A039871
:101EB00003F094FD0221049804F03BFA002855D069
:101EC0000321049804F035FA00284FD00421049827
:101ED00004F02FFA002849D10521049804F029FACA
:101EE000002843D00321059804F023FA00283DD1AF
:101EF0000421059804F01DFA002837D10521059822
:101F000004F017FA002831D10621059804F011FADF
:101F100000282BD10721059804F00BFA002825D1C1
:101F20000021059804F005FA00281FD10121059829
:101F300004F0FFF9002819D10221059804F0F9F9FD
:101F4000002801E04800002010D16178A278032029
:101F50008918E27802908918C9B20195F948009170
:101F600041790C9B069A039803F038FD02210498EE
:101F700004F0DFF9002851D00321049804F0D9F9C6
:101F800000284BD10421049804F0D3F9002845D04F
:101F90000521049804F0CDF900283FD003210598CD
:101FA00004F0C7F9002839D10421059804F0C1F9DB
:101FB000002833D10521059804F0BBF900282DD164
:101FC0000621059804F0B5F9002827D107210598C6
:101FD00004F0AFF9002821D10021059804F0A9F9F7
:101FE00000281BD10121059804F0A3F9002815D180
:101FF0000221059804F09DF900280FD16278E3785A
:10200000F978D2180820D2B2029000920191CD48FE
:102010000C9B4179069A039803F0E0FC0221049896
:1020200004F087F9002851D10321049804F081F9C4
:1020300000284BD00421049804F07BF9002845D0F7
:102040000521049804F075F900283FD00321059874
:1020500004F06FF9002839D10421059804F069F9DA
:10206000002833D10521059804F063F900282DD10B
:102070000621059804F05DF9002827D1072105986D
:1020800004F057F9002821D10021059804F051F9F6
:1020900000281BD10121059804F04BF9002815D127
:1020A0000221059804F045F900280FD1A278E378C1
:1020B000F878D2180821D2B2019000920291A1487A
:1020C0000C9B4179069A039803F088FC022104983E
:1020D00004F02FF9002853D00321049804F029F9C3
:1020E00000284DD00421049804F023F9002847D09B
:1020F0000521049804F01DF9002841D0032105981A
:1021000004F017F900283BD10421059804F011F9D7
:10211000002835D10521059804F00BF900282FD1AE
:102120000621059804F005F9002829D10721059812
:1021300004F0FFF8002823D10021059804F0F9F8F5
:1021400000281DD10121059804F0F3F8002817D1CB
:102150000221059804F0EDF8002811D16278A378E7
:10216000F978D218E3780820D218D2B202900092FF
:10217000019174480C9B4179069A039803F02EFC58
:102180000021059804F0D5F800280BD1012105980D
:1021900004F0CFF8002805D10221059804F0C9F811
:1021A00000282DD00721059804F0C3F8002827D176
:1021B0006548008800280ED0002E0ED10120029024
:1021C0000195014600950C9B069A039803F006FCC6
:1021D0005D48058014E0002E07D001200195029093
:1021E000009501460C9B069A07E07978012001953D
:1021F000029000910C9B069A0021039803F0EEFBDD
:102200000321059804F095F8002856D0042105987C
:1022100004F08FF8002850D10521059804F089F8C2
:1022200000284AD10621059804F083F8002844D1FB
:102230000721059804F07DF800283ED1002105987B
:1022400004F077F8002838D10121059804F071F8DE
:10225000002832D10221059804F06BF800282CD117
:102260003948008800280FD0002E0FD16178032054
:1022700002900195009101210C9B069A039803F0AE
:10228000ADFB3148058018E0002E08D061780320AE
:1022900001950091029001210C9B069A0AE0217899
:1022A000627803208918C9B20195029000910C9BB5
:1022B000069A0021039803F091FB0421059804F08D
:1022C00038F800285BD00321059804F032F8002884
:1022D00055D10521059804F02CF800284FD106218E
:1022E000059804F026F8002849D10721059804F044
:1022F00020F8002843D10021059804F01AF800289E
:102300003DD10121059804F014F8002837D10221AD
:10231000059804F00EF8002831D10B4800880028F9
:1023200014D0002E14D1A1780320029001950091C1
:1023300001210C9B069A039803F050FB024805808C
:102340001DE000004800002040000020002E08D0C2
:10235000A178032001950091029001210C9B069A1F
:102360000AE02178A27803208918C9B20195029069
:1023700000910C9B069A0021039803F02FFB052186
:10238000059803F0D6FF002853D00321059803F0E9
:10239000D0FF00284DD10421059803F0CAFF002882
:1023A00047D10621059803F0C4FF002841D1072139
:1023B000059803F0BEFF00283BD10021059803F0EB
:1023C000B8FF002835D10121059803F0B2FF00289D
:1023D0002FD10221059803F0ACFF002829D1F9483C
:1023E000008800280FD0002E0FD1F9780820019125
:1023F0000290009501210C9B069A039803F0EEFAD7
:10240000F048058015E0002E08D0F87808210291E8
:102410000190009501210C9B069A07E02078082284
:10242000F9786B4607C30C9B069A0021039803F0CA
:10243000D5FA0621059803F07CFF002856D0032129
:10244000059803F076FF002850D10421059803F089
:1024500070FF00284AD10521059803F06AFF002883
:1024600044D10721059803F064FF00283ED10021E4
:10247000059803F05EFF002838D10121059803F08C
:1024800058FF002832D10221059803F052FF00289E
:102490002CD1CC48008800280FD0002E0FD1E17835
:1024A000032002900195009101210C9B069A03984C
:1024B00003F094FAC348058018E0002E08D0E178B4
:1024C000032001950091029001210C9B069A0AE0DD
:1024D0002178E27803208918C9B201950290009111
:1024E0000C9B069A0021039803F078FA03210598C3
:1024F00003F01FFF00285ED00421059803F019FFA8
:10250000002858D00521059803F013FF002852D168
:102510000621059803F00DFF00284CD107210598EE
:1025200003F007FF002846D10021059803F001FFC2
:10253000002840D10121059803F0FBFE00283AD184
:102540000221059803F0F5FE002834D19D4800884B
:10255000002812D0002E12D16178A27803208918A9
:10256000C9B202900195009101210C9B069A039833
:1025700003F034FA934805801DE0002E0BD06178FB
:10258000A27803208918C9B2019500910290012117
:102590000C9B069A0CE02178627803208918A278B7
:1025A00001958918C9B2029000910C9B069A0021EE
:1025B000039803F013FA0321059803F0BAFE0028EC
:1025C00057D00521059803F0B4FE002851D004210E
:1025D000059803F0AEFE00284BD10621059803F0C4
:1025E000A8FE002845D10721059803F0A2FE002887
:1025F0003FD10021059803F09CFE002839D101212C
:10260000059803F096FE002833D10221059803F0C7
:1026100090FE00282DD16B48008800280FD0002E96
:102620000FD160780822F9786B4607C301210C9B13
:10263000069A039803F0D2F96248058019E0002E4B
:1026400008D060780822F9786B4607C301210C9BFB
:10265000069A0BE022786378F978D2180820D2B273
:102660000092019102900C9B069A0021039803F0BE
:10267000B5F90321059803F05CFE00285ED0062121
:10268000059803F056FE002858D00421059803F061
:1026900050FE002852D10521059803F04AFE00287B
:1026A0004CD10721059803F044FE002846D10021B3
:1026B000059803F03EFE002840D10121059803F063
:1026C00038FE00283AD10221059803F032FE002896
:1026D00034D13C480088002812D0002E12D16178F5
:1026E000E27803208918C9B2029001950091012176
:1026F0000C9B069A039803F071F9324805801DE09F
:10270000002E0BD06178E27803208918C9B20195B8
:102710000091029001210C9B069A0CE021786278CE
:1027200003208918E27801958918C9B202900091B6
:102730000C9B069A0021039803F050F90421059898
:1027400003F0F7FD002859D00521059803F0F1FDAD
:10275000002853D00321059803F0EBFD00284DD14C
:102760000621059803F0E5FD002847D107210598CB
:1027700003F0DFFD002841D10021059803F0D9FDC9
:1027800000283BD10121059803F0D3FD002835D165
:102790000221059803F0CDFD00282FD109480088BB
:1027A000002811D0002E11D1A0780822F9786B46AC
:1027B00007C301210C9B069A039803F00FF9014807
:1027C00005801BE040000020002E08D0A0780822E1
:1027D000F9786B4607C301210C9B069A0BE022781F
:1027E000A378F978D2180820D2B200920191029011
:1027F0000C9B069A0021039803F0F0F80521059838
:1028000003F097FD002857D00621059803F091FDAD
:10281000002851D00321059803F08BFD00284BD1EF
:102820000421059803F085FD002845D1072105986E
:1028300003F07FFD00283FD10021059803F079FDCA
:10284000002839D10121059803F073FD002833D108
:102850000221059803F06DFD00282DD1FE48008867
:1028600000280FD0002E0FD1E0780822F9786B46AF
:1028700007C301210C9B069A039803F0AFF8F648B2
:10288000058019E0002E08D0E0780822F9786B4620
:1028900007C301210C9B069A0BE02278E378F978B4
:1028A000D2180820D2B20092019102900C9B069A95
:1028B0000021039803F092F80421059803F039FDF4
:1028C00000285ED00621059803F033FD002858D07B
:1028D0000521059803F02DFD002852D1052105980A
:1028E00003F027FD00284CD10721059803F021FDB6
:1028F000002846D10021059803F01BFD002840D197
:102900000121059803F015FD00283AD10221059810
:1029100003F00FFD002834D1CF480088002812D0E2
:10292000002E12D1A178E27803208918C9B2029052
:102930000195009101210C9B069A039803F04EF833
:10294000C54805801DE0002E0BD0A178E278032059
:102950008918C9B201950091029001210C9B069A39
:102960000CE02178A27803208918E2780195891873
:10297000C9B2029000910C9B069A0021039803F0C3
:102980002DF80321059803F0D4FC002864D004211D
:10299000059803F0CEFC00285ED00621059803F0D0
:1029A000C8FC002858D00521059803F0C2FC002877
:1029B00052D10721059803F0BCFC00284CD100211E
:1029C000059803F0B6FC002846D10121059803F0D4
:1029D000B0FC002840D10221059803F0AAFC002891
:1029E0003AD19D480088002814D0002E14D1617877
:1029F000A27803208918E27802908918C9B201955B
:102A0000009101210C9B069A039802F0E7FF92487F
:102A1000058021E0002E0DD06178A278032089186E
:102A2000E27801958918C9B20091029001210C9BAE
:102A3000069A0EE021786278E3788918A27803205C
:102A4000D2188918C9B20195029000910C9B069A80
:102A50000021039802F0C2FF0321059803F069FCEE
:102A6000002861D00421059803F063FC00285BD0A6
:102A70000521059803F05DFC002855D00621059836
:102A800003F057FC00284FD10721059803F051FCB3
:102A9000002849D10021059803F04BFC002843D1C0
:102AA0000121059803F045FC00283DD1022105983D
:102AB00003F03FFC002837D167480088002813D076
:102AC000002E13D16278A378F878D2180821D2B2F8
:102AD00002910190009201210C9B069A039802F04A
:102AE0007DFF5D4805801FE0002E0CD06278A37842
:102AF000F978D2180820D2B20191009202900121F7
:102B00000C9B069A0DE022786378F978D218A378A6
:102B10000820D218D2B20092019102900C9B069A22
:102B20000021039802F05AFF0321059803F001FCED
:102B3000002861D00521059803F0FBFB00285BD03D
:102B40000621059803F0F5FB002855D004210598CF
:102B500003F0EFFB00284FD10721059803F0E9FBB4
:102B6000002849D10021059803F0E3FB002843D158
:102B70000121059803F0DDFB00283DD102210598D5
:102B800003F0D7FB002837D133480088002813D042
:102B9000002E13D16278E378F978D2180820D2B2E7
:102BA00001910290009201210C9B069A039802F079
:102BB00015FF294805801FE0002E0CD06278E378CD
:102BC000F878D2180821D2B2029100920190012126
:102BD0000C9B069A0DE022786378F978D218E37896
:102BE0000820D218D2B20092019102900C9B069A52
:102BF0000021039802F0F2FE0421059803F099FBEE
:102C0000002864D00521059803F093FB00285ED0CE
:102C10000621059803F08DFB002858D00321059864
:102C200003F087FB002852D10721059803F081FBB0
:102C300000284CD10021059803F07BFB002846D1E9
:102C40000121059803F075FB002840D10221059869
:102C500003F06FFB002801E04000002037D1C2489C
:102C60000088002813D0002E13D1A278E378F978D9
:102C7000D2180820D2B201910290009201210C9B3F
:102C8000069A039802F0AAFEB74805801FE0002EBE
:102C90000CD0A278E378F978D2180820D2B201914A
:102CA0000092029001210C9B069A0DE02278A378F5
:102CB000F978D218E3780820D218D2B200920191A4
:102CC00002900C9B069A0021039802F087FE0321D4
:102CD000059803F02EFB002867D00421059803F027
:102CE00028FB002861D00521059803F022FB00286D
:102CF0005BD00621059803F01CFB002855D0072166
:102D0000059803F016FB00284FD10021059803F029
:102D100010FB002849D10121059803F00AFB002887
:102D200043D10221059803F004FB00283DD18E48D1
:102D30000088002815D0002E15D16278A378F87885
:102D4000D218E3780821D218D2B2029101900092F1
:102D500001210C9B069A039802F040FE82480580F0
:102D600023E0002E0ED06278A378F878D218E378AA
:102D70000821D218D2B202910092019001210C9B3D
:102D8000069A0FE022786378F978D218A378E4786D
:102D900008201B19D218D2B20092019102900C9B0C
:102DA000069A0021039802F019FE0721059803F006
:102DB000C0FA002838D00021059803F0BAFA00289C
:102DC00032D10121059803F0B4FA00282CD1022158
:102DD000059803F0AEFA002826D1634C208800281D
:102DE0000DD0002E0DD101200290019501460095D5
:102DF0000C9B069A039802F0F1FD258014E0002E4A
:102E000007D0012001950290009501460C9B069A7F
:102E100007E0397801200195029000910C9B069AF9
:102E20000021039802F0DAFD0721059803F081FAEA
:102E300000283BD00021059803F07BFA00280BD135
:102E40000121059803F075FA002805D102210598A3
:102E500003F06FFA002829D0434C208800280DD0B9
:102E6000002E0DD1012002900195014600950C9B8A
:102E7000069A039802F0B2FD258017E0002E07D0D5
:102E8000012001950290009501460C9B069A0AE0EC
:102E900039787A7801208918C9B201950290009199
:102EA0000C9B069A0021039802F098FD02210498D9
:102EB00003F03FFA002855D10321049803F039FAB2
:102EC00000284FD10421049803F033FA002849D197
:102ED0000521049803F02DFA002843D10321059819
:102EE00003F027FA00283DD10421059803F021FAC8
:102EF000002837D10521059803F01BFA002831D1AD
:102F00000621059803F015FA00282BD10721059812
:102F100003F00FFA002825D10021059803F009FAE3
:102F200000281FD10121059803F003FA002819D1C8
:102F30000221059803F0FDF9002813D1002E07D0D7
:102F40000A2001950290009501210C9B069A06E04B
:102F5000019502950548009541790C9B069A0398C6
:102F600002F03CFD07B0F0BD40000020480000200A
:102F7000FFB5F94883B0018801260025F74C0C9F66
:102F8000002902D06671058000E065710021049877
:102F900003F0CFF9002817D10121049803F0C9F9F3
:102FA000002811D10221049803F0C3F900280BD1A5
:102FB0000321049803F0BDF9002805D105210498E8
:102FC00003F0B7F9002847D00721049803F0B1F9BE
:102FD000002841D10921049803F0ABF900283BD126
:102FE0000A21049803F0A5F9002835D10B21049893
:102FF00003F09FF900282FD10D21049803F099F9CF
:10300000002829D1D648008800280DD0002F0DD1E6
:103010000095019502960121069B059A039802F0FE
:103020009BFECF48058017E0002F06D00095019544
:1030300002960121069B059A0BE0C848C7491F303C
:103040001A310078497800910190069B059A029602
:103050000021039802F080FE0721049803F069F92B
:10306000002817D10921049803F063F9002811D131
:103070000A21049803F05DF900280BD10B21049874
:1030800003F057F9002805D10D21049803F051F9F8
:10309000002847D00021049803F04BF9002841D1C3
:1030A0000121049803F045F900283BD1022104983E
:1030B00003F03FF9002835D10321049803F039F9D2
:1030C00000282FD10521049803F033F9002829D1D5
:1030D000A348008800280DD0002F0DD10095019540
:1030E00002960121069B059A039802F035FE9C4842
:1030F000058017E0002F06D000950195029601216A
:10310000069B059A0BE0954894491F301A310078C8
:10311000097800910190069B059A02960021039878
:1031200002F01AFE0021049803F003F9002817D1D9
:103130000121049803F0FDF8002811D10221049820
:1031400003F0F7F800280BD10321049803F0F1F8FD
:10315000002805D10521049803F0EBF8002848D099
:103160000721049803F0E5F8002817D109210498F5
:1031700003F0DFF8002811D10A21049803F0D9F8F0
:1031800000280BD10B21049803F0D3F8002805D1B7
:103190000D21049803F0CDF800282AD0704800884B
:1031A00000280DD0002F0DD1009501950296012128
:1031B000069B059A039802F0CFFD6948058018E048
:1031C000002F06D00095019502960121069B059AD5
:1031D0000CE062481F300178401F027840781018D8
:1031E000C0B26A4643C2069B059A0021039802F0CA
:1031F000B3FD0021049803F09CF8002848D1012178
:10320000049803F096F8002842D10221049803F0B4
:1032100090F800283CD10321049803F08AF8002894
:1032200036D10521049803F084F8002830D1072115
:10323000049803F07EF800282AD10921049803F0AD
:1032400078F8002824D10A21049803F072F80028A5
:103250001ED10B21049803F06CF8002818D10D2121
:10326000049803F066F8002812D1002F07D00A2036
:103270000095019502900121069B059A05E00095B5
:10328000019502956179069B059A039802F064FD09
:103290000121E08903F04DF8002801D0162006E056
:1032A0000521E08903F045F8002804D0202000F033
:1032B000E5FA07B0F0BD0721E08903F03AF80028ED
:1032C00001D05220F3E70921E08903F032F8002809
:1032D00001D04820EBE70A21E08903F02AF8002812
:1032E00001D05320E3E70B21E08903F022F8002806
:1032F00001D04920DBE70021208A03F01AF80028DA
:1033000001D00720D3E70121208A03F012F800281A
:1033100001D00120CBE70221208A03F00AF800281F
:1033200001D00220C3E70421208A03F002F800281C
:1033300001D01720BBE70621208A02F0FAFF0028FF
:1033400001D05520B3E70721208A02F0F2FF0028C0
:1033500008D05720ABE700003400002048000020D0
:10336000400000200821208A02F0E3FF002801D05D
:1033700003209CE70921208A02F0DBFF002801D00E
:10338000042094E70A21208A02F0D3FF00288ED07F
:1033900056208CE7FEB50F4604467D211646C9002F
:1033A0001846089DFCF7A4FE0A21FCF7A1FE5F2C3D
:1033B00004D3C8B200230195009007E020465C3892
:1033C000032809D2C8B2012301950090324639463C
:1033D0002046FEF7ADF9FEBD20465938032804D239
:1033E000C8B2022301950090F0E720465538042822
:1033F00004D2C8B2032301950090E7E72046523873
:10340000032804D2C8B2042301950090DEE72046C9
:103410004F38032804D2C8B2052301950090D5E7A0
:1034200020464B38042804D2C8B2062301950090E8
:10343000CCE720464838032804D2C8B207230195B8
:103440000090C3E720464538032804D2C8B20823B9
:1034500001950090BAE720464238032804D2C8B24A
:103460001C2301950090B1E720463E38042804D281
:10347000C8B21D2301950090A8E720463B380328D9
:1034800004D2C8B20923019500909FE7204638383E
:10349000032804D2C8B20A230195009096E720467B
:1034A0003438042804D2C8B20B23019500908DE76C
:1034B00020463138032804D2C8B20C23019500906D
:1034C00084E720462E38032804D2C8B20D23019584
:1034D00000907BE720462A38042804D2C8B20E2385
:1034E0000195009072E720462738032804D2C8B21D
:1034F0000F230195009069E720462438032804D261
:10350000C8B210230195009060E7204621380328B7
:1035100004D2C8B211230195009057E720461D3808
:10352000042804D2C8B21223019500904EE7204629
:103530001A38032804D2C8B213230195009045E736
:1035400020461738032804D2C8B2142301950090EE
:103550003CE720461338042804D2C8B2152301954D
:10356000009033E720461038032804D2C8B216234F
:10357000019500902AE720460D38032804D2C8B2EE
:1035800017230195009021E720460938042804D22A
:10359000C8B218230195009018E7A01F032804D291
:1035A000C8B219230195009010E7E01E032804D249
:1035B000C8B21A230195009008E7032C00D30AE74C
:1035C000C8B21B230195009000E7F8B50E460446EB
:1035D0007D211D46C9001046FCF78AFD0A21FCF733
:1035E00087FD5F2C03D3CBB20022009506E0204676
:1035F0005C38032807D2CBB2012200953146204621
:10360000FFF7B6FCF8BD20465938032803D2CBB2E9
:1036100002220095F2E720465538042803D2CBB2A7
:1036200003220095EAE720465238032803D2CBB2A2
:1036300004220095E2E720464F38032803D2CBB29C
:1036400005220095DAE720464B38042803D2CBB296
:1036500006220095D2E720464838032803D2CBB291
:1036600007220095CAE720464538032803D2CBB28B
:1036700008220095C2E720464238032803D2CBB285
:103680001C220095BAE720463E38042803D2CBB26C
:103690001D220095B2E720463B38032803D2CBB267
:1036A00009220095AAE720463838032803D2CBB276
:1036B0000A220095A2E720463438042803D2CBB270
:1036C0000B2200959AE720463138032803D2CBB26B
:1036D0000C22009592E720462E38032803D2CBB265
:1036E0000D2200958AE720462A38042803D2CBB25F
:1036F0000E22009582E720462738032803D2CBB25A
:103700000F2200957AE720462438032803D2CBB253
:103710001022009572E720462138032803D2CBB24D
:10372000112200956AE720461D38042803D2CBB247
:103730001222009562E720461A38032803D2CBB242
:10374000132200955AE720461738032803D2CBB23C
:103750001422009552E720461338042803D2CBB236
:10376000152200954AE720461038032803D2CBB231
:103770001622009542E720460D38032803D2CBB22B
:10378000172200953AE720460938042803D2CBB225
:103790001822009532E7A01F032803D2CBB21922CA
:1037A00000952BE7E01E032803D2CBB21A22009526
:1037B00024E7032C00D325E7CBB21B2200951DE79D
:1037C00070B52648264C007800280FD02548417C4B
:1037D000027C0902114349BAE180C17C827C080263
:1037E000104340BA2081FDF7D7FD70BD1E48007818
:1037F000002817D01D4D687829780002084340BA88
:103800006421FCF775FC6081E878A9780002084320
:1038100040BAA0812846017FC27E0802104340BA08
:10382000E08170BD124800780028FAD0114D0A21BD
:103830002888A082E88DFCF75BFC6081A88E0121BE
:103840000904081A6082E888E081A8882082FDF7D0
:1038500047FE0948007801F0ADFE70BD1A00002057
:1038600048000020120200201B0000202D02002032
:103870001C000020560200202000002070B50A2104
:10388000FCF736FC0C460A21FCF732FC2546054CB9
:103890009020615C01F0E4FD615D882001F0E0FDB5
:1038A00070BD00007E00002072B6FEE710B5024831
:1038B00000F074FA10BD0000480E0020F0B500289A
:1038C00008D0014620314A79022A05D00422C26379
:1038D000002008710120F0BD026813680E24A34384
:1038E0001360426C1468FF2301339C431460026828
:1038F00014686408640014600C4A5568066C1C2443
:10390000264001242746B7403D435560826CC56C74
:103910005560026D002A05D015689D431560826DC3
:10392000406D42604C7100200871F0BD0000024003
:10393000F8B50024024620325179022903D004212F
:10394000C16301242DE001680B680E25AB430B60B9
:1039500001680B685B085B000B60416C0B68FF251E
:103960000135AB430B6010494D68066C1C231E40AB
:1039700001231F46B7403D434D60816CC56C4D60CF
:10398000016D002906D00E681D02AE430E60416D28
:10399000856D4D60537100211171816B002900D03C
:1039A00088472046F8BD000000000240C06B704709
:1039B000F0B42C490C6802681368056C1C273D4064
:1039C0000426AE40264211D05E070FD513689B0631
:1039D00003D4146804239C4314604B68046C0422D1
:1039E0003C40A24013434B60016B1CE00227AF40F8
:1039F000064627402036002F19D09F0717D5136899
:103A00009B0605D413680A24A34313600122727134
:103A10004B68046C1C2214400222A24013434B60EA
:103A200000213171C16A00291AD0F0BC084708276B
:103A3000AF40274214D01B0712D513680E24A343AE
:103A400013604B68046C1C22144001221546A540EB
:103A50002B434B60C263727100213171416BE2E70D
:103A6000F0BC70470000024070B504003FD025480C
:103A7000256814212818FCF73BFB800020640220F5
:103A800026462036707128681F4908402860E16882
:103A9000A06862690843216911430843A16908438A
:103AA000E1690843216A084321680A6810430860F5
:103AB0002046FDF721FC0121A068890300258842EA
:103AC00000D165602079616C8006800E0860A06C72
:103AD000E16C41606068401E03280AD82046FDF76B
:103AE00023FC206D0560606DA16D416004E0012044
:103AF00070BD25656565A565E5630120707135714B
:103B0000002070BDF8FFFDBF0F80FFFFF8B5044631
:103B10008C4620300179002501290BD00126067141
:103B200041790027012907D08021E1630771012530
:103B30002846F8BD0220F8BD02214171E7632068E4
:103B4000016849084900016061462046FDF700FC14
:103B5000206B00282068016801D00E2205E00422B5
:103B600091430160206801680A2211430160606C82
:103B70000168CA03074902D502680A430260206D42
:103B8000002802D002680A430260206801683143BD
:103B90000160CDE70001000070B5044600F0C2F8F6
:103BA0000546601C02D004480078241800F0BAF8DA
:103BB000401BA042FAD370BD00000020F0B50023E6
:103BC00003249AE02A4601259D402A407ED00E79A2
:103BD000B607B60F012E01D0022E16D186682746F1
:103BE000B4465E00B646B7406646BE43B446CF68AC
:103BF0007646B7406646374387604668AE430D79E0
:103C0000ED06ED0F9D40354345600D79ED43AD0761
:103C100008D0C5685F002646BE40B5438E68BE40EA
:103C20002E43C6600D79AD07AD0F022D0ED1DD0814
:103C3000AD002D18AC462D6A5E07F60E0F27B74073
:103C4000BD430F69B7402F4365462F6205685F008B
:103C50002646BE40B5430E79B607B60FBE402E438A
:103C600006604D68AD03AD0F46D09E08264DB600E8
:103C70007519AC462D6E9E07F60E0F27B740BD4353
:103C800005273F07B84201D100270FE01F4FB84278
:103C900001D101270AE01E4FB84201D1022705E0F9
:103CA0001C4FB84201D1032700E00527B7402F433E
:103CB000154D664637662D684E689543F60200D569
:103CC0001543114F3D607D68954300E014E04E6858
:103CD000B60200D515437D600B4D80356E684F6888
:103CE0009643BF0300D516436E602E684F68964317
:103CF000FF0300D516432E605B1C0A681546DA40A8
:103D000000D05FE7F0BD0000001802400004005042
:103D100000080050000C0050002A01D0816170475B
:103D200081627047014880687047000000000020F1
:103D300070B504000FD02168154808602168154847
:103D4000086003CC41602068083C21688860FFF768
:103D5000E9FF05460CE0012070BDFFF7E3FF401BC3
:103D6000312805D92068C068400701D0032070BD04
:103D70002068C0684007F0D120680269E1688A4283
:103D800001D0016101E004490160002070BD000024
:103D9000CCCC000055550000AAAA000000680249DA
:103DA0000160002070470000AAAA00000248816854
:103DB00002788918816070470000002010B508481B
:103DC00000240168821511430160032000F00AF805
:103DD000002801D0012401E000F028F8204610BDA1
:103DE0000020024070B50F4E0024317805460029AE
:103DF00015D07D20C000FCF77BF901460A48006819
:103E0000FCF776F900F030FC002808D1042D06D22A
:103E100000222946401E00F02BF8756000E00124C6
:103E2000204670BD000000200C00002008B50948A5
:103E300001680122114301600068104000900548AC
:103E40004038C26B01040A43C263C06B0840009053
:103E500008BD000040100240002805DBC106C90E65
:103E600001208840014908607047000000E100E03F
:103E700010B503F04FF910BD10B50F4C21680322A7
:103E80005202914301432160C11FFF39FA390ED11B
:103E90000A480621006848430949FCF729F9401CF3
:103EA00002E0002805D0401E61694905F9D40020D0
:103EB00010BD032010BD0000007000400C00002069
:103EC00040420F00F8B5044600680026664D8003A6
:103ED00058D5654800274038C06BC00009D46248F7
:103EE0004038C26B01040A43C263C06B084001271B
:103EF00000905E480168821511430160FFF712FFD0
:103F0000009005E0FFF70EFF0099401A022825D81F
:103F100056480068C005F5D5E86903210902084044
:103F20000FD0616A81420CD0E86903210902EA6975
:103F30008843012109040A43EA61EA698A43EA6184
:103F4000E861C0070FD0FFF7EDFE009008E0FFF733
:103F5000E9FE0099411A4648814201D9032609E049
:103F6000E8698007F3D5E869032109028843616A9B
:103F70000843E861002F05D03B484038C26B01047C
:103F80008A43C2632078C00705D0686961688008E9
:103F90008000084368612078C00606D5686903215F
:103FA00089028843A168084368612088800506D596
:103FB000686903218904884361690843686120882E
:103FC000400506D56869032109058843A1690843AE
:103FD00068612078800606D5686903210903884353
:103FE000E168084368612088400411D56869E16987
:103FF00080008008084368610121E06989078842E0
:1040000006D119484038C168012212041143C16029
:104010002068800210D5686901218905226A8843D9
:1040200010436861206A884206D10F484038C16851
:10403000012212061143C1602088000512D568696B
:1040400003218903884321690843686101212069AC
:104050008903884206D104484038C168012212040D
:104060001143C1603046F8BD40100240007000406E
:1040700088130000F8B50F46060043D04D4D286860
:104080004007400FB84213D22868C008C000384328
:104090002860FFF747FE044605E0FFF743FE011BDB
:1040A0004548814261D828684007400FB842F4D1A2
:1040B0003068424C81070DD5400704D5A068072120
:1040C00009030843A060A0680F2109028843B16872
:1040D0000843A0603078C00732D0706801280AD049
:1040E00002280BD000280FD03449403103280ED0CD
:1040F000C969890704E02168890301E02168890111
:10410000002906DB0120F8BD21684905F8E7096AA6
:10411000EFE7A168C908C9000143A160FFF702FEEB
:10412000009006E0FFF7FEFD0099411A2248814207
:104130001BD8A068382108407168C9008842F1D1B5
:1041400028684007400FB84217D91A480168C908C3
:10415000C90039430160FFF7E5FD054607E0FFF7B9
:10416000E1FD411B1448814201D90320F8BD1148EB
:1041700000684007400FB842F1D13078400706D5BB
:10418000A068072109038843F1680843A06000F094
:1041900031F8A1683C2289091140094A515CC906DD
:1041A000C90EC8400749086007480068FFF71AFEB3
:1041B000F8BD0000002002408813000000100240FB
:1041C000C87300080C0000200400002006480749BE
:1041D00000688968064A4904490F8900515CC9068C
:1041E000C90EC840704700000C00002000100240BB
:1041F0000874000810B5204CA068204A8006400FC3
:1042000016D0A0688006410F501001290FD0A16878
:104210008906490F022912D0A0688006400F0428A1
:1042200023D0A0688006400F032821D0002010BDB5
:10423000206801218004400F8140104612E0E168AF
:104240008B07E1689B0F4906490F491C032B00D0DF
:104250001046FBF74DFFE1684904490E4843E16809
:10426000490F491CFBF744FF10BD0120C00310BDDE
:104270007D20000210BD0000001002400024F40068
:10428000F8B504007ED020783827C007ED4D00280F
:1042900046D0A868E96838408907890F102802D0FD
:1042A00008280BD001E0032908D00120626800042F
:1042B00082420AD129680143296015E028688003F9
:1042C0002ED560680028DDD02AE0052301211B04DB
:1042D00089049A422A6802D10A432A60EAE78243A3
:1042E0002A60286888432860606800280CD0FFF79F
:1042F00019FD064604E0FFF715FD801B642873D8FE
:1043000028688003F7D50BE0FFF70CFD064604E0B4
:10431000FFF708FD801B6428F1D828688003F7D4D4
:104320002078800769D5A868E96838408A0707219E
:10433000920FC902102802D0002813D001E0022AEF
:1043400010D0E068002846D02868884321690843D7
:1043500028602868FF21013108432860FFF7E2FC4C
:1043600006462CE02A68520502D5E268002A89D068
:104370006A687F231B029A4363691B021A436A60BF
:10438000002800E08DE00ED12868884321690843A9
:104390002860286801218004400F8140AA48FBF76B
:1043A000A7FEAA490860AA480068FFF71BFD00287D
:1043B00077D122E0FFF7B6FC801B02289FD828683F
:1043C0004005F7D568687F210902884361690902C1
:1043D0000843686011E02968FF20013081432960AB
:1043E000FFF7A0FC064605E098E0FFF79BFC801B6A
:1043F000022884D828684005F7D42078954E000715
:104400002ED5A8688006400F03280AD0A06900288E
:10441000306A16D0012108433062FFF783FC07465B
:104420000BE0306A80071BD5A06900289FD017E0F9
:10443000FFF778FCC01B022870D8306A8007F7D5D8
:104440000EE0400840003062FFF76CFC074604E0D5
:10445000FFF768FCC01B022860D8306A8007F7D4D9
:10446000207840076CD5A86800278006400F0428F4
:1044700018D0E86BC00008D4E96B012000070143A5
:10448000E963E96B01400127009173480168C905A0
:1044900019D40168821511430160FFF743FC0090B5
:1044A0000DE083E0F06980074AD5A06800287DD040
:1044B00046E0FFF737FC0099401A02282ED86648DC
:1044C0000068C005F5D5A168012910D00420052990
:1044D000F16911D049084900F161F1698143F16145
:1044E000A068002816D0FFF71DFC00900EE0F069D0
:1044F00001210843F061F3E70143F161F7E7FFF7BA
:1045000011FC0099411A5548814267D8F06980072B
:10451000F5D50EE0FFF706FC009007E05EE0FFF740
:1045200001FC0099411A4D48814257D8F069800733
:10453000F5D4002F04D0E86B012109078843E86314
:10454000E06900287BD0A9688906490F02294FD06D
:10455000012636060228286805D0B0432860FFF7F8
:10456000E1FB04463CE0B0432860FFF7DBFB074675
:1045700004E0FFF7D7FBC01B02282FD82868800172
:10458000F7D4616A206AA26A0843E16A1202114301
:104590000843216B0843616B0843E968304A1140C6
:1045A0000843E86028683043286000E045E0E86898
:1045B000012109070843E860FFF7B4FB044604E063
:1045C000FFF7B0FB001B022808D828688001F7D548
:1045D00035E0FFF7A7FB001B022801D90320F8BD37
:1045E00028688001F5D4E8681E490840E86026E0A4
:1045F0000128F4D0E868226A8107890F91421CD112
:104600007021626A0140914217D17F21A26A09029A
:1046100001401202914210D11F214904E26A014077
:1046200091420AD107214906226B0140914204D1EF
:10463000400F616B4007884201D00120F8BD002087
:10464000F8BD0000001002400024F4000C0000201F
:104650000400002040100240007000408813000059
:104660008C80C111FCFFFEEE094910B5401E884246
:1046700001D9012010BD074C60610321081F02F021
:1046800049FD0020A06107202061002010BD00002E
:10469000FFFFFF0000E000E070477047704770B513
:1046A000040005D025462035687F002802D006E0AA
:1046B000012070BD00202877204600F016F8022067
:1046C0006877211D206801F045FF012240342272E5
:1046D000AA77EA7722706270A270E270227162712A
:1046E000A271E2716A77002070BD704701462031E7
:1046F0004A7F012A01D00120704702224A770068D0
:104700000B490122884205D09107884202D009490D
:10471000884207D18168084B1940062905D0DB1F64
:10472000994202D0016811430160002070470000E7
:10473000002C014000040040070001000146203128
:104740004A7F012A01D00120704702224A7701687E
:10475000CB6801221343CB6000680B49884205D027
:104760009107884202D00949884207D18168084BE5
:104770001940062905D0DB1F994202D00168114378
:104780000160002070470000002C01400004004040
:10479000070001007047000070B504460068016919
:1047A0000025C9438907002915DBC168C94389076A
:1047B00011D4E91E016101202077206880698007FB
:1047C000204602D0FFF7E6FF04E000F0A7F82046FD
:1047D00000F0A5F8257720680169C943490717D477
:1047E000C168C943490713D40421C94301610220A8
:1047F0002077206880698005800F204602D0FFF76F
:10480000C9FF04E000F08AF8204600F088F8257718
:1048100020680169C943090716D4C168C94309075B
:1048200012D40821C9430161042020772068C0699F
:104830008007204602D0FFF7ADFF04E000F06EF8DD
:10484000204600F06CF8257720680169C943C90645
:1048500017D4C168C943C90613D41021C9430161E3
:10486000082020772068C0698005800F204602D08C
:10487000FFF790FF04E000F051F8204600F04FF8F9
:10488000257720680169C943C90708D1C168C943B0
:10489000C90704D1891E0161204600F041F8206853
:1048A0000169C943090609D4C168C943090605D489
:1048B0008021C94301612046FFF7EFFE20680169AE
:1048C000C943C90508D4C168C943090604D41249BB
:1048D00001612046FFF7E0FE20680169C9434906EF
:1048E00009D4C168C943490605D44021C9430161BF
:1048F000204600F033F820680169C943890609D4CD
:10490000C168C943890605D42021C94301612046F5
:10491000FFF7C4FE70BD0000FFFEFFFF7047704749
:1049200001680C4802680C48914201D1006805E01A
:10493000084A4C321268914203D14068002807D0DF
:104940000047044A98321268914201D18068F5E725
:1049500070470000640D0020E4000020704710B58F
:10496000014680310A78012A15D001220A702422DA
:104970004A600268136814686408640014600122C5
:10498000520793430022426600680360202048607B
:104990000A70104610BD022010BD70B5044680306C
:1049A0008368202B2FD100290BD0002A09D00125A4
:1049B000A3682D03AB4206D12369002B03D1CB079B
:1049C00001D0012070BD0378012B1CD0012303709E
:1049D000E366204602F0C2FA010003D1E06E01282E
:1049E00002D00121084670BD206810220262EFF358
:1049F0001080012383F3108823681C6814431C6013
:104A000080F31088EEE7022070BD000010B5046846
:104A10001148124B421584420CD1D9601968996033
:104A20001C680F498C4200D1891819605A605A6875
:104A300019680EE00B4884420DD119625969D96199
:104A40005C6909498C4200D1084959619A619A69A7
:104A5000596902F0F3F810BD003801403C0D002008
:104A60003C050020004400403C0900203C0B002095
:104A7000704770B5044605468034207801281AD066
:104A800001202070242060602868066802685208AF
:104A9000520002602868826807235B069A430A4333
:104AA0008260284601F084FF28680660202060604C
:104AB0000020207070BD022070BD70B50446054610
:104AC00080342078012819D00120207024206060D3
:104AD00028680668026852085200026028688268E6
:104AE000D200D2080A438260284601F061FF28689C
:104AF0000660202060600020207070BD022070BD24
:104B000070477047F8B50546044680356868AE685A
:104B100021688A6810271206002A1BDA212819D179
:104B2000EFF31080012282F310888A6880239A4371
:104B30008A6080F31088A06F002808D0FEF7BEFEC0
:104B4000002804D0A06FFEF731FF202824D0204693
:104B500002F0E0F82168886840061BD5222E19D1A2
:104B6000EFF31080012282F310888A6840239A4371
:104B70008A6080F31088E06F002808D0FEF79EFE60
:104B8000002804D0E06FFEF711FF202804D0204653
:104B900002F08EF80020F8BDEF600320F8BD0000A1
:104BA00010B5026807480849824202D14A6809687C
:104BB00004E00648824203D18A69496902F03EF85E
:104BC00010BD0000003801403C0D002000440040B2
:104BD000F8B503680446D96918689A68B24D0E465C
:104BE0002E4025468035002E75D0B04EB04F164071
:104BF000074037436ED0CF0706D0C70504D501273D
:104C00001F62EB683B43EB608B0708D5D30706D0E8
:104C1000276802233B62EB6804273B43EB604B07AA
:104C200008D5D30706D0276804233B62EB68022728
:104C30003B43EB600B0709D520230340334305D0EA
:104C4000266808233362EE681E43EE600B0509D523
:104C5000430107D501232668DB023362EB68202677
:104C60003343EB60EB68002B42D089060AD5202144
:104C70000840C9050A40104304D0216F002901D023
:104C800020468847E86821688968490602D42821B7
:104C9000084232D0204602F00BF8216888684006AE
:104CA00027D5EFF31080012282F310888B68402211
:104CB00093438B6080F31088E06F002819D07D4902
:104CC0008163E06FFEF734FE002811D0E06F816B46
:104CD0000DE000E017E08E0615D5012720263F07DE
:104CE000064017403E430ED0216FB1E02046884772
:104CF000F8BD2046FFF754FFF8BD2046FFF750FFF0
:104D00000020E860F8BDE66E012E7CD1CE067AD593
:104D1000C60678D510221A6223689868264640068F
:104D20004036002847DAE16F086840680004000C4C
:104D3000E8D0B78B8742E5D9F08308680068800621
:104D400034D4EFF31080012181F310881968170122
:104D5000B943196080F31088EFF31080012181F3CB
:104D6000108821688B685B085B008B6080F310887B
:104D7000EFF31080012181F3108821688B684027B0
:104D8000BB438B6080F310882020A8600020E06681
:104D9000EFF31080012181F3108821680B689343A1
:104DA0000B6080F31088E06FFEF788FDB08BF18B0D
:104DB000401A81B233E0B08BF18B401A81B2F08B94
:104DC00000289FD000299DD0EFF31080012686F3A4
:104DD00010881E68FF272137BE431E6080F31088AD
:104DE000EFF31080012383F3108823689E682F4F10
:104DF000FF433E409E6080F310882020A860002082
:104E0000E066206700E00EE0EFF31080012383F3FB
:104E1000108823681D6895431D6080F31088204624
:104E2000FFF7F4FDF8BDCE0208D5560206D50120E5
:104E3000000518622046FFF764FEF8BD0E060BD58C
:104E400001278026FF0506403A40164304D0616FD3
:104E5000002900D04AE7F8BD4A0614D5420612D50B
:104E60002046EFF31081012282F310881C68402253
:104E700094431C6081F31088202169600021416700
:104E800000F0BFF8F8BD0A0205D5420003D5204660
:104E9000FFF736FEF8BDC901FCD50028FADA204636
:104EA000FFF7E6FDF8BD00000F080000010000104C
:104EB00020010004256B000870B5040005D02546CC
:104EC00080356868002802D006E0012070BD00200F
:104ED0002870204600F026F82420686020680168C9
:104EE000490849000160204601F032FF0128EDD059
:104EF000A06A002802D0204601F07CFD20684168AD
:104F00000922D20291434160206881682A2291439C
:104F1000816020680168012211430160204601F090
:104F2000CFFD70BD704770477047FFB50646044619
:104F30008036706883B00D46202860D1002D0CD0DB
:104F40000598002809D00120A1680003814207D1FB
:104F50002069002804D1E80702D0012007B0F0BD85
:104F6000307801284BD0012030700020F0602120E3
:104F70007060FEF7D7FE0190274640370598B8824B
:104F80000598F8820120A1680003814202D12069BE
:104F9000002804D0029500250020307015E0002084
:104FA0000290F9E700228021204602F02FF8002825
:104FB00018D10298002817D02168007888620298DA
:104FC000401C0290F88A401EF882F88A019B002853
:104FD00006980090E6D100224021204602F016F803
:104FE000002808D00320B9E728882168C005C00D33
:104FF0008862AD1CE6E7202070600020AEE702204A
:10500000ACE7704710B502F0DFF80A2002F0C2F8F2
:1050100005242407012210212046FEF77DFE0122EF
:1050200020212046FEF778FE012280212046FEF74F
:1050300073FE642002F0AEF8022000F037F8522030
:1050400000F034F8302000F031F80A2000F02EF89B
:10505000062000F02BF810BD10B50A2002F09AF8D7
:10506000012211461048FEF757FE052424070122AD
:1050700020212046FEF750FE012280212046FEF727
:105080004BFE642002F086F8022000F0A7F85220C0
:1050900000F0A4F8302000F0A1F80A2000F09EF8FB
:1050A000062000F09BF810BD0004005070B50525E7
:1050B00006462D07002210212846FEF72DFE01206E
:1050C00002F068F8002280212846FEF725FE012024
:1050D00002F060F8012220212846FEF71DFE012083
:1050E00002F058F8012280212846FEF715FE012023
:1050F00002F050F8002280212846FEF70DFE012024
:1051000002F048F8002220212846FEF705FE012083
:1051100002F040F8012280212846FEF7FDFD012023
:1051200002F038F8002280212846FEF7F5FD012024
:1051300002F030F8002220212846FEF7EDFD012084
:1051400002F028F8012280212846FEF7E5FD012023
:1051500002F020F8002280212846FEF7DDFD012024
:1051600002F018F8002220212846FEF7D5FD012084
:1051700002F010F8012280212846FEF7CDFD012023
:1051800002F008F80024002280212846FEF7C4FD22
:10519000012001F0FFFF3046A040000601D50122AA
:1051A00000E0002220212846FEF7B6FD012001F094
:1051B000F1FF012280212846FEF7AEFD012001F01B
:1051C000E9FF641CE4B2082CDDD30122102128463B
:1051D000FEF7A2FD012001F0DDFF70BDF8B54C4FD8
:1051E0000646002201213846FEF796FD012001F017
:1051F000D1FF05252D07002280212846FEF78CFDD2
:10520000012001F0C7FF012220212846FEF784FD7E
:10521000012001F0BFFF012280212846FEF77CFD1E
:10522000012001F0B7FF002280212846FEF774FD1F
:10523000012001F0AFFF002220212846FEF76CFD7F
:10524000012001F0A7FF012280212846FEF764FD1E
:10525000012001F09FFF002280212846FEF75CFD1F
:10526000012001F097FF002220212846FEF754FD7F
:10527000012001F08FFF012280212846FEF74CFD1E
:10528000012001F087FF002280212846FEF744FD1F
:10529000012001F07FFF002220212846FEF73CFD7F
:1052A000012001F077FF012280212846FEF734FD1E
:1052B000012001F06FFF0024002280212846FEF724
:1052C0002BFD012001F066FF3046A040000601D50D
:1052D000012200E0002220212846FEF71DFD0120CA
:1052E00001F058FF012280212846FEF715FD01201C
:1052F00001F050FF641CE4B2082CDDD301221146FA
:105300003846FEF709FD012001F044FFF8BD00001A
:1053100000040050F8B505240E4607462407002275
:1053200010212046FEF7F8FC012001F033FF002297
:1053300080212046FEF7F0FC012001F02BFF012226
:1053400020212046FEF7E8FC012001F023FF012286
:1053500080212046FEF7E0FC012001F01BFF002227
:1053600080212046FEF7D8FC012001F013FF002227
:1053700020212046FEF7D0FC012001F00BFF012286
:1053800080212046FEF7C8FC012001F003FF002227
:1053900080212046FEF7C0FC012001F0FBFE012227
:1053A00020212046FEF7B8FC012001F0F3FE012287
:1053B00080212046FEF7B0FC012001F0EBFE002525
:1053C000002280212046FEF7A7FC012001F0E2FE2A
:1053D0003846A840000601D5012200E00022202125
:1053E0002046FEF799FC012001F0D4FE0122802125
:1053F0002046FEF791FC012001F0CCFE6D1CEDB2C1
:10540000062DDDD300250727002280212046FEF748
:1054100083FC012001F0BEFE791B3046C840C00766
:1054200001D0012200E0002220212046FEF774FC7A
:10543000012001F0AFFE012280212046FEF76CFC26
:10544000012001F0A7FE6D1CEDB2082DDCD3012276
:1054500010212046FEF760FC012001F09BFEF8BD04
:10546000F8B50E460746002201215048FEF754FCCD
:10547000012001F08FFE0524240700228021204610
:10548000FEF74AFC012001F085FE01222021204682
:10549000FEF742FC012001F07DFE01228021204622
:1054A000FEF73AFC012001F075FE00228021204623
:1054B000FEF732FC012001F06DFE00222021204683
:1054C000FEF72AFC012001F065FE01228021204622
:1054D000FEF722FC012001F05DFE00228021204623
:1054E000FEF71AFC012001F055FE01222021204682
:1054F000FEF712FC012001F04DFE01228021204622
:10550000FEF70AFC012001F045FE00250022802163
:105510002046FEF701FC012001F03CFE3846A84081
:10552000000601D5012200E0002220212046FEF7DE
:10553000F3FB012001F02EFE012280212046FEF720
:10554000EBFB012001F026FE6D1CEDB2062DDDD334
:1055500000250727002280212046FEF7DDFB0120E1
:1055600001F018FE791B3046C840C00701D0012267
:1055700000E0002220212046FEF7CEFB012001F0B2
:1055800009FE012280212046FEF7C6FB012001F022
:1055900001FE6D1CEDB2082DDCD30122114603483B
:1055A000FEF7BAFB012001F0F5FDF8BD0004005044
:1055B000FEE7000070B50A21FAF79AFD0C460A21B1
:1055C000FAF796FD2546054C8020615CFFF748FF01
:1055D000615D7820FFF744FF70BD00007E00002071
:1055E00010B5094C074AE1602260A1606060204666
:1055F000FEF79EFB002800D0FEE721680348086004
:1056000010BD000000300040480E0020CCCC00004F
:1056100010B5002400212046FFF77CFE0021204623
:10562000FFF71EFF641CE4B2982CF3D310BD0000FA
:10563000FFB583B0144664210398FAF759FD0A2197
:10564000FAF756FD0F460A210398FAF751FD0D4669
:105650000A21FAF74DFD019522480E46C079214DE9
:1056600000907D210835C9000398FAF741FD0A2111
:10567000FAF73EFD695C0498002C05D0152805D189
:1056800000980818C1B201E04128F9D86820FFF756
:1056900041FE144C06980A3C0028E85DE1780ED0E3
:1056A0004018C1B27020FFF735FEA85DE1784018C0
:1056B000C1B20120FFF72EFE0198295C0DE04018D1
:1056C000C1B27020FFF726FEA95D0120FFF722FE80
:1056D0000198E178285C4018C1B20820FFF71AFE53
:1056E00007B0F0BD6C00002010B5FF210020FFF7CF
:1056F00011FEFF211020FFF70DFEFF211820FFF7FC
:1057000009FEFF212020FFF705FEFF212820FFF7DB
:1057100001FEFF216820FFF7FDFDFF217020FFF74C
:10572000F9FDFF210120FFF7F5FDFF210820FFF71C
:10573000F1FDFF215020FFF7EDFDFF214820FFF78D
:10574000E9FDFF213120FFF7E5FDFF216120FFF793
:10575000E1FDFF215A20FFF7DDFDFF213920FFF792
:10576000D9FDFF214120FFF7D5FD0A48FEF714FAC5
:10577000FF219020FFF774FEFF218820FFF770FEC5
:10578000FF218020FFF76CFEFF217820FFF768FEE5
:1057900010BD0000DC05000010B500F089F800F035
:1057A0009DF800F077F810BD10B500F0CBFD00219A
:1057B000084600F0CDFD0021012000F0C9FDFF20CA
:1057C000F530FEF7E9F90121002000F0C1FD0121CB
:1057D000084600F0BDFD10BD10B500F001F810BD89
:1057E00010B5FEF79FFAFF21F531FAF781FC002989
:1057F00011D1094800224168072902D8491C41609B
:1058000000E042600178322902D2491C017000E0B8
:105810000270FEF787FA10BD1000002010B564205A
:10582000FEF7BAF900F05BF8FFF7BEFF00F052F8A0
:1058300000F018F800F030F801A001F061FC10BD94
:10584000B3F5CABCBBAFCDEAB3C92A2A2A2A2A2A91
:105850002A2A2A2A2A2A2A2A2A2A2A2A2A2A0A0DE5
:105860000000000010B5FFF7CDFBFFF7F5FBFFF7D9
:105870003BFFFFF7CDFE10BD10B5FDF7A1FF10BD3A
:1058800010B5FFF7A9FF00F037F8FFF7F5FF00F0BC
:105890000BF810BD7047000010B502490420FFF757
:1058A0009FFE10BDFF0F000010B5FDF7FFFF10BDFC
:1058B00010B50548FAF7F2FC0448FAF7E9FC044889
:1058C000FAF7CEFC10BD0000356600080D66000832
:1058D000D965000810B5FAF7C9FC10BD704710B5BE
:1058E0004B24E40121460020FAF724FD2146012043
:1058F000FAF720FD10BD000070B500F0D1FC00F0FB
:10590000E9FCFBF7C1FE324D288800285CD0314C01
:105910000026A078002805D012222F490020FAF78F
:1059200017FD2EE0E078002806D02B4932222431E2
:105930000020FAF70DFD27E02079002813D0264833
:1059400056300078012805D0022803D0032801D062
:10595000042801D100F0D2FC1E496422103100203D
:10596000FAF7F6FC1BE0607901280AD002280BD078
:1059700003280DD004280DD005280DD0062815D0F9
:105980001EE0122214490DE012490722093109E0F4
:10599000012002E0022000E0032000F0AFFC0D49EE
:1059A000082210310120FAF7D3FC09E0042000F0AE
:1059B000A5FC0849082210310120FAF7C9FC6671DC
:1059C0006079401C60712E80FAF730FC70BD0000D9
:1059D0003E00002018000020F4000020FFB5DB4D41
:1059E00083B014462B462A3329781B19203B009399
:1059F00084460C9F23460498093BCA190E9E0193C6
:105A000000281FD0052C1DD2012E02D00A2E0AD04C
:105A100012E06046632801D9D1B209E0CB482A30B0
:105A2000005D101A0CE06046612805D3632803D29C
:105A30005A20FFF76FFC38E0C4482A30005D081A8E
:105A4000C1B2F5E7601E042806D20098012EC07F7F
:105A50000CD009E0C1B20CE0052C1FD3BC481B2CB4
:105A600006D00079012E01D0081AF3E7101AF1E7E9
:105A7000C17E5A20FFF74EFC0498002815D0052C53
:105A800013D3082C11D8022E0CD0E978B048005D51
:105A9000081AC1B26120FFF73DFC28E0012EE8D1D1
:105AA000D1B2E6E7E878C119F0E7A01F02280AD8CA
:105AB000022E05D0E9780098C07F081AC1B210E024
:105AC000E878C119F7E7082C08D9022E03D0E97845
:105AD0009F48007AF1E7E878C119F9E7022E17D05C
