:020000040800F2
:1000000058120020D9000008ED6200085558000879
:1000100000000000000000000000000000000000E0
:100020000000000000000000000000003365000830
:100030000000000000000000216500088165000844
:10004000EB000008EB000008EB000008EB000008E4
:10005000EB000008EB000008EB000008EB000008D4
:100060000000000099130008A91300088913000874
:10007000EB000008EB000008EB000008EB000008B4
:10008000EB000008EB000008EB0000080166000828
:100090000000000071660008D9660008EB00000847
:1000A000EB000008EB000008EB000008D17200082C
:1000B000E1720008EB0000080000000000000000F2
:1000C0000448854600F0A2F8004800474174000843
:1000D000C046C046581200200448804704480047E4
:1000E000FEE7FEE7FEE7FEE7FEE7FEE7FF65000846
:1000F000C100000830B50B46014600202022012433
:1001000009E00D46D5409D4205D31D469540491B4B
:100110002546954040191546521E002DF1DC30BD94
:10012000F0B51FB40646002082B005464024019178
:1001300000901BE0019922460F46304600F054F82B
:10014000049A059B801A994110D3104619462246FD
:1001500000F03AF8361A8F4101972246012000211B
:10016000009F00F031F838184D4100902046641E81
:100170000028DFDC019B00982946324607B0F0BD1D
:1001800003460B439B0703D009E008C9121F08C0B0
:10019000042AFAD203E00B780370401C491C521E5B
:1001A000F9D27047D2B201E00270401C491EFBD266
:1001B00070470022F6E710B513460A460446194672
:1001C000FFF7F0FF204610BD10B5202A04DB0146E2
:1001D000203A9140002010BD914020239C1A0346F4
:1001E000E3401943904010BD10B5202A04DB0846B7
:1001F000203AD040002110BD0B46D340D0402024EF
:10020000A21A91400843194610BD0000064C012572
:10021000064E05E0E36807CC2B430C3C98471034AE
:10022000B442F7D3FFF750FFFC7700081C780008B2
:100230000A4801880A480A0A02704170817B81706D
:10024000C17BC170017C0171417C4171817C8171F4
:10025000C17CC171017D0172704700003000002037
:100260000E0200200149886070470000E000002075
:1002700010B5074C1F20214606F0CAF921463F2041
:1002800006F0FEF921463F2006F02EFA10BD0000D0
:10029000E70300000149486070470000E0000020CB
:1002A0000149086070470000E0000020054900286F
:1002B00003D0012803D000207047C86800E0086A16
:1002C00080B27047380D002070B50025194C0B46E0
:1002D0002E46002802D0012815D028E0E06800282A
:1002E00025D0E068904201D9154601E0E06885B26A
:1002F000A1682A461846FFF743FFE168A068FFF7A8
:1003000058FFE66013E0206A002810D0206A90426F
:1003100001D9154601E0206A85B2E1692A461846EE
:10032000FFF72EFF216AE069FFF743FF26622846A8
:1003300070BD0000380D002010B5002805D0012840
:1003400002D1084606F074FB10BD084606F094FA88
:1003500010BD0000F7B57D260025F600164C1746A7
:10036000002802D001280ED024E0144804F08AFEB0
:1003700033463A461148019905F097F862680546F8
:1003800021680F4814E0012205201103000703F043
:1003900083FF0A48903004F075FE084833463A4619
:1003A0009030019905F081F8A26905466169054818
:1003B00006F03CFD2846FEBD380D0020A8020020B6
:1003C0000038014000440040F8B507460A21FFF715
:1003D00091FE0C460A21FFF78DFE26460D4C08467D
:1003E00025461C3D642F08D32078A9784018C1B257
:1003F000502005F089F9207804E0215C502005F0B8
:1004000083F9A05DA9784018C1B2482005F07CF9B5
:10041000F8BD00007A000020FFB51C4A81B00646F6
:10042000118800201A4C0A9D1F46002903D06178CC
:10043000491C6170108061781F2900D16070012211
:100440006178029805F02CFA3B4601226178039806
:1004500005F04EFF012D0BD0022D10D0032D05D13C
:1004600031466078039B029A00F08AFD05B0F0BD2A
:10047000F1B26078039B029A00F01CFAF6E731466D
:100480006078039B029A00F0A7FBEFE7360000209C
:1004900046000020F8B5454B454C1E7800252288C3
:1004A0005B78012811D01A282BD01B2834D01C28A7
:1004B0003DD01D2846D01E284FD0012961D00229E9
:1004C00069D003296BD0002117E038480A3007783B
:1004D000012950D00A38354E00780A36367846E081
:1004E000394651E0F8185FE0002AF9D15CE00329B1
:1004F00044D0394601E0C01856E05A2005F004F90E
:10050000F8BD2A480A304778012934D00A38274EE6
:1005100000780A3676782AE024480A30877801295C
:1005200029D00A38214E00780A36B6781FE01F48D5
:100530000A30C77801291ED00A381C4E00780A36C6
:10054000F67814E019480A300779012913D00A38DF
:10055000164E00780A36367909E014480A30C77911
:10056000012908D00A38114E00780A36F679301879
:100570000229BCD1B8E7002AB4D0B1E7002ABAD02A
:10058000AEE7002A0DD104E05A2005F0BDF8258021
:10059000F8BD1946B1E7002A03D13146ADE7002A7C
:1005A00001D00021F0E7F018C1B2A6E75E000020FC
:1005B0003E000020F0B5BD4BBD4C85B022881E78B2
:1005C000039600255B78012831D0B84E77783678CD
:1005D000F6190296B54E0A3636790196102841D0A2
:1005E000B24E0A36F6780096112862D0AF4E0A361F
:1005F000B6781228B4466FD0AC4E0A3677781328F6
:100600006BD01A286AD01B2869D01C2868D01D28F6
:1006100067D01E2875D0012974D0022973D0032910
:1006200072D000215A2005F06FF8002115E09F4894
:100630000A300778012905D00A389C4E00780A361E
:100640003678B6E0002A72D0394627E1C1B21BE104
:10065000002AF9D10FE13946E4E7312005F054F8DA
:1006600005B0F0BD012904D002290ED0032910D015
:1006700051E0002A07D000215A2005F045F88B48A8
:100680000A30017910E0194607E0002AF3D10399F6
:1006900003E0002AEFD10298C1B25A2005F034F8E5
:1006A00082480A30017971E0312005F02DF825806B
:1006B000D6E7012904D0022914D0032916D02AE054
:1006C000002A07D000215A2005F01EF877480A308A
:1006D000C178E9E719460DE017E03AE061E06FE024
:1006E00087E09FE0002AEDD1039903E0002AE9D1D9
:1006F0000298C1B25A2005F007F86C480A30C17858
:1007000044E0A8E0B9E0BCE0C5E0012905D0022939
:1007100010D0032912D031469FE7002A08D00021CB
:100720005A2004F0F1FF61480A308178BCE79DE06F
:10073000194607E0002AF2D1039903E0002AEED11E
:100740000298C1B25A2004F0DFFF58480A3081787D
:100750001CE0012905D002290FD003291CD03946FD
:100760007BE7002A07D000215A2004F0CDFF4F4834
:100770000A30417898E7194602E0002AF3D103993C
:100780005A2004F0C1FF49480A3041784748401DCB
:1007900000780818C1B260E7002AE4D10298C1B21B
:1007A000EEE7012900D14DE7404E40480A36007877
:1007B0007678301802295BD0032900D04BE747E751
:1007C00001290BD0394E39480A360078B6783018EE
:1007D000022907D0032908D0614623E7002A06D161
:1007E000604648E0002A02D130E7002A43D0614643
:1007F00054E001290BD02D4E2C480A360078F678AB
:100800003018022907D0032908D000990AE7002AE6
:1008100006D100982FE0002A02D117E7002A2AD03B
:1008200000993BE001290BD0204E20480A36007881
:1008300036793018022907D0032908D00199F1E64A
:10084000002A06D1019816E0002A02D1FEE6002A0D
:1008500011D0019922E015480A30C7790129A2D0A8
:100860000A38124E00780A36F679A2E7F818EDE653
:10087000002AB9D0E8E6C018E8E6002A0DD11946EA
:1008800002E0002A09D103995A2004F03DFF0748ED
:10089000401D0178E1E6002A05D000215A2004F02D
:1008A00033FF002100E70298D0E600005E00002040
:1008B0003E000020FFB57D250446ED0081B01E46B8
:1008C00029461046FFF716FC0A21FFF713FC00919A
:1008D00029463046FFF70EFC0A21FFF70BFC0F46B6
:1008E00000263146029805F01CFE00280BD101219C
:1008F000029805F016FE002805D10221029805F0A5
:1009000010FE002806D00721029805F00AFE0028F4
:1009100000D101260721029805F003FE002812D01D
:100920000021029805F0FDFD00280CD1012102985C
:1009300005F0F7FD002806D10221029805F0F1FD2F
:10094000002800D102260721029805F0EAFD0028C0
:1009500012D00021029805F0E4FD00280BD10121FE
:10096000029805F0DEFD002805D10221029805F06D
:10097000D8FD002800D003260721029805F0D1FDFC
:10098000002812D10021029805F0CBFD00280CD1DF
:100990000121029805F0C5FD002806D10221029828
:1009A00005F0BFFD002800D10026012C77D0894D2D
:1009B000022C3DD0032C41D0042C48D0052C4CD027
:1009C000062C50D0072C54D0082C58D0092C5CD0C1
:1009D0000A2C65D00B2C69D00C2C6DD00D2C7CD042
:1009E0000E2C70D00F2C6FD0102C6ED0112C6DD01F
:1009F000122C6CD0132C6BD0142C6AD0152C69D00F
:100A0000162C68D0172C67D0182C72D0192C71D0E6
:100A10001A2C70D01B2C42D01C2C40D01D2C3ED048
:100A20001E2C3CD031460120FFF734FD05B0F0BD4F
:100A300031462046FFF72EFD697804E03146204616
:100A4000FFF728FDA978412004F05EFEEEE731466D
:100A50002046FFF71FFDE978F5E731462046FFF70E
:100A600019FD2979EFE731462046FFF713FD697933
:100A7000E9E731462046FFF70DFDA979E3E7314666
:100A80002046FFF707FDE979DDE731462046FFF70D
:100A900001FD0021412004F037FE297931E096E084
:100AA00031462046FFF7F6FCE9782AE03146204639
:100AB000FFF7F0FCA97824E031462046FFF7EAFC76
:100AC00069781EE009E00EE016E01CE025E02AE06F
:100AD0002FE035E044E054E060E031462046FFF787
:100AE000D9FC29780DE031462046FFF7D3FC69791F
:100AF00007E059E05EE063E031462046FFF7CAFCBC
:100B0000A9793920A0E731462046FFF7C3FC002130
:100B1000392004F0F9FD297910E031462046FFF72D
:100B2000B9FCE9780AE031462046FFF7B3FCA97822
:100B300004E031462046FFF7ADFC6978312083E7B9
:100B400031462046FFF7A6FC0021312004F0DCFDF1
:100B50002048E9790830C05D0818C1B2102073E759
:100B600031462046FFF796FC1A4C10200834E15D10
:100B700004F0CAFD0098E979205C0818C1B2682029
:100B800062E731462046FFF785FC1248009908309D
:100B9000415C682004F0B8FD297916E03146204612
:100BA000FFF778FCE97810E031462046FFF772FC49
:100BB000A9780AE031462046FFF76CFC697804E02A
:100BC00031462046FFF766FC002161203CE73146B4
:100BD000204629E768000020FFB57D250446ED008A
:100BE00081B01E4629461046FFF784FA0A21FFF716
:100BF00081FA009129463046FFF77CFA0A21FFF777
:100C000079FA0F4600263146029805F08AFC002842
:100C10001DD10121029805F084FC002817D1022182
:100C2000029805F07EFC002811D10321029805F0FE
:100C300078FC00280BD10921029805F072FC0028ED
:100C400005D10A21029805F06CFC00280CD0062181
:100C5000029805F066FC002806D10721029805F0ED
:100C600060FC002800D101260621029805F059FCFD
:100C7000002805D10721029805F053FC002824D054
:100C80000021029805F04DFC00281ED10121029898
:100C900005F047FC002818D10221029805F041FC1C
:100CA000002812D10321029805F03BFC00280CD14A
:100CB0000921029805F035FC002806D10A21029886
:100CC00005F02FFC002800D102260621029805F02D
:100CD00028FC002805D10721029805F022FC0028F5
:100CE00024D00021029805F01CFC00281DD1012110
:100CF000029805F016FC002817D10221029805F091
:100D000010FC002811D10321029805F00AFC0028EC
:100D10000BD10921029805F004FC002805D10A2115
:100D2000029805F0FEFB002800D00326002102985F
:100D300005F0F7FB00282AD10121029805F0F1FB0C
:100D4000002824D10221029805F0EBFB00281ED1D7
:100D50000321029805F0E5FB002818D1062102982E
:100D600005F0DFFB002812D10721029805F0D9FB1E
:100D700000280CD10921029805F0D3FB002806D1E8
:100D80000A21029805F0CDFB002800D10026012C95
:100D900077D07A4D022C3DD0032C41D0042C48D082
:100DA000052C4CD0062C50D0072C54D0082C58D0F1
:100DB000092C5CD00A2C65D00B2C69D00C2C6DD082
:100DC0000D2C76D00E2C7AD00F2C6FD0102C6ED02C
:100DD000112C56D0122C54D0132C52D0142C67D076
:100DE000152C72D0162C71D0172C70D0182C6FD0F7
:100DF000192C6ED01A2C6DD01B2C42D01C2C40D03C
:100E00001D2C3ED01E2C3CD031460120FFF7D2FBDA
:100E100005B0F0BD31462046FFF7CCFB697804E011
:100E200031462046FFF7C6FBA978412004F06CFC50
:100E3000EEE731462046FFF7BDFBE978F5E731469E
:100E40002046FFF7B7FB2979EFE731462046FFF749
:100E5000B1FB6979E9E731462046FFF7ABFBA97999
:100E6000E3E731462046FFF7A5FBE979DDE73146A8
:100E70002046FFF79FFB0021412004F045FC297923
:100E800034E078E031462046FFF794FBE9782DE026
:100E900031462046FFF78EFBA97827E031462046F1
:100EA000FFF788FB697821E003E008E013E018E031
:100EB0001EE031462046FFF77DFB297816E03146DB
:100EC0002046FFF777FB697910E01DE02DE039E05F
:100ED0003EE043E048E031462046FFF76BFBA9794E
:100EE00004E031462046FFF765FB002139209DE7ED
:100EF00031462046FFF75EFB2048E9790830C05DA7
:100F00000818C1B2102091E731462046FFF752FB86
:100F10001A4C10200834E15D04F0F6FB0098E979E2
:100F2000205C0818C1B2682080E731462046FFF7F0
:100F300041FB124800990830415C682004F0E4FB52
:100F4000297916E031462046FFF734FBE97810E0B6
:100F500031462046FFF72EFBA9780AE031462046AD
:100F6000FFF728FB697804E031462046FFF722FBB3
:100F7000002161205AE73146204647E768000020FB
:100F8000FFB57D250446ED0081B01E46294610467A
:100F9000FFF7B0F80A21FFF7ADF800912946304677
:100FA000FFF7A8F80A21FFF7A5F80F4600263146FB
:100FB000029805F0B6FA002817D10121029805F031
:100FC000B0FA002811D10221029805F0AAFA0028EF
:100FD0000BD10321029805F0A4FA002805D10421C1
:100FE000029805F09EFA00281ED00621029805F00E
:100FF00098FA002818D10821029805F092FA0028E2
:1010000012D10A21029805F08CFA00280CD10B218C
:10101000029805F086FA002806D10C21029805F006
:1010200080FA002800D101260621029805F079FAFD
:10103000002817D10821029805F073FA002811D171
:101040000A21029805F06DFA00280BD10B210298B5
:1010500005F067FA002805D10C21029805F061FA25
:1010600000281ED00021029805F05BFA002818D154
:101070000121029805F055FA002812D102210298A8
:1010800005F04FFA00280CD10321029805F049FA27
:10109000002806D10421029805F043FA002800D167
:1010A00002260021029805F03CFA002817D1012100
:1010B000029805F036FA002811D10221029805F0B5
:1010C00030FA00280BD10321029805F02AFA0028F3
:1010D00005D10421029805F024FA00281ED006212B
:1010E000029805F01EFA002817D10821029805F091
:1010F00018FA002811D10A21029805F012FA0028E6
:101100000BD10B21029805F00CFA002805D10C2117
:10111000029805F006FA002800D003260021029864
:1011200005F0FFF9002836D10121029805F0F9F900
:10113000002830D10221029805F0F3F900282AD1C5
:101140000321029805F0EDF9002824D1042102982A
:1011500005F0E7F900281ED10621029805F0E1F913
:10116000002818D10821029805F0DBF9002812D1D7
:101170000A21029805F0D5F900280CD10B2102981C
:1011800005F0CFF9002806D10C21029805F0C9F925
:10119000002800D10026012C77D07A4D022C3DD0BA
:1011A000032C41D0042C48D0052C4CD0062C50D018
:1011B000072C54D0082C58D0092C5CD00A2C65D0B0
:1011C0000B2C69D00C2C6DD00D2C76D00E2C7AD037
:1011D0000F2C6FD0102C6ED0112C56D0122C54D056
:1011E000132C52D0142C67D0152C72D0162C71D021
:1011F000172C70D0182C6FD0192C6ED01A2C6DD0E3
:101200001B2C42D01C2C40D01D2C3ED01E2C3CD080
:1012100031460120FFF7CEF905B0F0BD314620463A
:10122000FFF7C8F9697804E031462046FFF7C2F9B4
:10123000A978412004F068FAEEE731462046FFF72E
:10124000B9F9E978F5E731462046FFF7B3F929798E
:10125000EFE731462046FFF7ADF96979E9E7314616
:101260002046FFF7A7F9A979E3E731462046FFF7C3
:10127000A1F9E979DDE731462046FFF79BF9002126
:10128000412004F041FA297934E078E031462046E3
:10129000FFF790F9E9782DE031462046FFF78AF90B
:1012A000A97827E031462046FFF784F9697821E0E4
:1012B00003E008E013E018E01EE031462046FFF7A7
:1012C00079F9297816E031462046FFF773F96979F4
:1012D00010E01DE02DE039E03EE043E048E031461B
:1012E0002046FFF767F9A97904E031462046FFF769
:1012F00061F9002139209DE731462046FFF75AF970
:101300002048E9790830C05D0818C1B2102091E783
:1013100031462046FFF74EF91A4C10200834E15DA3
:1013200004F0F2F90098E979205C0818C1B268204D
:1013300080E731462046FFF73DF912480099083012
:10134000415C682004F0E0F9297916E03146204636
:10135000FFF730F9E97810E031462046FFF72AF927
:10136000A9780AE031462046FFF724F9697804E0BD
:1013700031462046FFF71EF9002161205AE7314629
:10138000204647E76800002010B5024802F0D0FD73
:1013900010BD0000DC04002010B5024802F0C8FDBA
:1013A00010BD00002404002010B5044802F0C0FD68
:1013B0000248B83002F0BCFD10BD0000C803002098
:1013C00010B50446006C094980088000401860642C
:1013D000207814210838FEF78DFE04498031A1647D
:1013E000C106C90E01208840E06410BD000802401B
:1013F0000179084B8906890E8A00D2180265054AD0
:101400004432491E42658A07920F0121914081654D
:1014100070470000FC080240F0B5846CC56C656044
:10142000046D002C02D0446D856D65600B4C6568C1
:10143000066C1C273E400127B7403D4365600468A9
:1014400063608368102B036803D099600068C260F2
:10145000F0BD9A600068C160F0BD0000000002406D
:10146000F8B54F4C0021A07B05F05BF800264D4DF0
:101470000127002826D0A07B012105F052F8002882
:1014800020D1012105F05CF8A878002804D104F0EF
:10149000FBF9EE702E71AF70E07BFEF795FF002335
:1014A000E17B1A46E88804F0FBF90023E17B1A4649
:1014B000288904F01DFF0096227DA17BE07B2B890B
:1014C00002F048F9A07B012105F02BF800281AD082
:1014D000A07B002105F025F8002814D1012105F09A
:1014E0002FF8E878002804D104F0CEF9AE702E7100
:1014F000EF70E07BFEF768FF0097207D00232A89CC
:10150000E988FEF789FFA07B062105F00AF800288C
:101510002CD0A07B002105F004F8002826D1A07B68
:10152000012104F0FEFF002820D1012105F008F878
:101530002879002804D104F0A7F9EE70AE702F715D
:10154000E07BFEF741FF0023E17B1A46184604F0DA
:10155000A7F90023E17B1A46184604F0C9FE00975C
:10156000227DA17BE07B002302F0F4F8A07B062122
:1015700004F0D7FF002811D1A07B002104F0D1FF97
:1015800000280BD1A07B012104F0CBFF002805D15E
:1015900004F07AF90021084604F0D2FFF8BD0000FB
:1015A0000E02002046000020F8B54E4C0F21A08905
:1015B00004F0B7FF4C4E00254C4F002828D0A189DD
:1015C00001200004401A642822D93D800121002016
:1015D00004F0B6FFA078002805D104F055F9E570B5
:1015E00025710120A070F07CFEF7EEFE0022F17C58
:1015F0000123104604F054F9F17C01230022608994
:1016000004F076FEF07C00236289E18902F0BDF9E6
:101610000F21A08904F085FF00281BD1A089642830
:1016200018D93D800121002004F08AFFE0780028CD
:1016300005D104F029F9A57025710120E070F07C36
:10164000FEF7C2FE02200090012300226189E0899A
:10165000FEF7E2FEA089002807D001210904091A3B
:10166000642902D9401E632826D83888002826D14C
:10167000012020700146002004F062FF207900283C
:1016800005D104F001F9E570A57001202071F07C0E
:10169000FEF79AFE0022F17C0123104604F000F9C7
:1016A0000022F17C0123104604F022FEF07C01238D
:1016B0006289E18902F069F93888002805D004F0D0
:1016C000E3F80021084604F03BFFA089002807D07A
:1016D00001210904091A642901D9642800D83D8030
:1016E000F8BD000046000020290200204400002030
:1016F000F8B5464C464E608A0025464F032825D152
:10170000208A32284BD93D800121002004F018FFA7
:10171000A078002805D104F0B7F8E5702571012004
:10172000A070F08EFEF750FE0022F18E01231046CD
:1017300004F0B6F8F18E01230022608904F0D8FD90
:10174000F08E00236289E18902F01AFA608A022889
:101750001BD1208A322822D93D800121002004F0AB
:10176000EFFEE078002805D104F08EF8A570257111
:101770000120E070F08EFEF727FE03200090012389
:1017800000226189E089FEF747FE608A012803D0C4
:10179000022801D0032829D1208A322826D8388867
:1017A000002826D1012020700146002004F0C8FE48
:1017B0002079002805D104F067F8E570A5700120B4
:1017C0002071F08EFEF700FE0022F18E01231046FC
:1017D00004F066F80022F18E0123104604F088FD23
:1017E000F08E01236289E18902F0CAF93888002865
:1017F00005D004F049F80021084604F0A1FE208A33
:10180000401E312800D83D80F8BD00004600002071
:10181000520200204400002010B5074C002361183C
:1018200004E0C418E478CC545B1CDBB21446521EAE
:10183000D2B2002CF5D110BD0E02002010B5074C1D
:101840000023611804E0C4182479CC545B1CDBB27B
:101850001446521ED2B2002CF5D110BD2902002030
:10186000F0B50C4C0023490009190CE0C418E578C8
:101870005C000D5325182E79EF7835023D436DBA83
:101880005B1C0D53DBB21446521ED2B2002CEDD1BC
:10189000F0BD00005202002070B50120FEF706FDE9
:1018A000002804D064221B490120FEF70DFD1948D1
:1018B00001240178184D452912D0DD291DD00129B8
:1018C0000DD1417803290AD18078542807D11149D4
:1018D0006422881AFEF754FC04F0BEFD2C7170BD22
:1018E00040784728FBD10B4912220846A838FEF75A
:1018F00047FC04F059FDAC7070BD40780328FBD163
:101900000449322208469638FEF73AFC04F068FD96
:10191000EC7070BDAA0100201800002030B5074C03
:101920000023611804E0CC5CC5185B1CAC70DBB212
:101930001446521ED2B2002CF5D130BD0E0200204A
:10194000FFB5FF4883B0018800250D9E002904D013
:10195000FC4A01215171058001E0FA4845710221DC
:10196000049804F0DEFDF74C1D3400284DD003210F
:10197000049804F0D6FD002847D10421049804F00F
:10198000D0FD002841D10521049804F0CAFD0028AB
:101990003BD10321059804F0C4FD002835D1042172
:1019A000059804F0BEFD00282FD10521059804F00C
:1019B000B8FD002829D10621059804F0B2FD0028C1
:1019C00023D10721059804F0ACFD00281DD100218A
:1019D000059804F0A6FD002817D10121059804F010
:1019E000A0FD002811D10221059804F09AFD0028DD
:1019F0000BD16178032002900195D2480091417982
:101A00000C9B069A039804F0F3F80321049804F061
:101A100088FD00284DD00221049804F082FD0028A2
:101A200047D10421049804F07CFD002841D1052110
:101A3000049804F076FD00283BD10321059804F0BA
:101A400070FD002835D10421059804F06AFD0028B6
:101A50002FD10521059804F064FD002829D1062125
:101A6000059804F05EFD002823D10721059804F0B5
:101A700058FD00281DD10021059804F052FD0028D2
:101A800017D10121059804F04CFD002811D1022145
:101A9000059804F046FD00280BD1A17803200290A0
:101AA0000195A848009141790C9B069A039804F08F
:101AB0009FF80421049804F034FDA24F1837002841
:101AC0004DD00221049804F02CFD002847D10321B9
:101AD000049804F026FD002841D10521049804F063
:101AE00020FD00283BD10321059804F01AFD0028B1
:101AF00035D10421059804F014FD00282FD10521CB
:101B0000059804F00EFD002829D10621059804F05F
:101B100008FD002823D10721059804F002FD0028C4
:101B20001DD10021059804F0FCFC002817D10121EB
:101B3000059804F0F6FC002811D10221059804F064
:101B4000F0FC00280BD1F878042100900195029157
:101B50007C480C9B4179069A039804F049F80521CA
:101B6000049804F0DEFC00284DD00221049804F013
:101B7000D8FC002847D10321049804F0D2FC0028A7
:101B800041D10421049804F0CCFC00283BD103216E
:101B9000059804F0C6FC002835D10421059804F00E
:101BA000C0FC00282FD10521059804F0BAFC0028BC
:101BB00029D10621059804F0B4FC002823D107217F
:101BC000059804F0AEFC00281DD10021059804F012
:101BD000A8FC002817D10121059804F0A2FC0028D8
:101BE00011D10221059804F09CFC00280BD1E1786A
:101BF0000320029001955348009141790C9B069A6D
:101C0000039803F0F5FF0221049804F08AFC0028F1
:101C100050D00321049804F084FC00284AD0042109
:101C2000049804F07EFC002844D10521049804F0B7
:101C300078FC00283ED10321059804F072FC0028AE
:101C400038D10421059804F06CFC002832D105211C
:101C5000059804F066FC00282CD10621059804F0B4
:101C600060FC002826D10721059804F05AFC0028C2
:101C700020D10021059804F054FC00281AD101213C
:101C8000059804F04EFC002814D10221059804F0B8
:101C900048FC00280ED16178A278032089180290B0
:101CA000C9B201952748009141790C9B069A039887
:101CB00003F09EFF0221049804F033FC002853D067
:101CC0000421049804F02DFC00284DD00321049831
:101CD00004F027FC002847D10521049804F021FCDA
:101CE000002841D10321059804F01BFC00283BD1BA
:101CF0000421059804F015FC002835D1052105982C
:101D000004F00FFC00282FD10621059804F009FCEF
:101D1000002829D10721059804F003FC002823D1CD
:101D20000021059804F0FDFB00281DD10121059834
:101D300004F0F7FB002817D10221059804E0000009
:101D4000320000204600002004F0EBFB00280BD1FD
:101D500060780822F9786B4607C3FE480C9B4179EE
:101D6000069A039803F044FF0221049804F0D9FB7B
:101D7000002850D00521049804F0D3FB00284AD055
:101D80000321049804F0CDFB002844D104210498D9
:101D900004F0C7FB00283ED10321059804F0C1FBE5
:101DA000002838D10421059804F0BBFB002832D16B
:101DB0000521059804F0B5FB00282CD106210598D3
:101DC00004F0AFFB002826D10721059804F0A9FBF9
:101DD000002820D10021059804F0A3FB00281AD187
:101DE0000121059804F09DFB002814D102210598DB
:101DF00004F097FB00280ED16178E278032089185F
:101E00000290C9B20195D348009141790C9B069A82
:101E1000039803F0EDFE0321049804F082FB0028F0
:101E20004DD00421049804F07CFB002847D0022107
:101E3000049804F076FB002841D10521049804F0B1
:101E400070FB00283BD10321059804F06AFB0028B1
:101E500035D10421059804F064FB00282FD1052119
:101E6000059804F05EFB002829D10621059804F0AE
:101E700058FB002823D10721059804F052FB0028C5
:101E80001DD10021059804F04CFB002817D1012139
:101E9000059804F046FB002811D10221059804F0B2
:101EA00040FB00280BD1A0780822F9786B4607C3C5
:101EB000A8480C9B4179069A039803F099FE0321E8
:101EC000049804F02EFB002850D00521049804F05B
:101ED00028FB00284AD00221049804F022FB0028A5
:101EE00044D10421049804F01CFB00283ED10321B6
:101EF000059804F016FB002838D10421059804F059
:101F000010FB002832D10521059804F00AFB0028B7
:101F10002CD10621059804F004FB002826D10721C6
:101F2000059804F0FEFA002820D10021059804F05D
:101F3000F8FA00281AD10121059804F0F2FA0028D5
:101F400014D10221059804F0ECFA00280ED1A178F2
:101F5000E278032089180290C9B201957D4800916A
:101F600041790C9B069A039803F042FE04210498E1
:101F700004F0D7FA00284DD00521049804F0D1FAD6
:101F8000002847D00221049804F0CBFA002841D160
:101F90000321049804F0C5FA00283BD103210598D9
:101FA00004F0BFFA002835D10421059804F0B9FAED
:101FB00000282FD10521059804F0B3FA002829D173
:101FC0000621059804F0ADFA002823D107210598D1
:101FD00004F0A7FA00281DD10021059804F0A1FA09
:101FE000002817D10121059804F09BFA002811D18F
:101FF0000221059804F095FA00280BD1E078082218
:10200000F9786B4607C353480C9B4179069A0398AD
:1020100003F0EEFD0221049804F083FA002851D069
:102020000321049804F07DFA00284BD00421049881
:1020300004F077FA002845D00521049804F071FADD
:1020400000283FD10321059804F06BFA002839D10C
:102050000421059804F065FA002833D1052105987C
:1020600004F05FFA00282DD10621059804F059FAF2
:10207000002827D10721059804F053FA002821D120
:102080000021059804F04DFA00281BD10121059884
:1020900004F047FA002815D10221059804F041FA0E
:1020A00000280FD16278A378F878D2180821D2B22C
:1020B00001900092029127480C9B4179069A03985F
:1020C00003F096FD0221049804F02BFA002855D065
:1020D0000321049804F025FA00284FD00421049825
:1020E00004F01FFA002849D10521049804F019FAD8
:1020F000002843D00321059804F013FA00283DD1AD
:102100000421059804F00DFA002837D1052105981F
:1021100004F007FA002831D10621059804F001FAED
:1021200000282BD10721059804F0FBF9002825D1C0
:102130000021059804F0F5F900281FD10121059828
:1021400004F0EFF9002819D10221059804F0E9F90B
:10215000002801E04600002010D16178A278032019
:102160008918E27802908918C9B20195F94800915E
:1021700041790C9B069A039803F03AFD02210498DA
:1021800004F0CFF9002851D00321049804F0C9F9D4
:1021900000284BD10421049804F0C3F9002845D04D
:1021A0000521049804F0BDF900283FD003210598CB
:1021B00004F0B7F9002839D10421059804F0B1F9E9
:1021C000002833D10521059804F0ABF900282DD162
:1021D0000621059804F0A5F9002827D107210598C4
:1021E00004F09FF9002821D10021059804F099F905
:1021F00000281BD10121059804F093F9002815D17E
:102200000221059804F08DF900280FD16278E37857
:10221000F978D2180820D2B2029000920191CD48EC
:102220000C9B4179069A039803F0E2FC0221049882
:1022300004F077F9002851D10321049804F071F9D2
:1022400000284BD00421049804F06BF9002845D0F5
:102250000521049804F065F900283FD00321059872
:1022600004F05FF9002839D10421059804F059F9E8
:10227000002833D10521059804F053F900282DD109
:102280000621059804F04DF9002827D1072105986B
:1022900004F047F9002821D10021059804F041F904
:1022A00000281BD10121059804F03BF9002815D125
:1022B0000221059804F035F900280FD1A278E378BF
:1022C000F978D2180820D2B2029000920191A14868
:1022D0000C9B4179069A039803F08AFC022104982A
:1022E00004F01FF9002853D00321049804F019F9D1
:1022F00000284DD00421049804F013F9002847D099
:102300000521049804F00DF9002841D00321059817
:1023100004F007F900283BD10421059804F001F9E5
:10232000002835D10521059804F0FBF800282FD1AD
:102330000621059804F0F5F8002829D10721059811
:1023400004F0EFF8002823D10021059804F0E9F803
:1023500000281DD10121059804F0E3F8002817D1C9
:102360000221059804F0DDF8002811D16278A378E5
:10237000F978D218E3780820D218D2B202900092ED
:10238000019174480C9B4179069A039803F030FC44
:102390000021059804F0C5F800280BD1012105980B
:1023A00004F0BFF8002805D10221059804F0B9F81F
:1023B00000282DD00721059804F0B3F8002827D174
:1023C0006548008800280ED0002E0ED10120029012
:1023D0000195014600950C9B069A039803F008FCB2
:1023E0005D48058014E0002E07D001200195029081
:1023F000009501460C9B069A07E07978012001952B
:10240000029000910C9B069A0021039803F0F0FBC8
:102410000321059804F085F8002856D0042105987A
:1024200004F07FF8002850D10521059804F079F8D0
:1024300000284AD10621059804F073F8002844D1F9
:102440000721059804F06DF800283ED10021059879
:1024500004F067F8002838D10121059804F061F8EC
:10246000002832D10221059804F05BF800282CD115
:102470003948008800280FD0002E0FD16078032142
:1024800002910195009001210C9B069A039803F09C
:10249000AFFB3148058018E0002E08D0617803209A
:1024A00001950091029001210C9B069A0AE0217887
:1024B000627803208918C9B20195029000910C9BA3
:1024C000069A0021039803F093FB0421059804F079
:1024D00028F800285BD00321059804F022F8002892
:1024E00055D10521059804F01CF800284FD106218C
:1024F000059804F016F8002849D10721059804F042
:1025000010F8002843D10021059804F00AF80028AB
:102510003DD10121059804F004F8002837D10221AB
:10252000059803F0FEFF002831D10B4800880028F1
:1025300014D0002E14D1A1780320029001950091AF
:1025400001210C9B069A039803F052FB0248058078
:102550001DE00000460000203E000020002E08D0B4
:10256000A178032001950091029001210C9B069A0D
:102570000AE02178A27803208918C9B20195029057
:1025800000910C9B069A0021039803F031FB052172
:10259000059803F0C6FF002853D00321059803F0E7
:1025A000C0FF00284DD10421059803F0BAFF002890
:1025B00047D10621059803F0B4FF002841D1072137
:1025C000059803F0AEFF00283BD10021059803F0E9
:1025D000A8FF002835D10121059803F0A2FF0028AB
:1025E0002FD10221059803F09CFF002829D1F9483A
:1025F000008800280FD0002E0FD1F9780820019113
:102600000290009501210C9B069A039803F0F0FAC2
:10261000F048058015E0002E08D0F87808210291D6
:102620000190009501210C9B069A07E02078082272
:10263000F9786B4607C30C9B069A0021039803F0B8
:10264000D7FA0621059803F06CFF002856D0032125
:10265000059803F066FF002850D10421059803F087
:1026600060FF00284AD10521059803F05AFF002891
:1026700044D10721059803F054FF00283ED10021E2
:10268000059803F04EFF002838D10121059803F08A
:1026900048FF002832D10221059803F042FF0028AC
:1026A0002CD1CC48008800280FD0002E0FD1E17823
:1026B000032002900195009101210C9B069A03983A
:1026C00003F096FAC348058018E0002E08D0E178A0
:1026D000032001950091029001210C9B069A0AE0CB
:1026E0002178E27803208918C9B2019502900091FF
:1026F0000C9B069A0021039803F07AFA03210598AF
:1027000003F00FFF00285ED00421059803F009FFB5
:10271000002858D00521059803F003FF002852D166
:102720000621059803F0FDFE00284CD107210598ED
:1027300003F0F7FE002846D10021059803F0F1FED2
:10274000002840D10121059803F0EBFE00283AD182
:102750000221059803F0E5FE002834D19D48008849
:10276000002812D0002E12D16178A2780320891897
:10277000C9B202900195009101210C9B069A039821
:1027800003F036FA934805801DE0002E0BD06178E7
:10279000A27803208918C9B2019500910290012105
:1027A0000C9B069A0CE02178627803208918A278A5
:1027B00001958918C9B2029000910C9B069A0021DC
:1027C000039803F015FA0321059803F0AAFE0028E8
:1027D00057D00521059803F0A4FE002851D004210C
:1027E000059803F09EFE00284BD10621059803F0C2
:1027F00098FE002845D10721059803F092FE002895
:102800003FD10021059803F08CFE002839D1012129
:10281000059803F086FE002833D10221059803F0C5
:1028200080FE00282DD16B48008800280FD0002E94
:102830000FD160780822F9786B4607C301210C9B01
:10284000069A039803F0D4F96248058019E0002E37
:1028500008D060780822F9786B4607C301210C9BE9
:10286000069A0BE022786378F978D2180820D2B261
:102870000092019102900C9B069A0021039803F0AC
:10288000B7F90321059803F04CFE00285ED006211D
:10289000059803F046FE002858D00421059803F05F
:1028A00040FE002852D10521059803F03AFE002889
:1028B0004CD10721059803F034FE002846D10021B1
:1028C000059803F02EFE002840D10121059803F061
:1028D00028FE00283AD10221059803F022FE0028A4
:1028E00034D13C480088002812D0002E12D16178E3
:1028F000E27803208918C9B2029001950091012164
:102900000C9B069A039803F073F9324805801DE08A
:10291000002E0BD06178E27803208918C9B20195A6
:102920000091029001210C9B069A0CE021786278BC
:1029300003208918E27801958918C9B202900091A4
:102940000C9B069A0021039803F052F90421059884
:1029500003F0E7FD002859D00521059803F0E1FDBB
:10296000002853D00321059803F0DBFD00284DD14A
:102970000621059803F0D5FD002847D107210598C9
:1029800003F0CFFD002841D10021059803F0C9FDD7
:1029900000283BD10121059803F0C3FD002835D163
:1029A0000221059803F0BDFD00282FD109480088B9
:1029B000002811D0002E11D1A0780822F9786B469A
:1029C00007C301210C9B069A039803F011F90148F3
:1029D00005801BE03E000020002E08D0A0780822D1
:1029E000F9786B4607C301210C9B069A0BE022780D
:1029F000A378F978D2180820D2B2009201910290FF
:102A00000C9B069A0021039803F0F2F80521059823
:102A100003F087FD002857D00621059803F081FDBB
:102A2000002851D00321059803F07BFD00284BD1ED
:102A30000421059803F075FD002845D1072105986C
:102A400003F06FFD00283FD10021059803F069FDD8
:102A5000002839D10121059803F063FD002833D106
:102A60000221059803F05DFD00282DD1FE48008865
:102A700000280FD0002E0FD1E0780822F9786B469D
:102A800007C301210C9B069A039803F0B1F8F6489E
:102A9000058019E0002E08D0E0780822F9786B460E
:102AA00007C301210C9B069A0BE02278E378F978A2
:102AB000D2180820D2B20092019102900C9B069A83
:102AC0000021039803F094F80421059803F029FDF0
:102AD00000285ED00621059803F023FD002858D079
:102AE0000521059803F01DFD002852D10521059808
:102AF00003F017FD00284CD10721059803F011FDC4
:102B0000002846D10021059803F00BFD002840D194
:102B10000121059803F005FD00283AD1022105980E
:102B200003F0FFFC002834D1CF480088002812D0E1
:102B3000002E12D1A178E27803208918C9B2029040
:102B40000195009101210C9B069A039803F050F81F
:102B5000C54805801DE0002E0BD0A178E278032047
:102B60008918C9B201950091029001210C9B069A27
:102B70000CE02178A27803208918E2780195891861
:102B8000C9B2029000910C9B069A0021039803F0B1
:102B90002FF80321059803F0C4FC002864D0042119
:102BA000059803F0BEFC00285ED00621059803F0CE
:102BB000B8FC002858D00521059803F0B2FC002885
:102BC00052D10721059803F0ACFC00284CD100211C
:102BD000059803F0A6FC002846D10121059803F0D2
:102BE000A0FC002840D10221059803F09AFC00289F
:102BF0003AD19D480088002814D0002E14D1617865
:102C0000A27803208918E27802908918C9B2019548
:102C1000009101210C9B069A039802F0E9FF92486B
:102C2000058021E0002E0DD06178A278032089185C
:102C3000E27801958918C9B20091029001210C9B9C
:102C4000069A0EE021786278E3788918A27803204A
:102C5000D2188918C9B20195029000910C9B069A6E
:102C60000021039802F0C4FF0321059803F059FCEA
:102C7000002861D00421059803F053FC00285BD0A4
:102C80000521059803F04DFC002855D00621059834
:102C900003F047FC00284FD10721059803F041FCC1
:102CA000002849D10021059803F03BFC002843D1BE
:102CB0000121059803F035FC00283DD1022105983B
:102CC00003F02FFC002837D167480088002813D074
:102CD000002E13D16278A378F878D2180821D2B2E6
:102CE00002910190009201210C9B069A039802F038
:102CF0007FFF5D4805801FE0002E0CD06278A3782E
:102D0000F978D2180820D2B20191009202900121E4
:102D10000C9B069A0DE022786378F978D218A37894
:102D20000820D218D2B20092019102900C9B069A10
:102D30000021039802F05CFF0321059803F0F1FBEA
:102D4000002861D00521059803F0EBFB00285BD03B
:102D50000621059803F0E5FB002855D004210598CD
:102D600003F0DFFB00284FD10721059803F0D9FBC2
:102D7000002849D10021059803F0D3FB002843D156
:102D80000121059803F0CDFB00283DD102210598D3
:102D900003F0C7FB002837D133480088002813D040
:102DA000002E13D16278E378F978D2180820D2B2D5
:102DB00001910290009201210C9B069A039802F067
:102DC00017FF294805801FE0002E0CD06278E378B9
:102DD000F978D2180820D2B2019100920290012114
:102DE0000C9B069A0DE022786378F978D218E37884
:102DF0000820D218D2B20092019102900C9B069A40
:102E00000021039802F0F4FE0421059803F089FBE9
:102E1000002864D00521059803F083FB00285ED0CC
:102E20000621059803F07DFB002858D00321059862
:102E300003F077FB002852D10721059803F071FBBE
:102E400000284CD10021059803F06BFB002846D1E7
:102E50000121059803F065FB002840D10221059867
:102E600003F05FFB002801E03E00002037D1BF489F
:102E70000088002813D0002E13D1A278E378F978C7
:102E8000D2180820D2B201910290009201210C9B2D
:102E9000069A039802F0ACFEB44805801FE0002EAD
:102EA0000CD0A278E378F978D2180820D2B2019138
:102EB0000092029001210C9B069A0DE02278A378E3
:102EC000F978D218E3780820D218D2B20092019192
:102ED00002900C9B069A0021039802F089FE0321C0
:102EE000059803F01EFB002867D00421059803F025
:102EF00018FB002861D00521059803F012FB00287B
:102F00005BD00621059803F00CFB002855D0072163
:102F1000059803F006FB00284FD10021059803F027
:102F200000FB002849D10121059803F0FAFA002896
:102F300043D10221059803F0F4FA00283DD18B48D3
:102F40000088002815D0002E15D16278A378F97872
:102F5000D218E3780820D218D2B2019102900092E0
:102F600001210C9B069A039802F042FE7F480580DF
:102F700023E0002E0ED06278A378F978D218E37897
:102F80000820D218D2B201910092029001210C9B2C
:102F9000069A0FE022786378F878D218A378E4785C
:102FA00008211B19D218D2B20092029101900C9BF9
:102FB000069A0021039802F01BFE0721059803F0F2
:102FC000B0FA002838D00021059803F0AAFA0028AA
:102FD00032D10121059803F0A4FA00282CD1022156
:102FE000059803F09EFA002826D1604C208800281E
:102FF0000DD0002E0DD101200290019501460095C3
:103000000C9B069A039802F0F3FD258014E0002E35
:1030100007D0012001950290009501460C9B069A6D
:1030200007E0397801200195029000910C9B069AE7
:103030000021039802F0DCFD0721059803F071FAE6
:1030400000283BD00021059803F06BFA00280BD133
:103050000121059803F065FA002805D102210598A1
:1030600003F05FFA002829D0404C208800280DD0BA
:10307000002E0DD1012002900195014600950C9B78
:10308000069A039802F0B4FD258017E0002E07D0C1
:10309000012001950290009501460C9B069A0AE0DA
:1030A00039787A7801208918C9B201950290009187
:1030B0000C9B069A0021039802F09AFD02210498C5
:1030C00003F02FFA00284FD10321049803F029FAC6
:1030D000002849D10421049803F023FA002843D1A1
:1030E0000521049803F01DFA00283DD1032105981D
:1030F00003F017FA002837D10421059803F011FADC
:10310000002831D10521059803F00BFA00282BD1B6
:103110000621059803F005FA002825D10721059816
:1031200003F0FFF900281FD10021059803F0F9F9F9
:10313000002819D10121059803F0F3F9002813D1D3
:103140000221059803F0EDF900280DD101950295B3
:103150000C9B069A002E009501D0012101E0044845
:103160004179039802F044FD07B0F0BD3E00002015
:1031700046000020FFB5AC4883B00188012500243B
:103180000C9F002903D0A9494D71048001E0A74894
:1031900044710021049803F0C4F9A54E00281DD104
:1031A0000121049803F0BDF9002817D102210498E9
:1031B00003F0B7F9002811D10321049803F0B1F905
:1031C00000280BD10921049803F0ABF9002805D1A0
:1031D0000A21049803F0A5F9002833D006210498A9
:1031E00003F09FF900282DD10721049803F099F9E5
:1031F000002827D1308800280CD0002F0CD1009453
:10320000019402950121069B059A039802F0A8FEFD
:10321000348017E0002F06D000940194029501211C
:10322000069B059A0BE0814880491D3018310078D3
:10323000497800910190069B059A02950021039818
:1032400002F08EFE0621049803F06BF9002805D1E8
:103250000721049803F065F900284BD00021049859
:1032600003F05FF9002845D10121049803F059F9D2
:1032700000283FD10221049803F053F9002839D1E6
:103280000321049803F04DF9002833D10921049853
:1032900003F047F900282DD10A21049803F041F9E1
:1032A000002827D1308800280CD0002F0CD10094A2
:1032B000019402950121069B059A039802F050FEA5
:1032C000348017E0002F06D000940194029501216C
:1032D000069B059A0BE0554854491D30183100787B
:1032E000097800910190069B059A029500210398A8
:1032F00002F036FE0621049803F013F9002805D1E8
:103300000721049803F00DF900284CD000210498FF
:1033100003F007F900281DD10121049803F001F9F9
:10332000002817D10221049803F0FBF8002811D1DE
:103330000321049803F0F5F800280BD10921049823
:1033400003F0EFF8002805D10A21049803F0E9F80A
:10335000002828D0308800280CD0002F0CD10094F1
:10336000019402950121069B059A039802F0F8FD4D
:10337000348018E0002F06D00094019402950121BA
:10338000069B059A0CE029481D300178401F027801
:1033900040781018C0B26A4623C2069B059A0021E5
:1033A000039802F0DDFD0021049803F0BAF800282C
:1033B00037D10121049803F0B4F8002831D102215B
:1033C000049803F0AEF800282BD10321049803F0F1
:1033D000A8F8002825D10621049803F0A2F80028B7
:1033E0001FD10721049803F09CF8002819D1092166
:1033F000049803F096F8002813D10A21049803F0EA
:1034000090F800280DD100940194069B059A002F96
:10341000029401D0012101E004484179039802F0AF
:103420009FFD07B0F0BD00003200002046000020E4
:103430003E000020FFB5C44883B001880125002468
:103440000C9F002903D0C1494D71048001E0BF48A1
:1034500044710021049803F064F8BD4E002817D190
:103460000121049803F05DF8002811D1022104988D
:1034700003F057F800280BD10321049803F051F80A
:10348000002805D10521049803F04BF8002845D009
:103490000721049803F045F800283FD1092104983A
:1034A00003F03FF8002839D10A21049803F039F8D5
:1034B000002833D10B21049803F033F800282DD1D4
:1034C0000D21049803F02DF8002827D1308800281A
:1034D0000CD0002F0CD10094019402950121069B81
:1034E000059A039802F03CFD348017E0002F06D0C7
:1034F0000094019402950121069B059A0BE09348E4
:1035000092491D3018310078497800910190069B4E
:10351000059A02950021039802F022FD07210498E4
:1035200002F0FFFF002817D10921049802F0F9FFEB
:10353000002811D10A21049802F0F3FF00280BD1D2
:103540000B21049802F0EDFF002805D10D2104980D
:1035500002F0E7FF002845D00021049802F0E1FFC7
:1035600000283FD10121049802F0DBFF002839D167
:103570000221049802F0D5FF002833D103210498DA
:1035800002F0CFFF00282DD10521049802F0C9FFD9
:10359000002827D1308800280CD0002F0CD10094AF
:1035A000019402950121069B059A039802F0D8FC2C
:1035B000348017E0002F06D0009401940295012179
:1035C000069B059A0BE0614860491D301831007870
:1035D000097800910190069B059A029500210398B5
:1035E00002F0BEFC0021049802F09BFF002817D1D6
:1035F0000121049802F095FF002811D102210498BE
:1036000002F08FFF00280BD10321049802F089FFFC
:10361000002805D10521049802F083FF002846D038
:103620000721049802F07DFF002817D10921049892
:1036300002F077FF002811D10A21049802F071FFEF
:1036400000280BD10B21049802F06BFF002805D154
:103650000D21049802F065FF002828D0308800284A
:103660000CD0002F0CD10094019402950121069BEF
:10367000059A039802F074FC348018E0002F06D0FD
:103680000094019402950121069B059A0CE02F48B5
:103690001D300178401F027840781018C0B26A4689
:1036A00023C2069B059A0021039802F059FC0021D1
:1036B000049802F036FF002843D10121049802F05B
:1036C00030FF00283DD10221049802F02AFF002893
:1036D00037D10321049802F024FF002831D10521BD
:1036E000049802F01EFF00282BD10721049802F055
:1036F00018FF002825D10921049802F012FF0028A4
:103700001FD10A21049802F00CFF002819D10B21C7
:10371000049802F006FF002813D10D21049802F04E
:1037200000FF00280DD100940194069B059A002FFC
:10373000029401D0012101E004484179039802F08C
:103740000FFC07B0F0BD0000320000204600002052
:103750003E000020FEB50F4604467D211646C900F6
:103760001846089DFCF7C6FC0A21FCF7C3FC5F2C39
:1037700004D3C8B200230195009007E020465C38CE
:10378000032809D2C8B20123019500903246394678
:103790002046FEF7D5F8FEBD20465938032804D24E
:1037A000C8B2022301950090F0E72046553804285E
:1037B00004D2C8B2032301950090E7E720465238AF
:1037C000032804D2C8B2042301950090DEE7204606
:1037D0004F38032804D2C8B2052301950090D5E7DD
:1037E00020464B38042804D2C8B206230195009025
:1037F000CCE720464838032804D2C8B207230195F5
:103800000090C3E720464538032804D2C8B20823F5
:1038100001950090BAE720464238032804D2C8B286
:103820001C2301950090B1E720463E38042804D2BD
:10383000C8B21D2301950090A8E720463B38032815
:1038400004D2C8B20923019500909FE7204638387A
:10385000032804D2C8B20A230195009096E72046B7
:103860003438042804D2C8B20B23019500908DE7A8
:1038700020463138032804D2C8B20C2301950090A9
:1038800084E720462E38032804D2C8B20D230195C0
:1038900000907BE720462A38042804D2C8B20E23C1
:1038A0000195009072E720462738032804D2C8B259
:1038B0000F230195009069E720462438032804D29D
:1038C000C8B210230195009060E7204621380328F4
:1038D00004D2C8B211230195009057E720461D3845
:1038E000042804D2C8B21223019500904EE7204666
:1038F0001A38032804D2C8B213230195009045E773
:1039000020461738032804D2C8B21423019500902A
:103910003CE720461338042804D2C8B21523019589
:10392000009033E720461038032804D2C8B216238B
:10393000019500902AE720460D38032804D2C8B22A
:1039400017230195009021E720460938042804D266
:10395000C8B218230195009018E7A01F032804D2CD
:10396000C8B219230195009010E7E01E032804D285
:10397000C8B21A230195009008E7032C00D30AE788
:10398000C8B21B230195009000E7F8B50E46044627
:103990007D211D46C9001046FCF7ACFB0A21FCF74F
:1039A000A9FB5F2C03D3CBB20022009506E0204692
:1039B0005C38032807D2CBB201220095314620465D
:1039C000FFF7D8FBF8BD20465938032803D2CBB205
:1039D00002220095F2E720465538042803D2CBB2E4
:1039E00003220095EAE720465238032803D2CBB2DF
:1039F00004220095E2E720464F38032803D2CBB2D9
:103A000005220095DAE720464B38042803D2CBB2D2
:103A100006220095D2E720464838032803D2CBB2CD
:103A200007220095CAE720464538032803D2CBB2C7
:103A300008220095C2E720464238032803D2CBB2C1
:103A40001C220095BAE720463E38042803D2CBB2A8
:103A50001D220095B2E720463B38032803D2CBB2A3
:103A600009220095AAE720463838032803D2CBB2B2
:103A70000A220095A2E720463438042803D2CBB2AC
:103A80000B2200959AE720463138032803D2CBB2A7
:103A90000C22009592E720462E38032803D2CBB2A1
:103AA0000D2200958AE720462A38042803D2CBB29B
:103AB0000E22009582E720462738032803D2CBB296
:103AC0000F2200957AE720462438032803D2CBB290
:103AD0001022009572E720462138032803D2CBB28A
:103AE000112200956AE720461D38042803D2CBB284
:103AF0001222009562E720461A38032803D2CBB27F
:103B0000132200955AE720461738032803D2CBB278
:103B10001422009552E720461338042803D2CBB272
:103B2000152200954AE720461038032803D2CBB26D
:103B30001622009542E720460D38032803D2CBB267
:103B4000172200953AE720460938042803D2CBB261
:103B50001822009532E7A01F032803D2CBB2192206
:103B600000952BE7E01E032803D2CBB21A22009562
:103B700024E7032C00D325E7CBB21B2200951DE7D9
:103B8000F8B50E4604467D211D46C9001046FCF7D7
:103B9000B1FA0A21FCF7AEFA5F2C03D3CBB20022B4
:103BA000009506E020465C38032807D2CBB20122FC
:103BB000009531462046FFF73DFCF8BD20465938B8
:103BC000032803D2CBB202220095F2E720465538F3
:103BD000042803D2CBB203220095EAE720465238EC
:103BE000032803D2CBB204220095E2E720464F38E7
:103BF000032803D2CBB205220095DAE720464B38E2
:103C0000042803D2CBB206220095D2E720464838DA
:103C1000032803D2CBB207220095CAE720464538D5
:103C2000032803D2CBB208220095C2E720464238CF
:103C3000032803D2CBB21C220095BAE720463E38B7
:103C4000042803D2CBB21D220095B2E720463B38B0
:103C5000032803D2CBB209220095AAE720463838C0
:103C6000032803D2CBB20A220095A2E720463438BB
:103C7000042803D2CBB20B2200959AE720463138B4
:103C8000032803D2CBB20C22009592E720462E38AF
:103C9000032803D2CBB20D2200958AE720462A38AA
:103CA000042803D2CBB20E22009582E720462738A3
:103CB000032803D2CBB20F2200957AE7204624389E
:103CC000032803D2CBB21022009572E72046213898
:103CD000032803D2CBB2112200956AE720461D3893
:103CE000042803D2CBB21222009562E720461A388C
:103CF000032803D2CBB2132200955AE72046173887
:103D0000032803D2CBB21422009552E72046133881
:103D1000042803D2CBB2152200954AE7204610387A
:103D2000032803D2CBB21622009542E720460D3875
:103D3000032803D2CBB2172200953AE72046093870
:103D4000042803D2CBB21822009532E7A01F032823
:103D500003D2CBB2192200952BE7E01E032803D231
:103D6000CBB21A22009524E7032C00D325E7CBB26F
:103D70001B2200951DE7000070B52448244C0078F4
:103D800000280FD02348417C027C0902114349BA24
:103D9000E180C17C827C0802104340BA2081FDF79B
:103DA0005FFB70BD1C480078002819D01B4D687857
:103DB00029780002084340BA6421FCF79BF960812E
:103DC000E878A9780002084340BAA0812846017F1C
:103DD000C27E0802104340BAE081FDF7E5FB70BDEA
:103DE0000F4800780028FAD00E4D0A2128886082FA
:103DF000E88DFCF77FF96081A88E01210904081A7B
:103E00002082E888E081FDF773FC70BD1A00002075
:103E1000460000200E0200201B0000202902002086
:103E20001C0000205202002072B6FEE710B50248C6
:103E300000F074FA10BD0000440E0020F0B5002818
:103E400008D0014620314A79022A05D00422C263F3
:103E5000002008710120F0BD026813680E24A343FE
:103E60001360426C1468FF2301339C4314600268A2
:103E700014686408640014600C4A5568066C1C24BD
:103E8000264001242746B7403D435560826CC56CEF
:103E90005560026D002A05D015689D431560826D3E
:103EA000406D42604C7100200871F0BD000002407E
:103EB000F8B50024024620325179022903D00421AA
:103EC000C16301242DE001680B680E25AB430B6034
:103ED00001680B685B085B000B60416C0B68FF2599
:103EE0000135AB430B6010494D68066C1C231E4026
:103EF00001231F46B7403D434D60816CC56C4D604A
:103F0000016D002906D00E681D02AE430E60416DA2
:103F1000856D4D60537100211171816B002900D0B6
:103F200088472046F8BD000000000240C06B704783
:103F3000F0B42C490C6802681368056C1C273D40DE
:103F40000426AE40264211D05E070FD513689B06AB
:103F500003D4146804239C4314604B68046C04224B
:103F60003C40A24013434B60016B1CE00227AF4072
:103F7000064627402036002F19D09F0717D5136813
:103F80009B0605D413680A24A343136001227271AF
:103F90004B68046C1C2214400222A24013434B6065
:103FA00000213171C16A00291AD0F0BC08470827E6
:103FB000AF40274214D01B0712D513680E24A34329
:103FC00013604B68046C1C22144001221546A54066
:103FD0002B434B60C263727100213171416BE2E788
:103FE000F0BC70470000024070B504003FD0254887
:103FF000256814212818FCF77DF880002064022031
:1040000026462036707128681F4908402860E168FC
:10401000A06862690843216911430843A169084304
:10402000E1690843216A084321680A68104308606F
:104030002046FDF7C5F90121A068890300258842C3
:1040400000D165602079616C8006800E0860A06CEC
:10405000E16C41606068401E03280AD82046FDF7E5
:10406000C7F9206D0560606DA16D416004E001201D
:1040700070BD25656565A565E563012070713571C5
:10408000002070BDF8FFFDBF0F80FFFFF8B50446AC
:104090008C4620300179002501290BD001260671BC
:1040A00041790027012907D08021E16307710125AB
:1040B0002846F8BD0220F8BD02214171E76320685F
:1040C000016849084900016061462046FDF7A4F9EE
:1040D000206B00282068016801D00E2205E0042230
:1040E00091430160206801680A2211430160606CFD
:1040F0000168CA03074902D502680A430260206DBD
:10410000002802D002680A43026020680168314337
:104110000160CDE70001000070B5044600F0C2F870
:104120000546601C02D004480078241800F0BAF854
:10413000401BA042FAD370BD00000020F0B5002360
:1041400003249AE02A4601259D402A407ED00E791C
:10415000B607B60F012E01D0022E16D1866827466B
:10416000B4465E00B646B7406646BE43B446CF6826
:104170007646B7406646374387604668AE430D795A
:10418000ED06ED0F9D40354345600D79ED43AD07DC
:1041900008D0C5685F002646BE40B5438E68BE4065
:1041A0002E43C6600D79AD07AD0F022D0ED1DD088F
:1041B000AD002D18AC462D6A5E07F60E0F27B740EE
:1041C000BD430F69B7402F4365462F6205685F0006
:1041D0002646BE40B5430E79B607B60FBE402E4305
:1041E00006604D68AD03AD0F46D09E08264DB60063
:1041F0007519AC462D6E9E07F60E0F27B740BD43CE
:1042000005273F07B84201D100270FE01F4FB842F2
:1042100001D101270AE01E4FB84201D1022705E073
:104220001C4FB84201D1032700E00527B7402F43B8
:10423000154D664637662D684E689543F60200D5E3
:104240001543114F3D607D68954300E014E04E68D2
:10425000B60200D515437D600B4D80356E684F6802
:104260009643BF0300D516436E602E684F68964391
:10427000FF0300D516432E605B1C0A681546DA4022
:1042800000D05FE7F0BD00000018024000040050BD
:1042900000080050000C0050002A01D081617047D6
:1042A000816270470148806870470000000000206C
:1042B00070B504000FD021681548086021681548C2
:1042C000086003CC41602068083C21688860FFF7E3
:1042D000E9FF05460CE0012070BDFFF7E3FF401B3E
:1042E000312805D92068C068400701D0032070BD7F
:1042F0002068C0684007F0D120680269E1688A42FE
:1043000001D0016101E004490160002070BD00009E
:10431000CCCC000055550000AAAA00000068024954
:104320000160002070470000AAAA000002488168CE
:1043300002788918816070470000002010B5084895
:1043400000240168821511430160032000F00AF87F
:10435000002801D0012401E000F028F8204610BD1B
:104360000020024070B50F4E002431780546002928
:1043700015D07D20C000FBF7BDFE01460A4800684D
:10438000FBF7B8FE00F030FC002808D1042D06D25F
:1043900000222946401E00F02BF8756000E0012441
:1043A000204670BD000000200C00002008B5094820
:1043B0000168012211430160006810400090054827
:1043C0004038C26B01040A43C263C06B08400090CE
:1043D00008BD000040100240002805DBC106C90EE0
:1043E00001208840014908607047000000E100E0BA
:1043F00010B502F087FF10BD10B50F4C21680322E5
:104400005202914301432160C11FFF39FA390ED195
:104410000A480621006848430949FBF76BFE401C27
:1044200002E0002805D0401E61694905F9D400204A
:1044300010BD032010BD0000007000400C000020E3
:1044400040420F00F8B5044600680026664D800320
:1044500058D5654800274038C06BC00009D4624871
:104460004038C26B01040A43C263C06B0840012795
:1044700000905E480168821511430160FFF712FF4A
:10448000009005E0FFF70EFF0099401A022825D89A
:1044900056480068C005F5D5E869032109020840BF
:1044A0000FD0616A81420CD0E86903210902EA69F0
:1044B0008843012109040A43EA61EA698A43EA61FF
:1044C000E861C0070FD0FFF7EDFE009008E0FFF7AE
:1044D000E9FE0099411A4648814201D9032609E0C4
:1044E000E8698007F3D5E869032109028843616A16
:1044F0000843E861002F05D03B484038C26B0104F7
:104500008A43C2632078C00705D068696168800863
:104510008000084368612078C00606D568690321D9
:1045200089028843A168084368612088800506D510
:1045300068690321890488436169084368612088A8
:10454000400506D56869032109058843A169084328
:1045500068612078800606D56869032109038843CD
:10456000E168084368612088400411D56869E16901
:1045700080008008084368610121E069890788425A
:1045800006D119484038C168012212041143C160A4
:104590002068800210D5686901218905226A884354
:1045A00010436861206A884206D10F484038C168CC
:1045B000012212061143C1602088000512D56869E6
:1045C0000321890388432169084368610121206927
:1045D0008903884206D104484038C1680122120488
:1045E0001143C1603046F8BD4010024000700040E9
:1045F00088130000F8B50F46060043D04D4D2868DB
:104600004007400FB84213D22868C008C0003843A2
:104610002860FFF747FE044605E0FFF743FE011B55
:104620004548814261D828684007400FB842F4D11C
:104630003068424C81070DD5400704D5A06807219A
:1046400009030843A060A0680F2109028843B168EC
:104650000843A0603078C00732D0706801280AD0C3
:1046600002280BD000280FD03449403103280ED047
:10467000C969890704E02168890301E0216889018B
:10468000002906DB0120F8BD21684905F8E7096A21
:10469000EFE7A168C908C9000143A160FFF702FE66
:1046A000009006E0FFF7FEFD0099411A2248814282
:1046B0001BD8A068382108407168C9008842F1D130
:1046C00028684007400FB84217D91A480168C9083E
:1046D000C90039430160FFF7E5FD054607E0FFF734
:1046E000E1FD411B1448814201D90320F8BD114866
:1046F00000684007400FB842F1D13078400706D536
:10470000A068072109038843F1680843A06000F00E
:1047100031F8A1683C2289091140094A515CC90657
:10472000C90EC8400749086007480068FFF71AFE2D
:10473000F8BD000000200240881300000010024075
:104740009C7500080C000020040000200648074962
:1047500000688968064A4904490F8900515CC90606
:10476000C90EC840704700000C0000200010024035
:10477000DC75000810B5204CA068204A8006400F68
:1047800016D0A0688006410F501001290FD0A168F3
:104790008906490F022912D0A0688006400F04281C
:1047A00023D0A0688006400F032821D0002010BD30
:1047B000206801218004400F8140104612E0E1682A
:1047C0008B07E1689B0F4906490F491C032B00D05A
:1047D0001046FBF78FFCE1684904490E4843E16845
:1047E000490F491CFBF786FC10BD0120C00310BD1A
:1047F0007D20000210BD0000001002400024F400E3
:10480000F8B504007ED020783827C007ED4D002889
:1048100046D0A868E96838408907890F102802D077
:1048200008280BD001E0032908D0012062680004A9
:1048300082420AD129680143296015E02868800373
:104840002ED560680028DDD02AE0052301211B0455
:1048500089049A422A6802D10A432A60EAE782431D
:104860002A60286888432860606800280CD0FFF719
:1048700019FD064604E0FFF715FD801B642873D878
:1048800028688003F7D50BE0FFF70CFD064604E02F
:10489000FFF708FD801B6428F1D828688003F7D44F
:1048A0002078800769D5A868E96838408A07072119
:1048B000920FC902102802D0002813D001E0022A6A
:1048C00010D0E068002846D0286888432169084352
:1048D00028602868FF21013108432860FFF7E2FCC7
:1048E00006462CE02A68520502D5E268002A89D0E3
:1048F0006A687F231B029A4363691B021A436A603A
:10490000002800E08DE00ED1286888432169084323
:104910002860286801218004400F8140AA48FBF7E5
:10492000E9FBAA490860AA480068FFF71BFD0028B8
:1049300077D122E0FFF7B6FC801B02289FD82868B9
:104940004005F7D568687F2109028843616909023B
:104950000843686011E02968FF2001308143296025
:10496000FFF7A0FC064605E098E0FFF79BFC801BE4
:10497000022884D828684005F7D42078954E00078F
:104980002ED5A8688006400F03280AD0A069002809
:10499000306A16D0012108433062FFF783FC0746D6
:1049A0000BE0306A80071BD5A06900289FD017E074
:1049B000FFF778FCC01B022870D8306A8007F7D553
:1049C0000EE0400840003062FFF76CFC074604E050
:1049D000FFF768FCC01B022860D8306A8007F7D454
:1049E000207840076CD5A86800278006400F04286F
:1049F00018D0E86BC00008D4E96B01200007014320
:104A0000E963E96B01400127009173480168C9051A
:104A100019D40168821511430160FFF743FC00902F
:104A20000DE083E0F06980074AD5A06800287DD0BA
:104A300046E0FFF737FC0099401A02282ED8664856
:104A40000068C005F5D5A168012910D0042005290A
:104A5000F16911D049084900F161F1698143F161BF
:104A6000A068002816D0FFF71DFC00900EE0F0694A
:104A700001210843F061F3E70143F161F7E7FFF734
:104A800011FC0099411A5548814267D8F0698007A6
:104A9000F5D50EE0FFF706FC009007E05EE0FFF7BB
:104AA00001FC0099411A4D48814257D8F0698007AE
:104AB000F5D4002F04D0E86B012109078843E8638F
:104AC000E06900287BD0A9688906490F02294FD0E8
:104AD000012636060228286805D0B0432860FFF773
:104AE000E1FB04463CE0B0432860FFF7DBFB0746F0
:104AF00004E0FFF7D7FBC01B02282FD828688001ED
:104B0000F7D4616A206AA26A0843E16A120211437B
:104B10000843216B0843616B0843E968304A114040
:104B20000843E86028683043286000E045E0E86812
:104B3000012109070843E860FFF7B4FB044604E0DD
:104B4000FFF7B0FB001B022808D828688001F7D5C2
:104B500035E0FFF7A7FB001B022801D90320F8BDB1
:104B600028688001F5D4E8681E490840E86026E01E
:104B70000128F4D0E868226A8107890F91421CD18C
:104B80007021626A0140914217D17F21A26A090215
:104B900001401202914210D11F214904E26A0140F2
:104BA00091420AD107214906226B0140914204D16A
:104BB000400F616B4007884201D00120F8BD002002
:104BC000F8BD0000001002400024F4000C0000209A
:104BD00004000020401002400070004088130000D4
:104BE0008C80C111FCFFFEEE094910B5401E8842C1
:104BF00001D9012010BD074C60610321081F02F09C
:104C000081FB0020A06107202061002010BD000072
:104C1000FFFFFF0000E000E070477047704770B58D
:104C2000040005D025462035687F002802D006E024
:104C3000012070BD00202877204600F016F80220E1
:104C40006877211D206801F07DFD01224034227229
:104C5000AA77EA7722706270A270E27022716271A4
:104C6000A271E2716A77002070BD70470146203161
:104C70004A7F012A01D00120704702224A7700684A
:104C80000B490122884205D09107884202D0094988
:104C9000884207D18168084B1940062905D0DB1FDF
:104CA000994202D001681143016000207047000062
:104CB000002C0140000400400700010001462031A3
:104CC0004A7F012A01D00120704702224A770168F9
:104CD000CB6801221343CB6000680B49884205D0A2
:104CE0009107884202D00949884207D18168084B60
:104CF0001940062905D0DB1F994202D001681143F3
:104D00000160002070470000002C014000040040BA
:104D1000070001007047000070B504460068016993
:104D20000025C9438907002915DBC168C9438907E4
:104D300011D4E91E01610120207720688069800775
:104D4000204602D0FFF7E6FF04E000F0A7F8204677
:104D500000F0A5F8257720680169C943490717D4F1
:104D6000C168C943490713D40421C9430161022022
:104D70002077206880698005800F204602D0FFF7E9
:104D8000C9FF04E000F08AF8204600F088F8257793
:104D900020680169C943090716D4C168C9430907D6
:104DA00012D40821C9430161042020772068C0691A
:104DB0008007204602D0FFF7ADFF04E000F06EF858
:104DC000204600F06CF8257720680169C943C906C0
:104DD00017D4C168C943C90613D41021C94301615E
:104DE000082020772068C0698005800F204602D007
:104DF000FFF790FF04E000F051F8204600F04FF874
:104E0000257720680169C943C90708D1C168C9432A
:104E1000C90704D1891E0161204600F041F82068CD
:104E20000169C943090609D4C168C943090605D403
:104E30008021C94301612046FFF7EFFE2068016928
:104E4000C943C90508D4C168C943090604D4124935
:104E500001612046FFF7E0FE20680169C943490669
:104E600009D4C168C943490605D44021C943016139
:104E7000204600F033F820680169C943890609D447
:104E8000C168C943890605D42021C9430161204670
:104E9000FFF7C4FE70BD0000FFFEFFFF70477047C4
:104EA00001680C4802680C48914201D1006805E095
:104EB000084A4C321268914203D14068002807D05A
:104EC0000047044A98321268914201D18068F5E7A0
:104ED00070470000600D0020E0000020704710B512
:104EE000014680310A78012A15D001220A70242255
:104EF0004A60026813681468640864001460012240
:104F000052079343002242660068036020204860F5
:104F10000A70104610BD022010BD70B504468030E6
:104F20008368202B2FD100290BD0002A09D001251E
:104F3000A3682D03AB4206D12369002B03D1CB0715
:104F400001D0012070BD0378012B1CD00123037018
:104F5000E366204602F0FAF8010003D1E06E012872
:104F600002D00121084670BD206810220262EFF3D2
:104F70001080012383F3108823681C6814431C608D
:104F800080F31088EEE7022070BD000010B50468C1
:104F90001148124B421584420CD1D96019689960AE
:104FA0001C680F498C4200D1891819605A605A68F0
:104FB00019680EE00B4884420DD119625969D96114
:104FC0005C6909498C4200D1084959619A619A6922
:104FD000596901F02BFF10BD00380140380D002049
:104FE000380500200044004038090020380B00201C
:104FF000704770B5044605468034207801281AD0E1
:105000000120207024206060286806680268520829
:10501000520002602868826807235B069A430A43AD
:105020008260284601F0BCFD286806602020606090
:105030000020207070BD022070BD70B5044605468A
:1050400080342078012819D001202070242060604D
:105050002868066802685208520002602868826860
:10506000D200D2080A438260284601F099FD2868E0
:105070000660202060600020207070BD022070BD9E
:1050800070477047F8B50546044680356868AE68D5
:1050900021688A6810271206002A1BDA212819D1F4
:1050A000EFF31080012282F310888A6880239A43EC
:1050B0008A6080F31088A06F002808D0FEF7BEFE3B
:1050C000002804D0A06FFEF731FF202824D020460E
:1050D00001F018FF2168886840061BD5222E19D1DF
:1050E000EFF31080012282F310888A6840239A43EC
:1050F0008A6080F31088E06F002808D0FEF79EFEDB
:10510000002804D0E06FFEF711FF202804D02046CD
:1051100001F0C6FE0020F8BDEF600320F8BD0000DE
:1051200010B5026807480849824202D14A680968F6
:1051300004E00648824203D18A69496901F076FE9B
:1051400010BD000000380140380D00200044004030
:10515000F8B503680446D96918689A68B24D0E46D6
:105160002E4025468035002E75D0B04EB04F1640EB
:10517000074037436ED0CF0706D0C70504D50127B7
:105180001F62EB683B43EB608B0708D5D30706D063
:10519000276802233B62EB6804273B43EB604B0725
:1051A00008D5D30706D0276804233B62EB680227A3
:1051B0003B43EB600B0709D520230340334305D065
:1051C000266808233362EE681E43EE600B0509D59E
:1051D000430107D501232668DB023362EB682026F2
:1051E0003343EB60EB68002B42D089060AD52021BF
:1051F0000840C9050A40104304D0216F002901D09E
:1052000020468847E86821688968490602D4282131
:10521000084232D0204601F043FE216888684006EB
:1052200027D5EFF31080012282F310888B6840228B
:1052300093438B6080F31088E06F002819D07D497C
:105240008163E06FFEF734FE002811D0E06F816BC0
:105250000DE000E017E08E0615D5012720263F0758
:10526000064017403E430ED0216FB1E020468847EC
:10527000F8BD2046FFF754FFF8BD2046FFF750FF6A
:105280000020E860F8BDE66E012E7CD1CE067AD50E
:10529000C60678D510221A6223689868264640060A
:1052A0004036002847DAE16F086840680004000CC7
:1052B000E8D0B78B8742E5D9F0830868006880069C
:1052C00034D4EFF31080012181F31088196817019D
:1052D000B943196080F31088EFF31080012181F346
:1052E000108821688B685B085B008B6080F31088F6
:1052F000EFF31080012181F3108821688B6840272B
:10530000BB438B6080F310882020A8600020E066FB
:10531000EFF31080012181F3108821680B6893431B
:105320000B6080F31088E06FFEF788FDB08BF18B87
:10533000401A81B233E0B08BF18B401A81B2F08B0E
:1053400000289FD000299DD0EFF31080012686F31E
:1053500010881E68FF272137BE431E6080F3108827
:10536000EFF31080012383F3108823689E682F4F8A
:10537000FF433E409E6080F310882020A8600020FC
:10538000E066206700E00EE0EFF31080012383F376
:10539000108823681D6895431D6080F3108820469F
:1053A000FFF7F4FDF8BDCE0208D5560206D5012060
:1053B000000518622046FFF764FEF8BD0E060BD507
:1053C00001278026FF0506403A40164304D0616F4E
:1053D000002900D04AE7F8BD4A0614D5420612D586
:1053E0002046EFF31081012282F310881C684022CE
:1053F00094431C6081F3108820216960002141677B
:1054000000F0BFF8F8BD0A0205D5420003D52046DA
:10541000FFF736FEF8BDC901FCD50028FADA2046B0
:10542000FFF7E6FDF8BD00000F08000001000010C6
:1054300020010004156D000870B5040005D0254654
:1054400080356868002802D006E0012070BD002089
:105450002870204600F026F8242068602068016843
:10546000490849000160204601F06AFD0128EDD09D
:10547000A06A002802D0204601F0B4FB20684168F1
:105480000922D20291434160206881682A22914317
:10549000816020680168012211430160204601F00B
:1054A00007FC70BD704770477047FFB5064604465D
:1054B0008036706883B00D46202860D1002D0CD056
:1054C0000598002809D00120A1680003814207D176
:1054D0002069002804D1E80702D0012007B0F0BD00
:1054E000307801284BD0012030700020F06021205E
:1054F0007060FEF7D7FE0190274640370598B882C6
:105500000598F8820120A1680003814202D1206938
:10551000002804D0029500250020307015E00020FE
:105520000290F9E700228021204601F067FE002862
:1055300018D10298002817D0216800788862029854
:10554000401C0290F88A401EF882F88A019B0028CD
:1055500006980090E6D100224021204601F04EFE40
:10556000002808D00320B9E728882168C005C00DAD
:105570008862AD1CE6E7202070600020AEE70220C4
:10558000ACE7704710B501F017FF0A2001F0FAFEF2
:1055900005242407012210212046FEF77DFE01226A
:1055A00020212046FEF778FE012280212046FEF7CA
:1055B00073FE642001F0E6FE022000F00DF8522098
:1055C00000F00AF8302000F007F80A2000F004F894
:1055D000062000F001F810BD70B5052506462D0720
:1055E000002210212846FEF757FE012001F0CAFED6
:1055F000002280212846FEF74FFE012001F0C2FE66
:10560000012220212846FEF747FE012001F0BAFEC4
:10561000012280212846FEF73FFE012001F0B2FE64
:10562000002280212846FEF737FE012001F0AAFE65
:10563000002220212846FEF72FFE012001F0A2FEC5
:10564000012280212846FEF727FE012001F09AFE64
:10565000002280212846FEF71FFE012001F092FE65
:10566000002220212846FEF717FE012001F08AFEC5
:10567000012280212846FEF70FFE012001F082FE64
:10568000002280212846FEF707FE012001F07AFE65
:10569000002220212846FEF7FFFD012001F072FEC6
:1056A000012280212846FEF7F7FD012001F06AFE65
:1056B0000024002280212846FEF7EEFD012001F0A3
:1056C00061FE3046A040000601D5012200E0002224
:1056D00020212846FEF7E0FD012001F053FE0122C3
:1056E00080212846FEF7D8FD012001F04BFE641C06
:1056F000E4B2082CDDD3012210212846FEF7CCFDB0
:10570000012001F03FFE70BDF8B505240E460746A6
:105710002407002210212046FEF7BEFD012001F0E3
:1057200031FE002280212046FEF7B6FD012001F067
:1057300029FE012220212046FEF7AEFD012001F0C6
:1057400021FE012280212046FEF7A6FD012001F066
:1057500019FE002280212046FEF79EFD012001F067
:1057600011FE002220212046FEF796FD012001F0C7
:1057700009FE012280212046FEF78EFD012001F066
:1057800001FE002280212046FEF786FD012001F067
:10579000F9FD012220212046FEF77EFD012001F0C7
:1057A000F1FD012280212046FEF776FD012001F067
:1057B000E9FD0025002280212046FEF76DFD012035
:1057C00001F0E0FD3846A840000601D5012200E0C6
:1057D000002220212046FEF75FFD012001F0D2FDCE
:1057E000012280212046FEF757FD012001F0CAFD6D
:1057F0006D1CEDB2062DDDD3002507270022802188
:105800002046FEF749FD012001F0BCFD791B304622
:10581000C840C00701D0012200E00022202120461C
:10582000FEF73AFD012001F0ADFD01228021204666
:10583000FEF732FD012001F0A5FD6D1CEDB2082D33
:10584000DCD3012210212046FEF726FD012001F0C5
:1058500099FDF8BDFEE7000010B5094C074AE1606C
:105860002260A16060602046FEF722FD002800D083
:10587000FEE721680348086010BD000000300040CA
:10588000440E0020CCCC000010B50024002120469E
:10589000FFF73AFF641CE4B2782CF7D310BD000088
:1058A000FFB583B0144664210398FAF723FC0A215C
:1058B000FAF720FC0F460A210398FAF71BFC0D4665
:1058C0000A21FAF717FC019522480E46C079214DAE
:1058D00000907D210835C9000398FAF70BFC0A21D6
:1058E000FAF708FC695C0498002C05D0152805D14E
:1058F00000980818C1B201E04128F9D86820FFF7E4
:1059000003FF144C06980A3C0028E85DE1780ED0AD
:105910004018C1B27020FFF7F7FEA85DE17840188B
:10592000C1B20120FFF7F0FE0198295C0DE040189C
:10593000C1B27020FFF7E8FEA95D0120FFF7E4FE89
:105940000198E178285C4018C1B20820FFF7DCFE1E
:1059500007B0F0BD6800002010B5FF210020FFF760
:10596000D3FEFF211020FFF7CFFEFF211820FFF705
:10597000CBFEFF212020FFF7C7FEFF212820FFF7E5
:10598000C3FEFF216820FFF7BFFEFF217020FFF755
:10599000BBFEFF210120FFF7B7FEFF210820FFF724
:1059A000B3FEFF215020FFF7AFFEFF214820FFF795
:1059B000ABFEFF213120FFF7A7FEFF216120FFF79B
:1059C000A3FEFF215A20FFF79FFEFF213920FFF79A
:1059D0009BFEFF214120FFF797FE0248FEF79CFB4C
:1059E00010BD0000B80B000010B500F087F800F003
:1059F0009BF800F075F810BD10B500F09BFD00217C
:105A0000084600F09DFD0021012000F099FDFF20D7
:105A1000F530FEF781FB0121002000F091FD01210E
:105A2000084600F08DFD10BD10B500F001F810BD66
:105A300010B5FEF737FCFF21F531FAF75BFB0029C3
:105A400011D1094800224168072902D8491C416048
:105A500000E042600178322902D2491C017000E066
:105A60000270FEF71FFC10BD1000002010B564206E
:105A7000FEF752FB00F059F8FFF7BEFF00F050F8B8
:105A800000F018F800F02EF801A001F031FC10BD74
:105A9000B3F5CABCBBAFCDEAB3C92A2A2A2A2A2A3F
:105AA0002A2A2A2A2A2A2A2A2A2A2A2A2A2A0A0D93
:105AB0000000000010B5FFF765FDFFF74DFFFFF791
:105AC000E3FE10BD10B5FEF757F910BD10B5FFF796
:105AD000ABFF00F037F8FFF7F5FF00F00BF810BD53
