:020000040800F2
:1000000068120020D5000008F9660008B15B0008FE
:1000100000000000000000000000000000000000E0
:100020000000000000000000000000005769000808
:10003000000000000000000045690008A5690008F4
:10004000E7000008E7000008E7000008E7000008F4
:10005000E7000008E7000008E7000008E7000008E4
:10006000000000000915000819150008F91400081F
:10007000E7000008E7000008E7000008E7000008C4
:10008000E7000008E7000008E7000008256A00080C
:1000900000000000956A0008FD6A0008E7000008FB
:1000A000E7000008E7000008E70000084D770008B7
:1000B0005D770008E7000008000000000000000075
:1000C0000348854600F0A0F800480047D9780008AA
:1000D000681200200448804704480047FEE7FEE716
:1000E000FEE7FEE7FEE7FEE7236A0008C10000081E
:1000F00030B50B46014600202022012409E00D46C0
:10010000D5409D4205D31D469540491B2546954047
:1001100040191546521E002DF1DC30BDF0B51FB45C
:100120000646002082B005464024019100901BE065
:10013000019922460F46304600F054F8049A059B78
:10014000801A994110D310461946224600F03AF819
:10015000361A8F410197224601200021009F00F0AE
:1001600031F838184D4100902046641E0028DFDC2D
:10017000019B00982946324607B0F0BD03460B4369
:100180009B0703D009E008C9121F08C0042AFAD24D
:1001900003E00B780370401C491C521EF9D27047D3
:1001A000D2B201E00270401C491EFBD2704700220F
:1001B000F6E710B513460A4604461946FFF7F0FF66
:1001C000204610BD10B5202A04DB0146203A91409C
:1001D000002010BD914020239C1A0346E3401943A0
:1001E000904010BD10B5202A04DB0846203AD040CC
:1001F000002110BD0B46D340D0402024A21A9140CC
:100200000843194610BD0000064C0125064E05E0C6
:10021000E36807CC2B430C3C98471034B442F7D327
:10022000FFF752FF947C0008B47C00080A4801885C
:100230000A480A0A02704170817B8170C17BC170DB
:10024000017C0171417C4171817C8171C17CC171F2
:10025000017D017270470000360000201E02002060
:100260000149886070470000F000002010B5074C7D
:100270001F20214606F0DEFB21463F2006F012FC3F
:1002800021463F2006F042FC10BD0000E7030000BD
:100290000149486070470000F000002001490860F3
:1002A00070470000F00000200549002803D0012815
:1002B00003D000207047C86800E0086A80B2704729
:1002C000480D002070B50025194C0B462E4600281D
:1002D00002D0012815D028E0E068002825D0E06889
:1002E000904201D9154601E0E06885B2A1682A462E
:1002F0001846FFF743FFE168A068FFF758FFE66084
:1003000013E0206A002810D0206A904201D91546D7
:1003100001E0206A85B2E1692A461846FFF72EFF00
:10032000216AE069FFF743FF2662284670BD00009E
:10033000480D002010B5002805D0012802D108463C
:1003400006F0B4FD10BD084606F0D4FC10BD000058
:10035000F7B57D260025F600164C1746002802D07A
:1003600001280ED024E0144804F0CCFE33463A466F
:100370001148019905F0D9F86268054621680F48CF
:1003800014E0012205201103000703F0C5FF0A480D
:10039000903004F0B7FE084833463A469030019951
:1003A00005F0C3F8A26905466169054806F07CFFBF
:1003B0002846FEBD480D0020B8020020003801404C
:1003C00000440040F8B507460A21FFF791FE0C46AD
:1003D0000A21FFF78DFE26460D4C084625461C3D9A
:1003E000642F08D32078A9784018C1B2502005F0B6
:1003F00091FA207804E0215C502005F08BFAA05D92
:10040000A9784018C1B2482005F084FAF8BD000070
:100410008C000020FFB51546194A81B007461188A7
:100420000020184C0A9E002903D06178491C617095
:10043000108061781F2900D1607001226178049BCF
:10044000029805F0F5FB012261782846049B06F02E
:100450005FF9012E0BD0022E07D0032E05D12B46BB
:1004600039466078029A00F0D7FC05B0F0BD064826
:100470000095817BFAB26078029B00F0CFFAF4E736
:100480003C000020520000201E020020F0B5A14BCD
:10049000A14C85B022881E78049600255B7801283F
:1004A00039D09C4E761D767803969A4E761D367816
:1004B0000096984E0A3636790296102845D0954E09
:1004C0000A36F6780196112853D0924E0A36B6783D
:1004D0001228B44659D08F4E0A367778132865D043
:1004E0001A2870D01B286FD01C286ED01D286DD004
:1004F0001E286CD001296BD002296AD0032969D04B
:10050000042968D0052967D00021312005F002FABE
:1005100000215A2015E07F480A300778012905D0CC
:100520000A387C4E00780A36367864E0002A76D0A5
:100530003946B1E0C1B2ECE7002AF9D1BEE0394654
:10054000E7E705F0E7F905B0F0BD7248714B401DD3
:100550000A3340781B7912E0C1B2CCE005F0DAF939
:100560002580F0E7009971183BE0C1B2D0E0314638
:10057000CEE06848674B401D0A334078DB78181896
:1005800004290BD1002AEDD0E6E76248614B401DFB
:100590000A3340789B781818042902D00529E6D13F
:1005A000E3E7002AD8D1009961441AE05948594B31
:1005B000401D0A3340785B78181804290DD00529AE
:1005C000D3D03946A4E00FE01BE034E04CE065E016
:1005D00076E07FE082E085E093E0002ABCD10098DD
:1005E000391803980818C0E701299FD0494E494897
:1005F0000A3600787678301802295CD003299ED11B
:100600009AE701290CD0434E42480A360078B67862
:100610003018022908D0032909D0614679E748E05B
:10062000002A06D1604649E0002A02D182E7002A6A
:1006300044D0614630E001290BD0364E35480A36A9
:100640000078F6783018022907D0032908D00199DC
:100650005FE7002A06D1019830E0002A02D169E75D
:10066000002A2BD0019917E001290BD0294E2948E7
:100670000A36007836793018022907D0032908D0C5
:10068000029946E7002A06D1029817E0002A02D113
:1006900050E7002A12D002995A205FE71D480A301D
:1006A000C7790129A1D00A381A4E00780A36F6799E
:1006B000A1E7F8183EE7002AB8D039E7C01839E7B3
:1006C000002A05D000215A2005F024F9002112E06B
:1006D00019461EE7002AF5D104991AE7002AF1D13C
:1006E0000498EBE7002A08D000215A2005F012F9FF
:1006F0000848401D4178312030E7039900984018A0
:1007000033E700215A2005F005F90248401D4178E1
:10071000312016E77000002046000020F0B5BD4BE8
:10072000BD4C85B022881E78039600255B78012891
:1007300031D0B84E77783678F6190296B54E0A362B
:1007400036790196102841D0B24E0A36F6780096D6
:10075000112862D0AF4E0A36B6781228B4466FD050
:10076000AC4E0A36777813286BD01A286AD01B282B
:1007700069D01C2868D01D2867D01E2875D0012993
:1007800074D0022973D0032972D000215A2005F0B9
:10079000C1F8002115E09F480A300778012905D0EB
:1007A0000A389C4E00780A363678B6E0002A72D0B5
:1007B000394627E1C1B21BE1002AF9D10FE13946E0
:1007C000E4E7312005F0A6F805B0F0BD012904D01A
:1007D00002290ED0032910D051E0002A07D00021B1
:1007E0005A2005F097F88B480A30017910E0194635
:1007F00007E0002AF3D1039903E0002AEFD1029821
:10080000C1B25A2005F086F882480A30017971E0B9
:10081000312005F07FF82580D6E7012904D0022990
:1008200014D0032916D02AE0002A07D000215A202C
:1008300005F070F877480A30C178E9E719460DE00D
:1008400017E03AE061E06FE087E09FE0002AEDD139
:10085000039903E0002AE9D10298C1B25A2005F0B9
:1008600059F86C480A30C17844E0A8E0B9E0BCE02F
:10087000C5E0012905D0022910D0032912D0314644
:100880009FE7002A08D000215A2005F043F861486C
:100890000A308178BCE79DE0194607E0002AF2D1D2
:1008A000039903E0002AEED10298C1B25A2005F064
:1008B00031F858480A3081781CE0012905D0022916
:1008C0000FD003291CD039467BE7002A07D000212E
:1008D0005A2005F01FF84F480A30417898E719462A
:1008E00002E0002AF3D103995A2005F013F8494891
:1008F0000A3041784748401D00780818C1B260E7C7
:10090000002AE4D10298C1B2EEE7012900D14DE7F7
:10091000404E40480A3600787678301802295BD07D
:10092000032900D04BE747E701290BD0394E39485E
:100930000A360078B6783018022907D0032908D083
:10094000614623E7002A06D1604648E0002A02D12A
:1009500030E7002A43D0614654E001290BD02D4EE8
:100960002C480A360078F6783018022907D0032977
:1009700008D000990AE7002A06D100982FE0002A43
:1009800002D117E7002A2AD000993BE001290BD0B9
:10099000204E20480A36007836793018022907D0D0
:1009A000032908D00199F1E6002A06D1019816E042
:1009B000002A02D1FEE6002A11D0019922E0154852
:1009C0000A30C7790129A2D00A38124E00780A36B7
:1009D000F679A2E7F818EDE6002AB9D0E8E6C018E3
:1009E000E8E6002A0DD1194602E0002A09D1039950
:1009F0005A2004F08FFF0748401D0178E1E6002AE5
:100A000005D000215A2004F085FF002100E702985C
:100A1000D0E600007000002046000020FFB57D25D4
:100A200081B00446ED00294618460A9EFFF760FB98
:100A30000A21FFF75DFB009129463046FFF758FB7E
:100A40000A21FFF755FB0F4600263146039805F0B3
:100A50007AFF00280BD10121039805F074FF0028CC
:100A600005D10221039805F06EFF002834D007213C
:100A7000039805F068FF00282ED101260021039875
:100A800005F061FFE24D002808D02878002803D047
:100A9000372003F0F3F901E005F02FFE0121039860
:100AA00005F051FF002808D02878002803D038200E
:100AB00003F0E4F901E005F020FE0221039805F0BF
:100AC00042FF002808D02878002803D0392003F0FE
:100AD000D5F901E005F011FE0721039805F033FF79
:100AE000002815D00021039805F02DFF00280FD114
:100AF0000121039805F027FF002809D1022103985E
:100B000005F021FF002803D102263A2003F0B6F9B0
:100B10000721039805F017FF002812D00021039841
:100B200005F011FF00280BD10121039805F00BFF00
:100B3000002805D10221039805F005FF002800D008
:100B400003260321039805F0FEFE00281BD0072191
:100B5000039805F0F8FE002815D10021039805F050
:100B6000F2FE00280FD10121039805F0ECFE0028C9
:100B700009D10221039805F0E6FE002803D10426DE
:100B80003B2003F07BF90221029805F0DCFE0028EF
:100B900020D00321039805F0D6FE00281AD10721A2
:100BA000039805F0D0FE002814D10021039805F029
:100BB000CAFE00280ED10121039805F0C4FE0028CA
:100BC00008D10221039805F0BEFE002802D10526B7
:100BD00005F093FD0221029805F0B5FE002820D112
:100BE0000321039805F0AFFE00281AD107210398CE
:100BF00005F0A9FE002814D10021039805F0A3FEFA
:100C000000280ED10121039805F09DFE002808D18F
:100C10000221039805F097FE002802D1002605F076
:100C20006CFD012C77D07B4D022C3DD0032C41D0A4
:100C3000042C48D0052C4CD0062C50D0072C54D076
:100C4000082C58D0092C5CD00A2C65D00B2C69D00C
:100C50000C2C6DD00D2C76D00E2C7AD00F2C6FD0A2
:100C6000102C6ED0112C56D0122C54D0132C52D0E4
:100C7000142C67D0152C72D0162C71D0172C70D074
:100C8000182C6FD0192C6ED01A2C6DD01B2C42D082
:100C90001C2C40D01D2C3ED01E2C3CD031460120B7
:100CA000FFF7F4FB05B0F0BD31462046FFF7EEFB41
:100CB000697804E031462046FFF7E8FBA978412037
:100CC00004F028FEEEE731462046FFF7DFFBE97827
:100CD000F5E731462046FFF7D9FB2979EFE73146A2
:100CE0002046FFF7D3FB6979E9E731462046FFF755
:100CF000CDFBA979E3E731462046FFF7C7FBE97949
:100D0000DDE731462046FFF7C1FB0021412004F01A
:100D100001FE297934E078E031462046FFF7B6FB42
:100D2000E9782DE031462046FFF7B0FBA97827E0AF
:100D300031462046FFF7AAFB697821E003E008E08E
:100D400013E018E01EE031462046FFF79FFB2978AC
:100D500016E031462046FFF799FB697910E01DE067
:100D60002DE039E03EE043E048E031462046FFF721
:100D70008DFBA97904E031462046FFF787FB00216F
:100D800039209DE731462046FFF780FB2148E9796D
:100D90000830C05D0818C1B2102091E731462046E6
:100DA000FFF774FB1B4C10200834E15D04F0B2FD2A
:100DB0000098E979205C0818C1B2682080E73146C4
:100DC0002046FFF763FB134800990830415C682018
:100DD00004F0A0FD297916E031462046FFF756FBC6
:100DE000E97810E031462046FFF750FBA9780AE089
:100DF00031462046FFF74AFB697804E03146204639
:100E0000FFF744FB002161205AE73146204647E7BF
:100E1000310000207A000020FFB57D250446ED005A
:100E200081B01E4629461046FFF762F90A21FFF7F6
:100E30005FF9009129463046FFF75AF90A21FFF77A
:100E400057F90F4600263146029805F07CFD002830
:100E500017D10121029805F076FD002811D1022159
:100E6000029805F070FD00280BD10321029805F0CF
:100E70006AFD002805D10421029805F064FD0028D0
:100E80001ED00621029805F05EFD002818D1082129
:100E9000029805F058FD002812D10A21029805F0A9
:100EA00052FD00280CD10B21029805F04CFD0028C2
:100EB00006D10C21029805F046FD002800D101263C
:100EC0000621029805F03FFD002817D1082102985D
:100ED00005F039FD002811D10A21029805F033FDF3
:100EE00000280BD10B21029805F02DFD002805D11B
:100EF0000C21029805F027FD00281ED00021029841
:100F000005F021FD002818D10121029805F01BFDF4
:100F1000002812D10221029805F015FD00280CD1FD
:100F20000321029805F00FFD002806D10421029844
:100F300005F009FD002800D102260021029805F0E5
:100F400002FD002817D10121029805F0FCFC0028C1
:100F500011D10221029805F0F6FC00280BD10321E3
:100F6000029805F0F0FC002805D10421029805F054
:100F7000EAFC00281ED00621029805F0E4FC0028B7
:100F800017D10821029805F0DEFC002811D10A21B2
:100F9000029805F0D8FC00280BD10B21029805F02F
:100FA000D2FC002805D10C21029805F0CCFC0028C9
:100FB00000D003260021029805F0C5FC002836D198
:100FC0000121029805F0BFFC002830D102210298CF
:100FD00005F0B9FC00282AD10321029805F0B3FCE2
:100FE000002824D10421029805F0ADFC00281ED170
:100FF0000621029805F0A7FC002818D108210298C4
:1010000005F0A1FC002812D10A21029805F09BFCF2
:1010100000280CD10B21029805F095FC002806D180
:101020000C21029805F08FFC002800D10026F3481F
:10103000C18A028B891801297ED9F14901220A70DF
:101040000421C08905F07FFCEE4D002802D02878ED
:1010500001287CD0E9480621C08905F074FC0028ED
:1010600002D02878022874D0E4480821C08905F00D
:101070006AFC002802D0287803286CD0DF480A21B7
:10108000C08905F060FC002802D02878042864D0CC
:10109000DA480B21C08905F056FC002802D02878D8
:1010A00005285CD0D5480121008A05F04CFC0028B9
:1010B00002D02878062854D0D0480221008A05F0B2
:1010C00042FC002802D0287807284CD0CB480321C6
:1010D000008A05F038FC002802D02878082844D07F
:1010E000C6480521008A05F02EFC002802D0287889
:1010F00009283CD0C1480721008A05F024FC0028BB
:1011000002D028780A2834D0BC480821008A05F08B
:101110001AFC002802D028780B282CD0B7480921C7
:10112000008A05F010FC002802D028780C2824D072
:10113000B2480A21008A02E028E008E009E005F050
:1011400002FC00281FD028780D2818D01BE01F2093
:1011500016E0512014E0472012E0532010E049200F
:101160000EE001200CE002200AE00D2008E05420EF
:1011700006E0572004E0032002E0042000E05620AF
:1011800002F07CFEACE005F0B8FAA9E0012903D03A
:101190009B4900200870F6E798480521C08905F0B2
:1011A000D2FB994D002804D02878002801D02020B7
:1011B0008EE092480721C08905F0C5FB002804D0C5
:1011C0002878002801D0522082E08C480921C0896B
:1011D00005F0B9FB002804D02878002801D0482069
:1011E00076E086480A21C08905F0ADFB002804D0CE
:1011F0002878002801D053206AE080480B21C0895C
:1012000005F0A1FB002804D02878002801D049204F
:101210005EE07A480121008A05F095FB002804D0A1
:101220002878002801D0012052E074480221008A69
:1012300005F089FB002804D02878002801D002207E
:1012400046E06E480421008A05F07DFB002804D0AA
:101250002878002801D017203AE068480621008A43
:1012600005F071FB002804D02878002801D0552013
:101270002EE062480721008A05F065FB002804D0B3
:101280002878002801D0572022E05C480821008AF5
:1012900005F059FB002804D02878002801D003204D
:1012A00016E056480921008A05F04DFB002804D0BD
:1012B0002878002801D004200AE050480A21008A3A
:1012C00005F041FB002806D02878002803D05620DE
:1012D00002F0D4FD01E005F010FA49490020087041
:1012E000012C6ED0454D2835022C3DD0032C41D029
:1012F000042C48D0052C4CD0062C50D0072C54D0B0
:10130000082C58D0092C5DD00A2C65D00B2C69D044
:101310000C2C6DD00D2C79D00E2C78D00F2C77D0D2
:10132000102C76D0112C4CD0122C4AD0132C48D033
:10133000142C6FD0152C6ED0162C6DD0172C6CD0B1
:10134000182C6BD0192C6AD01A2C69D01B2C38D0D1
:101350001C2C36D01D2C34D01E2C32D0314601200E
:10136000FFF7DCF905B0F0BD31462046FFF7D6F9AE
:10137000697804E031462046FFF7D0F9A97841208A
:1013800004F0C8FAEEE731462046FFF7C7F9E978DE
:10139000F5E731462046FFF7C1F92979EFE73146F5
:1013A0002046FFF7BBF96979E9E731462046FFF7A8
:1013B000B5F9A979E3E731462046FFF7AFF9E979B6
:1013C000DDE787E031462046FFF7A8F900214120FC
:1013D00004F0A0FA29793BE031462046FFF79EF958
:1013E000E97835E031462046FFF798F9A9782FE0F3
:1013F00031462046FFF792F9697829E05200002033
:1014000032000020300000203100002009E00EE012
:1014100013E018E01EE028E037E042E047E04CE04F
:1014200051E031462046FFF779F9297810E031463E
:101430002046FFF773F969790AE031462046FFF745
:101440006DF9A97904E031462046FFF767F90021DC
:10145000392095E731462046FFF760F91F48E979C2
:10146000C05D0818C1B210208AE731462046FFF758
:1014700055F91A4C1020E15D04F04CFA0098E97916
:10148000205C0818C1B268207AE731462046FFF791
:1014900045F912480099415C682004F03BFA29792B
:1014A00016E031462046FFF739F9E97810E0314679
:1014B0002046FFF733F9A9780AE031462046FFF7C6
:1014C0002DF9697804E031462046FFF727F900211D
:1014D000612055E73146204642E7000082000020A7
:1014E000002104E0C207D20F511889B24008002839
:1014F000F8D108467047000010B5024802F058FDC8
:1015000010BD0000EC04002010B5024802F050FDB0
:1015100010BD00003404002010B5044802F048FD5E
:101520000248B83002F044FD10BD0000D80300208E
:1015300010B50446006C09498008800040186064BA
:10154000207814210838FEF7D3FD04498031A164C6
:10155000C106C90E01208840E06410BD00080240A9
:101560000179084B8906890E8A00D2180265054A5E
:101570004432491E42658A07920F012191408165DC
:1015800070470000FC080240F0B5846CC56C6560D3
:10159000046D002C02D0446D856D65600B4C656850
:1015A000066C1C273E400127B7403D436560046838
:1015B00063608368102B036803D099600068C26081
:1015C000F0BD9A600068C160F0BD000000000240FC
:1015D000F8B54F4C0021A07B05F0B5F900264D4D24
:1015E0000127002826D0A07B012105F0ACF90028B6
:1015F00020D1012105F0B6F9A878002804D104F023
:1016000007FBEE702E71AF70E07BFEF7DBFE002370
:10161000E17B1A46E88804F00BFB0023E17B1A46C5
:10162000288905F075F80096227DA17BE07B2B8947
:1016300002F0A0F9A07B012105F085F900281AD05D
:10164000A07B002105F07FF9002814D1012105F0CD
:1016500089F9E878002804D104F0DAFAAE702E7126
:10166000EF70E07BFEF7AEFE0097207D00232A8915
:10167000E988FEF7CFFEA07B062105F064F900287B
:101680002CD0A07B002105F05EF9002826D1A07B9C
:10169000012105F058F9002820D1012105F062F957
:1016A0002879002804D104F0B3FAEE70AE702F71DF
:1016B000E07BFEF787FE0023E17B1A46184604F024
:1016C000B7FA0023E17B1A46184605F021F8009787
:1016D000227DA17BE07B002302F04CF9A07B062158
:1016E00005F031F9002811D1A07B002105F02BF97C
:1016F00000280BD1A07B012105F025F9002805D198
:1017000004F086FA0021084605F02CF9F8BD000027
:101710001E02002052000020F8B5524C524EA08A02
:101720000025524F032825D1608A322844D93D80B4
:101730000121002005F016F9A078002805D104F059
:1017400067FAE57025710120A070F08EFEF73AFE71
:101750000022F18E0123104604F06AFAF18E012373
:101760000022608904F0D4FFF08E00236289E189B1
:1017700002F01BFAA08A02281BD1608A32281BD9EA
:101780003D800121002005F0EDF8E078002805D12A
:1017900004F03EFAA57025710120E070F08EFEF78E
:1017A00011FE03200090012300226189E089FEF7E9
:1017B00031FEA08A01280AD0E089002807D1208ABA
:1017C000002804D1A08A022801D0032829D1608AE8
:1017D000322826D83888002826D1012020700146DA
:1017E000002005F0BFF82079002805D104F010FA98
:1017F000E570A57001202071F08EFEF7E3FD002258
:10180000F18E0123104604F013FA0022F18E012319
:10181000104604F07DFFF08E00236289E18902F01A
:10182000C4F9388800280ED0A08A00280BD1E0899E
:10183000002808D1208A002805D104F0E9F9002108
:10184000084605F08FF8608A401E312809D8A08A22
:10185000002806D1E089002803D1208A002800D181
:101860003D80F8BD52000020620200204C000020A4
:1018700010B5074C0023611804E0C418E478CC5478
:101880005B1CDBB21446521ED2B2002CF5D110BD47
:101890001E02002010B5074C0023611804E0C41894
:1018A0002479CC545B1CDBB21446521ED2B2002CFD
:1018B000F5D110BD39020020F0B50C4C00234900D1
:1018C00009190CE0C418E5785C000D5325182E7931
:1018D000EF7835023D436DBA5B1C0D53DBB2144605
:1018E000521ED2B2002CEDD1F0BD000062020020E9
:1018F00070B50120FEF7D8FC002804D064221B49F3
:101900000120FEF7DFFC194801240178184D452914
:1019100002D0DD291CD002E0417847290ED0417861
:1019200003290AD18078542807D110496422881AE3
:10193000FEF724FC04F0A0FF2C7170BD0B491222AD
:101940000846A838FEF71AFC04F03EFFAC7070BDE4
:1019500040780328FBD10549322208469638FEF725
:101960000DFC04F04DFFEC7070BD0000BA010020CA
:101970001800002030B5074C0023611804E0CC5C4F
:10198000C5185B1CAC70DBB21446521ED2B2002CE0
:10199000F5D130BD1E020020FFB5FF4883B001889D
:1019A00000250D9E002904D0FC4A012151710580BB
:1019B00001E0FA4845710221049804F0C4FFF74C95
:1019C000233400284FD00321049804F0BCFF0028E2
:1019D00049D10421049804F0B6FF002843D1052121
:1019E000049804F0B0FF00283DD10321059804F0CD
:1019F000AAFF002837D10421059804F0A4FF00288D
:101A000031D10521059804F09EFF00282BD1062135
:101A1000059804F098FF002825D10721059804F0C7
:101A200092FF00281FD10021059804F08CFF0028A8
:101A300019D10121059804F086FF002813D1022155
:101A4000059804F080FF00280DD1617803200290F2
:101A50000195D248009141790C9B069A039804F0B5
:101A6000C1FA04F04AFE0321049804F06CFF002838
:101A70004FD00221049804F066FF002849D10421C8
:101A8000049804F060FF002843D10521049804F075
:101A90005AFF00283DD10321059804F054FF002887
:101AA00037D10421059804F04EFF002831D10521DB
:101AB000059804F048FF00282BD10621059804F072
:101AC00042FF002825D10721059804F03CFF00289B
:101AD0001FD10021059804F036FF002819D10121FB
:101AE000059804F030FF002813D10221059804F076
:101AF0002AFF00280DD1A178032002900195A74864
:101B0000009141790C9B069A039804F06BFA04F05B
:101B1000F4FD0421049804F016FFA04F1E3700289E
:101B20004FD00221049804F00EFF002849D1032170
:101B3000049804F008FF002843D10521049804F01C
:101B400002FF00283DD10321059804F0FCFE002887
:101B500037D10421059804F0F6FE002831D1052183
:101B6000059804F0F0FE00282BD10621059804F01A
:101B7000EAFE002825D10721059804F0E4FE00289C
:101B80001FD10021059804F0DEFE002819D10121A3
:101B9000059804F0D8FE002813D10221059804F01E
:101BA000D2FE00280DD1F878042100900195029111
:101BB0007A480C9B4179069A039804F013FA04F0D2
:101BC0009CFD0521049804F0BEFE00284FD00221A0
:101BD000049804F0B8FE002849D10321049804F0C9
:101BE000B2FE002843D10421049804F0ACFE002882
:101BF0003DD10321059804F0A6FE002837D1042129
:101C0000059804F0A0FE002831D10521059804F0C4
:101C10009AFE00282BD10621059804F094FE002896
:101C200025D10721059804F08EFE00281FD1002140
:101C3000059804F088FE002819D10121059804F0C8
:101C400082FE002813D10221059804F07CFE0028B2
:101C50000DD1E1780320029001955048009141791F
:101C60000C9B069A039804F0BDF904F046FD02218E
:101C7000049804F068FE002852D00321049804F070
:101C800062FE00284CD00421049804F05CFE002879
:101C900046D10521049804F056FE002840D10321C6
:101CA000059804F050FE00283AD10421059804F06C
:101CB0004AFE002834D10521059804F044FE00288E
:101CC0002ED10621059804F03EFE002828D10721D8
:101CD000059804F038FE002822D10021059804F070
:101CE00032FE00281CD10121059804F02CFE0028AA
:101CF00016D10221059804F026FE002810D1617843
:101D0000A278032089180290C9B201952348009156
:101D100041790C9B069A039804F064F904F0EDFCF9
:101D20000221049804F00FFE002854D004210498E6
:101D300004F009FE00284ED00321049804F003FEAD
:101D4000002848D10521049804F0FDFD002842D167
:101D50000321059804F0F7FD00283CD104210598E3
:101D600004F0F1FD002836D10521059804F0EBFDC3
:101D7000002830D10621059804F0E5FD00282AD17D
:101D80000721059804F0DFFD002824D100210598E3
:101D900004F0D9FD002803E03800002052000020A4
:101DA00019D10121059804F0CEFD002813D102219C
:101DB000059804F0C8FD00280DD160780822F97854
:101DC0006B4607C3FE480C9B4179069A039804F0C2
:101DD00009F904F092FC0221049804F0B4FD0028F3
:101DE00052D00521049804F0AEFD00284CD0032108
:101DF000049804F0A8FD002846D10421049804F0BA
:101E0000A2FD002840D10321059804F09CFD002884
:101E10003AD10421059804F096FD002834D105211B
:101E2000059804F090FD00282ED10621059804F0B5
:101E30008AFD002828D10721059804F084FD002898
:101E400022D10021059804F07EFD00281CD101213B
:101E5000059804F078FD002816D10221059804F0B9
:101E600072FD002810D16178E27803208918029071
:101E7000C9B20195D248009141790C9B069A03980A
:101E800004F0B0F804F039FC0321049804F05BFD81
:101E900000284FD00421049804F055FD002849D0B3
:101EA0000221049804F04FFD002843D10521049835
:101EB00004F049FD00283DD10321059804F043FDBD
:101EC000002837D10421059804F03DFD002831D1C8
:101ED0000521059804F037FD00282BD1062105982F
:101EE00004F031FD002825D10721059804F02BFDD1
:101EF00000281FD10021059804F025FD002819D1E4
:101F00000121059804F01FFD002813D10221059836
:101F100004F019FD00280DD1A0780822F9786B464D
:101F200007C3A7480C9B4179069A039804F05AF816
:101F300004F0E3FB0321049804F005FD002852D0CF
:101F40000521049804F0FFFC00284CD002210498DD
:101F500004F0F9FC002846D10421049804F0F3FCB5
:101F6000002840D10321059804F0EDFC00283AD167
:101F70000421059804F0E7FC002834D105210598D8
:101F800004F0E1FC00282ED10621059804F0DBFCCA
:101F9000002828D10721059804F0D5FC002822D17B
:101FA0000021059804F0CFFC00281CD101210598E0
:101FB00004F0C9FC002816D10221059804F0C3FCE6
:101FC000002810D1A178E278032089180290C9B2C4
:101FD00001957B48009141790C9B069A039804F087
:101FE00001F804F08AFB0421049804F0ACFC0028FA
:101FF0004FD00521049804F0A6FC002849D0022106
:10200000049804F0A0FC002843D10321049804F0B4
:102010009AFC00283DD10321059804F094FC002887
:1020200037D10421059804F08EFC002831D1052118
:10203000059804F088FC00282BD10621059804F0AF
:1020400082FC002825D10721059804F07CFC00289B
:102050001FD10021059804F076FC002819D1012138
:10206000059804F070FC002813D10221059804F0B3
:102070006AFC00280DD1E0780822F9786B4607C386
:102080004F480C9B4179069A039803F0ABFF04F08C
:1020900034FB0221049804F056FC002853D003219D
:1020A000049804F050FC00284DD00421049804F05A
:1020B0004AFC002847D00521049804F044FC00287D
:1020C00041D10321059804F03EFC00283BD10421B6
:1020D000059804F038FC002835D10521059804F056
:1020E00032FC00282FD10621059804F02CFC002892
:1020F00029D10721059804F026FC002823D10021CE
:10210000059804F020FC00281DD10121059804F059
:102110001AFC002817D10221059804F014FC0028AD
:1021200011D16278A378F978D2180820D2B202903F
:102130000092019122480C9B4179069A039803F082
:1021400051FF04F0DAFA0221049804F0FCFB0028A5
:1021500057D00321049804F0F6FB002851D0042145
:10216000049804F0F0FB00284BD10521049804F0FA
:10217000EAFB002845D00321059804F0E4FB002881
:102180003FD10421059804F0DEFB002839D1052158
:10219000059804F0D8FB002833D10621059804F0F7
:1021A000D2FB00282DD10721059804F0CCFB002894
:1021B00027D10021059804F0C6FB002821D101E0B9
:1021C000520000200121059804F0BDFB002818D121
:1021D0000221059804F0B7FB002812D16178A2789B
:1021E00003208918E27802908918C9B20195FF4846
:1021F000009141790C9B069A039803F0F3FE04F0DA
:102200007CFA0221049804F09EFB002853D003219D
:10221000049804F098FB00284DD10421049804F0A0
:1022200092FB002847D00521049804F08CFB00287D
:1022300041D00321059804F086FB00283BD10421FE
:10224000059804F080FB002835D10521059804F09D
:102250007AFB00282FD10621059804F074FB002892
:1022600029D10721059804F06EFB002823D1002115
:10227000059804F068FB00281DD10121059804F0A1
:1022800062FB002817D10221059804F05CFB0028AE
:1022900011D16278E378F978D2180820D2B202908E
:1022A00000920191D1480C9B4179069A039803F062
:1022B00099FE04F022FA0221049804F044FB00285D
:1022C00053D10321049804F03EFB00284DD0042193
:1022D000049804F038FB002847D00521049804F046
:1022E00032FB002841D00321059804F02CFB002884
:1022F0003BD10421059804F026FB002835D10521A7
:10230000059804F020FB00282FD10621059804F041
:102310001AFB002829D10721059804F014FB002896
:1023200023D10021059804F00EFB00281DD10121C6
:10233000059804F008FB002817D10221059804F045
:1023400002FB002811D1A278E378F978D21808208E
:10235000D2B2029000920191A4480C9B4179069A56
:10236000039803F03FFE04F0C8F90221049804F03A
:10237000EAFA002855D00321049804F0E4FA002872
:102380004FD00421049804F0DEFA002849D005213A
:10239000049804F0D8FA002843D00321059804F0EB
:1023A000D2FA00283DD10421059804F0CCFA002887
:1023B00037D10521059804F0C6FA002831D106214D
:1023C000059804F0C0FA00282BD10721059804F0E5
:1023D000BAFA002825D10021059804F0B4FA0028A3
:1023E0001FD10121059804F0AEFA002819D102216D
:1023F000059804F0A8FA002813D16278A378F97838
:10240000D218E3780820D218D2B20290009201913B
:1024100076480C9B4179069A039803F0E3FD04F09B
:102420006CF90021059804F08EFA00280BD10121E7
:10243000059804F088FA002805D10221059804F0D7
:1024400082FA002855D00721059804F07CFA00286C
:102450004FD16748008800280ED0002E0ED10120F1
:1024600002900195014600950C9B069A039803F093
:10247000B9FD5F48058014E0002E07D001200195CA
:102480000290009501460C9B069A07E0797801209E
:102490000195029000910C9B069A0021039803F08D
:1024A000A1FD0021059804F04EFA002805D05148FE
:1024B000007800281BD0372016E00121059804F091
:1024C00042FA002805D04B48007800280FD0382069
:1024D0000AE00221059804F036FA002809D04548A0
:1024E0000078002803D0392001F0C8FC01E004F096
:1024F00004F90321059804F026FA002860D004218D
:10250000059804F020FA00285AD10521059804F016
:102510001AFA002854D10621059804F014FA00286C
:102520004ED10721059804F00EFA002848D1002169
:10253000059804F008FA002842D10121059804F01A
:1025400002FA00283CD10221059804F0FCF9002889
:1025500036D12748008800280FD0002E0FD1607890
:10256000032102910195009001210C9B069A03988A
:1025700003F038FD1E48058018E0002E08D0617871
:10258000032001950091029001210C9B069A0AE01C
:102590002178627803208918C9B2019502900091D0
:1025A0000C9B069A0021039803F01CFD114800784B
:1025B000002803D0282001F061FC01E004F09DF820
:1025C0000421059804F0BFF9002868D0032105987C
:1025D00004F0B9F9002862D10521059804F0B3F997
:1025E00000285CD10621059806E00000520000207A
:1025F000460000203100002004F0A5F900284ED14B
:102600000721059804F09FF9002848D1002105987A
:1026100004F099F9002842D10121059804F093F9BA
:1026200000283CD10221059804F08DF9002836D10C
:10263000FE48008800280FD0002E0FD1A17803207B
:1026400002900195009101210C9B069A039803F0DA
:10265000C9FCF648058018E0002E08D0A1780320B8
:1026600001950091029001210C9B069A0AE02178C5
:10267000A27803208918C9B20195029000910C9BA1
:10268000069A0021039803F0ADFCE9480078002881
:1026900003D0292001F0F2FB01E004F02EF805211F
:1026A000059804F050F900285DD00321059804F046
:1026B0004AF9002857D10421059804F044F900286C
:1026C00051D10621059804F03EF900284BD107218D
:1026D000059804F038F9002845D10021059804F048
:1026E00032F900283FD10121059804F02CF9002887
:1026F00039D10221059804F026F9002833D1CB48BE
:10270000008800280FD0002E0FD1F9780820019101
:102710000290009501210C9B069A039803F062FC3D
:10272000C248058015E0002E08D0F87808210291F3
:102730000190009501210C9B069A07E02078082261
:10274000F9786B4607C30C9B069A0021039803F0A7
:1027500049FCB7480078002803D02A2001F08EFBFE
:1027600001E003F0CAFF0621059804F0ECF8002808
:1027700060D00321059804F0E6F800285AD104211E
:10278000059804F0E0F8002854D10521059804F0DC
:10279000DAF800284ED10721059804F0D4F8002873
:1027A00048D10021059804F0CEF8002842D101213B
:1027B000059804F0C8F800283CD10221059804F0DF
:1027C000C2F8002836D19948008800280FD0002E82
:1027D0000FD1E178032002900195009101210C9B1B
:1027E000069A039803F0FEFB9048058018E0002E3F
:1027F00008D0E178032001950091029001210C9B03
:10280000069A0AE02178E27803208918C9B2019576
:10281000029000910C9B069A0021039803F0E2FBC2
:1028200083480078002803D02B2001F027FB01E02B
:1028300003F063FF0321059804F085F8002868D0B1
:102840000421059804F07FF8002862D0052105983E
:1028500004F079F800285CD10621059804F073F89B
:10286000002856D10721059804F06DF8002850D1B2
:102870000021059804F067F800284AD10121059845
:1028800004F061F8002844D10221059804F05BF8B7
:1028900000283ED165480088002812D0002E12D1B1
:1028A0006178A27803208918C9B20290019500913D
:1028B00001210C9B069A039803F094FB5B4805806A
:1028C0001DE0002E0BD06178A27803208918C9B2D0
:1028D00001950091029001210C9B069A0CE0217851
:1028E000627803208918A27801958918C9B20290EC
:1028F00000910C9B069A0021039803F073FB4C484F
:102900000078002803D02C2001F0B8FA01E003F091
:10291000F4FE0321059804F016F8002861D0052183
:10292000059804F010F800285BD00421059804F005
:102930000AF8002855D10621059804F004F800286B
:102940004FD10721059803F0FEFF002849D100214F
:10295000059803F0F8FF002843D10121059803F002
:10296000F2FF00283DD10221059803F0ECFF00287A
:1029700037D12E48008800280FD0002E0FD1607864
:102980000822F9786B4607C301210C9B069A03982D
:1029900003F028FB2548058019E0002E08D0607858
:1029A0000822F9786B4607C301210C9B069A0BE0BD
:1029B00022786378F978D2180820D2B20092019177
:1029C00002900C9B069A0021039803F00BFB184819
:1029D0000078002803D02D2001F050FA01E003F028
:1029E0008CFE0321059803F0AEFF00286DD0062170
:1029F000059803F0A8FF002867D00421059803F08C
:102A0000A2FF002861D10521059803F09CFF002852
:102A10005BD10721059803F096FF002855D10021CE
:102A2000059803F090FF00284FD103E046000020F6
:102A3000310000200121059803F085FF002844D1D2
:102A40000221059803F07FFF00283ED1F848008856
:102A5000002812D0002E12D16178E2780320891864
:102A6000C9B202900195009101210C9B069A03982E
:102A700003F0B8FAEE4805801DE0002E0BD0617817
:102A8000E27803208918C9B20195009102900121D2
:102A90000C9B069A0CE02178627803208918E27872
:102AA00001958918C9B2029000910C9B069A0021E9
:102AB000039803F097FADF480078002803D02E200F
:102AC00001F0DCF901E003F018FE0421059803F0A1
:102AD0003AFF002861D00521059803F034FF002853
:102AE0005BD00321059803F02EFF002855D1062165
:102AF000059803F028FF00284FD10721059803F01F
:102B000022FF002849D10021059803F01CFF00286E
:102B100043D10121059803F016FF00283DD1022181
:102B2000059803F010FF002837D1C148008800281D
:102B30000FD0002E0FD1A0780822F9786B4607C37A
:102B400001210C9B069A039803F04CFAB8480580C3
:102B500019E0002E08D0A0780822F9786B4607C348
:102B600001210C9B069A0BE02278A378F978D21801
:102B70000820D2B20092019102900C9B069A00218B
:102B8000039803F02FFAAB480078002803D02F20D9
:102B900001F074F901E003F0B0FD0521059803F0A0
:102BA000D2FE002861D00621059803F0CCFE002853
:102BB0005BD00321059803F0C6FE002855D10421FF
:102BC000059803F0C0FE00284FD10721059803F0B7
:102BD000BAFE002849D10021059803F0B4FE002870
:102BE00043D10121059803F0AEFE00283DD102211A
:102BF000059803F0A8FE002837D18D4800880028EA
:102C00000FD0002E0FD1E0780822F9786B4607C369
:102C100001210C9B069A039803F0E4F9844805808F
:102C200019E0002E08D0E0780822F9786B4607C337
:102C300001210C9B069A0BE02278E378F878D218F1
:102C40000821D2B20092029101900C9B069A0021B9
:102C5000039803F0C7F977480078002803D03020A4
:102C600001F00CF901E003F048FD0421059803F0A0
:102C70006AFE002868D00621059803F064FE00284B
:102C800062D00321059803F05EFE00285CD1052187
:102C9000059803F058FE002856D10721059803F047
:102CA00052FE002850D10021059803F04CFE002868
:102CB0004AD10121059803F046FE002844D10221A3
:102CC000059803F040FE00283ED1594800880028AE
:102CD00012D0002E12D1A178E27803208918C9B24F
:102CE00002900195009101210C9B069A039803F034
:102CF00079F94F4805801DE0002E0BD0A178E278CD
:102D000003208918C9B201950091029001210C9B02
:102D1000069A0CE02178A27803208918E2780195C0
:102D20008918C9B2029000910C9B069A0021039861
:102D300003F058F93F480078002803D0312001F013
:102D40009DF801E003F0D9FC0321059803F0FBFD99
:102D5000002873D00421059803F0F5FD00286DD0FC
:102D60000621059803F0EFFD002867D0052105989E
:102D700003F0E9FD002861D10721059803F0E3FD88
:102D800000285BD10021059803F0DDFD002855D116
:102D90000121059803F0D7FD00284FD102210598A5
:102DA00003F0D1FD002849D121480088002814D023
:102DB000002E14D16178A27803208918E27802905D
:102DC0008918C9B20195009101210C9B069A0398BC
:102DD00003F008F91648058021E0002E0DD0617837
:102DE000A27803208918E27801958918C9B2009168
:102DF000029001210C9B069A0EE021786278E3781C
:102E00008918A2780320D2188918C9B201950290B6
:102E100000910C9B069A0021039803F0E3F8054803
:102E20000078002808D0322001F028F806E00000E1
:102E3000460000203100002003F05FFC03210598CC
:102E400003F081FD00286BD00421059803F07BFD81
:102E5000002865D00521059803F075FD00285FD096
:102E60000621059803F06FFD002859D10721059828
:102E700003F069FD002853D10021059803F063FD9C
:102E800000284DD10121059803F05DFD002847D1B0
:102E90000221059803F057FD002841D1FE48008823
:102EA000002813D0002E13D16278A378F978D218B5
:102EB0000820D2B201910290009201210C9B069A47
:102EC000039803F08FF8F44805801FE0002E0CD023
:102ED0006278A378F978D2180820D2B201910092D2
:102EE000029001210C9B069A0DE022786378F97814
:102EF000D218A3780820D218D2B200920191029081
:102F00000C9B069A0021039803F06CF8E3480078C4
:102F1000002803D0332000F0B1FF01E003F0EDFB07
:102F20000321059803F00FFD00286BD005210598BB
:102F300003F009FD002865D00621059803F003FD84
:102F400000285FD00421059803F0FDFC002859D12A
:102F50000721059803F0F7FC002853D100210598BC
:102F600003F0F1FC00284DD10121059803F0EBFCA2
:102F7000002847D10221059803F0E5FC002841D143
:102F8000C5480088002813D0002E13D16278E3785A
:102F9000F878D2180821D2B2029101900092012152
:102FA0000C9B069A039803F01DF8BB4805801FE0B0
:102FB000002E0CD06278E378F978D2180820D2B2CB
:102FC00001910092029001210C9B069A0DE022785B
:102FD0006378F978D218E3780820D218D2B2009238
:102FE000019102900C9B069A0021039802F0FAFFCF
:102FF000AA480078002803D0342000F03FFF01E009
:1030000003F07BFB0421059803F09DFC00286BD0A6
:103010000521059803F097FC002865D00621059846
:1030200003F091FC00285FD00321059803F08BFC8E
:10303000002859D10721059803F085FC002853D1B9
:103040000021059803F07FFC00284DD1012105984F
:1030500003F079FC002847D10221059803F073FCA6
:10306000002841D18C480088002813D0002E13D1AD
:10307000A278E378F978D2180820D2B201910290B0
:10308000009201210C9B069A039802F0ABFF824844
:1030900005801FE0002E0CD0A278E378F878D218D3
:1030A0000821D2B202910092019001210C9B069A54
:1030B0000DE02278A378F978D218E3780820D218A6
:1030C000D2B20092019102900C9B069A00210398C3
:1030D00002F088FF71480078002803D0352000F006
:1030E000CDFE01E003F009FB0321059803F02BFC62
:1030F000002871D00421059803F025FC00286BD02E
:103100000521059803F01FFC002865D006210598CD
:1031100003F019FC00285FD00721059803F013FC89
:10312000002859D10021059803F00DFC002853D147
:103130000121059803F007FC00284DD102210598D4
:1031400003F001FC002847D153480088002815D01F
:10315000002E15D16278A378F878D218E378082188
:10316000D218D2B202910190009201210C9B069AD2
:10317000039802F037FF4848058023E0002E0ED068
:103180006278A378F978D218E3780820D218D2B2FE
:1031900001910092029001210C9B069A0FE0227887
:1031A0006378F878D218A378E47808211B19D2182C
:1031B000D2B20092029101900C9B069A00210398D2
:1031C00002F010FF35480078002803D0362000F0C8
:1031D00055FE01E003F091FA0721059803F0B3FBD7
:1031E000002842D00021059803F0ADFB00283CD117
:1031F0000121059803F0A7FB002836D1022105988C
:1032000003F0A1FB002830D1234C208800280DD0EA
:10321000002E0DD1012002900195014600950C9BD6
:10322000069A039802F0DEFE258014E0002E07D0F7
:10323000012001950290009501460C9B069A07E03B
:10324000397801200195029000910C9B069A00218B
:10325000039802F0C7FE11480078002803D03A20F6
:1032600000F00CFE01E003F048FA0721059803F096
:103270006AFB002840D00021059803F064FB002879
:1032800010D10121059803F05EFB00280AD102212C
:10329000059803F058FB03E04600002031000020B1
:1032A000002829D0444C208800280DD0002E0DD1B4
:1032B000012002900195014600950C9B069A039807
:1032C00002F090FE258017E0002E07D00120019526
:1032D0000290009501460C9B069A0AE039787A78AC
:1032E00001208918C9B20195029000910C9B069AA1
:1032F0000021039802F076FE0221049803F023FBDC
:10330000002857D10321049803F01DFB002851D158
:103310000421049803F017FB00284BD105210498E1
:1033200003F011FB002845D10321059803F00BFBA6
:1033300000283FD10421059803F005FB002839D16E
:103340000521059803F0FFFA002833D106210598DE
:1033500003F0F9FA00282DD10721059803F0F3FABC
:10336000002827D10021059803F0EDFA002821D18B
:103370000121059803F0E7FA00281BD102210598E6
:1033800003F0E1FA002815D1002E07D00A2001959C
:103390000290009501210C9B069A06E0019502958A
:1033A0000648009541790C9B069A039802F01AFE94
:1033B00003F0A3F907B0F0BD460000205200002042
:1033C000FFB5FF4883B0018801270025FD4C0C9E06
:1033D000002902D06771058000E065710021049822
:1033E00003F0B1FA002817D10121049803F0ABFAD9
:1033F000002811D10221049803F0A5FA00280BD16E
:103400000321049803F09FFA002805D105210498B0
:1034100003F099FA002847D00721049803F093FAA3
:10342000002841D10921049803F08DFA00283BD1EE
:103430000A21049803F087FA002835D10B2104985B
:1034400003F081FA00282FD10D21049803F07BFAB4
:10345000002829D1DC48008800280DD0002E0DD18D
:103460000095019502970121069B059A039802F0A9
:1034700077FFD548058017E0002E06D0009501950E
:1034800002970121069B059A0BE0CE48CD492330D7
:103490001E310078497800910190069B059A0297A9
:1034A0000021039802F05CFF0721049803F04BFA17
:1034B000002817D10921049803F045FA002811D1FA
:1034C0000A21049803F03FFA00280BD10B2104983D
:1034D00003F039FA002805D10D21049803F033FADE
:1034E000002847D00021049803F02DFA002841D18C
:1034F0000121049803F027FA00283BD10221049807
:1035000003F021FA002835D10321049803F01BFAB7
:1035100000282FD10521049803F015FA002829D19D
:10352000A948008800280DD0002E0DD100950195E6
:1035300002970121069B059A039802F011FFA24809
:10354000058017E0002E06D0009501950297012115
:10355000069B059A0BE09B489A4923301E31007860
:10356000097800910190069B059A02970021039823
:1035700002F0F6FE0021049803F0E5F9002817D1C7
:103580000121049803F0DFF9002811D102210498E9
:1035900003F0D9F900280BD10321049803F0D3F9E3
:1035A000002805D10521049803F0CDF9002848D062
:1035B0000721049803F0C7F9002817D109210498BE
:1035C00003F0C1F9002811D10A21049803F0BBF9D6
:1035D00000280BD10B21049803F0B5F9002805D180
:1035E0000D21049803F0AFF900282AD0764800880E
:1035F00000280DD0002E0DD10095019502970121D4
:10360000069B059A039802F0ABFE6F48058018E010
:10361000002E06D00095019502970121069B059A80
:103620000CE0684823300178401F02784078101879
:10363000C0B26A4683C2069B059A0021039802F035
:103640008FFE0021049803F07EF9002848D1012163
:10365000049803F078F9002842D10221049803F07D
:1036600072F900283CD10321049803F06CF900287A
:1036700036D10521049803F066F9002830D10721DE
:10368000049803F060F900282AD10921049803F076
:103690005AF9002824D10A21049803F054F900288B
:1036A0001ED10B21049803F04EF9002818D10D21EA
:1036B000049803F048F9002812D1002E07D00A2000
:1036C0000095019502900121069B059A05E0009561
:1036D000019502956179069B059A039802F040FED8
:1036E000E08A218B394E4018012873D937700521A3
:1036F000E08903F028F9364D002802D02878012807
:103700007BD00721E08903F01EF9002802D0287839
:10371000022874D00921E08903F015F9002802D0AD
:103720002878032870D00A21E08903F00CF90028DA
:1037300002D02878042869D00B21E08903F003F92E
:10374000002802D02878052862D00121208A03F0C1
:10375000FAF8002802D0287806285BD00221208AB7
:1037600003F0F1F8002802D02878072854D004216B
:10377000208A03F0E8F8002802D0287808284DD0E5
:103780000621208A03F0DFF8002802D028780928D3
:1037900046D00721208A03F0D6F8002802D02878E6
:1037A0000A283FD00821208A03F0CDF8002802D053
:1037B00028780B2838D00921208A03F0C4F80BE0C0
:1037C0003800002052000020460000203200002077
:1037D0003000002031E010E0002802D028780C28CA
:1037E00024D00A21208A03F0AEF8002822D02878BD
:1037F0000D281DD01EE002E006E0202000E052204F
:1038000000F03CFB07B0F0BD4820F9E75320F7E794
:103810004920F5E70120F3E70220F1E71720EFE761
:103820005520EDE75720EBE70320E9E70420E7E721
:103830005620E5E702F061FFE4E7012801D035708A
:10384000F8E70521E08903F07EF8494F002804D00D
:103850003878002801D0202082E00721E08903F099
:1038600072F8002804D03878002801D0522077E080
:103870000921E08903F067F8002804D0387800288F
:1038800001D048206CE00A21E08903F05CF80028B0
:1038900004D03878002801D0532061E00B21E08962
:1038A00003F051F8002804D03878002801D04920CE
:1038B00056E00121208A03F046F8002804D0387829
:1038C000002801D001204BE00221208A03F03BF8C0
:1038D000002804D03878002801D0022040E00421DC
:1038E000208A03F030F8002804D03878002801D06E
:1038F000172035E00621208A03F025F8002804D09F
:103900003878002801D055202AE00721208A03F0CA
:103910001AF8002804D03878002801D057201FE07A
:103920000821208A03F00FF8002804D038780028F6
:1039300001D0032014E00921208A03F004F80028B4
:1039400004D03878002801D0042009E00A21208A18
:1039500002F0F9FF002806D03878002803D056205E
:1039600000F08CFA01E002F0C8FE35704AE7000072
:1039700031000020FEB50F4604467D211646C900E1
:103980001846089DFCF7B4FB0A21FCF7B1FB5F2C3D
:1039900004D3C8B200230195009007E020465C38AC
:1039A000032809D2C8B20123019500903246394656
:1039B0002046FDF7F1FFFEBD20465938032804D20A
:1039C000C8B2022301950090F0E72046553804283C
:1039D00004D2C8B2032301950090E7E7204652388D
:1039E000032804D2C8B2042301950090DEE72046E4
:1039F0004F38032804D2C8B2052301950090D5E7BB
:103A000020464B38042804D2C8B206230195009002
:103A1000CCE720464838032804D2C8B207230195D2
:103A20000090C3E720464538032804D2C8B20823D3
:103A300001950090BAE720464238032804D2C8B264
:103A40001C2301950090B1E720463E38042804D29B
:103A5000C8B21D2301950090A8E720463B380328F3
:103A600004D2C8B20923019500909FE72046383858
:103A7000032804D2C8B20A230195009096E7204695
:103A80003438042804D2C8B20B23019500908DE786
:103A900020463138032804D2C8B20C230195009087
:103AA00084E720462E38032804D2C8B20D2301959E
:103AB00000907BE720462A38042804D2C8B20E239F
:103AC0000195009072E720462738032804D2C8B237
:103AD0000F230195009069E720462438032804D27B
:103AE000C8B210230195009060E7204621380328D2
:103AF00004D2C8B211230195009057E720461D3823
:103B0000042804D2C8B21223019500904EE7204643
:103B10001A38032804D2C8B213230195009045E750
:103B200020461738032804D2C8B214230195009008
:103B30003CE720461338042804D2C8B21523019567
:103B4000009033E720461038032804D2C8B2162369
:103B5000019500902AE720460D38032804D2C8B208
:103B600017230195009021E720460938042804D244
:103B7000C8B218230195009018E7A01F032804D2AB
:103B8000C8B219230195009010E7E01E032804D263
:103B9000C8B21A230195009008E7032C00D30AE766
:103BA000C8B21B230195009000E7F8B50E46044605
:103BB0007D211D46C9001046FCF79AFA0A21FCF740
:103BC00097FA5F2C03D3CBB20022009506E0204683
:103BD0005C38032807D2CBB201220095314620463B
:103BE000FFF7EEFBF8BD20465938032803D2CBB2CD
:103BF00002220095F2E720465538042803D2CBB2C2
:103C000003220095EAE720465238032803D2CBB2BC
:103C100004220095E2E720464F38032803D2CBB2B6
:103C200005220095DAE720464B38042803D2CBB2B0
:103C300006220095D2E720464838032803D2CBB2AB
:103C400007220095CAE720464538032803D2CBB2A5
:103C500008220095C2E720464238032803D2CBB29F
:103C60001C220095BAE720463E38042803D2CBB286
:103C70001D220095B2E720463B38032803D2CBB281
:103C800009220095AAE720463838032803D2CBB290
:103C90000A220095A2E720463438042803D2CBB28A
:103CA0000B2200959AE720463138032803D2CBB285
:103CB0000C22009592E720462E38032803D2CBB27F
:103CC0000D2200958AE720462A38042803D2CBB279
:103CD0000E22009582E720462738032803D2CBB274
:103CE0000F2200957AE720462438032803D2CBB26E
:103CF0001022009572E720462138032803D2CBB268
:103D0000112200956AE720461D38042803D2CBB261
:103D10001222009562E720461A38032803D2CBB25C
:103D2000132200955AE720461738032803D2CBB256
:103D30001422009552E720461338042803D2CBB250
:103D4000152200954AE720461038032803D2CBB24B
:103D50001622009542E720460D38032803D2CBB245
:103D6000172200953AE720460938042803D2CBB23F
:103D70001822009532E7A01F032803D2CBB21922E4
:103D800000952BE7E01E032803D2CBB21A22009540
:103D900024E7032C00D325E7CBB21B2200951DE7B7
:103DA00070B52D482D4C0078002811D02C48417C4E
:103DB000027C0902114349BAE180C17C827C08027D
:103DC000104340BA2081FDF703FC264800783FE00D
:103DD00025480078002817D0244D687829780002FB
:103DE000084340BA6421FCF783F96081E878A97838
:103DF0000002084340BAA0812846017FC27E080223
:103E0000104340BAE08170BD194800780028FAD00C
:103E1000184D0A212888A082288EFCF769F9608154
:103E2000A88E01210904081A6082E888E081A98827
:103E3000218229464031104D097A2970FDF750FB47
:103E4000E082208AFDF74CFB2083FDF765FC287893
:103E500001F0B0FE70BD00001A00002052000020EA
:103E60001E0200201E0000201B000020390200203E
:103E70001C000020620200202F00002070B50A21E3
:103E8000FCF736F90C460A21FCF732F92546054CB9
:103E90009820615C01F0E4FD615D902001F0E0FD9F
:103EA00070BD00008C00002072B6FEE710B502481D
:103EB00000F074FA10BD0000540E0020F0B5002888
:103EC00008D0014620314A79022A05D00422C26373
:103ED000002008710120F0BD026813680E24A3437E
:103EE0001360426C1468FF2301339C431460026822
:103EF00014686408640014600C4A5568066C1C243D
:103F0000264001242746B7403D435560826CC56C6E
:103F10005560026D002A05D015689D431560826DBD
:103F2000406D42604C7100200871F0BD00000240FD
:103F3000F8B50024024620325179022903D0042129
:103F4000C16301242DE001680B680E25AB430B60B3
:103F500001680B685B085B000B60416C0B68FF2518
:103F60000135AB430B6010494D68066C1C231E40A5
:103F700001231F46B7403D434D60816CC56C4D60C9
:103F8000016D002906D00E681D02AE430E60416D22
:103F9000856D4D60537100211171816B002900D036
:103FA00088472046F8BD000000000240C06B704703
:103FB000F0B42C490C6802681368056C1C273D405E
:103FC0000426AE40264211D05E070FD513689B062B
:103FD00003D4146804239C4314604B68046C0422CB
:103FE0003C40A24013434B60016B1CE00227AF40F2
:103FF000064627402036002F19D09F0717D5136893
:104000009B0605D413680A24A3431360012272712E
:104010004B68046C1C2214400222A24013434B60E4
:1040200000213171C16A00291AD0F0BC0847082765
:10403000AF40274214D01B0712D513680E24A343A8
:1040400013604B68046C1C22144001221546A540E5
:104050002B434B60C263727100213171416BE2E707
:10406000F0BC70470000024070B504003FD0254806
:10407000256814212818FCF73BF8800020640220F2
:1040800026462036707128681F4908402860E1687C
:10409000A06862690843216911430843A169084384
:1040A000E1690843216A084321680A6810430860EF
:1040B0002046FDF73DFA0121A068890300258842CA
:1040C00000D165602079616C8006800E0860A06C6C
:1040D000E16C41606068401E03280AD82046FDF765
:1040E0003FFA206D0560606DA16D416004E0012024
:1040F00070BD25656565A565E56301207071357145
:10410000002070BDF8FFFDBF0F80FFFFF8B504462B
:104110008C4620300179002501290BD0012606713B
:1041200041790027012907D08021E163077101252A
:104130002846F8BD0220F8BD02214171E7632068DE
:10414000016849084900016061462046FDF71CFAF4
:10415000206B00282068016801D00E2205E00422AF
:1041600091430160206801680A2211430160606C7C
:104170000168CA03074902D502680A430260206D3C
:10418000002802D002680A430260206801683143B7
:104190000160CDE70001000070B5044600F0C2F8F0
:1041A0000546601C02D004480078241800F0BAF8D4
:1041B000401BA042FAD370BD00000020F0B50023E0
:1041C00003249AE02A4601259D402A407ED00E799C
:1041D000B607B60F012E01D0022E16D186682746EB
:1041E000B4465E00B646B7406646BE43B446CF68A6
:1041F0007646B7406646374387604668AE430D79DA
:10420000ED06ED0F9D40354345600D79ED43AD075B
:1042100008D0C5685F002646BE40B5438E68BE40E4
:104220002E43C6600D79AD07AD0F022D0ED1DD080E
:10423000AD002D18AC462D6A5E07F60E0F27B7406D
:10424000BD430F69B7402F4365462F6205685F0085
:104250002646BE40B5430E79B607B60FBE402E4384
:1042600006604D68AD03AD0F46D09E08264DB600E2
:104270007519AC462D6E9E07F60E0F27B740BD434D
:1042800005273F07B84201D100270FE01F4FB84272
:1042900001D101270AE01E4FB84201D1022705E0F3
:1042A0001C4FB84201D1032700E00527B7402F4338
:1042B000154D664637662D684E689543F60200D563
:1042C0001543114F3D607D68954300E014E04E6852
:1042D000B60200D515437D600B4D80356E684F6882
:1042E0009643BF0300D516436E602E684F68964311
:1042F000FF0300D516432E605B1C0A681546DA40A2
:1043000000D05FE7F0BD000000180240000400503C
:1043100000080050000C0050002A01D08161704755
:1043200081627047014880687047000000000020EB
:1043300070B504000FD02168154808602168154841
:10434000086003CC41602068083C21688860FFF762
:10435000E9FF05460CE0012070BDFFF7E3FF401BBD
:10436000312805D92068C068400701D0032070BDFE
:104370002068C0684007F0D120680269E1688A427D
:1043800001D0016101E004490160002070BD00001E
:10439000CCCC000055550000AAAA000000680249D4
:1043A0000160002070470000AAAA0000024881684E
:1043B00002788918816070470000002010B5084815
:1043C00000240168821511430160032000F00AF8FF
:1043D000002801D0012401E000F028F8204610BD9B
:1043E0000020024070B50F4E0024317805460029A8
:1043F00015D07D20C000FBF77BFE01460A4800680F
:10440000FBF776FE00F030FC002808D1042D06D220
:1044100000222946401E00F02BF8756000E00124C0
:10442000204670BD000000200C00002008B509489F
:1044300001680122114301600068104000900548A6
:104440004038C26B01040A43C263C06B084000904D
:1044500008BD000040100240002805DBC106C90E5F
:1044600001208840014908607047000000E100E039
:1044700010B503F085F910BD10B50F4C216803226B
:104480005202914301432160C11FFF39FA390ED115
:104490000A480621006848430949FBF729FE401CE9
:1044A00002E0002805D0401E61694905F9D40020CA
:1044B00010BD032010BD0000007000400C00002063
:1044C00040420F00F8B5044600680026664D8003A0
:1044D00058D5654800274038C06BC00009D46248F1
:1044E0004038C26B01040A43C263C06B0840012715
:1044F00000905E480168821511430160FFF712FFCA
:10450000009005E0FFF70EFF0099401A022825D819
:1045100056480068C005F5D5E8690321090208403E
:104520000FD0616A81420CD0E86903210902EA696F
:104530008843012109040A43EA61EA698A43EA617E
:10454000E861C0070FD0FFF7EDFE009008E0FFF72D
:10455000E9FE0099411A4648814201D9032609E043
:10456000E8698007F3D5E869032109028843616A95
:104570000843E861002F05D03B484038C26B010476
:104580008A43C2632078C00705D0686961688008E3
:104590008000084368612078C00606D56869032159
:1045A00089028843A168084368612088800506D590
:1045B0006869032189048843616908436861208828
:1045C000400506D56869032109058843A1690843A8
:1045D00068612078800606D568690321090388434D
:1045E000E168084368612088400411D56869E16981
:1045F00080008008084368610121E06989078842DA
:1046000006D119484038C168012212041143C16023
:104610002068800210D5686901218905226A8843D3
:1046200010436861206A884206D10F484038C1684B
:10463000012212061143C1602088000512D5686965
:1046400003218903884321690843686101212069A6
:104650008903884206D104484038C1680122120407
:104660001143C1603046F8BD401002400070004068
:1046700088130000F8B50F46060043D04D4D28685A
:104680004007400FB84213D22868C008C000384322
:104690002860FFF747FE044605E0FFF743FE011BD5
:1046A0004548814261D828684007400FB842F4D19C
:1046B0003068424C81070DD5400704D5A06807211A
:1046C00009030843A060A0680F2109028843B1686C
:1046D0000843A0603078C00732D0706801280AD043
:1046E00002280BD000280FD03449403103280ED0C7
:1046F000C969890704E02168890301E0216889010B
:10470000002906DB0120F8BD21684905F8E7096AA0
:10471000EFE7A168C908C9000143A160FFF702FEE5
:10472000009006E0FFF7FEFD0099411A2248814201
:104730001BD8A068382108407168C9008842F1D1AF
:1047400028684007400FB84217D91A480168C908BD
:10475000C90039430160FFF7E5FD054607E0FFF7B3
:10476000E1FD411B1448814201D90320F8BD1148E5
:1047700000684007400FB842F1D13078400706D5B5
:10478000A068072109038843F1680843A06000F08E
:1047900031F8A1683C2289091140094A515CC906D7
:1047A000C90EC8400749086007480068FFF71AFEAD
:1047B000F8BD0000002002408813000000100240F5
:1047C000347A00080C000020040000200648074945
:1047D00000688968064A4904490F8900515CC90686
:1047E000C90EC840704700000C00002000100240B5
:1047F000747A000810B5204CA068204A8006400F4B
:1048000016D0A0688006410F501001290FD0A16872
:104810008906490F022912D0A0688006400F04289B
:1048200023D0A0688006400F032821D0002010BDAF
:10483000206801218004400F8140104612E0E168A9
:104840008B07E1689B0F4906490F491C032B00D0D9
:104850001046FBF74DFCE1684904490E4843E16806
:10486000490F491CFBF744FC10BD0120C00310BDDB
:104870007D20000210BD0000001002400024F40062
:10488000F8B504007ED020783827C007ED4D002809
:1048900046D0A868E96838408907890F102802D0F7
:1048A00008280BD001E0032908D001206268000429
:1048B00082420AD129680143296015E028688003F3
:1048C0002ED560680028DDD02AE0052301211B04D5
:1048D00089049A422A6802D10A432A60EAE782439D
:1048E0002A60286888432860606800280CD0FFF799
:1048F00019FD064604E0FFF715FD801B642873D8F8
:1049000028688003F7D50BE0FFF70CFD064604E0AE
:10491000FFF708FD801B6428F1D828688003F7D4CE
:104920002078800769D5A868E96838408A07072198
:10493000920FC902102802D0002813D001E0022AE9
:1049400010D0E068002846D02868884321690843D1
:1049500028602868FF21013108432860FFF7E2FC46
:1049600006462CE02A68520502D5E268002A89D062
:104970006A687F231B029A4363691B021A436A60B9
:10498000002800E08DE00ED12868884321690843A3
:104990002860286801218004400F8140AA48FBF765
:1049A000A7FBAA490860AA480068FFF71BFD00287A
:1049B00077D122E0FFF7B6FC801B02289FD8286839
:1049C0004005F7D568687F210902884361690902BB
:1049D0000843686011E02968FF20013081432960A5
:1049E000FFF7A0FC064605E098E0FFF79BFC801B64
:1049F000022884D828684005F7D42078954E00070F
:104A00002ED5A8688006400F03280AD0A069002888
:104A1000306A16D0012108433062FFF783FC074655
:104A20000BE0306A80071BD5A06900289FD017E0F3
:104A3000FFF778FCC01B022870D8306A8007F7D5D2
:104A40000EE0400840003062FFF76CFC074604E0CF
:104A5000FFF768FCC01B022860D8306A8007F7D4D3
:104A6000207840076CD5A86800278006400F0428EE
:104A700018D0E86BC00008D4E96B0120000701439F
:104A8000E963E96B01400127009173480168C9059A
:104A900019D40168821511430160FFF743FC0090AF
:104AA0000DE083E0F06980074AD5A06800287DD03A
:104AB00046E0FFF737FC0099401A02282ED86648D6
:104AC0000068C005F5D5A168012910D0042005298A
:104AD000F16911D049084900F161F1698143F1613F
:104AE000A068002816D0FFF71DFC00900EE0F069CA
:104AF00001210843F061F3E70143F161F7E7FFF7B4
:104B000011FC0099411A5548814267D8F069800725
:104B1000F5D50EE0FFF706FC009007E05EE0FFF73A
:104B200001FC0099411A4D48814257D8F06980072D
:104B3000F5D4002F04D0E86B012109078843E8630E
:104B4000E06900287BD0A9688906490F02294FD067
:104B5000012636060228286805D0B0432860FFF7F2
:104B6000E1FB04463CE0B0432860FFF7DBFB07466F
:104B700004E0FFF7D7FBC01B02282FD8286880016C
:104B8000F7D4616A206AA26A0843E16A12021143FB
:104B90000843216B0843616B0843E968304A1140C0
:104BA0000843E86028683043286000E045E0E86892
:104BB000012109070843E860FFF7B4FB044604E05D
:104BC000FFF7B0FB001B022808D828688001F7D542
:104BD00035E0FFF7A7FB001B022801D90320F8BD31
:104BE00028688001F5D4E8681E490840E86026E09E
:104BF0000128F4D0E868226A8107890F91421CD10C
:104C00007021626A0140914217D17F21A26A090294
:104C100001401202914210D11F214904E26A014071
:104C200091420AD107214906226B0140914204D1E9
:104C3000400F616B4007884201D00120F8BD002081
:104C4000F8BD0000001002400024F4000C00002019
:104C50000400002040100240007000408813000053
:104C60008C80C111FCFFFEEE094910B5401E884240
:104C700001D9012010BD074C60610321081F02F01B
:104C80007FFD0020A06107202061002010BD0000F2
:104C9000FFFFFF0000E000E070477047704770B50D
:104CA000040005D025462035687F002802D006E0A4
:104CB000012070BD00202877204600F016F8022061
:104CC0006877211D206801F04FFF012240342272D5
:104CD000AA77EA7722706270A270E2702271627124
:104CE000A271E2716A77002070BD704701462031E1
:104CF0004A7F012A01D00120704702224A770068CA
:104D00000B490122884205D09107884202D0094907
:104D1000884207D18168084B1940062905D0DB1F5E
:104D2000994202D0016811430160002070470000E1
:104D3000002C014000040040070001000146203122
:104D40004A7F012A01D00120704702224A77016878
:104D5000CB6801221343CB6000680B49884205D021
:104D60009107884202D00949884207D18168084BDF
:104D70001940062905D0DB1F994202D00168114372
:104D80000160002070470000002C0140000400403A
:104D9000070001007047000070B504460068016913
:104DA0000025C9438907002915DBC168C943890764
:104DB00011D4E91E016101202077206880698007F5
:104DC000204602D0FFF7E6FF04E000F0A7F82046F7
:104DD00000F0A5F8257720680169C943490717D471
:104DE000C168C943490713D40421C94301610220A2
:104DF0002077206880698005800F204602D0FFF769
:104E0000C9FF04E000F08AF8204600F088F8257712
:104E100020680169C943090716D4C168C943090755
:104E200012D40821C9430161042020772068C06999
:104E30008007204602D0FFF7ADFF04E000F06EF8D7
:104E4000204600F06CF8257720680169C943C9063F
:104E500017D4C168C943C90613D41021C9430161DD
:104E6000082020772068C0698005800F204602D086
:104E7000FFF790FF04E000F051F8204600F04FF8F3
:104E8000257720680169C943C90708D1C168C943AA
:104E9000C90704D1891E0161204600F041F820684D
:104EA0000169C943090609D4C168C943090605D483
:104EB0008021C94301612046FFF7EFFE20680169A8
:104EC000C943C90508D4C168C943090604D41249B5
:104ED00001612046FFF7E0FE20680169C9434906E9
:104EE00009D4C168C943490605D44021C9430161B9
:104EF000204600F033F820680169C943890609D4C7
:104F0000C168C943890605D42021C94301612046EF
:104F1000FFF7C4FE70BD0000FFFEFFFF7047704743
:104F200001680C4802680C48914201D1006805E014
:104F3000084A4C321268914203D14068002807D0D9
:104F40000047044A98321268914201D18068F5E71F
:104F500070470000700D0020F0000020704710B571
:104F6000014680310A78012A15D001220A702422D4
:104F70004A600268136814686408640014600122BF
:104F80005207934300224266006803602020486075
:104F90000A70104610BD022010BD70B50446803066
:104FA0008368202B2FD100290BD0002A09D001259E
:104FB000A3682D03AB4206D12369002B03D1CB0795
:104FC00001D0012070BD0378012B1CD00123037098
:104FD000E366204602F0F8FA010003D1E06E0128F2
:104FE00002D00121084670BD206810220262EFF352
:104FF0001080012383F3108823681C6814431C600D
:1050000080F31088EEE7022070BD000010B5046840
:105010001148124B421584420CD1D960196899602D
:105020001C680F498C4200D1891819605A605A686F
:1050300019680EE00B4884420DD119625969D96193
:105040005C6909498C4200D1084959619A619A69A1
:10505000596902F029F910BD00380140480D0020BF
:10506000480500200044004048090020480B00206B
:10507000704770B5044605468034207801281AD060
:1050800001202070242060602868066802685208A9
:10509000520002602868826807235B069A430A432D
:1050A0008260284601F0BAFF286806602020606010
:1050B0000020207070BD022070BD70B5044605460A
:1050C00080342078012819D00120207024206060CD
:1050D00028680668026852085200026028688268E0
:1050E000D200D2080A438260284601F097FF286860
:1050F0000660202060600020207070BD022070BD1E
:1051000070477047F8B50546044680356868AE6854
:1051100021688A6810271206002A1BDA212819D173
:10512000EFF31080012282F310888A6880239A436B
:105130008A6080F31088A06F002808D0FEF7BEFEBA
:10514000002804D0A06FFEF731FF202824D020468D
:1051500002F016F92168886840061BD5222E19D165
:10516000EFF31080012282F310888A6840239A436B
:105170008A6080F31088E06F002808D0FEF79EFE5A
:10518000002804D0E06FFEF711FF202804D020464D
:1051900002F0C4F80020F8BDEF600320F8BD000065
:1051A00010B5026807480849824202D14A68096876
:1051B00004E00648824203D18A69496902F074F822
:1051C00010BD000000380140480D002000440040A0
:1051D000F8B503680446D96918689A68B24D0E4656
:1051E0002E4025468035002E75D0B04EB04F16406B
:1051F000074037436ED0CF0706D0C70504D5012737
:105200001F62EB683B43EB608B0708D5D30706D0E2
:10521000276802233B62EB6804273B43EB604B07A4
:1052200008D5D30706D0276804233B62EB68022722
:105230003B43EB600B0709D520230340334305D0E4
:10524000266808233362EE681E43EE600B0509D51D
:10525000430107D501232668DB023362EB68202671
:105260003343EB60EB68002B42D089060AD520213E
:105270000840C9050A40104304D0216F002901D01D
:1052800020468847E86821688968490602D42821B1
:10529000084232D0204602F041F821688868400672
:1052A00027D5EFF31080012282F310888B6840220B
:1052B00093438B6080F31088E06F002819D07D49FC
:1052C0008163E06FFEF734FE002811D0E06F816B40
:1052D0000DE000E017E08E0615D5012720263F07D8
:1052E000064017403E430ED0216FB1E0204688476C
:1052F000F8BD2046FFF754FFF8BD2046FFF750FFEA
:105300000020E860F8BDE66E012E7CD1CE067AD58D
:10531000C60678D510221A62236898682646400689
:105320004036002847DAE16F086840680004000C46
:10533000E8D0B78B8742E5D9F0830868006880061B
:1053400034D4EFF31080012181F31088196817011C
:10535000B943196080F31088EFF31080012181F3C5
:10536000108821688B685B085B008B6080F3108875
:10537000EFF31080012181F3108821688B684027AA
:10538000BB438B6080F310882020A8600020E0667B
:10539000EFF31080012181F3108821680B6893439B
:1053A0000B6080F31088E06FFEF788FDB08BF18B07
:1053B000401A81B233E0B08BF18B401A81B2F08B8E
:1053C00000289FD000299DD0EFF31080012686F39E
:1053D00010881E68FF272137BE431E6080F31088A7
:1053E000EFF31080012383F3108823689E682F4F0A
:1053F000FF433E409E6080F310882020A86000207C
:10540000E066206700E00EE0EFF31080012383F3F5
:10541000108823681D6895431D6080F3108820461E
:10542000FFF7F4FDF8BDCE0208D5560206D50120DF
:10543000000518622046FFF764FEF8BD0E060BD586
:1054400001278026FF0506403A40164304D0616FCD
:10545000002900D04AE7F8BD4A0614D5420612D505
:105460002046EFF31081012282F310881C6840224D
:1054700094431C6081F310882021696000214167FA
:1054800000F0BFF8F8BD0A0205D5420003D520465A
:10549000FFF736FEF8BDC901FCD50028FADA204630
:1054A000FFF7E6FDF8BD00000F0800000100001046
:1054B000200100049171000870B5040005D0254654
:1054C00080356868002802D006E0012070BD002009
:1054D0002870204600F026F82420686020680168C3
:1054E000490849000160204601F068FF0128EDD01D
:1054F000A06A002802D0204601F0B2FD2068416871
:105500000922D20291434160206881682A22914396
:10551000816020680168012211430160204601F08A
:1055200005FE70BD704770477047FFB506460446DC
:105530008036706883B00D46202860D1002D0CD0D5
:105540000598002809D00120A1680003814207D1F5
:105550002069002804D1E80702D0012007B0F0BD7F
:10556000307801284BD0012030700020F0602120DD
:105570007060FEF7D7FE0190274640370598B88245
:105580000598F8820120A1680003814202D12069B8
:10559000002804D0029500250020307015E000207E
:1055A0000290F9E700228021204602F065F80028E9
:1055B00018D10298002817D02168007888620298D4
:1055C000401C0290F88A401EF882F88A019B00284D
:1055D00006980090E6D100224021204602F04CF8C7
:1055E000002808D00320B9E728882168C005C00D2D
:1055F0008862AD1CE6E7202070600020AEE7022044
:10560000ACE7704710B502F015F90A2002F0F8F87F
:1056100005242407012210212046FEF77DFE0122E9
:1056200020212046FEF778FE012280212046FEF749
:1056300073FE642002F0E4F8022000F037F85220F4
:1056400000F034F8302000F031F80A2000F02EF895
:10565000062000F02BF810BD10B50A2002F0D0F89B
:10566000012211461048FEF757FE052424070122A7
:1056700020212046FEF750FE012280212046FEF721
:105680004BFE642002F0BCF8022000F0A7F8522084
:1056900000F0A4F8302000F0A1F80A2000F09EF8F5
:1056A000062000F09BF810BD0004005070B50525E1
:1056B00006462D07002210212846FEF72DFE012068
:1056C00002F09EF8002280212846FEF725FE0120E8
:1056D00002F096F8012220212846FEF71DFE012047
:1056E00002F08EF8012280212846FEF715FE0120E7
:1056F00002F086F8002280212846FEF70DFE0120E8
:1057000002F07EF8002220212846FEF705FE012047
:1057100002F076F8012280212846FEF7FDFD0120E7
:1057200002F06EF8002280212846FEF7F5FD0120E8
:1057300002F066F8002220212846FEF7EDFD012048
:1057400002F05EF8012280212846FEF7E5FD0120E7
:1057500002F056F8002280212846FEF7DDFD0120E8
:1057600002F04EF8002220212846FEF7D5FD012048
:1057700002F046F8012280212846FEF7CDFD0120E7
:1057800002F03EF80024002280212846FEF7C4FDE6
:10579000012002F035F83046A040000601D5012274
:1057A00000E0002220212846FEF7B6FD012002F08D
:1057B00027F8012280212846FEF7AEFD012002F0E5
:1057C0001FF8641CE4B2082CDDD301221021284606
:1057D000FEF7A2FD012002F013F870BDF8B54C4FA2
:1057E0000646002201213846FEF796FD012002F010
:1057F00007F805252D07002280212846FEF78CFD9D
:10580000012001F0FDFF012220212846FEF784FD42
:10581000012001F0F5FF012280212846FEF77CFDE2
:10582000012001F0EDFF002280212846FEF774FDE3
:10583000012001F0E5FF002220212846FEF76CFD43
:10584000012001F0DDFF012280212846FEF764FDE2
:10585000012001F0D5FF002280212846FEF75CFDE3
:10586000012001F0CDFF002220212846FEF754FD43
:10587000012001F0C5FF012280212846FEF74CFDE2
:10588000012001F0BDFF002280212846FEF744FDE3
:10589000012001F0B5FF002220212846FEF73CFD43
:1058A000012001F0ADFF012280212846FEF734FDE2
:1058B000012001F0A5FF0024002280212846FEF7E8
:1058C0002BFD012001F09CFF3046A040000601D5D1
:1058D000012200E0002220212846FEF71DFD0120C4
:1058E00001F08EFF012280212846FEF715FD0120E0
:1058F00001F086FF641CE4B2082CDDD301221146BE
:105900003846FEF709FD012001F07AFFF8BD0000DE
:1059100000040050F8B505240E460746240700226F
:1059200010212046FEF7F8FC012001F069FF00225B
:1059300080212046FEF7F0FC012001F061FF0122EA
:1059400020212046FEF7E8FC012001F059FF01224A
:1059500080212046FEF7E0FC012001F051FF0022EB
:1059600080212046FEF7D8FC012001F049FF0022EB
:1059700020212046FEF7D0FC012001F041FF01224A
:1059800080212046FEF7C8FC012001F039FF0022EB
:1059900080212046FEF7C0FC012001F031FF0122EA
:1059A00020212046FEF7B8FC012001F029FF01224A
:1059B00080212046FEF7B0FC012001F021FF0025E8
:1059C000002280212046FEF7A7FC012001F018FFED
:1059D0003846A840000601D5012200E0002220211F
:1059E0002046FEF799FC012001F00AFF01228021E8
:1059F0002046FEF791FC012001F002FF6D1CEDB284
:105A0000062DDDD300250727002280212046FEF742
:105A100083FC012001F0F4FE791B3046C840C0072A
:105A200001D0012200E0002220212046FEF774FC74
:105A3000012001F0E5FE012280212046FEF76CFCEA
:105A4000012001F0DDFE6D1CEDB2082DDCD301223A
:105A500010212046FEF760FC012001F0D1FEF8BDC8
:105A6000F8B50E460746002201215048FEF754FCC7
:105A7000012001F0C5FE05242407002280212046D4
:105A8000FEF74AFC012001F0BBFE01222021204646
:105A9000FEF742FC012001F0B3FE012280212046E6
:105AA000FEF73AFC012001F0ABFE002280212046E7
:105AB000FEF732FC012001F0A3FE00222021204647
:105AC000FEF72AFC012001F09BFE012280212046E6
:105AD000FEF722FC012001F093FE002280212046E7
